:020000040000FA
:10000000C6308900880195288312F60B0428F70B67
:100010000428F80B0428790882070A128A110E2C8A
:100020000A128A15152F0A128A11D52A0A128A1164
:10003000182B0A128A11182B0A128A11C7290A16BC
:100040008A11182D0A168A154B290A128A151229A7
:100050000A128A117B2B0A128A117B2B0A128A112F
:10006000322A0A128A11B7280A128A11B7280A12EC
:100070008A11B7280A128A11B728861E3D28061A47
:100080004828061AFF34861A41280230FC006228EC
:10009000061E4F28861A48280330FC006228861A5C
:1000A0004F28FE34831606168312861E5528061E18
:1000B0005528061A5928861E5528861A5D280310C9
:1000C000FC017C14861E62280310061A0314FC0D22
:1000D000861A6828031C62280612831606128312E9
:1000E000861E7028861A722883160616831200341C
:1000F00006120830FB007E28861A7C288316061616
:10010000FC1F06128312861E8328FC0DFB0B7C2825
:10011000861A8828831606168312861E8D280030BC
:10012000061AFF30861A92280800850183161730B8
:100130008500C030810010308B0031308600FF30E8
:10014000880004308900B9308700031788018901CD
:100150000830870003135630990000309A0024308D
:100160009800000083129030980083139F01E020D4
:10017000FA0170088910701A89148A010F39F90080
:100180000310F90D79078610701F0C28F900730A07
:10019000F600720AF700710AF8008316011370085E
:1001A0008039031D011783128B108B1764217C0883
:1001B000F33A031DD628DC30FC007C218B13B728D2
:1001C00064217C08F83A031D2829DC30FC007C21DE
:1001D000203084004030F7000008FC00840A7C21B5
:1001E000FF39031D1C29F70BEC284030F70084175A
:1001F00084030008FC0084037C21FF39031D1C29B3
:10020000F70BF9284030F7008317840A0008FC0038
:10021000840A7C21FF39031D1C29F70B0629403075
:10022000F700841384030008FC0084037C21FF3959
:10023000031D1C29F70B1329841383137D08FC006D
:100240007C21FC017C217C217E08FC007C21E028B3
:100250007C08F93A031D4829DD30FC007C2101307F
:10026000FC007C210030FC007C217008FC007C211B
:100270007108FC007C217208FC007C217308FC00E2
:100280007C217408FC007C217508FC007C21E0289E
:100290007C08FA3A031DE028DE30FC007C2167214F
:1002A0007C08DF392038F00067217C08F1006721E5
:1002B0007C08F20067217C08F30067217C08F400C9
:1002C00067217C08F5000800051D52286929051DD5
:1002D0005F2818168C1E6929181D70291A086929AB
:1002E000981C7829181218161A088C1A742969296A
:1002F0001A08FC0018120034051D78280C1E7E29EF
:100300007C08990000340130F602031CF702F6085D
:10031000031D8429F708031D842908008000861422
:100320008313FD01831687100715051285168312A6
:10033000871005127D17051C7D13851C7D13851CF8
:10034000FD170718FD158714051683168714071166
:10035000051685128312071185127D16051C7D1264
:10036000851C7D12851CFD1607187D150715851641
:1003700089100615861186100910BE29000008088C
:1003800009148614891006118611FE00B728091079
:100390003F30F800203084007508F6007408F7003C
:1003A000000083210808091409108000840A7508D8
:1003B000F6007408F7008321F80BD2290000080822
:1003C00009140910800084173F30F8007508F60002
:1003D0007408F70083210000080809140910800040
:1003E00084037508F6007408F7008321F80BEC29E4
:1003F0000000080809140910800083173F30F80036
:100400007508F6007408F700832100000808091435
:1004100009108000840A7508F6007408F70083212B
:10042000F80B062A0000080809140910800084133C
:100430003F30F8007508F6007408F70083210000CB
:10044000080809140910800084037508F600740870
:10045000F7008321F80B202A0000080809148A11EC
:100460000A128E2909108914203084000808091402
:10047000091089108000840A1F30F8007508F60002
:100480007408F70083210000080809140910891472
:100490008000840A08080914091089108000840A61
:1004A0007508F6007408F7008321F80B442A000051
:1004B0000808091409108914800084170808091411
:1004C00009108910800084031F30F8007508F600B9
:1004D0007408F70083210000080809140910891422
:1004E000800084030808091409108910800084031F
:1004F0007508F6007408F7008321F80B6C2A0000D9
:1005000008080914091089148000831708080914C1
:10051000091089108000840A1F30F8007508F60061
:100520007408F700832100000808091409108914D1
:100530008000840A08080914091089108000840AC0
:100540007508F6007408F7008321F80B942A000060
:100550000808091409108914800084130808091474
:1005600009108910800084031F30F8007508F60018
:100570007408F70083210000080809140910891481
:10058000800084030808091409108910800084037E
:100590007508F6007408F7008321F80BBC2A0000E8
:1005A000080809148A110A128E2909103F30F60032
:1005B0002030840000000808091409108000840A13
:1005C000F60BDB2A000008080914091080008417C4
:1005D0003F30F60000000808091409108000840369
:1005E000F60BEB2A00000808091409108000831795
:1005F0003F30F60000000808091409108000840A42
:10060000F60BFB2A00000808091409108000841367
:100610003F30F60000000808091409108000840328
:10062000F60B0B2B0000080809148A110A128E29F8
:1006300009103F30F600203084001E2B701D212B46
:1006400077230808091409108000840A701D292BDB
:1006500077230000F60B212B00000808091409106D
:10066000800084173F30F600352B701D382B772320
:1006700008080914091080008403701D402B77239B
:100680000000F60B382B0000080809140910800040
:1006900083173F30F6004C2B701D4F2B7723080833
:1006A000091409108000840A701D572B772300005D
:1006B000F60B4F2B00000808091409108000841362
:1006C0003F30F600632B701D662B77230808091452
:1006D000091080008403701D6E2B77230000F60B39
:1006E000662B0000080809148A110A128E29782B3B
:1006F00000007A2B080009108914203084000808B3
:100700000914091089108000840A1F30F800701C39
:1007100078237A2308080914091089148000840AB0
:1007200008080914091089108000840A701C7823B5
:10073000992B0000F80B8A2B0000080809140910F7
:100740008914800084170808091409108910800092
:1007500084031F30F800701C78237A2308080914DA
:1007600009108914800084030808091409108910ED
:1007700080008403701C7823BD2B0000F80BAE2B87
:10078000000008080914091089148000831708085C
:100790000914091089108000840A1F30F800701CA9
:1007A00078237A2308080914091089148000840A20
:1007B00008080914091089108000840A701C782325
:1007C000E12B0000F80BD22B0000080809140910D7
:1007D0008914800084130808091409108910800006
:1007E00084031F30F800701C78237A23080809144A
:1007F000091089148000840308080914091089105D
:1008000080008403701C7823052C0000F80BF62B65
:100810000000080809148A110A128E2909102030D4
:10082000840000000914091008088000840A0914D3
:10083000091008088000840A0914091008088000BB
:10084000840A0914091008088000840A0914091090
:1008500008088000840A0914091008088000840A26
:100860000914091008088000840A091409100808EE
:100870008000840A0914091008088000840A0914F9
:10088000091008088000840A09140910080880006B
:10089000840A0914091008088000840A0914091040
:1008A00008088000840A0914091008088000840AD6
:1008B0000914091008088000840A0914091008089E
:1008C0008000840A0914091008088000840A0914A9
:1008D000091008088000840A09140910080880001B
:1008E000840A0914091008088000840A09140910F0
:1008F00008088000840A0914091008088000840A86
:100900000914091008088000840A0914091008084D
:100910008000840A0914091008088000840A091458
:10092000091008088000840A0914091008088000CA
:10093000840A0914091008088000840A091409109F
:1009400008088000840A0914091008088000840A35
:100950000914091008088000840A091409100808FD
:100960008000840A0914091008088000840A091408
:10097000091008088000840A09140910080880007A
:10098000840A0914091008088000840A091409104F
:1009900008088000840A0914091008088000840AE5
:1009A0000914091008088000840A091409100808AD
:1009B0008000840A0914091008088000840A0914B8
:1009C000091008088000840A09140910080880002A
:1009D000840A0914091008088000840A09140910FF
:1009E00008088000840A0914091008088000840A95
:1009F0000914091008088000840A0914091008085D
:100A00008000840A0914091008088000840A091467
:100A1000091008088000840A0914091008088000D9
:100A2000840A0914091008088000840A09140910AE
:100A300008088000840A0914091008088000840A44
:100A40000914091008088000840A0914091008080C
:100A50008000840A0914091008088000840A091417
:100A6000091008088000840A091409100808800089
:100A7000840A0914091008088000840A091409105E
:100A800008088000840A0914091008088000840AF4
:100A90000914091008088000840A091409100808BC
:100AA00080008417091409100808800084030914C1
:100AB0000910080880008403091409100808800040
:100AC000840309140910080880008403091409101C
:100AD00008088000840309140910080880008403B2
:100AE0000914091008088000840309140910080873
:100AF0008000840309140910080880008403091485
:100B000009100808800084030914091008088000EF
:100B100084030914091008088000840309140910CB
:100B20000808800084030914091008088000840361
:100B30000914091008088000840309140910080822
:100B40008000840309140910080880008403091434
:100B5000091008088000840309140910080880009F
:100B6000840309140910080880008403091409107B
:100B70000808800084030914091008088000840311
:100B800009140910080880008403091409100808D2
:100B900080008403091409100808800084030914E4
:100BA000091008088000840309140910080880004F
:100BB000840309140910080880008403091409102B
:100BC00008088000840309140910080880008403C1
:100BD0000914091008088000840309140910080882
:100BE0008000840309140910080880008403091494
:100BF00009100808800084030914091008088000FF
:100C000084030914091008088000840309140910DA
:100C10000808800084030914091008088000840370
:100C20000914091008088000840309140910080831
:100C30008000840309140910080880008403091443
:100C400009100808800084030914091008088000AE
:100C5000840309140910080880008403091409108A
:100C60000808800084030914091008088000840320
:100C700009140910080880008403091409100808E1
:100C800080008403091409100808800084030914F3
:100C9000091008088000840309140910080880005E
:100CA000840309140910080880008403091409103A
:100CB00008088000840309140910080880008403D0
:100CC0000914091008088000840309140910080891
:100CD00080008403091409100808800084030914A3
:100CE000091008088000840309140910080880000E
:100CF00084030914091008088000840309140910EA
:100D0000080880008403091409100808800084037F
:100D10000914091008088000840309140910080840
:100D2000800083170914091008088000840A091438
:100D3000091008088000840A0914091008088000B6
:100D4000840A0914091008088000840A091409108B
:100D500008088000840A0914091008088000840A21
:100D60000914091008088000840A091409100808E9
:100D70008000840A0914091008088000840A0914F4
:100D8000091008088000840A091409100808800066
:100D9000840A0914091008088000840A091409103B
:100DA00008088000840A0914091008088000840AD1
:100DB0000914091008088000840A09140910080899
:100DC0008000840A0914091008088000840A0914A4
:100DD000091008088000840A091409100808800016
:100DE000840A0914091008088000840A09140910EB
:100DF00008088000840A0914091008088000840A81
:100E00000914091008088000840A09140910080848
:100E10008000840A0914091008088000840A091453
:100E2000091008088000840A0914091008088000C5
:100E3000840A0914091008088000840A091409109A
:100E400008088000840A0914091008088000840A30
:100E50000914091008088000840A091409100808F8
:100E60008000840A0914091008088000840A091403
:100E7000091008088000840A091409100808800075
:100E8000840A0914091008088000840A091409104A
:100E900008088000840A0914091008088000840AE0
:100EA0000914091008088000840A091409100808A8
:100EB0008000840A0914091008088000840A0914B3
:100EC000091008088000840A091409100808800025
:100ED000840A0914091008088000840A09140910FA
:100EE00008088000840A0914091008088000840A90
:100EF0000914091008088000840A09140910080858
:100F00008000840A0914091008088000840A091462
:100F1000091008088000840A0914091008088000D4
:100F2000840A0914091008088000840A09140910A9
:100F300008088000840A0914091008088000840A3F
:100F40000914091008088000840A09140910080807
:100F50008000840A0914091008088000840A091412
:100F6000091008088000840A091409100808800084
:100F7000840A0914091008088000840A0914091059
:100F800008088000840A0914091008088000840AEF
:100F90000914091008088000840A091409100808B7
:100FA00080008413091409100808800084030914C0
:100FB000091008088000840309140910080880003B
:100FC0008403091409100808800084030914091017
:100FD00008088000840309140910080880008403AD
:100FE000091409100808800084030914091008086E
:100FF0008000840309140910080880008403091480
:1010000009100808800084030914091008088000EA
:1010100084030914091008088000840309140910C6
:10102000080880008403091409100808800084035C
:10103000091409100808800084030914091008081D
:10104000800084030914091008088000840309142F
:10105000091008088000840309140910080880009A
:101060008403091409100808800084030914091076
:10107000080880008403091409100808800084030C
:1010800009140910080880008403091409100808CD
:1010900080008403091409100808800084030914DF
:1010A000091008088000840309140910080880004A
:1010B0008403091409100808800084030914091026
:1010C00008088000840309140910080880008403BC
:1010D000091409100808800084030914091008087D
:1010E000800084030914091008088000840309148F
:1010F00009100808800084030914091008088000FA
:1011000084030914091008088000840309140910D5
:10111000080880008403091409100808800084036B
:10112000091409100808800084030914091008082C
:10113000800084030914091008088000840309143E
:1011400009100808800084030914091008088000A9
:101150008403091409100808800084030914091085
:10116000080880008403091409100808800084031B
:1011700009140910080880008403091409100808DC
:1011800080008403091409100808800084030914EE
:101190000910080880008403091409100808800059
:1011A0008403091409100808800084030914091035
:1011B00008088000840309140910080880008403CB
:1011C000091409100808800084030914091008088C
:1011D000800084030914091008088000840309149E
:1011E0000910080880008403091409100808800009
:1011F00084030914091008088000840309140910E5
:10120000080880008403091409100808800084037A
:1012100009140910080880008403091408088A11B9
:101220000A128E2909108914203084000808091434
:10123000091089108000840A08080914091089140B
:101240008000840A08080914091089108000840AA3
:1012500008080914091089148000840A0808091470
:10126000091089108000840A0808091409108914DB
:101270008000840A08080914091089108000840A73
:1012800008080914091089148000840A0808091440
:10129000091089108000840A0808091409108914AB
:1012A0008000840A08080914091089108000840A43
:1012B00008080914091089148000840A0808091410
:1012C000091089108000840A08080914091089147B
:1012D0008000840A08080914091089108000840A13
:1012E00008080914091089148000840A08080914E0
:1012F000091089108000840A08080914091089144B
:101300008000840A08080914091089108000840AE2
:1013100008080914091089148000840A08080914AF
:10132000091089108000840A08080914091089141A
:101330008000840A08080914091089108000840AB2
:1013400008080914091089148000840A080809147F
:10135000091089108000840A0808091409108914EA
:101360008000840A08080914091089108000840A82
:1013700008080914091089148000840A080809144F
:10138000091089108000840A0808091409108914BA
:101390008000840A08080914091089108000840A52
:1013A00008080914091089148000840A080809141F
:1013B000091089108000840A08080914091089148A
:1013C0008000840A08080914091089108000840A22
:1013D00008080914091089148000840A08080914EF
:1013E000091089108000840A08080914091089145A
:1013F0008000840A08080914091089108000840AF2
:1014000008080914091089148000840A08080914BE
:10141000091089108000840A080809140910891429
:101420008000840A08080914091089108000840AC1
:1014300008080914091089148000840A080809148E
:10144000091089108000840A0808091409108914F9
:101450008000840A08080914091089108000840A91
:1014600008080914091089148000840A080809145E
:10147000091089108000840A0808091409108914C9
:101480008000840A08080914091089108000840A61
:1014900008080914091089148000840A080809142E
:1014A000091089108000840A080809140910891499
:1014B0008000840A08080914091089108000840A31
:1014C00008080914091089148000840A08080914FE
:1014D000091089108000840A080809140910891469
:1014E0008000840A08080914091089108000840A01
:1014F00008080914091089148000840A08080914CE
:10150000091089108000840A080809140910891438
:101510008000840A08080914091089108000840AD0
:101520000808091409108914800084170808091490
:10153000091089108000840308080914091089140F
:1015400080008403080809140910891080008403AE
:101550000808091409108914800084030808091474
:1015600009108910800084030808091409108914DF
:10157000800084030808091409108910800084037E
:101580000808091409108914800084030808091444
:1015900009108910800084030808091409108914AF
:1015A000800084030808091409108910800084034E
:1015B0000808091409108914800084030808091414
:1015C000091089108000840308080914091089147F
:1015D000800084030808091409108910800084031E
:1015E00008080914091089148000840308080914E4
:1015F000091089108000840308080914091089144F
:1016000080008403080809140910891080008403ED
:1016100008080914091089148000840308080914B3
:10162000091089108000840308080914091089141E
:1016300080008403080809140910891080008403BD
:101640000808091409108914800084030808091483
:1016500009108910800084030808091409108914EE
:10166000800084030808091409108910800084038D
:101670000808091409108914800084030808091453
:1016800009108910800084030808091409108914BE
:10169000800084030808091409108910800084035D
:1016A0000808091409108914800084030808091423
:1016B000091089108000840308080914091089148E
:1016C000800084030808091409108910800084032D
:1016D00008080914091089148000840308080914F3
:1016E000091089108000840308080914091089145E
:1016F00080008403080809140910891080008403FD
:1017000008080914091089148000840308080914C2
:10171000091089108000840308080914091089142D
:1017200080008403080809140910891080008403CC
:101730000808091409108914800084030808091492
:1017400009108910800084030808091409108914FD
:10175000800084030808091409108910800084039C
:101760000808091409108914800084030808091462
:1017700009108910800084030808091409108914CD
:10178000800084030808091409108910800084036C
:101790000808091409108914800084030808091432
:1017A000091089108000840308080914091089149D
:1017B000800084030808091409108910800084033C
:1017C0000808091409108914800084030808091402
:1017D000091089108000840308080914091089146D
:1017E000800084030808091409108910800084030C
:1017F00008080914091089148000840308080914D2
:10180000091089108000840308080914091089143C
:1018100080008403080809140910891080008403DB
:10182000080809140910891480008317080809148E
:10183000091089108000840A080809140910891405
:101840008000840A08080914091089108000840A9D
:1018500008080914091089148000840A080809146A
:10186000091089108000840A0808091409108914D5
:101870008000840A08080914091089108000840A6D
:1018800008080914091089148000840A080809143A
:10189000091089108000840A0808091409108914A5
:1018A0008000840A08080914091089108000840A3D
:1018B00008080914091089148000840A080809140A
:1018C000091089108000840A080809140910891475
:1018D0008000840A08080914091089108000840A0D
:1018E00008080914091089148000840A08080914DA
:1018F000091089108000840A080809140910891445
:101900008000840A08080914091089108000840ADC
:1019100008080914091089148000840A08080914A9
:10192000091089108000840A080809140910891414
:101930008000840A08080914091089108000840AAC
:1019400008080914091089148000840A0808091479
:10195000091089108000840A0808091409108914E4
:101960008000840A08080914091089108000840A7C
:1019700008080914091089148000840A0808091449
:10198000091089108000840A0808091409108914B4
:101990008000840A08080914091089108000840A4C
:1019A00008080914091089148000840A0808091419
:1019B000091089108000840A080809140910891484
:1019C0008000840A08080914091089108000840A1C
:1019D00008080914091089148000840A08080914E9
:1019E000091089108000840A080809140910891454
:1019F0008000840A08080914091089108000840AEC
:101A000008080914091089148000840A08080914B8
:101A1000091089108000840A080809140910891423
:101A20008000840A08080914091089108000840ABB
:101A300008080914091089148000840A0808091488
:101A4000091089108000840A0808091409108914F3
:101A50008000840A08080914091089108000840A8B
:101A600008080914091089148000840A0808091458
:101A7000091089108000840A0808091409108914C3
:101A80008000840A08080914091089108000840A5B
:101A900008080914091089148000840A0808091428
:101AA000091089108000840A080809140910891493
:101AB0008000840A08080914091089108000840A2B
:101AC00008080914091089148000840A08080914F8
:101AD000091089108000840A080809140910891463
:101AE0008000840A08080914091089108000840AFB
:101AF00008080914091089148000840A08080914C8
:101B0000091089108000840A080809140910891432
:101B10008000840A08080914091089108000840ACA
:101B2000080809140910891480008413080809148E
:101B30000910891080008403080809140910891409
:101B400080008403080809140910891080008403A8
:101B5000080809140910891480008403080809146E
:101B600009108910800084030808091409108914D9
:101B70008000840308080914091089108000840378
:101B8000080809140910891480008403080809143E
:101B900009108910800084030808091409108914A9
:101BA0008000840308080914091089108000840348
:101BB000080809140910891480008403080809140E
:101BC0000910891080008403080809140910891479
:101BD0008000840308080914091089108000840318
:101BE00008080914091089148000840308080914DE
:101BF0000910891080008403080809140910891449
:101C000080008403080809140910891080008403E7
:101C100008080914091089148000840308080914AD
:101C20000910891080008403080809140910891418
:101C300080008403080809140910891080008403B7
:101C4000080809140910891480008403080809147D
:101C500009108910800084030808091409108914E8
:101C60008000840308080914091089108000840387
:101C7000080809140910891480008403080809144D
:101C800009108910800084030808091409108914B8
:101C90008000840308080914091089108000840357
:101CA000080809140910891480008403080809141D
:101CB0000910891080008403080809140910891488
:101CC0008000840308080914091089108000840327
:101CD00008080914091089148000840308080914ED
:101CE0000910891080008403080809140910891458
:101CF00080008403080809140910891080008403F7
:101D000008080914091089148000840308080914BC
:101D10000910891080008403080809140910891427
:101D200080008403080809140910891080008403C6
:101D3000080809140910891480008403080809148C
:101D400009108910800084030808091409108914F7
:101D50008000840308080914091089108000840396
:101D6000080809140910891480008403080809145C
:101D700009108910800084030808091409108914C7
:101D80008000840308080914091089108000840366
:101D9000080809140910891480008403080809142C
:101DA0000910891080008403080809140910891497
:101DB0008000840308080914091089108000840336
:101DC00008080914091089148000840308080914FC
:101DD0000910891080008403080809140910891467
:101DE0008000840308080914091089108000840306
:101DF00008080914091089148000840308080914CC
:101E00000910891080008403080809140910891436
:101E100080008403080809140910891080008403D5
:101E2000080809148A110A128E290910203084002A
:101E300000000808091409108000840A000008083E
:101E4000091409108000840A000008080914091008
:101E50008000840A00000808091409108000840A20
:101E600000000808091409108000840A000008080E
:101E7000091409108000840A0000080809140910D8
:101E80008000840A00000808091409108000840AF0
:101E900000000808091409108000840A00000808DE
:101EA000091409108000840A0000080809140910A8
:101EB0008000840A00000808091409108000840AC0
:101EC00000000808091409108000840A00000808AE
:101ED000091409108000840A000008080914091078
:101EE0008000840A00000808091409108000840A90
:101EF00000000808091409108000840A000008087E
:101F0000091409108000840A000008080914091047
:101F10008000840A00000808091409108000840A5F
:101F200000000808091409108000840A000008084D
:101F3000091409108000840A000008080914091017
:101F40008000840A00000808091409108000840A2F
:101F500000000808091409108000840A000008081D
:101F6000091409108000840A0000080809140910E7
:101F70008000840A00000808091409108000840AFF
:101F800000000808091409108000840A00000808ED
:101F9000091409108000840A0000080809140910B7
:101FA0008000840A00000808091409108000840ACF
:101FB00000000808091409108000840A00000808BD
:101FC000091409108000840A000008080914091087
:101FD0008000840A00000808091409108000840A9F
:101FE00000000808091409108000840A000008088D
:101FF000091409108000840A000008080914091057
:102000008000840A00000808091409108000840A6E
:1020100000000808091409108000840A000008085C
:10202000091409108000840A000008080914091026
:102030008000840A00000808091409108000840A3E
:1020400000000808091409108000840A000008082C
:10205000091409108000840A0000080809140910F6
:102060008000840A00000808091409108000840A0E
:1020700000000808091409108000840A00000808FC
:10208000091409108000840A0000080809140910C6
:102090008000840A00000808091409108000840ADE
:1020A00000000808091409108000840A00000808CC
:1020B000091409108000840A000008080914091096
:1020C0008000840A00000808091409108000840AAE
:1020D00000000808091409108000840A000008089C
:1020E000091409108000840A000008080914091066
:1020F0008000840A00000808091409108000840A7E
:1021000000000808091409108000840A000008086B
:10211000091409108000840A000008080914091035
:102120008000840A00000808091409108000841740
:102130000000080809140910800084030000080842
:10214000091409108000840300000808091409100C
:10215000800084030000080809140910800084032B
:102160000000080809140910800084030000080812
:1021700009140910800084030000080809140910DC
:1021800080008403000008080914091080008403FB
:1021900000000808091409108000840300000808E2
:1021A00009140910800084030000080809140910AC
:1021B00080008403000008080914091080008403CB
:1021C00000000808091409108000840300000808B2
:1021D000091409108000840300000808091409107C
:1021E000800084030000080809140910800084039B
:1021F0000000080809140910800084030000080882
:10220000091409108000840300000808091409104B
:10221000800084030000080809140910800084036A
:102220000000080809140910800084030000080851
:10223000091409108000840300000808091409101B
:10224000800084030000080809140910800084033A
:102250000000080809140910800084030000080821
:1022600009140910800084030000080809140910EB
:10227000800084030000080809140910800084030A
:1022800000000808091409108000840300000808F1
:1022900009140910800084030000080809140910BB
:1022A00080008403000008080914091080008403DA
:1022B00000000808091409108000840300000808C1
:1022C000091409108000840300000808091409108B
:1022D00080008403000008080914091080008403AA
:1022E0000000080809140910800084030000080891
:1022F000091409108000840300000808091409105B
:102300008000840300000808091409108000840379
:102310000000080809140910800084030000080860
:10232000091409108000840300000808091409102A
:102330008000840300000808091409108000840349
:102340000000080809140910800084030000080830
:1023500009140910800084030000080809140910FA
:102360008000840300000808091409108000840319
:102370000000080809140910800084030000080800
:1023800009140910800084030000080809140910CA
:1023900080008403000008080914091080008403E9
:1023A00000000808091409108000840300000808D0
:1023B000091409108000840300000808091409109A
:1023C00080008403000008080914091080008403B9
:1023D00000000808091409108000840300000808A0
:1023E000091409108000840300000808091409106A
:1023F0008000840300000808091409108000840389
:10240000000008080914091080008403000008086F
:102410000914091080008403000008080914091039
:102420008000840300000808091409108000831745
:1024300000000808091409108000840A0000080838
:10244000091409108000840A000008080914091002
:102450008000840A00000808091409108000840A1A
:1024600000000808091409108000840A0000080808
:10247000091409108000840A0000080809140910D2
:102480008000840A00000808091409108000840AEA
:1024900000000808091409108000840A00000808D8
:1024A000091409108000840A0000080809140910A2
:1024B0008000840A00000808091409108000840ABA
:1024C00000000808091409108000840A00000808A8
:1024D000091409108000840A000008080914091072
:1024E0008000840A00000808091409108000840A8A
:1024F00000000808091409108000840A0000080878
:10250000091409108000840A000008080914091041
:102510008000840A00000808091409108000840A59
:1025200000000808091409108000840A0000080847
:10253000091409108000840A000008080914091011
:102540008000840A00000808091409108000840A29
:1025500000000808091409108000840A0000080817
:10256000091409108000840A0000080809140910E1
:102570008000840A00000808091409108000840AF9
:1025800000000808091409108000840A00000808E7
:10259000091409108000840A0000080809140910B1
:1025A0008000840A00000808091409108000840AC9
:1025B00000000808091409108000840A00000808B7
:1025C000091409108000840A000008080914091081
:1025D0008000840A00000808091409108000840A99
:1025E00000000808091409108000840A0000080887
:1025F000091409108000840A000008080914091051
:102600008000840A00000808091409108000840A68
:1026100000000808091409108000840A0000080856
:10262000091409108000840A000008080914091020
:102630008000840A00000808091409108000840A38
:1026400000000808091409108000840A0000080826
:10265000091409108000840A0000080809140910F0
:102660008000840A00000808091409108000840A08
:1026700000000808091409108000840A00000808F6
:10268000091409108000840A0000080809140910C0
:102690008000840A00000808091409108000840AD8
:1026A00000000808091409108000840A00000808C6
:1026B000091409108000840A000008080914091090
:1026C0008000840A00000808091409108000840AA8
:1026D00000000808091409108000840A0000080896
:1026E000091409108000840A000008080914091060
:1026F0008000840A00000808091409108000840A78
:1027000000000808091409108000840A0000080865
:10271000091409108000840A00000808091409102F
:102720008000840A0000080809140910800084133E
:10273000000008080914091080008403000008083C
:102740000914091080008403000008080914091006
:102750008000840300000808091409108000840325
:10276000000008080914091080008403000008080C
:1027700009140910800084030000080809140910D6
:1027800080008403000008080914091080008403F5
:1027900000000808091409108000840300000808DC
:1027A00009140910800084030000080809140910A6
:1027B00080008403000008080914091080008403C5
:1027C00000000808091409108000840300000808AC
:1027D0000914091080008403000008080914091076
:1027E0008000840300000808091409108000840395
:1027F000000008080914091080008403000008087C
:102800000914091080008403000008080914091045
:102810008000840300000808091409108000840364
:10282000000008080914091080008403000008084B
:102830000914091080008403000008080914091015
:102840008000840300000808091409108000840334
:10285000000008080914091080008403000008081B
:1028600009140910800084030000080809140910E5
:102870008000840300000808091409108000840304
:1028800000000808091409108000840300000808EB
:1028900009140910800084030000080809140910B5
:1028A00080008403000008080914091080008403D4
:1028B00000000808091409108000840300000808BB
:1028C0000914091080008403000008080914091085
:1028D00080008403000008080914091080008403A4
:1028E000000008080914091080008403000008088B
:1028F0000914091080008403000008080914091055
:102900008000840300000808091409108000840373
:10291000000008080914091080008403000008085A
:102920000914091080008403000008080914091024
:102930008000840300000808091409108000840343
:10294000000008080914091080008403000008082A
:1029500009140910800084030000080809140910F4
:102960008000840300000808091409108000840313
:1029700000000808091409108000840300000808FA
:1029800009140910800084030000080809140910C4
:1029900080008403000008080914091080008403E3
:1029A00000000808091409108000840300000808CA
:1029B0000914091080008403000008080914091094
:1029C00080008403000008080914091080008403B3
:1029D000000008080914091080008403000008089A
:1029E0000914091080008403000008080914091064
:1029F0008000840300000808091409108000840383
:102A00000000080809140910800084030000080869
:102A10000914091080008403000008080914091033
:102A2000800084030000080809148A110A128E2904
:102A300015308A007A0882070A168A112B2D0A1689
:102A40008A113B2E0A168A113E2F0A168A15412832
:102A50000A168A154529091020308400000009143F
:102A6000091008088000840A091409100808800069
:102A7000840A0914091008088000840A091409103E
:102A800008088000840A0914091008088000840AD4
:102A90000914091008088000840A0914091008089C
:102AA0008000840A0914091008088000840A0914A7
:102AB000091008088000840A091409100808800019
:102AC000840A0914091008088000840A09140910EE
:102AD00008088000840A0914091008088000840A84
:102AE0000914091008088000840A0914091008084C
:102AF0008000840A0914091008088000840A091457
:102B0000091008088000840A0914091008088000C8
:102B1000840A0914091008088000840A091409109D
:102B200008088000840A0914091008088000840A33
:102B30000914091008088000840A091409100808FB
:102B40008000840A0914091008088000840A091406
:102B5000091008088000840A091409100808800078
:102B6000840A0914091008088000840A091409104D
:102B700008088000840A0914091008088000840AE3
:102B80000914091008088000840A091409100808AB
:102B90008000840A0914091008088000840A0914B6
:102BA000091008088000840A091409100808800028
:102BB000840A0914091008088000840A09140910FD
:102BC00008088000840A0914091008088000840A93
:102BD0000914091008088000840A0914091008085B
:102BE0008000840A0914091008088000840A091466
:102BF000091008088000840A0914091008088000D8
:102C0000840A0914091008088000840A09140910AC
:102C100008088000840A0914091008088000840A42
:102C20000914091008088000840A0914091008080A
:102C30008000840A0914091008088000840A091415
:102C4000091008088000840A091409100808800087
:102C5000840A0914091008088000840A0914080865
:102C60008000840A352E800084030330FA0786141E
:102C70000A128A11B928000009103E2E000009141A
:102C8000091008088000840A091409100808800047
:102C9000840A0914091008088000840A091409101C
:102CA00008088000840A0914091008088000840AB2
:102CB0000914091008088000840A0914091008087A
:102CC0008000840A0914091008088000840A091485
:102CD000091008088000840A0914091008088000F7
:102CE000840A0914091008088000840A09140910CC
:102CF000080880008417091409100808800084035C
:102D00000914091008088000840309140910080830
:102D10008000840309140910080880008403091442
:102D200009100808800084030914091008088000AD
:102D30008403091409100808800084030914091089
:102D4000080880008403091409100808800084031F
:102D500009140910080880008403091409100808E0
:102D600080008403091409100808800084030914F2
:102D7000091008088000840309140910080880005D
:102D80008403091409100808800084030914091039
:102D900008088000840309140910080880008403CF
:102DA0000914091008088000840309140910080890
:102DB00080008403091409100808800084030914A2
:102DC000091008088000840309140910080880000D
:102DD00084030914091008088000840309140910E9
:102DE000080880008403091409100808800084037F
:102DF0000914091008088000840309140910080840
:102E00008000840309140910080880008403091451
:102E100009100808800084030914091008088000BC
:102E20008403091409100808800084030914091098
:102E3000080880008403091409100808800084032E
:102E400009140910080880008403091409100808EF
:102E50008000840309140910080880008403091401
:102E6000091008088000840309140910080880006C
:102E70008403091408080A168A11332E3F2F0910FB
:102E8000412F000009140910080880008403091468
:102E9000091008088000840309140910080880003C
:102EA0008403091409100808800084030914091018
:102EB00008088000840309140910080880008403AE
:102EC000091409100808800084030914091008086F
:102ED0008000840309140910080880008403091481
:102EE00009100808800084030914091008088000EC
:102EF00084030914091008088000840309140910C8
:102F0000080880008403091409100808800084035D
:102F1000091409100808800084030914091008081E
:102F20008000840309140910080880008403091430
:102F3000091008088000840309140910080880009B
:102F40008403091409100808800084030914091077
:102F5000080880008403091409100808800084030D
:102F600009140910080880008403091409100808CE
:102F700080008403091409100808800083170914CD
:102F8000091008088000840A091409100808800044
:102F9000840A0914091008088000840A0914091019
:102FA00008088000840A0914091008088000840AAF
:102FB0000914091008088000840A09140910080877
:102FC0008000840A0914091008088000840A091482
:102FD000091008088000840A0914091008088000F4
:102FE000840A0914091008088000840A09140910C9
:102FF00008088000840A0914091008088000840A5F
:103000000914091008088000840A09140910080826
:103010008000840A0914091008088000840A091431
:10302000091008088000840A0914091008088000A3
:10303000840A0914091008088000840A0914091078
:1030400008088000840A0914091008088000840A0E
:103050000914091008088000840A091409100808D6
:103060008000840A0914091008088000840A0914E1
:10307000091008088000840A091408080A168A1131
:10308000302E4228000009104528000009140910BC
:1030900008088000840A0914091008088000840ABE
:1030A0000914091008088000840A09140910080886
:1030B0008000840A0914091008088000840A091491
:1030C000091008088000840A091409100808800003
:1030D000840A0914091008088000840A09140910D8
:1030E00008088000840A0914091008088000840A6E
:1030F0000914091008088000840A09140910080836
:103100008000840A0914091008088000840A091440
:10311000091008088000840A0914091008088000B2
:10312000840A0914091008088000840A0914091087
:1031300008088000840A0914091008088000840A1D
:103140000914091008088000840A091409100808E5
:103150008000840A0914091008088000840A0914F0
:10316000091008088000840A091409100808800062
:10317000840A0914091008088000840A0914091037
:1031800008088000840A0914091008088000840ACD
:103190000914091008088000840A09140910080895
:1031A0008000840A0914091008088000840A0914A0
:1031B000091008088000840A091409100808800012
:1031C000840A0914091008088000840A09140910E7
:1031D00008088000840A0914091008088000840A7D
:1031E0000914091008088000840A09140910080845
:1031F0008000840A0914091008088000840A091450
:1032000009100808800084130914091008088000B8
:1032100084030914091008088000840309140910A4
:10322000080880008403091409100808800084033A
:1032300009140910080880008403091409100808FB
:10324000800084030914091008088000840309140D
:103250000910080880008403091409100808800078
:103260008403091409100808800084030914091054
:1032700008088000840309140910080880008403EA
:10328000091408080A168A11332E46290A128A15CB
:1032900009100000132819308A007A0882070A16DC
:1032A0008A1558290A168A155F2B0A168A15602D69
:1032B000091020308400000008080914091080005B
:1032C000840A00000808091409108000840A00001C
:1032D0000808091409108000840A0000080809146D
:1032E00009108000840A00000808091409108000F1
:1032F000840A00000808091409108000840A0000EC
:103300000808091409108000840A0000080809143C
:1033100009108000840A00000808091409108000C0
:10332000840A00000808091409108000840A0000BB
:103330000808091409108000840A0000080809140C
:1033400009108000840A0000080809140910800090
:10335000840A00000808091409108000840A00008B
:103360000808091409108000840A000008080914DC
:1033700009108000840A0000080809140910800060
:10338000840A00000808091409108000840A00005B
:103390000808091409108000840A000008080914AC
:1033A00009108000840A0000080809140910800030
:1033B000840A00000808091409108000840A00002B
:1033C0000808091409108000840A0000080809147C
:1033D00009108000840A0000080809140910800000
:1033E000840A00000808091409108000840A0000FB
:1033F0000808091409108000840A0000080809144C
:1034000009108000840A00000808091409108000CF
:10341000840A00000808091409108000840A0000CA
:103420000808091409108000840A0000080809141B
:1034300009108000840A000008080914091080009F
:10344000840A00000808091409108000840A00009A
:103450000808091409108000840A000008080914EB
:1034600009108000840A000008080914091080006F
:10347000840A00000808091409108000840A00006A
:103480000808091409108000840A000008080914BB
:1034900009108000840A000008080914091080003F
:1034A000840A00000808091409108000840A00003A
:1034B0000808091409108000840A0000080809148B
:1034C00009108000840A000008080914091080000F
:1034D000840A00000808091409108000840A00000A
:1034E0000808091409108000840A0000080809145B
:1034F00009108000840A00000808091409108000DF
:10350000840A00000808091409108000840A0000D9
:103510000808091409108000840A0000080809142A
:1035200009108000840A00000808091409108000AE
:10353000840A00000808091409108000840A0000A9
:103540000808091409108000840A000008080914FA
:1035500009108000840A000008080914091080007E
:10356000840A00000808091409108000840A000079
:103570000808091409108000840A000008080914CA
:1035800009108000840A000008080914091080004E
:10359000840A00000808091409108000840A000049
:1035A0000808091409108000840A0000080809149A
:1035B0000910800084170000080809140910800011
:1035C0008403000008080914091080008403000027
:1035D0000808091409108000840300000808091471
:1035E00009108000840300000808091409108000F5
:1035F00084030000080809140910800084030000F7
:103600000808091409108000840300000808091440
:1036100009108000840300000808091409108000C4
:1036200084030000080809140910800084030000C6
:103630000808091409108000840300000808091410
:103640000910800084030000080809140910800094
:103650008403000008080914091080008403000096
:1036600008080914091080008403000008080914E0
:103670000910800084030000080809140910800064
:103680008403000008080914091080008403000066
:1036900008080914091080008403000008080914B0
:1036A0000910800084030000080809140910800034
:1036B00084030000080809140A168A11332E602BAF
:1036C0000910622B00000808091409108000840307
:1036D000000008080914091080008403000008088D
:1036E0000914091080008403000008080914091057
:1036F0008000840300000808091409108000840376
:10370000000008080914091080008403000008085C
:103710000914091080008403000008080914091026
:103720008000840300000808091409108000840345
:10373000000008080914091080008403000008082C
:1037400009140910800084030000080809140910F6
:103750008000840300000808091409108000840315
:1037600000000808091409108000840300000808FC
:1037700009140910800084030000080809140910C6
:1037800080008403000008080914091080008403E5
:1037900000000808091409108000840300000808CC
:1037A0000914091080008403000008080914091096
:1037B00080008403000008080914091080008403B5
:1037C000000008080914091080008403000008089C
:1037D0000914091080008403000008080914091066
:1037E0008000840300000808091409108000840385
:1037F000000008080914091080008403000008086C
:103800000914091080008403000008080914091035
:103810008000840300000808091409108000840354
:10382000000008080914091080008403000008083B
:103830000914091080008403000008080914091005
:103840008000840300000808091409108000840324
:10385000000008080914091080008403000008080B
:1038600009140910800084030000080809140910D5
:1038700080008403000008080914091080008403F4
:1038800000000808091409108000840300000808DB
:1038900009140910800084030000080809140910A5
:1038A00080008403000008080914091080008403C4
:1038B0000000080809140910800083170000080898
:1038C000091409108000840A00000808091409106E
:1038D0008000840A00000808091409108000840A86
:1038E00000000808091409108000840A0000080874
:1038F000091409108000840A00000808091409103E
:103900008000840A00000808091409108000840A55
:1039100000000808091409108000840A0000080843
:10392000091409108000840A00000808091409100D
:103930008000840A00000808091409108000840A25
:1039400000000808091409108000840A0000080813
:10395000091409108000840A0000080809140910DD
:103960008000840A00000808091409108000840AF5
:1039700000000808091409108000840A00000808E3
:10398000091409108000840A0000080809140910AD
:103990008000840A00000808091409108000840AC5
:1039A00000000808091409108000840A00000808B3
:1039B000091409108000840A00000808091409107D
:1039C0008000840A00000808091409108000840A95
:1039D00000000808091409108000840A0000080883
:1039E000091409108000840A00000808091409104D
:1039F0008000840A00000808091409108000840A65
:103A000000000808091409108000840A0000080852
:103A1000091409108000840A00000808091409101C
:103A20008000840A00000808091409108000840A34
:103A300000000808091409108000840A0000080822
:103A4000091409108000840A0000080809140910EC
:103A50008000840A00000808091409108000840A04
:103A600000000808091409108000840A00000808F2
:103A7000091409108000840A0000080809140910BC
:103A80008000840A00000808091409108000840AD4
:103A900000000808091409108000840A00000808C2
:103AA000091409108000840A00000808091409108C
:103AB0008000840A0000080809140A168A11302EB2
:0C3AC000612D0A168A11091000001B2B52
:084000000100020003000400AE
:02400E00F2209E
:02401000FF3F70
:00000001FF
