:020000040000FA
:100000000130890088015028FA00030EFB000B1E06
:1000100042280B12F30B0A28F40B0A28F50B0A28C6
:10002000760882070A128A11B82C0A128A15BF2F85
:100030000A128A117F2B0A128A11C22B0A128A1104
:10004000C22B0A128A11712A0A168A11C22D0A16A7
:100050008A15F5290A128A15BC290A128A11252C3B
:100060000A128A11252C0A128A11DC2A0A128A1114
:100070006D290A128A11EA290A128A1175280A12B0
:100080008A117528831203130C1C4B288316031343
:100090000C1C4B281C217B0E8300FA0E7A0E0900E3
:1000A00085018316031317308500C030810010309E
:1000B0008B0031308600FF30880004308900B93071
:1000C000870083160317880189010830870083168B
:1000D00003135630990000309A00243098008312A0
:1000E00003139030980083139F010130F100F20058
:1000F000FF30F300F400F5006D21A820F70189100E
:10010000701A89148A0170080F39F6000310F60D71
:1001100076078610701F1128F600620AF300610A44
:10012000F400600AF500831603130113F01B011796
:10013000831203138B100B168B17F6207808F33AF3
:10014000031D9D28DC30F80007210B128B13752846
:10015000F6207808F83A031DDC28DC30F800072187
:10016000203084004030F4000008F800840A0721A1
:10017000F40BB4284030F400841784030008F8001E
:1001800084030721F40BBE284030F4008317840A4F
:100190000008F800840A0721F40BC8284030F40056
:1001A000841384030008F80084030721F40BD22889
:1001B000841383132822A8287808F93A031DE52818
:1001C000DD30F80007210D22A8287808FA3A031D2F
:1001D000EE28DE30F8000721EB2108007808F33A1A
:1001E000031DA828DC30F8000721A8288C1EF6285B
:1001F000181DFC281A08F628981C0429181218162D
:100200001A088C1A0029F6281A08F80000340C1E67
:1002100007297808990000340130F302031CF40226
:10022000F308031D0D29F408031D0D2908008000A3
:100230008614831334227528831203131010710956
:100240008F0072098E000C1010140408E600640878
:10025000E5187F3AE5197F3A8400651C322984133A
:1002600083134129E51C3729841783134329651D0E
:100270003C29841783174529E51D412984138317D9
:10028000472942290000442900004629000089101E
:1002900009104A294B29000008080914891409107B
:1002A0008000840A53290000080809148000E40A29
:1002B000E40A60306406031D68292030E40003105E
:1002C000E50D651E68291010831603130C100B131F
:1002D000831203136608840008008312031320307E
:1002E000E4000130E500101090161016FF308F006A
:1002F0008E000C10831603130C140B178B1783122C
:1003000003131014831603130C1CE4298312031324
:100310008C1E8229181D8E291A088229981C96295C
:10032000181218161A088C1A922982291A08F8002D
:100330007808F83A031DCA29DC30F800072120307C
:1003400084004030F40083130008F800840A072179
:10035000F40BA4294030F400841784030008F8004B
:1003600084030721F40BAE294030F4008317840A7C
:100370000008F800840A0721F40BB8294030F40083
:10038000841384030008F80084030721F40BC229B6
:10039000282282297808F93A031DD329DD30F80094
:1003A00007210D2282297808FA3A031DDC29DE3064
:1003B000F8000721022282297808F33A031D8229D6
:1003C000DC30F8000721822983120313861483137B
:1003D000342275287528F6207808DF392038F00097
:1003E00083120313F6207808E000F6207808E10075
:1003F000F6207808E200F6207808F100F620780868
:10040000F2000800F620F620F620F620F620780804
:10041000F100F6207808F20008000130F80007210A
:100420000030F80007217008F80007218312031339
:100430006008F80007216108F80007216208F80049
:1004400007217108F80007217208F8000721080049
:100450007908F8000721F801072107218312031307
:100460006308F80007210800F90183160313071534
:10047000871085160512831203138710051279174A
:10048000051C7913851C7913851CF9170718F915B4
:100490008714051683160313871407110516851292
:1004A00083120313071185127916051C7912851C16
:1004B0007912851CF9160718791507158516891004
:1004C00006158611861009100000000000000000CB
:1004D0000000080809148614891006118611E3002B
:1004E000080009103F30F500203084007208F30046
:1004F0007108F40000000C2108080914091080009C
:10050000840A7208F3007108F4000C21F50B7C2AB0
:100510000000080809140910800084173F30F50016
:100520007208F3007108F4000C2100000808091497
:100530000910800084037208F3007108F4000C2194
:10054000F50B962A0000080809140910800083178B
:100550003F30F5007208F3007108F4000C21000030
:100560000808091409108000840A7208F300710851
:10057000F4000C21F50BB02A00000808091409103A
:10058000800084133F30F5007208F3007108F40016
:100590000C21000008080914091080008403720867
:1005A000F3007108F4000C21F50BCA2A00000808BA
:1005B00009148A110A12172909108914203084009D
:1005C00008080914091089108000840A1F30F500FA
:1005D0007208F3007108F4000C21000008080914E7
:1005E000091089148000840A080809140910891068
:1005F0008000840A7208F3007108F4000C21F50BE6
:10060000EE2A0000080809140910891480008417D4
:100610000808091409108910800084031F30F500B0
:100620007208F3007108F4000C2100000808091496
:10063000091089148000840308080914091089101E
:10064000800084037208F3007108F4000C21F50B9C
:10065000162B00000808091409108914800083175C
:1006600008080914091089108000840A1F30F50059
:100670007208F3007108F4000C2100000808091446
:10068000091089148000840A0808091409108910C7
:100690008000840A7208F3007108F4000C21F50B45
:1006A0003E2B0000080809140910891480008413E7
:1006B0000808091409108910800084031F30F50010
:1006C0007208F3007108F4000C21000008080914F6
:1006D000091089148000840308080914091089107E
:1006E000800084037208F3007108F4000C21F50BFC
:1006F000662B0000080809148A110A12172909102C
:100700003F30F3002030840000000808091409106D
:100710008000840AF30B852B0000080809140910D7
:10072000800084173F30F300000008080914091006
:1007300080008403F30B952B0000080809140910AE
:10074000800083173F30F3000000080809140910E7
:100750008000840AF30BA52B000008080914091077
:10076000800084133F30F3000000080809140910CA
:1007700080008403F30BB52B0000080809148A11CC
:100780000A12172909103F30F30020308400C82BCB
:10079000701DCB2B21240808091409108000840A3D
:1007A000701DD32B21240000F30BCB2B0000080875
:1007B00009140910800084173F30F300DF2B701DEF
:1007C000E22B212408080914091080008403701DFD
:1007D000EA2B21240000F30BE22B00000808091487
:1007E0000910800083173F30F300F62B701DF92BA2
:1007F00021240808091409108000840A701D012CA6
:1008000021240000F30BF92B00000808091409103B
:10081000800084133F30F3000D2C701D102C212418
:1008200008080914091080008403701D182C212465
:100830000000F30B102C0000080809148A110A129A
:100840001729222C0000242C0800091089142030BC
:10085000840008080914091089108000840A1F30D8
:10086000F500701C22242424080809140910891496
:100870008000840A08080914091089108000840A7D
:10088000701C2224432C0000F50B342C00000808B7
:100890000914091089148000841708080914091024
:1008A0008910800084031F30F500701C222424244A
:1008B0000808091409108914800084030808091421
:1008C0000910891080008403701C2224672C00000A
:1008D000F50B582C00000808091409108914800031
:1008E000831708080914091089108000840A1F3032
:1008F000F500701C22242424080809140910891406
:100900008000840A08080914091089108000840AEC
:10091000701C22248B2C0000F50B7C2C0000080896
:100920000914091089148000841308080914091097
:100930008910800084031F30F500701C22242424B9
:100940000808091409108914800084030808091490
:100950000910891080008403701C2224AF2C000031
:10096000F50BA02C0000080809148A110A12172997
:1009700009102030840000000914091008088000C4
:10098000840A0914091008088000840A091409104F
:1009900008088000840A0914091008088000840AE5
:1009A0000914091008088000840A091409100808AD
:1009B0008000840A0914091008088000840A0914B8
:1009C000091008088000840A09140910080880002A
:1009D000840A0914091008088000840A09140910FF
:1009E00008088000840A0914091008088000840A95
:1009F0000914091008088000840A0914091008085D
:100A00008000840A0914091008088000840A091467
:100A1000091008088000840A0914091008088000D9
:100A2000840A0914091008088000840A09140910AE
:100A300008088000840A0914091008088000840A44
:100A40000914091008088000840A0914091008080C
:100A50008000840A0914091008088000840A091417
:100A6000091008088000840A091409100808800089
:100A7000840A0914091008088000840A091409105E
:100A800008088000840A0914091008088000840AF4
:100A90000914091008088000840A091409100808BC
:100AA0008000840A0914091008088000840A0914C7
:100AB000091008088000840A091409100808800039
:100AC000840A0914091008088000840A091409100E
:100AD00008088000840A0914091008088000840AA4
:100AE0000914091008088000840A0914091008086C
:100AF0008000840A0914091008088000840A091477
:100B0000091008088000840A0914091008088000E8
:100B1000840A0914091008088000840A09140910BD
:100B200008088000840A0914091008088000840A53
:100B30000914091008088000840A0914091008081B
:100B40008000840A0914091008088000840A091426
:100B5000091008088000840A091409100808800098
:100B6000840A0914091008088000840A091409106D
:100B700008088000840A0914091008088000840A03
:100B80000914091008088000840A091409100808CB
:100B90008000840A0914091008088000840A0914D6
:100BA000091008088000840A091409100808800048
:100BB000840A0914091008088000840A091409101D
:100BC00008088000840A0914091008088000840AB3
:100BD0000914091008088000840A0914091008087B
:100BE0008000840A0914091008088000840A091486
:100BF00009100808800084170914091008088000EB
:100C000084030914091008088000840309140910DA
:100C10000808800084030914091008088000840370
:100C20000914091008088000840309140910080831
:100C30008000840309140910080880008403091443
:100C400009100808800084030914091008088000AE
:100C5000840309140910080880008403091409108A
:100C60000808800084030914091008088000840320
:100C700009140910080880008403091409100808E1
:100C800080008403091409100808800084030914F3
:100C9000091008088000840309140910080880005E
:100CA000840309140910080880008403091409103A
:100CB00008088000840309140910080880008403D0
:100CC0000914091008088000840309140910080891
:100CD00080008403091409100808800084030914A3
:100CE000091008088000840309140910080880000E
:100CF00084030914091008088000840309140910EA
:100D0000080880008403091409100808800084037F
:100D10000914091008088000840309140910080840
:100D20008000840309140910080880008403091452
:100D300009100808800084030914091008088000BD
:100D40008403091409100808800084030914091099
:100D5000080880008403091409100808800084032F
:100D600009140910080880008403091409100808F0
:100D70008000840309140910080880008403091402
:100D8000091008088000840309140910080880006D
:100D90008403091409100808800084030914091049
:100DA00008088000840309140910080880008403DF
:100DB00009140910080880008403091409100808A0
:100DC00080008403091409100808800084030914B2
:100DD000091008088000840309140910080880001D
:100DE00084030914091008088000840309140910F9
:100DF000080880008403091409100808800084038F
:100E0000091409100808800084030914091008084F
:100E10008000840309140910080880008403091461
:100E200009100808800084030914091008088000CC
:100E300084030914091008088000840309140910A8
:100E4000080880008403091409100808800084033E
:100E500009140910080880008403091409100808FF
:100E60008000840309140910080880008403091411
:100E70000910080880008317091409100808800069
:100E8000840A0914091008088000840A091409104A
:100E900008088000840A0914091008088000840AE0
:100EA0000914091008088000840A091409100808A8
:100EB0008000840A0914091008088000840A0914B3
:100EC000091008088000840A091409100808800025
:100ED000840A0914091008088000840A09140910FA
:100EE00008088000840A0914091008088000840A90
:100EF0000914091008088000840A09140910080858
:100F00008000840A0914091008088000840A091462
:100F1000091008088000840A0914091008088000D4
:100F2000840A0914091008088000840A09140910A9
:100F300008088000840A0914091008088000840A3F
:100F40000914091008088000840A09140910080807
:100F50008000840A0914091008088000840A091412
:100F6000091008088000840A091409100808800084
:100F7000840A0914091008088000840A0914091059
:100F800008088000840A0914091008088000840AEF
:100F90000914091008088000840A091409100808B7
:100FA0008000840A0914091008088000840A0914C2
:100FB000091008088000840A091409100808800034
:100FC000840A0914091008088000840A0914091009
:100FD00008088000840A0914091008088000840A9F
:100FE0000914091008088000840A09140910080867
:100FF0008000840A0914091008088000840A091472
:10100000091008088000840A0914091008088000E3
:10101000840A0914091008088000840A09140910B8
:1010200008088000840A0914091008088000840A4E
:101030000914091008088000840A09140910080816
:101040008000840A0914091008088000840A091421
:10105000091008088000840A091409100808800093
:10106000840A0914091008088000840A0914091068
:1010700008088000840A0914091008088000840AFE
:101080000914091008088000840A091409100808C6
:101090008000840A0914091008088000840A0914D1
:1010A000091008088000840A091409100808800043
:1010B000840A0914091008088000840A0914091018
:1010C00008088000840A0914091008088000840AAE
:1010D0000914091008088000840A09140910080876
:1010E0008000840A0914091008088000840A091481
:1010F00009100808800084130914091008088000EA
:1011000084030914091008088000840309140910D5
:10111000080880008403091409100808800084036B
:10112000091409100808800084030914091008082C
:10113000800084030914091008088000840309143E
:1011400009100808800084030914091008088000A9
:101150008403091409100808800084030914091085
:10116000080880008403091409100808800084031B
:1011700009140910080880008403091409100808DC
:1011800080008403091409100808800084030914EE
:101190000910080880008403091409100808800059
:1011A0008403091409100808800084030914091035
:1011B00008088000840309140910080880008403CB
:1011C000091409100808800084030914091008088C
:1011D000800084030914091008088000840309149E
:1011E0000910080880008403091409100808800009
:1011F00084030914091008088000840309140910E5
:10120000080880008403091409100808800084037A
:10121000091409100808800084030914091008083B
:10122000800084030914091008088000840309144D
:1012300009100808800084030914091008088000B8
:101240008403091409100808800084030914091094
:10125000080880008403091409100808800084032A
:1012600009140910080880008403091409100808EB
:1012700080008403091409100808800084030914FD
:101280000910080880008403091409100808800068
:101290008403091409100808800084030914091044
:1012A00008088000840309140910080880008403DA
:1012B000091409100808800084030914091008089B
:1012C00080008403091409100808800084030914AD
:1012D0000910080880008403091409100808800018
:1012E00084030914091008088000840309140910F4
:1012F000080880008403091409100808800084038A
:10130000091409100808800084030914091008084A
:10131000800084030914091008088000840309145C
:1013200009100808800084030914091008088000C7
:1013300084030914091008088000840309140910A3
:101340000808800084030914091008088000840339
:1013500009140910080880008403091409100808FA
:10136000800084030914091008088000840309140C
:1013700008088A110A1217290910891420308400DC
:1013800008080914091089108000840A0808091443
:10139000091089148000840A0808091409108910AA
:1013A0008000840A08080914091089148000840A3E
:1013B00008080914091089108000840A0808091413
:1013C000091089148000840A08080914091089107A
:1013D0008000840A08080914091089148000840A0E
:1013E00008080914091089108000840A08080914E3
:1013F000091089148000840A08080914091089104A
:101400008000840A08080914091089148000840ADD
:1014100008080914091089108000840A08080914B2
:10142000091089148000840A080809140910891019
:101430008000840A08080914091089148000840AAD
:1014400008080914091089108000840A0808091482
:10145000091089148000840A0808091409108910E9
:101460008000840A08080914091089148000840A7D
:1014700008080914091089108000840A0808091452
:10148000091089148000840A0808091409108910B9
:101490008000840A08080914091089148000840A4D
:1014A00008080914091089108000840A0808091422
:1014B000091089148000840A080809140910891089
:1014C0008000840A08080914091089148000840A1D
:1014D00008080914091089108000840A08080914F2
:1014E000091089148000840A080809140910891059
:1014F0008000840A08080914091089148000840AED
:1015000008080914091089108000840A08080914C1
:10151000091089148000840A080809140910891028
:101520008000840A08080914091089148000840ABC
:1015300008080914091089108000840A0808091491
:10154000091089148000840A0808091409108910F8
:101550008000840A08080914091089148000840A8C
:1015600008080914091089108000840A0808091461
:10157000091089148000840A0808091409108910C8
:101580008000840A08080914091089148000840A5C
:1015900008080914091089108000840A0808091431
:1015A000091089148000840A080809140910891098
:1015B0008000840A08080914091089148000840A2C
:1015C00008080914091089108000840A0808091401
:1015D000091089148000840A080809140910891068
:1015E0008000840A08080914091089148000840AFC
:1015F00008080914091089108000840A08080914D1
:10160000091089148000840A080809140910891037
:101610008000840A08080914091089148000840ACB
:1016200008080914091089108000840A08080914A0
:10163000091089148000840A080809140910891007
:101640008000840A08080914091089148000840A9B
:1016500008080914091089108000840A0808091470
:10166000091089148000840A0808091409108910D7
:101670008000840A0808091409108914800084175E
:101680000808091409108910800084030808091447
:1016900009108914800084030808091409108910AE
:1016A0008000840308080914091089148000840349
:1016B0000808091409108910800084030808091417
:1016C000091089148000840308080914091089107E
:1016D0008000840308080914091089148000840319
:1016E00008080914091089108000840308080914E7
:1016F000091089148000840308080914091089104E
:1017000080008403080809140910891480008403E8
:1017100008080914091089108000840308080914B6
:10172000091089148000840308080914091089101D
:1017300080008403080809140910891480008403B8
:101740000808091409108910800084030808091486
:1017500009108914800084030808091409108910ED
:101760008000840308080914091089148000840388
:101770000808091409108910800084030808091456
:1017800009108914800084030808091409108910BD
:101790008000840308080914091089148000840358
:1017A0000808091409108910800084030808091426
:1017B000091089148000840308080914091089108D
:1017C0008000840308080914091089148000840328
:1017D00008080914091089108000840308080914F6
:1017E000091089148000840308080914091089105D
:1017F00080008403080809140910891480008403F8
:1018000008080914091089108000840308080914C5
:10181000091089148000840308080914091089102C
:1018200080008403080809140910891480008403C7
:101830000808091409108910800084030808091495
:1018400009108914800084030808091409108910FC
:101850008000840308080914091089148000840397
:101860000808091409108910800084030808091465
:1018700009108914800084030808091409108910CC
:101880008000840308080914091089148000840367
:101890000808091409108910800084030808091435
:1018A000091089148000840308080914091089109C
:1018B0008000840308080914091089148000840337
:1018C0000808091409108910800084030808091405
:1018D000091089148000840308080914091089106C
:1018E0008000840308080914091089148000840307
:1018F00008080914091089108000840308080914D5
:10190000091089148000840308080914091089103B
:1019100080008403080809140910891480008403D6
:1019200008080914091089108000840308080914A4
:10193000091089148000840308080914091089100B
:1019400080008403080809140910891480008403A6
:101950000808091409108910800084030808091474
:1019600009108914800084030808091409108910DB
:101970008000840308080914091089148000831763
:1019800008080914091089108000840A080809143D
:10199000091089148000840A0808091409108910A4
:1019A0008000840A08080914091089148000840A38
:1019B00008080914091089108000840A080809140D
:1019C000091089148000840A080809140910891074
:1019D0008000840A08080914091089148000840A08
:1019E00008080914091089108000840A08080914DD
:1019F000091089148000840A080809140910891044
:101A00008000840A08080914091089148000840AD7
:101A100008080914091089108000840A08080914AC
:101A2000091089148000840A080809140910891013
:101A30008000840A08080914091089148000840AA7
:101A400008080914091089108000840A080809147C
:101A5000091089148000840A0808091409108910E3
:101A60008000840A08080914091089148000840A77
:101A700008080914091089108000840A080809144C
:101A8000091089148000840A0808091409108910B3
:101A90008000840A08080914091089148000840A47
:101AA00008080914091089108000840A080809141C
:101AB000091089148000840A080809140910891083
:101AC0008000840A08080914091089148000840A17
:101AD00008080914091089108000840A08080914EC
:101AE000091089148000840A080809140910891053
:101AF0008000840A08080914091089148000840AE7
:101B000008080914091089108000840A08080914BB
:101B1000091089148000840A080809140910891022
:101B20008000840A08080914091089148000840AB6
:101B300008080914091089108000840A080809148B
:101B4000091089148000840A0808091409108910F2
:101B50008000840A08080914091089148000840A86
:101B600008080914091089108000840A080809145B
:101B7000091089148000840A0808091409108910C2
:101B80008000840A08080914091089148000840A56
:101B900008080914091089108000840A080809142B
:101BA000091089148000840A080809140910891092
:101BB0008000840A08080914091089148000840A26
:101BC00008080914091089108000840A08080914FB
:101BD000091089148000840A080809140910891062
:101BE0008000840A08080914091089148000840AF6
:101BF00008080914091089108000840A08080914CB
:101C0000091089148000840A080809140910891031
:101C10008000840A08080914091089148000840AC5
:101C200008080914091089108000840A080809149A
:101C3000091089148000840A080809140910891001
:101C40008000840A08080914091089148000840A95
:101C500008080914091089108000840A080809146A
:101C6000091089148000840A0808091409108910D1
:101C70008000840A0808091409108914800084135C
:101C80000808091409108910800084030808091441
:101C900009108914800084030808091409108910A8
:101CA0008000840308080914091089148000840343
:101CB0000808091409108910800084030808091411
:101CC0000910891480008403080809140910891078
:101CD0008000840308080914091089148000840313
:101CE00008080914091089108000840308080914E1
:101CF0000910891480008403080809140910891048
:101D000080008403080809140910891480008403E2
:101D100008080914091089108000840308080914B0
:101D20000910891480008403080809140910891017
:101D300080008403080809140910891480008403B2
:101D40000808091409108910800084030808091480
:101D500009108914800084030808091409108910E7
:101D60008000840308080914091089148000840382
:101D70000808091409108910800084030808091450
:101D800009108914800084030808091409108910B7
:101D90008000840308080914091089148000840352
:101DA0000808091409108910800084030808091420
:101DB0000910891480008403080809140910891087
:101DC0008000840308080914091089148000840322
:101DD00008080914091089108000840308080914F0
:101DE0000910891480008403080809140910891057
:101DF00080008403080809140910891480008403F2
:101E000008080914091089108000840308080914BF
:101E10000910891480008403080809140910891026
:101E200080008403080809140910891480008403C1
:101E3000080809140910891080008403080809148F
:101E400009108914800084030808091409108910F6
:101E50008000840308080914091089148000840391
:101E6000080809140910891080008403080809145F
:101E700009108914800084030808091409108910C6
:101E80008000840308080914091089148000840361
:101E9000080809140910891080008403080809142F
:101EA0000910891480008403080809140910891096
:101EB0008000840308080914091089148000840331
:101EC00008080914091089108000840308080914FF
:101ED0000910891480008403080809140910891066
:101EE0008000840308080914091089148000840301
:101EF00008080914091089108000840308080914CF
:101F00000910891480008403080809140910891035
:101F100080008403080809140910891480008403D0
:101F2000080809140910891080008403080809149E
:101F30000910891480008403080809140910891005
:101F400080008403080809140910891480008403A0
:101F5000080809140910891080008403080809146E
:101F600009108914800084030808091409108910D5
:101F700080008403080809148A110A12172909101D
:101F80002030840000000808091409108000840A29
:101F900000000808091409108000840A00000808DD
:101FA000091409108000840A0000080809140910A7
:101FB0008000840A00000808091409108000840ABF
:101FC00000000808091409108000840A00000808AD
:101FD000091409108000840A000008080914091077
:101FE0008000840A00000808091409108000840A8F
:101FF00000000808091409108000840A000008087D
:10200000091409108000840A000008080914091046
:102010008000840A00000808091409108000840A5E
:1020200000000808091409108000840A000008084C
:10203000091409108000840A000008080914091016
:102040008000840A00000808091409108000840A2E
:1020500000000808091409108000840A000008081C
:10206000091409108000840A0000080809140910E6
:102070008000840A00000808091409108000840AFE
:1020800000000808091409108000840A00000808EC
:10209000091409108000840A0000080809140910B6
:1020A0008000840A00000808091409108000840ACE
:1020B00000000808091409108000840A00000808BC
:1020C000091409108000840A000008080914091086
:1020D0008000840A00000808091409108000840A9E
:1020E00000000808091409108000840A000008088C
:1020F000091409108000840A000008080914091056
:102100008000840A00000808091409108000840A6D
:1021100000000808091409108000840A000008085B
:10212000091409108000840A000008080914091025
:102130008000840A00000808091409108000840A3D
:1021400000000808091409108000840A000008082B
:10215000091409108000840A0000080809140910F5
:102160008000840A00000808091409108000840A0D
:1021700000000808091409108000840A00000808FB
:10218000091409108000840A0000080809140910C5
:102190008000840A00000808091409108000840ADD
:1021A00000000808091409108000840A00000808CB
:1021B000091409108000840A000008080914091095
:1021C0008000840A00000808091409108000840AAD
:1021D00000000808091409108000840A000008089B
:1021E000091409108000840A000008080914091065
:1021F0008000840A00000808091409108000840A7D
:1022000000000808091409108000840A000008086A
:10221000091409108000840A000008080914091034
:102220008000840A00000808091409108000840A4C
:1022300000000808091409108000840A000008083A
:10224000091409108000840A000008080914091004
:102250008000840A00000808091409108000840A1C
:1022600000000808091409108000840A000008080A
:10227000091409108000840A0000080809140910D4
:1022800080008417000008080914091080008403E6
:1022900000000808091409108000840300000808E1
:1022A00009140910800084030000080809140910AB
:1022B00080008403000008080914091080008403CA
:1022C00000000808091409108000840300000808B1
:1022D000091409108000840300000808091409107B
:1022E000800084030000080809140910800084039A
:1022F0000000080809140910800084030000080881
:10230000091409108000840300000808091409104A
:102310008000840300000808091409108000840369
:102320000000080809140910800084030000080850
:10233000091409108000840300000808091409101A
:102340008000840300000808091409108000840339
:102350000000080809140910800084030000080820
:1023600009140910800084030000080809140910EA
:102370008000840300000808091409108000840309
:1023800000000808091409108000840300000808F0
:1023900009140910800084030000080809140910BA
:1023A00080008403000008080914091080008403D9
:1023B00000000808091409108000840300000808C0
:1023C000091409108000840300000808091409108A
:1023D00080008403000008080914091080008403A9
:1023E0000000080809140910800084030000080890
:1023F000091409108000840300000808091409105A
:102400008000840300000808091409108000840378
:10241000000008080914091080008403000008085F
:102420000914091080008403000008080914091029
:102430008000840300000808091409108000840348
:10244000000008080914091080008403000008082F
:1024500009140910800084030000080809140910F9
:102460008000840300000808091409108000840318
:1024700000000808091409108000840300000808FF
:1024800009140910800084030000080809140910C9
:1024900080008403000008080914091080008403E8
:1024A00000000808091409108000840300000808CF
:1024B0000914091080008403000008080914091099
:1024C00080008403000008080914091080008403B8
:1024D000000008080914091080008403000008089F
:1024E0000914091080008403000008080914091069
:1024F0008000840300000808091409108000840388
:10250000000008080914091080008403000008086E
:102510000914091080008403000008080914091038
:102520008000840300000808091409108000840357
:10253000000008080914091080008403000008083E
:102540000914091080008403000008080914091008
:102550008000840300000808091409108000840327
:10256000000008080914091080008403000008080E
:1025700009140910800084030000080809140910D8
:102580008000831700000808091409108000840ADD
:1025900000000808091409108000840A00000808D7
:1025A000091409108000840A0000080809140910A1
:1025B0008000840A00000808091409108000840AB9
:1025C00000000808091409108000840A00000808A7
:1025D000091409108000840A000008080914091071
:1025E0008000840A00000808091409108000840A89
:1025F00000000808091409108000840A0000080877
:10260000091409108000840A000008080914091040
:102610008000840A00000808091409108000840A58
:1026200000000808091409108000840A0000080846
:10263000091409108000840A000008080914091010
:102640008000840A00000808091409108000840A28
:1026500000000808091409108000840A0000080816
:10266000091409108000840A0000080809140910E0
:102670008000840A00000808091409108000840AF8
:1026800000000808091409108000840A00000808E6
:10269000091409108000840A0000080809140910B0
:1026A0008000840A00000808091409108000840AC8
:1026B00000000808091409108000840A00000808B6
:1026C000091409108000840A000008080914091080
:1026D0008000840A00000808091409108000840A98
:1026E00000000808091409108000840A0000080886
:1026F000091409108000840A000008080914091050
:102700008000840A00000808091409108000840A67
:1027100000000808091409108000840A0000080855
:10272000091409108000840A00000808091409101F
:102730008000840A00000808091409108000840A37
:1027400000000808091409108000840A0000080825
:10275000091409108000840A0000080809140910EF
:102760008000840A00000808091409108000840A07
:1027700000000808091409108000840A00000808F5
:10278000091409108000840A0000080809140910BF
:102790008000840A00000808091409108000840AD7
:1027A00000000808091409108000840A00000808C5
:1027B000091409108000840A00000808091409108F
:1027C0008000840A00000808091409108000840AA7
:1027D00000000808091409108000840A0000080895
:1027E000091409108000840A00000808091409105F
:1027F0008000840A00000808091409108000840A77
:1028000000000808091409108000840A0000080864
:10281000091409108000840A00000808091409102E
:102820008000840A00000808091409108000840A46
:1028300000000808091409108000840A0000080834
:10284000091409108000840A0000080809140910FE
:102850008000840A00000808091409108000840A16
:1028600000000808091409108000840A0000080804
:10287000091409108000840A0000080809140910CE
:1028800080008413000008080914091080008403E4
:1028900000000808091409108000840300000808DB
:1028A00009140910800084030000080809140910A5
:1028B00080008403000008080914091080008403C4
:1028C00000000808091409108000840300000808AB
:1028D0000914091080008403000008080914091075
:1028E0008000840300000808091409108000840394
:1028F000000008080914091080008403000008087B
:102900000914091080008403000008080914091044
:102910008000840300000808091409108000840363
:10292000000008080914091080008403000008084A
:102930000914091080008403000008080914091014
:102940008000840300000808091409108000840333
:10295000000008080914091080008403000008081A
:1029600009140910800084030000080809140910E4
:102970008000840300000808091409108000840303
:1029800000000808091409108000840300000808EA
:1029900009140910800084030000080809140910B4
:1029A00080008403000008080914091080008403D3
:1029B00000000808091409108000840300000808BA
:1029C0000914091080008403000008080914091084
:1029D00080008403000008080914091080008403A3
:1029E000000008080914091080008403000008088A
:1029F0000914091080008403000008080914091054
:102A00008000840300000808091409108000840372
:102A10000000080809140910800084030000080859
:102A20000914091080008403000008080914091023
:102A30008000840300000808091409108000840342
:102A40000000080809140910800084030000080829
:102A500009140910800084030000080809140910F3
:102A60008000840300000808091409108000840312
:102A700000000808091409108000840300000808F9
:102A800009140910800084030000080809140910C3
:102A900080008403000008080914091080008403E2
:102AA00000000808091409108000840300000808C9
:102AB0000914091080008403000008080914091093
:102AC00080008403000008080914091080008403B2
:102AD0000000080809140910800084030000080899
:102AE0000914091080008403000008080914091063
:102AF0008000840300000808091409108000840382
:102B00000000080809140910800084030000080868
:102B10000914091080008403000008080914091032
:102B20008000840300000808091409108000840351
:102B30000000080809140910800084030000080838
:102B40000914091080008403000008080914091002
:102B50008000840300000808091409108000840321
:102B60000000080809140910800084030000080808
:102B700009140910800084030000080809148A1150
:102B80000A12172915308A00770882070A168A1157
:102B9000D52D0A168A11E52E0A168A11E82F0A1673
:102BA0008A15EB280A168A15EF29091020308400AF
:102BB00000000914091008088000840A091409108B
:102BC00008088000840A0914091008088000840A93
:102BD0000914091008088000840A0914091008085B
:102BE0008000840A0914091008088000840A091466
:102BF000091008088000840A0914091008088000D8
:102C0000840A0914091008088000840A09140910AC
:102C100008088000840A0914091008088000840A42
:102C20000914091008088000840A0914091008080A
:102C30008000840A0914091008088000840A091415
:102C4000091008088000840A091409100808800087
:102C5000840A0914091008088000840A091409105C
:102C600008088000840A0914091008088000840AF2
:102C70000914091008088000840A091409100808BA
:102C80008000840A0914091008088000840A0914C5
:102C9000091008088000840A091409100808800037
:102CA000840A0914091008088000840A091409100C
:102CB00008088000840A0914091008088000840AA2
:102CC0000914091008088000840A0914091008086A
:102CD0008000840A0914091008088000840A091475
:102CE000091008088000840A0914091008088000E7
:102CF000840A0914091008088000840A09140910BC
:102D000008088000840A0914091008088000840A51
:102D10000914091008088000840A09140910080819
:102D20008000840A0914091008088000840A091424
:102D3000091008088000840A091409100808800096
:102D4000840A0914091008088000840A091409106B
:102D500008088000840A0914091008088000840A01
:102D60000914091008088000840A091409100808C9
:102D70008000840A0914091008088000840A0914D4
:102D8000091008088000840A091409100808800046
:102D9000840A0914091008088000840A091409101B
:102DA00008088000840A0914091008088000840AB1
:102DB000091408088000840ADF2E80008403033091
:102DC000F70786140A128A117F2800000910E82EDE
:102DD00000000914091008088000840A0914091069
:102DE00008088000840A0914091008088000840A71
:102DF0000914091008088000840A09140910080839
:102E00008000840A0914091008088000840A091443
:102E1000091008088000840A0914091008088000B5
:102E2000840A0914091008088000840A091409108A
:102E300008088000840A0914091008088000840A20
:102E400009140910080880008417091409100808DB
:102E50008000840309140910080880008403091401
:102E6000091008088000840309140910080880006C
:102E70008403091409100808800084030914091048
:102E800008088000840309140910080880008403DE
:102E9000091409100808800084030914091008089F
:102EA00080008403091409100808800084030914B1
:102EB000091008088000840309140910080880001C
:102EC00084030914091008088000840309140910F8
:102ED000080880008403091409100808800084038E
:102EE000091409100808800084030914091008084F
:102EF0008000840309140910080880008403091461
:102F000009100808800084030914091008088000CB
:102F100084030914091008088000840309140910A7
:102F2000080880008403091409100808800084033D
:102F300009140910080880008403091409100808FE
:102F40008000840309140910080880008403091410
:102F5000091008088000840309140910080880007B
:102F60008403091409100808800084030914091057
:102F700008088000840309140910080880008403ED
:102F800009140910080880008403091409100808AE
:102F900080008403091409100808800084030914C0
:102FA000091008088000840309140910080880002B
:102FB0008403091409100808800084030914091007
:102FC000080880008403091408080A168A11DD2EF7
:102FD000E92F0910EB2F00000914091008088000E0
:102FE00084030914091008088000840309140910D7
:102FF000080880008403091409100808800084036D
:10300000091409100808800084030914091008082D
:10301000800084030914091008088000840309143F
:1030200009100808800084030914091008088000AA
:103030008403091409100808800084030914091086
:10304000080880008403091409100808800084031C
:1030500009140910080880008403091409100808DD
:1030600080008403091409100808800084030914EF
:10307000091008088000840309140910080880005A
:103080008403091409100808800084030914091036
:1030900008088000840309140910080880008403CC
:1030A000091409100808800084030914091008088D
:1030B000800084030914091008088000840309149F
:1030C000091008088000840309140910080880000A
:1030D00083170914091008088000840A09140910CC
:1030E00008088000840A0914091008088000840A6E
:1030F0000914091008088000840A09140910080836
:103100008000840A0914091008088000840A091440
:10311000091008088000840A0914091008088000B2
:10312000840A0914091008088000840A0914091087
:1031300008088000840A0914091008088000840A1D
:103140000914091008088000840A091409100808E5
:103150008000840A0914091008088000840A0914F0
:10316000091008088000840A091409100808800062
:10317000840A0914091008088000840A0914091037
:1031800008088000840A0914091008088000840ACD
:103190000914091008088000840A09140910080895
:1031A0008000840A0914091008088000840A0914A0
:1031B000091008088000840A091409100808800012
:1031C000840A0914091008088000840A09140808F0
:1031D0000A168A11DA2EEC2800000910EF280000E8
:1031E0000914091008088000840A09140910080845
:1031F0008000840A0914091008088000840A091450
:10320000091008088000840A0914091008088000C1
:10321000840A0914091008088000840A0914091096
:1032200008088000840A0914091008088000840A2C
:103230000914091008088000840A091409100808F4
:103240008000840A0914091008088000840A0914FF
:10325000091008088000840A091409100808800071
:10326000840A0914091008088000840A0914091046
:1032700008088000840A0914091008088000840ADC
:103280000914091008088000840A091409100808A4
:103290008000840A0914091008088000840A0914AF
:1032A000091008088000840A091409100808800021
:1032B000840A0914091008088000840A09140910F6
:1032C00008088000840A0914091008088000840A8C
:1032D0000914091008088000840A09140910080854
:1032E0008000840A0914091008088000840A09145F
:1032F000091008088000840A0914091008088000D1
:10330000840A0914091008088000840A09140910A5
:1033100008088000840A0914091008088000840A3B
:103320000914091008088000840A09140910080803
:103330008000840A0914091008088000840A09140E
:10334000091008088000840A091409100808800080
:10335000840A09140910080880008413091409104C
:1033600008088000840309140910080880008403F9
:1033700009140910080880008403091409100808BA
:1033800080008403091409100808800084030914CC
:103390000910080880008403091409100808800037
:1033A0008403091409100808800084030914091013
:1033B00008088000840309140910080880008403A9
:1033C000091409100808800084030914091008086A
:1033D00080008403091408080A168A11DD2EF029DA
:1033E0000A128A1509100000BD2819308A007708D2
:1033F00082070A168A15022A0A168A15092C0A1645
:103400008A150A2E091020308400000008080914CB
:1034100009108000840A00000808091409108000BF
:10342000840A00000808091409108000840A0000BA
:103430000808091409108000840A0000080809140B
:1034400009108000840A000008080914091080008F
:10345000840A00000808091409108000840A00008A
:103460000808091409108000840A000008080914DB
:1034700009108000840A000008080914091080005F
:10348000840A00000808091409108000840A00005A
:103490000808091409108000840A000008080914AB
:1034A00009108000840A000008080914091080002F
:1034B000840A00000808091409108000840A00002A
:1034C0000808091409108000840A0000080809147B
:1034D00009108000840A00000808091409108000FF
:1034E000840A00000808091409108000840A0000FA
:1034F0000808091409108000840A0000080809144B
:1035000009108000840A00000808091409108000CE
:10351000840A00000808091409108000840A0000C9
:103520000808091409108000840A0000080809141A
:1035300009108000840A000008080914091080009E
:10354000840A00000808091409108000840A000099
:103550000808091409108000840A000008080914EA
:1035600009108000840A000008080914091080006E
:10357000840A00000808091409108000840A000069
:103580000808091409108000840A000008080914BA
:1035900009108000840A000008080914091080003E
:1035A000840A00000808091409108000840A000039
:1035B0000808091409108000840A0000080809148A
:1035C00009108000840A000008080914091080000E
:1035D000840A00000808091409108000840A000009
:1035E0000808091409108000840A0000080809145A
:1035F00009108000840A00000808091409108000DE
:10360000840A00000808091409108000840A0000D8
:103610000808091409108000840A00000808091429
:1036200009108000840A00000808091409108000AD
:10363000840A00000808091409108000840A0000A8
:103640000808091409108000840A000008080914F9
:1036500009108000840A000008080914091080007D
:10366000840A00000808091409108000840A000078
:103670000808091409108000840A000008080914C9
:1036800009108000840A000008080914091080004D
:10369000840A00000808091409108000840A000048
:1036A0000808091409108000840A00000808091499
:1036B00009108000840A000008080914091080001D
:1036C000840A00000808091409108000840A000018
:1036D0000808091409108000840A00000808091469
:1036E00009108000840A00000808091409108000ED
:1036F000840A00000808091409108000840A0000E8
:10370000080809140910800084170000080809142B
:1037100009108000840300000808091409108000C3
:1037200084030000080809140910800084030000C5
:10373000080809140910800084030000080809140F
:103740000910800084030000080809140910800093
:103750008403000008080914091080008403000095
:1037600008080914091080008403000008080914DF
:103770000910800084030000080809140910800063
:103780008403000008080914091080008403000065
:1037900008080914091080008403000008080914AF
:1037A0000910800084030000080809140910800033
:1037B0008403000008080914091080008403000035
:1037C000080809140910800084030000080809147F
:1037D0000910800084030000080809140910800003
:1037E0008403000008080914091080008403000005
:1037F000080809140910800084030000080809144F
:103800000910800084030000080809140A168A11B0
:10381000DD2E0A2C09100C2C0000080809140910D0
:103820008000840300000808091409108000840344
:10383000000008080914091080008403000008082B
:1038400009140910800084030000080809140910F5
:103850008000840300000808091409108000840314
:1038600000000808091409108000840300000808FB
:1038700009140910800084030000080809140910C5
:1038800080008403000008080914091080008403E4
:1038900000000808091409108000840300000808CB
:1038A0000914091080008403000008080914091095
:1038B00080008403000008080914091080008403B4
:1038C000000008080914091080008403000008089B
:1038D0000914091080008403000008080914091065
:1038E0008000840300000808091409108000840384
:1038F000000008080914091080008403000008086B
:103900000914091080008403000008080914091034
:103910008000840300000808091409108000840353
:10392000000008080914091080008403000008083A
:103930000914091080008403000008080914091004
:103940008000840300000808091409108000840323
:10395000000008080914091080008403000008080A
:1039600009140910800084030000080809140910D4
:1039700080008403000008080914091080008403F3
:1039800000000808091409108000840300000808DA
:1039900009140910800084030000080809140910A4
:1039A00080008403000008080914091080008403C3
:1039B00000000808091409108000840300000808AA
:1039C0000914091080008403000008080914091074
:1039D0008000840300000808091409108000840393
:1039E000000008080914091080008403000008087A
:1039F0000914091080008403000008080914091044
:103A0000800084030000080809140910800083174F
:103A100000000808091409108000840A0000080842
:103A2000091409108000840A00000808091409100C
:103A30008000840A00000808091409108000840A24
:103A400000000808091409108000840A0000080812
:103A5000091409108000840A0000080809140910DC
:103A60008000840A00000808091409108000840AF4
:103A700000000808091409108000840A00000808E2
:103A8000091409108000840A0000080809140910AC
:103A90008000840A00000808091409108000840AC4
:103AA00000000808091409108000840A00000808B2
:103AB000091409108000840A00000808091409107C
:103AC0008000840A00000808091409108000840A94
:103AD00000000808091409108000840A0000080882
:103AE000091409108000840A00000808091409104C
:103AF0008000840A00000808091409108000840A64
:103B000000000808091409108000840A0000080851
:103B1000091409108000840A00000808091409101B
:103B20008000840A00000808091409108000840A33
:103B300000000808091409108000840A0000080821
:103B4000091409108000840A0000080809140910EB
:103B50008000840A00000808091409108000840A03
:103B600000000808091409108000840A00000808F1
:103B7000091409108000840A0000080809140910BB
:103B80008000840A00000808091409108000840AD3
:103B900000000808091409108000840A00000808C1
:103BA000091409108000840A00000808091409108B
:103BB0008000840A00000808091409108000840AA3
:103BC00000000808091409108000840A0000080891
:103BD000091409108000840A00000808091409105B
:103BE0008000840A00000808091409108000840A73
:103BF00000000808091409108000840A0000080861
:103C0000091409108000840A0000080809140A1623
:103C10008A11DA2E0B2E0A168A1109100000C52B04
:084000000100020003000400AE
:02400E00F2209E
:02401000FF3F70
:00000001FF
