:020000040000FA
:100000000130890088015028FA00030EFB000B1E06
:1000100042280B12F30B0A28F40B0A28F50B0A28C6
:10002000760882070A128A11BA2C0A128A15C12F81
:100030000A128A11812B0A128A11C42B0A128A1100
:10004000C42B0A128A11732A0A168A11C42D0A16A1
:100050008A15F7290A128A15BE290A128A11272C35
:100060000A128A11272C0A128A11DE2A0A128A1110
:100070006A290A128A11EC290A128A1179280A12AD
:100080008A117928831203130C1C4B28831603133F
:100090000C1C4B281B217B0E8300FA0E7A0E0900E4
:1000A00085018316031317308500C030810010309E
:1000B0008B0031308600FF30880004308900B93071
:1000C000870083160317880189010830870083168B
:1000D00003135630990000309A00243098008312A0
:1000E00003139030980083139F010130F300F40054
:1000F000F500A420F7018910701A89148A0170088C
:100100000F39F6000310F60D76078610701F1128C0
:10011000F600620AF300610AF400600AF500831633
:1001200003130113F01B0117831203138B100B161B
:100130008B17F5207808F33A031D99280B128B13BF
:10014000DC30F80006217928F5207808F83A031DFC
:10015000D728DC30F8000621203084004030F4003D
:100160000008F800840A0621F40BB0284030F4009F
:10017000841784030008F80084030621F40BBA28CE
:100180004030F4008317840A0008F800840A06212E
:10019000F40BC4284030F400841384030008F800F2
:1001A00084030621F40BCE2883132A22A42878087E
:1001B000F93A031DE028DD30F80006210F22A428BB
:1001C0007808FA3A031DED28DE30F8000621ED210B
:1001D0000130F300F400F50008007808F33A031D3D
:1001E000A428DC30F8000621A4288C1EF528181D50
:1001F000FB281A08F528981C0329181218161A0843
:100200008C1AFF28F5281A08F80000340C1E06295D
:100210007808990000340130F302031CF402F3085B
:10022000031D0C29F408031D0C2908008000861406
:1002300083133622792883120313101071098F005B
:1002400072098E000C10101400000408E600640807
:10025000840083138413E5188417E519831765193F
:10026000841765198317891009103629372900006A
:10027000080809148914091080006518840AE51813
:10028000840308080914E51984036519840A8000A9
:100290000230E518FE30E519FE30E4071F30640631
:1002A0000319592960306406031D65295F30E40095
:1002B0005B292030E4000310E50D651E6529101050
:1002C0000C10831603130C100B1383120313660810
:1002D00084000800831203132030E4000130E5009D
:1002E000101090161016FF308F008E000C10831621
:1002F00003130C140B178B1783120313101483169C
:1003000003130C1CE229831203138C1E7F29181D72
:100310008B291A087F29981C9329181218161A0875
:100320008C1A8F297F291A08F8007808F83A031DDB
:10033000C829DC30F8000621203084004030F40069
:1003400083130008F800840A0621F40BA129403029
:10035000F400840384170008F80084030621F40BDA
:10036000AB294030F400840A83170008F800840A9F
:100370000621F40BB5294030F400840384130008EF
:10038000F80084030621F40BBF2983132A227F2956
:100390007808F93A031DD129DD30F80006210F2233
:1003A0007F297808FA3A031DDA29DE30F8000621A1
:1003B00004227F297808F33A031D7F29DC30F800F6
:1003C00006217F29831203138614831336220130FA
:1003D000F300F400F50079287928F5207808DF3952
:1003E0002038F00083120313F5207808E000F52090
:1003F0007808E100F5207808E200F5207808F1009F
:10040000F5207808F2000800F520F520F520F52009
:10041000F5207808F100F5207808F2000800013096
:10042000F80006210030F80006217008F8000621C7
:10043000831203136008F80006216108F800062102
:100440006208F80006217108F80006217208F80019
:10045000062108007908F8000621F8010621062186
:10046000831203136308F80006210800F9018316BC
:1004700003130715871085160512831203138710BF
:1004800005127917051C7913851C7913851CF9173A
:100490000718F91587140516831603138714071117
:1004A0000516851283120313071185127916051C90
:1004B0007912851C7912851CF9160718791507150C
:1004C0008516891006158611861009100000000097
:1004D00000000000000008080914861489100611A5
:1004E0008611E300080009103F30F5002030840039
:1004F0007208F3007108F40000000B2108080914C9
:1005000009108000840A7208F3007108F4000B21BE
:10051000F50B7E2A000008080914091080008417D2
:100520003F30F5007208F3007108F4000B21000061
:10053000080809140910800084037208F300710888
:10054000F4000B21F50B982A000008080914091083
:10055000800083173F30F5007208F3007108F40043
:100560000B2100000808091409108000840A720891
:10057000F3007108F4000B21F50BB22A0000080803
:1005800009140910800084133F30F5007208F3004D
:100590007108F4000B2100000808091409108000FC
:1005A00084037208F3007108F4000B21F50BCC2AC8
:1005B0000000080809148A110A1216290910891462
:1005C0002030840008080914091089108000840A6A
:1005D0001F30F5007208F3007108F4000B210000D1
:1005E00008080914091089148000840A08080914ED
:1005F000091089108000840A7208F3007108F40061
:100600000B21F50BF02A00000808091409108914C1
:1006100080008417080809140910891080008403D9
:100620001F30F5007208F3007108F4000B21000080
:1006300008080914091089148000840308080914A3
:1006400009108910800084037208F3007108F40017
:100650000B21F50B182B0000080809140910891448
:100660008000831708080914091089108000840A83
:100670001F30F5007208F3007108F4000B21000030
:1006800008080914091089148000840A080809144C
:10069000091089108000840A7208F3007108F400C0
:1006A0000B21F50B402B00000808091409108914D0
:1006B000800084130808091409108910800084033D
:1006C0001F30F5007208F3007108F4000B210000E0
:1006D0000808091409108914800084030808091403
:1006E00009108910800084037208F3007108F40077
:1006F0000B21F50B682B0000080809148A110A1257
:10070000162909103F30F30020308400000008084B
:10071000091409108000840AF30B872B00000808D5
:1007200009140910800084173F30F3000000080806
:100730000914091080008403F30B972B00000808AC
:1007400009140910800083173F30F30000000808E7
:10075000091409108000840AF30BA72B0000080875
:1007600009140910800084133F30F30000000808CA
:100770000914091080008403F30BB72B000008084C
:1007800009148A110A12162909103F30F30020308B
:100790008400CA2B701DCD2B2324080809140910CE
:1007A0008000840A701DD52B23240000F30BCD2B71
:1007B0000000080809140910800084173F30F30076
:1007C000E12B701DE42B2324080809140910800074
:1007D0008403701DEC2B23240000F30BE42B00009A
:1007E000080809140910800083173F30F300F82B24
:1007F000701DFB2B23240808091409108000840AAB
:10080000701D032C23240000F30BFB2B00000808B1
:1008100009140910800084133F30F3000F2C701D61
:10082000122C232408080914091080008403701D69
:100830001A2C23240000F30B122C000008080914C2
:100840008A110A121629242C0000262C08000910EF
:1008500089142030840008080914091089108000C8
:10086000840A1F30F500701C24242624080809146B
:10087000091089148000840A0808091409108910D5
:100880008000840A701C2424452C0000F50B362CB3
:10089000000008080914091089148000841708084A
:1008A000091409108910800084031F30F500701CA2
:1008B00024242624080809140910891480008403BC
:1008C000080809140910891080008403701C24246E
:1008D000692C0000F50B5A2C0000080809140910B7
:1008E00089148000831708080914091089108000F2
:1008F000840A1F30F500701C2424262408080914DB
:10090000091089148000840A080809140910891044
:100910008000840A701C24248D2C0000F50B7E2C92
:1009200000000808091409108914800084130808BD
:10093000091409108910800084031F30F500701C11
:10094000242426240808091409108914800084032B
:10095000080809140910891080008403701C2424DD
:10096000B12C0000F50BA22C0000080809148A1114
:100970000A121629091020308400000009140910F9
:1009800008088000840A0914091008088000840AF5
:100990000914091008088000840A091409100808BD
:1009A0008000840A0914091008088000840A0914C8
:1009B000091008088000840A09140910080880003A
:1009C000840A0914091008088000840A091409100F
:1009D00008088000840A0914091008088000840AA5
:1009E0000914091008088000840A0914091008086D
:1009F0008000840A0914091008088000840A091478
:100A0000091008088000840A0914091008088000E9
:100A1000840A0914091008088000840A09140910BE
:100A200008088000840A0914091008088000840A54
:100A30000914091008088000840A0914091008081C
:100A40008000840A0914091008088000840A091427
:100A5000091008088000840A091409100808800099
:100A6000840A0914091008088000840A091409106E
:100A700008088000840A0914091008088000840A04
:100A80000914091008088000840A091409100808CC
:100A90008000840A0914091008088000840A0914D7
:100AA000091008088000840A091409100808800049
:100AB000840A0914091008088000840A091409101E
:100AC00008088000840A0914091008088000840AB4
:100AD0000914091008088000840A0914091008087C
:100AE0008000840A0914091008088000840A091487
:100AF000091008088000840A0914091008088000F9
:100B0000840A0914091008088000840A09140910CD
:100B100008088000840A0914091008088000840A63
:100B20000914091008088000840A0914091008082B
:100B30008000840A0914091008088000840A091436
:100B4000091008088000840A0914091008088000A8
:100B5000840A0914091008088000840A091409107D
:100B600008088000840A0914091008088000840A13
:100B70000914091008088000840A091409100808DB
:100B80008000840A0914091008088000840A0914E6
:100B9000091008088000840A091409100808800058
:100BA000840A0914091008088000840A091409102D
:100BB00008088000840A0914091008088000840AC3
:100BC0000914091008088000840A0914091008088B
:100BD0008000840A0914091008088000840A091496
:100BE000091008088000840A091409100808800008
:100BF000840A0914091008088000841709140910D0
:100C00000808800084030914091008088000840380
:100C10000914091008088000840309140910080841
:100C20008000840309140910080880008403091453
:100C300009100808800084030914091008088000BE
:100C4000840309140910080880008403091409109A
:100C50000808800084030914091008088000840330
:100C600009140910080880008403091409100808F1
:100C70008000840309140910080880008403091403
:100C8000091008088000840309140910080880006E
:100C9000840309140910080880008403091409104A
:100CA00008088000840309140910080880008403E0
:100CB00009140910080880008403091409100808A1
:100CC00080008403091409100808800084030914B3
:100CD000091008088000840309140910080880001E
:100CE00084030914091008088000840309140910FA
:100CF0000808800084030914091008088000840390
:100D00000914091008088000840309140910080850
:100D10008000840309140910080880008403091462
:100D200009100808800084030914091008088000CD
:100D300084030914091008088000840309140910A9
:100D4000080880008403091409100808800084033F
:100D50000914091008088000840309140910080800
:100D60008000840309140910080880008403091412
:100D7000091008088000840309140910080880007D
:100D80008403091409100808800084030914091059
:100D900008088000840309140910080880008403EF
:100DA00009140910080880008403091409100808B0
:100DB00080008403091409100808800084030914C2
:100DC000091008088000840309140910080880002D
:100DD0008403091409100808800084030914091009
:100DE000080880008403091409100808800084039F
:100DF0000914091008088000840309140910080860
:100E00008000840309140910080880008403091471
:100E100009100808800084030914091008088000DC
:100E200084030914091008088000840309140910B8
:100E3000080880008403091409100808800084034E
:100E4000091409100808800084030914091008080F
:100E50008000840309140910080880008403091421
:100E6000091008088000840309140910080880008C
:100E70008403091409100808800083170914091055
:100E800008088000840A0914091008088000840AF0
:100E90000914091008088000840A091409100808B8
:100EA0008000840A0914091008088000840A0914C3
:100EB000091008088000840A091409100808800035
:100EC000840A0914091008088000840A091409100A
:100ED00008088000840A0914091008088000840AA0
:100EE0000914091008088000840A09140910080868
:100EF0008000840A0914091008088000840A091473
:100F0000091008088000840A0914091008088000E4
:100F1000840A0914091008088000840A09140910B9
:100F200008088000840A0914091008088000840A4F
:100F30000914091008088000840A09140910080817
:100F40008000840A0914091008088000840A091422
:100F5000091008088000840A091409100808800094
:100F6000840A0914091008088000840A0914091069
:100F700008088000840A0914091008088000840AFF
:100F80000914091008088000840A091409100808C7
:100F90008000840A0914091008088000840A0914D2
:100FA000091008088000840A091409100808800044
:100FB000840A0914091008088000840A0914091019
:100FC00008088000840A0914091008088000840AAF
:100FD0000914091008088000840A09140910080877
:100FE0008000840A0914091008088000840A091482
:100FF000091008088000840A0914091008088000F4
:10100000840A0914091008088000840A09140910C8
:1010100008088000840A0914091008088000840A5E
:101020000914091008088000840A09140910080826
:101030008000840A0914091008088000840A091431
:10104000091008088000840A0914091008088000A3
:10105000840A0914091008088000840A0914091078
:1010600008088000840A0914091008088000840A0E
:101070000914091008088000840A091409100808D6
:101080008000840A0914091008088000840A0914E1
:10109000091008088000840A091409100808800053
:1010A000840A0914091008088000840A0914091028
:1010B00008088000840A0914091008088000840ABE
:1010C0000914091008088000840A09140910080886
:1010D0008000840A0914091008088000840A091491
:1010E000091008088000840A091409100808800003
:1010F000840A0914091008088000841309140910CF
:10110000080880008403091409100808800084037B
:10111000091409100808800084030914091008083C
:10112000800084030914091008088000840309144E
:1011300009100808800084030914091008088000B9
:101140008403091409100808800084030914091095
:10115000080880008403091409100808800084032B
:1011600009140910080880008403091409100808EC
:1011700080008403091409100808800084030914FE
:101180000910080880008403091409100808800069
:101190008403091409100808800084030914091045
:1011A00008088000840309140910080880008403DB
:1011B000091409100808800084030914091008089C
:1011C00080008403091409100808800084030914AE
:1011D0000910080880008403091409100808800019
:1011E00084030914091008088000840309140910F5
:1011F000080880008403091409100808800084038B
:10120000091409100808800084030914091008084B
:10121000800084030914091008088000840309145D
:1012200009100808800084030914091008088000C8
:1012300084030914091008088000840309140910A4
:10124000080880008403091409100808800084033A
:1012500009140910080880008403091409100808FB
:10126000800084030914091008088000840309140D
:101270000910080880008403091409100808800078
:101280008403091409100808800084030914091054
:1012900008088000840309140910080880008403EA
:1012A00009140910080880008403091409100808AB
:1012B00080008403091409100808800084030914BD
:1012C0000910080880008403091409100808800028
:1012D0008403091409100808800084030914091004
:1012E000080880008403091409100808800084039A
:1012F000091409100808800084030914091008085B
:10130000800084030914091008088000840309146C
:1013100009100808800084030914091008088000D7
:1013200084030914091008088000840309140910B3
:101330000808800084030914091008088000840349
:10134000091409100808800084030914091008080A
:10135000800084030914091008088000840309141C
:101360000910080880008403091409100808800087
:101370008403091408088A110A121629091089140D
:101380002030840008080914091089108000840A9C
:1013900008080914091089148000840A080809142F
:1013A000091089108000840A08080914091089149A
:1013B0008000840A08080914091089108000840A32
:1013C00008080914091089148000840A08080914FF
:1013D000091089108000840A08080914091089146A
:1013E0008000840A08080914091089108000840A02
:1013F00008080914091089148000840A08080914CF
:10140000091089108000840A080809140910891439
:101410008000840A08080914091089108000840AD1
:1014200008080914091089148000840A080809149E
:10143000091089108000840A080809140910891409
:101440008000840A08080914091089108000840AA1
:1014500008080914091089148000840A080809146E
:10146000091089108000840A0808091409108914D9
:101470008000840A08080914091089108000840A71
:1014800008080914091089148000840A080809143E
:10149000091089108000840A0808091409108914A9
:1014A0008000840A08080914091089108000840A41
:1014B00008080914091089148000840A080809140E
:1014C000091089108000840A080809140910891479
:1014D0008000840A08080914091089108000840A11
:1014E00008080914091089148000840A08080914DE
:1014F000091089108000840A080809140910891449
:101500008000840A08080914091089108000840AE0
:1015100008080914091089148000840A08080914AD
:10152000091089108000840A080809140910891418
:101530008000840A08080914091089108000840AB0
:1015400008080914091089148000840A080809147D
:10155000091089108000840A0808091409108914E8
:101560008000840A08080914091089108000840A80
:1015700008080914091089148000840A080809144D
:10158000091089108000840A0808091409108914B8
:101590008000840A08080914091089108000840A50
:1015A00008080914091089148000840A080809141D
:1015B000091089108000840A080809140910891488
:1015C0008000840A08080914091089108000840A20
:1015D00008080914091089148000840A08080914ED
:1015E000091089108000840A080809140910891458
:1015F0008000840A08080914091089108000840AF0
:1016000008080914091089148000840A08080914BC
:10161000091089108000840A080809140910891427
:101620008000840A08080914091089108000840ABF
:1016300008080914091089148000840A080809148C
:10164000091089108000840A0808091409108914F7
:101650008000840A08080914091089108000840A8F
:1016600008080914091089148000840A080809145C
:10167000091089108000840A0808091409108914C7
:101680008000841708080914091089108000840359
:101690000808091409108914800084030808091433
:1016A000091089108000840308080914091089149E
:1016B000800084030808091409108910800084033D
:1016C0000808091409108914800084030808091403
:1016D000091089108000840308080914091089146E
:1016E000800084030808091409108910800084030D
:1016F00008080914091089148000840308080914D3
:10170000091089108000840308080914091089143D
:1017100080008403080809140910891080008403DC
:1017200008080914091089148000840308080914A2
:10173000091089108000840308080914091089140D
:1017400080008403080809140910891080008403AC
:101750000808091409108914800084030808091472
:1017600009108910800084030808091409108914DD
:10177000800084030808091409108910800084037C
:101780000808091409108914800084030808091442
:1017900009108910800084030808091409108914AD
:1017A000800084030808091409108910800084034C
:1017B0000808091409108914800084030808091412
:1017C000091089108000840308080914091089147D
:1017D000800084030808091409108910800084031C
:1017E00008080914091089148000840308080914E2
:1017F000091089108000840308080914091089144D
:1018000080008403080809140910891080008403EB
:1018100008080914091089148000840308080914B1
:10182000091089108000840308080914091089141C
:1018300080008403080809140910891080008403BB
:101840000808091409108914800084030808091481
:1018500009108910800084030808091409108914EC
:10186000800084030808091409108910800084038B
:101870000808091409108914800084030808091451
:1018800009108910800084030808091409108914BC
:10189000800084030808091409108910800084035B
:1018A0000808091409108914800084030808091421
:1018B000091089108000840308080914091089148C
:1018C000800084030808091409108910800084032B
:1018D00008080914091089148000840308080914F1
:1018E000091089108000840308080914091089145C
:1018F00080008403080809140910891080008403FB
:1019000008080914091089148000840308080914C0
:10191000091089108000840308080914091089142B
:1019200080008403080809140910891080008403CA
:101930000808091409108914800084030808091490
:1019400009108910800084030808091409108914FB
:10195000800084030808091409108910800084039A
:101960000808091409108914800084030808091460
:1019700009108910800084030808091409108914CB
:101980008000831708080914091089108000840A50
:1019900008080914091089148000840A0808091429
:1019A000091089108000840A080809140910891494
:1019B0008000840A08080914091089108000840A2C
:1019C00008080914091089148000840A08080914F9
:1019D000091089108000840A080809140910891464
:1019E0008000840A08080914091089108000840AFC
:1019F00008080914091089148000840A08080914C9
:101A0000091089108000840A080809140910891433
:101A10008000840A08080914091089108000840ACB
:101A200008080914091089148000840A0808091498
:101A3000091089108000840A080809140910891403
:101A40008000840A08080914091089108000840A9B
:101A500008080914091089148000840A0808091468
:101A6000091089108000840A0808091409108914D3
:101A70008000840A08080914091089108000840A6B
:101A800008080914091089148000840A0808091438
:101A9000091089108000840A0808091409108914A3
:101AA0008000840A08080914091089108000840A3B
:101AB00008080914091089148000840A0808091408
:101AC000091089108000840A080809140910891473
:101AD0008000840A08080914091089108000840A0B
:101AE00008080914091089148000840A08080914D8
:101AF000091089108000840A080809140910891443
:101B00008000840A08080914091089108000840ADA
:101B100008080914091089148000840A08080914A7
:101B2000091089108000840A080809140910891412
:101B30008000840A08080914091089108000840AAA
:101B400008080914091089148000840A0808091477
:101B5000091089108000840A0808091409108914E2
:101B60008000840A08080914091089108000840A7A
:101B700008080914091089148000840A0808091447
:101B8000091089108000840A0808091409108914B2
:101B90008000840A08080914091089108000840A4A
:101BA00008080914091089148000840A0808091417
:101BB000091089108000840A080809140910891482
:101BC0008000840A08080914091089108000840A1A
:101BD00008080914091089148000840A08080914E7
:101BE000091089108000840A080809140910891452
:101BF0008000840A08080914091089108000840AEA
:101C000008080914091089148000840A08080914B6
:101C1000091089108000840A080809140910891421
:101C20008000840A08080914091089108000840AB9
:101C300008080914091089148000840A0808091486
:101C4000091089108000840A0808091409108914F1
:101C50008000840A08080914091089108000840A89
:101C600008080914091089148000840A0808091456
:101C7000091089108000840A0808091409108914C1
:101C80008000841308080914091089108000840357
:101C9000080809140910891480008403080809142D
:101CA0000910891080008403080809140910891498
:101CB0008000840308080914091089108000840337
:101CC00008080914091089148000840308080914FD
:101CD0000910891080008403080809140910891468
:101CE0008000840308080914091089108000840307
:101CF00008080914091089148000840308080914CD
:101D00000910891080008403080809140910891437
:101D100080008403080809140910891080008403D6
:101D2000080809140910891480008403080809149C
:101D30000910891080008403080809140910891407
:101D400080008403080809140910891080008403A6
:101D5000080809140910891480008403080809146C
:101D600009108910800084030808091409108914D7
:101D70008000840308080914091089108000840376
:101D8000080809140910891480008403080809143C
:101D900009108910800084030808091409108914A7
:101DA0008000840308080914091089108000840346
:101DB000080809140910891480008403080809140C
:101DC0000910891080008403080809140910891477
:101DD0008000840308080914091089108000840316
:101DE00008080914091089148000840308080914DC
:101DF0000910891080008403080809140910891447
:101E000080008403080809140910891080008403E5
:101E100008080914091089148000840308080914AB
:101E20000910891080008403080809140910891416
:101E300080008403080809140910891080008403B5
:101E4000080809140910891480008403080809147B
:101E500009108910800084030808091409108914E6
:101E60008000840308080914091089108000840385
:101E7000080809140910891480008403080809144B
:101E800009108910800084030808091409108914B6
:101E90008000840308080914091089108000840355
:101EA000080809140910891480008403080809141B
:101EB0000910891080008403080809140910891486
:101EC0008000840308080914091089108000840325
:101ED00008080914091089148000840308080914EB
:101EE0000910891080008403080809140910891456
:101EF00080008403080809140910891080008403F5
:101F000008080914091089148000840308080914BA
:101F10000910891080008403080809140910891425
:101F200080008403080809140910891080008403C4
:101F3000080809140910891480008403080809148A
:101F400009108910800084030808091409108914F5
:101F50008000840308080914091089108000840394
:101F6000080809140910891480008403080809145A
:101F70000910891080008403080809148A110A12C4
:101F800016290910203084000000080809140910DF
:101F90008000840A00000808091409108000840ADF
:101FA00000000808091409108000840A00000808CD
:101FB000091409108000840A000008080914091097
:101FC0008000840A00000808091409108000840AAF
:101FD00000000808091409108000840A000008089D
:101FE000091409108000840A000008080914091067
:101FF0008000840A00000808091409108000840A7F
:1020000000000808091409108000840A000008086C
:10201000091409108000840A000008080914091036
:102020008000840A00000808091409108000840A4E
:1020300000000808091409108000840A000008083C
:10204000091409108000840A000008080914091006
:102050008000840A00000808091409108000840A1E
:1020600000000808091409108000840A000008080C
:10207000091409108000840A0000080809140910D6
:102080008000840A00000808091409108000840AEE
:1020900000000808091409108000840A00000808DC
:1020A000091409108000840A0000080809140910A6
:1020B0008000840A00000808091409108000840ABE
:1020C00000000808091409108000840A00000808AC
:1020D000091409108000840A000008080914091076
:1020E0008000840A00000808091409108000840A8E
:1020F00000000808091409108000840A000008087C
:10210000091409108000840A000008080914091045
:102110008000840A00000808091409108000840A5D
:1021200000000808091409108000840A000008084B
:10213000091409108000840A000008080914091015
:102140008000840A00000808091409108000840A2D
:1021500000000808091409108000840A000008081B
:10216000091409108000840A0000080809140910E5
:102170008000840A00000808091409108000840AFD
:1021800000000808091409108000840A00000808EB
:10219000091409108000840A0000080809140910B5
:1021A0008000840A00000808091409108000840ACD
:1021B00000000808091409108000840A00000808BB
:1021C000091409108000840A000008080914091085
:1021D0008000840A00000808091409108000840A9D
:1021E00000000808091409108000840A000008088B
:1021F000091409108000840A000008080914091055
:102200008000840A00000808091409108000840A6C
:1022100000000808091409108000840A000008085A
:10222000091409108000840A000008080914091024
:102230008000840A00000808091409108000840A3C
:1022400000000808091409108000840A000008082A
:10225000091409108000840A0000080809140910F4
:102260008000840A00000808091409108000840A0C
:1022700000000808091409108000840A00000808FA
:1022800009140910800084170000080809140910B7
:1022900080008403000008080914091080008403EA
:1022A00000000808091409108000840300000808D1
:1022B000091409108000840300000808091409109B
:1022C00080008403000008080914091080008403BA
:1022D00000000808091409108000840300000808A1
:1022E000091409108000840300000808091409106B
:1022F000800084030000080809140910800084038A
:102300000000080809140910800084030000080870
:10231000091409108000840300000808091409103A
:102320008000840300000808091409108000840359
:102330000000080809140910800084030000080840
:10234000091409108000840300000808091409100A
:102350008000840300000808091409108000840329
:102360000000080809140910800084030000080810
:1023700009140910800084030000080809140910DA
:1023800080008403000008080914091080008403F9
:1023900000000808091409108000840300000808E0
:1023A00009140910800084030000080809140910AA
:1023B00080008403000008080914091080008403C9
:1023C00000000808091409108000840300000808B0
:1023D000091409108000840300000808091409107A
:1023E0008000840300000808091409108000840399
:1023F0000000080809140910800084030000080880
:102400000914091080008403000008080914091049
:102410008000840300000808091409108000840368
:10242000000008080914091080008403000008084F
:102430000914091080008403000008080914091019
:102440008000840300000808091409108000840338
:10245000000008080914091080008403000008081F
:1024600009140910800084030000080809140910E9
:102470008000840300000808091409108000840308
:1024800000000808091409108000840300000808EF
:1024900009140910800084030000080809140910B9
:1024A00080008403000008080914091080008403D8
:1024B00000000808091409108000840300000808BF
:1024C0000914091080008403000008080914091089
:1024D00080008403000008080914091080008403A8
:1024E000000008080914091080008403000008088F
:1024F0000914091080008403000008080914091059
:102500008000840300000808091409108000840377
:10251000000008080914091080008403000008085E
:102520000914091080008403000008080914091028
:102530008000840300000808091409108000840347
:10254000000008080914091080008403000008082E
:1025500009140910800084030000080809140910F8
:102560008000840300000808091409108000840317
:1025700000000808091409108000840300000808FE
:1025800009140910800083170000080809140910B5
:102590008000840A00000808091409108000840AD9
:1025A00000000808091409108000840A00000808C7
:1025B000091409108000840A000008080914091091
:1025C0008000840A00000808091409108000840AA9
:1025D00000000808091409108000840A0000080897
:1025E000091409108000840A000008080914091061
:1025F0008000840A00000808091409108000840A79
:1026000000000808091409108000840A0000080866
:10261000091409108000840A000008080914091030
:102620008000840A00000808091409108000840A48
:1026300000000808091409108000840A0000080836
:10264000091409108000840A000008080914091000
:102650008000840A00000808091409108000840A18
:1026600000000808091409108000840A0000080806
:10267000091409108000840A0000080809140910D0
:102680008000840A00000808091409108000840AE8
:1026900000000808091409108000840A00000808D6
:1026A000091409108000840A0000080809140910A0
:1026B0008000840A00000808091409108000840AB8
:1026C00000000808091409108000840A00000808A6
:1026D000091409108000840A000008080914091070
:1026E0008000840A00000808091409108000840A88
:1026F00000000808091409108000840A0000080876
:10270000091409108000840A00000808091409103F
:102710008000840A00000808091409108000840A57
:1027200000000808091409108000840A0000080845
:10273000091409108000840A00000808091409100F
:102740008000840A00000808091409108000840A27
:1027500000000808091409108000840A0000080815
:10276000091409108000840A0000080809140910DF
:102770008000840A00000808091409108000840AF7
:1027800000000808091409108000840A00000808E5
:10279000091409108000840A0000080809140910AF
:1027A0008000840A00000808091409108000840AC7
:1027B00000000808091409108000840A00000808B5
:1027C000091409108000840A00000808091409107F
:1027D0008000840A00000808091409108000840A97
:1027E00000000808091409108000840A0000080885
:1027F000091409108000840A00000808091409104F
:102800008000840A00000808091409108000840A66
:1028100000000808091409108000840A0000080854
:10282000091409108000840A00000808091409101E
:102830008000840A00000808091409108000840A36
:1028400000000808091409108000840A0000080824
:10285000091409108000840A0000080809140910EE
:102860008000840A00000808091409108000840A06
:1028700000000808091409108000840A00000808F4
:1028800009140910800084130000080809140910B5
:1028900080008403000008080914091080008403E4
:1028A00000000808091409108000840300000808CB
:1028B0000914091080008403000008080914091095
:1028C00080008403000008080914091080008403B4
:1028D000000008080914091080008403000008089B
:1028E0000914091080008403000008080914091065
:1028F0008000840300000808091409108000840384
:10290000000008080914091080008403000008086A
:102910000914091080008403000008080914091034
:102920008000840300000808091409108000840353
:10293000000008080914091080008403000008083A
:102940000914091080008403000008080914091004
:102950008000840300000808091409108000840323
:10296000000008080914091080008403000008080A
:1029700009140910800084030000080809140910D4
:1029800080008403000008080914091080008403F3
:1029900000000808091409108000840300000808DA
:1029A00009140910800084030000080809140910A4
:1029B00080008403000008080914091080008403C3
:1029C00000000808091409108000840300000808AA
:1029D0000914091080008403000008080914091074
:1029E0008000840300000808091409108000840393
:1029F000000008080914091080008403000008087A
:102A00000914091080008403000008080914091043
:102A10008000840300000808091409108000840362
:102A20000000080809140910800084030000080849
:102A30000914091080008403000008080914091013
:102A40008000840300000808091409108000840332
:102A50000000080809140910800084030000080819
:102A600009140910800084030000080809140910E3
:102A70008000840300000808091409108000840302
:102A800000000808091409108000840300000808E9
:102A900009140910800084030000080809140910B3
:102AA00080008403000008080914091080008403D2
:102AB00000000808091409108000840300000808B9
:102AC0000914091080008403000008080914091083
:102AD00080008403000008080914091080008403A2
:102AE0000000080809140910800084030000080889
:102AF0000914091080008403000008080914091053
:102B00008000840300000808091409108000840371
:102B10000000080809140910800084030000080858
:102B20000914091080008403000008080914091022
:102B30008000840300000808091409108000840341
:102B40000000080809140910800084030000080828
:102B500009140910800084030000080809140910F2
:102B60008000840300000808091409108000840311
:102B700000000808091409108000840300000808F8
:102B800009148A110A12162915308A00770882075B
:102B90000A168A11D72D0A168A11E72E0A168A11EB
:102BA000EA2F0A168A15ED280A168A15F129091046
:102BB0002030840000000914091008088000840AED
:102BC0000914091008088000840A0914091008086B
:102BD0008000840A0914091008088000840A091476
:102BE000091008088000840A0914091008088000E8
:102BF000840A0914091008088000840A09140910BD
:102C000008088000840A0914091008088000840A52
:102C10000914091008088000840A0914091008081A
:102C20008000840A0914091008088000840A091425
:102C3000091008088000840A091409100808800097
:102C4000840A0914091008088000840A091409106C
:102C500008088000840A0914091008088000840A02
:102C60000914091008088000840A091409100808CA
:102C70008000840A0914091008088000840A0914D5
:102C8000091008088000840A091409100808800047
:102C9000840A0914091008088000840A091409101C
:102CA00008088000840A0914091008088000840AB2
:102CB0000914091008088000840A0914091008087A
:102CC0008000840A0914091008088000840A091485
:102CD000091008088000840A0914091008088000F7
:102CE000840A0914091008088000840A09140910CC
:102CF00008088000840A0914091008088000840A62
:102D00000914091008088000840A09140910080829
:102D10008000840A0914091008088000840A091434
:102D2000091008088000840A0914091008088000A6
:102D3000840A0914091008088000840A091409107B
:102D400008088000840A0914091008088000840A11
:102D50000914091008088000840A091409100808D9
:102D60008000840A0914091008088000840A0914E4
:102D7000091008088000840A091409100808800056
:102D8000840A0914091008088000840A091409102B
:102D900008088000840A0914091008088000840AC1
:102DA0000914091008088000840A09140910080889
:102DB0008000840A091408088000840AE12E80003B
:102DC00084030330F70786140A128A117B28000057
:102DD0000910EA2E00000914091008088000840A6E
:102DE0000914091008088000840A09140910080849
:102DF0008000840A0914091008088000840A091454
:102E0000091008088000840A0914091008088000C5
:102E1000840A0914091008088000840A091409109A
:102E200008088000840A0914091008088000840A30
:102E30000914091008088000840A091409100808F8
:102E40008000840A091409100808800084170914F6
:102E5000091008088000840309140910080880007C
:102E60008403091409100808800084030914091058
:102E700008088000840309140910080880008403EE
:102E800009140910080880008403091409100808AF
:102E900080008403091409100808800084030914C1
:102EA000091008088000840309140910080880002C
:102EB0008403091409100808800084030914091008
:102EC000080880008403091409100808800084039E
:102ED000091409100808800084030914091008085F
:102EE0008000840309140910080880008403091471
:102EF00009100808800084030914091008088000DC
:102F000084030914091008088000840309140910B7
:102F1000080880008403091409100808800084034D
:102F2000091409100808800084030914091008080E
:102F30008000840309140910080880008403091420
:102F4000091008088000840309140910080880008B
:102F50008403091409100808800084030914091067
:102F600008088000840309140910080880008403FD
:102F700009140910080880008403091409100808BE
:102F800080008403091409100808800084030914D0
:102F9000091008088000840309140910080880003B
:102FA0008403091409100808800084030914091017
:102FB00008088000840309140910080880008403AD
:102FC00009140910080880008403091408080A1667
:102FD0008A11DF2EEB2F0910ED2F000009140910C4
:102FE000080880008403091409100808800084037D
:102FF000091409100808800084030914091008083E
:10300000800084030914091008088000840309144F
:1030100009100808800084030914091008088000BA
:103020008403091409100808800084030914091096
:10303000080880008403091409100808800084032C
:1030400009140910080880008403091409100808ED
:1030500080008403091409100808800084030914FF
:10306000091008088000840309140910080880006A
:103070008403091409100808800084030914091046
:1030800008088000840309140910080880008403DC
:10309000091409100808800084030914091008089D
:1030A00080008403091409100808800084030914AF
:1030B000091008088000840309140910080880001A
:1030C00084030914091008088000840309140910F6
:1030D0000808800083170914091008088000840A72
:1030E0000914091008088000840A09140910080846
:1030F0008000840A0914091008088000840A091451
:10310000091008088000840A0914091008088000C2
:10311000840A0914091008088000840A0914091097
:1031200008088000840A0914091008088000840A2D
:103130000914091008088000840A091409100808F5
:103140008000840A0914091008088000840A091400
:10315000091008088000840A091409100808800072
:10316000840A0914091008088000840A0914091047
:1031700008088000840A0914091008088000840ADD
:103180000914091008088000840A091409100808A5
:103190008000840A0914091008088000840A0914B0
:1031A000091008088000840A091409100808800022
:1031B000840A0914091008088000840A09140910F7
:1031C00008088000840A0914091008088000840A8D
:1031D000091408080A168A11DC2EEE2800000910CE
:1031E000F12800000914091008088000840A091455
:1031F000091008088000840A0914091008088000D2
:10320000840A0914091008088000840A09140910A6
:1032100008088000840A0914091008088000840A3C
:103220000914091008088000840A09140910080804
:103230008000840A0914091008088000840A09140F
:10324000091008088000840A091409100808800081
:10325000840A0914091008088000840A0914091056
:1032600008088000840A0914091008088000840AEC
:103270000914091008088000840A091409100808B4
:103280008000840A0914091008088000840A0914BF
:10329000091008088000840A091409100808800031
:1032A000840A0914091008088000840A0914091006
:1032B00008088000840A0914091008088000840A9C
:1032C0000914091008088000840A09140910080864
:1032D0008000840A0914091008088000840A09146F
:1032E000091008088000840A0914091008088000E1
:1032F000840A0914091008088000840A09140910B6
:1033000008088000840A0914091008088000840A4B
:103310000914091008088000840A09140910080813
:103320008000840A0914091008088000840A09141E
:10333000091008088000840A091409100808800090
:10334000840A0914091008088000840A0914091065
:1033500008088000840A09140910080880008413F2
:1033600009140910080880008403091409100808CA
:1033700080008403091409100808800084030914DC
:103380000910080880008403091409100808800047
:103390008403091409100808800084030914091023
:1033A00008088000840309140910080880008403B9
:1033B000091409100808800084030914091008087A
:1033C000800084030914091008088000840309148C
:1033D0000910080880008403091408080A168A11D5
:1033E000DF2EF2290A128A1509100000BF281930B1
:1033F0008A00770882070A168A15042A0A168A158F
:103400000B2C0A168A150C2E09102030840000009F
:103410000808091409108000840A0000080809142B
:1034200009108000840A00000808091409108000AF
:10343000840A00000808091409108000840A0000AA
:103440000808091409108000840A000008080914FB
:1034500009108000840A000008080914091080007F
:10346000840A00000808091409108000840A00007A
:103470000808091409108000840A000008080914CB
:1034800009108000840A000008080914091080004F
:10349000840A00000808091409108000840A00004A
:1034A0000808091409108000840A0000080809149B
:1034B00009108000840A000008080914091080001F
:1034C000840A00000808091409108000840A00001A
:1034D0000808091409108000840A0000080809146B
:1034E00009108000840A00000808091409108000EF
:1034F000840A00000808091409108000840A0000EA
:103500000808091409108000840A0000080809143A
:1035100009108000840A00000808091409108000BE
:10352000840A00000808091409108000840A0000B9
:103530000808091409108000840A0000080809140A
:1035400009108000840A000008080914091080008E
:10355000840A00000808091409108000840A000089
:103560000808091409108000840A000008080914DA
:1035700009108000840A000008080914091080005E
:10358000840A00000808091409108000840A000059
:103590000808091409108000840A000008080914AA
:1035A00009108000840A000008080914091080002E
:1035B000840A00000808091409108000840A000029
:1035C0000808091409108000840A0000080809147A
:1035D00009108000840A00000808091409108000FE
:1035E000840A00000808091409108000840A0000F9
:1035F0000808091409108000840A0000080809144A
:1036000009108000840A00000808091409108000CD
:10361000840A00000808091409108000840A0000C8
:103620000808091409108000840A00000808091419
:1036300009108000840A000008080914091080009D
:10364000840A00000808091409108000840A000098
:103650000808091409108000840A000008080914E9
:1036600009108000840A000008080914091080006D
:10367000840A00000808091409108000840A000068
:103680000808091409108000840A000008080914B9
:1036900009108000840A000008080914091080003D
:1036A000840A00000808091409108000840A000038
:1036B0000808091409108000840A00000808091489
:1036C00009108000840A000008080914091080000D
:1036D000840A00000808091409108000840A000008
:1036E0000808091409108000840A00000808091459
:1036F00009108000840A00000808091409108000DD
:10370000840A0000080809140910800084170000CA
:10371000080809140910800084030000080809142F
:1037200009108000840300000808091409108000B3
:1037300084030000080809140910800084030000B5
:1037400008080914091080008403000008080914FF
:103750000910800084030000080809140910800083
:103760008403000008080914091080008403000085
:1037700008080914091080008403000008080914CF
:103780000910800084030000080809140910800053
:103790008403000008080914091080008403000055
:1037A000080809140910800084030000080809149F
:1037B0000910800084030000080809140910800023
:1037C0008403000008080914091080008403000025
:1037D000080809140910800084030000080809146F
:1037E00009108000840300000808091409108000F3
:1037F00084030000080809140910800084030000F5
:10380000080809140910800084030000080809143E
:103810000A168A11DF2E0C2C09100E2C0000080845
:103820000914091080008403000008080914091015
:103830008000840300000808091409108000840334
:10384000000008080914091080008403000008081B
:1038500009140910800084030000080809140910E5
:103860008000840300000808091409108000840304
:1038700000000808091409108000840300000808EB
:1038800009140910800084030000080809140910B5
:1038900080008403000008080914091080008403D4
:1038A00000000808091409108000840300000808BB
:1038B0000914091080008403000008080914091085
:1038C00080008403000008080914091080008403A4
:1038D000000008080914091080008403000008088B
:1038E0000914091080008403000008080914091055
:1038F0008000840300000808091409108000840374
:10390000000008080914091080008403000008085A
:103910000914091080008403000008080914091024
:103920008000840300000808091409108000840343
:10393000000008080914091080008403000008082A
:1039400009140910800084030000080809140910F4
:103950008000840300000808091409108000840313
:1039600000000808091409108000840300000808FA
:1039700009140910800084030000080809140910C4
:1039800080008403000008080914091080008403E3
:1039900000000808091409108000840300000808CA
:1039A0000914091080008403000008080914091094
:1039B00080008403000008080914091080008403B3
:1039C000000008080914091080008403000008089A
:1039D0000914091080008403000008080914091064
:1039E0008000840300000808091409108000840383
:1039F000000008080914091080008403000008086A
:103A00000914091080008403000008080914091033
:103A10008000831700000808091409108000840A38
:103A200000000808091409108000840A0000080832
:103A3000091409108000840A0000080809140910FC
:103A40008000840A00000808091409108000840A14
:103A500000000808091409108000840A0000080802
:103A6000091409108000840A0000080809140910CC
:103A70008000840A00000808091409108000840AE4
:103A800000000808091409108000840A00000808D2
:103A9000091409108000840A00000808091409109C
:103AA0008000840A00000808091409108000840AB4
:103AB00000000808091409108000840A00000808A2
:103AC000091409108000840A00000808091409106C
:103AD0008000840A00000808091409108000840A84
:103AE00000000808091409108000840A0000080872
:103AF000091409108000840A00000808091409103C
:103B00008000840A00000808091409108000840A53
:103B100000000808091409108000840A0000080841
:103B2000091409108000840A00000808091409100B
:103B30008000840A00000808091409108000840A23
:103B400000000808091409108000840A0000080811
:103B5000091409108000840A0000080809140910DB
:103B60008000840A00000808091409108000840AF3
:103B700000000808091409108000840A00000808E1
:103B8000091409108000840A0000080809140910AB
:103B90008000840A00000808091409108000840AC3
:103BA00000000808091409108000840A00000808B1
:103BB000091409108000840A00000808091409107B
:103BC0008000840A00000808091409108000840A93
:103BD00000000808091409108000840A0000080881
:103BE000091409108000840A00000808091409104B
:103BF0008000840A00000808091409108000840A63
:103C000000000808091409108000840A0000080850
:103C100009140A168A11DC2E0D2E0A168A110910B3
:043C20000000C72BAE
:084000000100020003000400AE
:02400E00F2209E
:02401000FF3F70
:00000001FF
