:020000040000FA
:100000000130890088015028FA00030EFB000B1E06
:1000100042280B12F30B0A28F40B0A28F50B0A28C6
:10002000760882070A128A11B02C0A128A15B72F95
:100030000A128A11772B0A128A11BA2B0A128A1114
:10004000BA2B0A128A11692A0A168A11BA2D0A16BF
:100050008A15ED290A128A15B4290A128A111D2C53
:100060000A128A111D2C0A128A11D42A0A128A1124
:1000700065290A128A11E2290A128A1175280A12C0
:100080008A117528831203130C1C4B288316031343
:100090000C1C4B2814217B0E8300FA0E7A0E0900EB
:1000A00085018316031317308500C030810010309E
:1000B0008B0031308600FF30880004308900B93071
:1000C000870083160317880189010830870083168B
:1000D00003135630990000309A00243098008312A0
:1000E00003139030980083139F01A020F70189101B
:1000F000701A89148A0170080F39F6000310F60D82
:1001000076078610701F1128F600620AF300610A54
:10011000F400600AF500831603130113F01B0117A6
:10012000831203138B100B168B17EE207808F33A0B
:10013000031D9528DC30F800FF200B128B13752867
:10014000EE207808F83A031DD428DC30F800FF20B0
:10015000203084004030F4000008F800840AFF20BA
:10016000F40BAC284030F400841784030008F80036
:100170008403FF20F40BB6284030F4008317840A70
:100180000008F800840AFF20F40BC0284030F40077
:10019000841384030008F8008403FF20F40BCA28AA
:1001A000841383132022A0287808F93A031DDD2840
:1001B000DD30F800FF200522A0287808FA3A031D58
:1001C000E628DE30F800FF20E32108007808F33A43
:1001D000031DA028DC30F800FF20A0288C1EEE288C
:1001E000181DF4281A08EE28981CFC281812181656
:1001F0001A088C1AF828EE281A08F80000340C1E89
:10020000FF287808990000340130F302031CF4023F
:10021000F308031D0529F408031D052908008000C3
:10022000861483132C22752883120313101071096E
:100230008F0072098E000C1010140408E600640888
:10024000E5187F3AE5197F3A8400651C2A29841352
:1002500083133929E51C2F29841783133B29651D36
:100260003429841783173D29E51D39298413831701
:100270003F293A2900003C2900003E29000089104E
:10028000091042294329000008080914891409109B
:100290008000840A4B290000080809148000E40A41
:1002A000E40A60306406031D60292030E400031076
:1002B000E50D651E60291010831603130C100B1337
:1002C000831203136608840008008312031320308E
:1002D000E4000130E500101090161016FF308F007A
:1002E0008E000C10831603130C140B178B1783123C
:1002F00003131014831603130C1CDC29831203133D
:100300008C1E7A29181D86291A087A29981C8E298C
:10031000181218161A088C1A8A297A291A08F8004D
:100320007808F83A031DC229DC30F800FF2020309D
:1003300084004030F40083130008F800840AFF2092
:10034000F40B9C294030F400841784030008F80063
:100350008403FF20F40BA6294030F4008317840A9D
:100360000008F800840AFF20F40BB0294030F400A4
:10037000841384030008F8008403FF20F40BBA29D7
:1003800020227A297808F93A031DCB29DD30F800BC
:10039000FF2005227A297808FA3A031DD429DE3095
:1003A000F800FF20FA217A297808F33A031D7A2908
:1003B000DC30F800FF207A2983120313861483139C
:1003C0002C2275287528EE207808DF392038F000B7
:1003D00083120313EE207808E000EE207808E10095
:1003E000EE207808E200EE207808F100EE20780890
:1003F000F2000800EE20EE20EE20EE20EE2078083D
:10040000F100EE207808F20008000130F800FF202B
:100410000030F800FF207008F800FF20831203135B
:100420006008F800FF206108F800FF206208F8006B
:10043000FF207108F800FF207208F800FF20080074
:100440007908F800FF20F801FF20FF208312031332
:100450006308F800FF200800F9018316031307154D
:10046000871085160512831203138710051279175A
:10047000051C7913851C7913851CF9170718F915C4
:1004800087140516831603138714071105168512A2
:1004900083120313071185127916051C7912851C26
:1004A0007912851CF9160718791507158516891014
:1004B00006158611861009100000000000000000DB
:1004C0000000080809148614891006118611E3003B
:1004D000080009103F30F500203084007208F30056
:1004E0007108F400000004210808091409108000B4
:1004F000840A7208F3007108F4000421F50B742AD1
:100500000000080809140910800084173F30F50026
:100510007208F3007108F4000421000008080914AF
:100520000910800084037208F3007108F4000421AC
:10053000F50B8E2A000008080914091080008317A3
:100540003F30F5007208F3007108F4000421000048
:100550000808091409108000840A7208F300710861
:10056000F4000421F50BA82A00000808091409105A
:10057000800084133F30F5007208F3007108F40026
:10058000042100000808091409108000840372087F
:10059000F3007108F4000421F50BC22A00000808DA
:1005A00009148A110A120F290910891420308400B5
:1005B00008080914091089108000840A1F30F5000A
:1005C0007208F3007108F4000421000008080914FF
:1005D000091089148000840A080809140910891078
:1005E0008000840A7208F3007108F4000421F50BFE
:1005F000E62A0000080809140910891480008417ED
:100600000808091409108910800084031F30F500C0
:100610007208F3007108F4000421000008080914AE
:10062000091089148000840308080914091089102E
:10063000800084037208F3007108F4000421F50BB4
:100640000E2B000008080914091089148000831774
:1006500008080914091089108000840A1F30F50069
:100660007208F3007108F40004210000080809145E
:10067000091089148000840A0808091409108910D7
:100680008000840A7208F3007108F4000421F50B5D
:10069000362B0000080809140910891480008413FF
:1006A0000808091409108910800084031F30F50020
:1006B0007208F3007108F40004210000080809140E
:1006C000091089148000840308080914091089108E
:1006D000800084037208F3007108F4000421F50B14
:1006E0005E2B0000080809148A110A120F2909104C
:1006F0003F30F3002030840000000808091409107E
:100700008000840AF30B7D2B0000080809140910EF
:10071000800084173F30F300000008080914091016
:1007200080008403F30B8D2B0000080809140910C6
:10073000800083173F30F3000000080809140910F7
:100740008000840AF30B9D2B00000808091409108F
:10075000800084133F30F3000000080809140910DA
:1007600080008403F30BAD2B0000080809148A11E4
:100770000A120F2909103F30F30020308400C02BEB
:10078000701DC32B19240808091409108000840A5D
:10079000701DCB2B19240000F30BC32B000008089D
:1007A00009140910800084173F30F300D72B701D07
:1007B000DA2B192408080914091080008403701D1D
:1007C000E22B19240000F30BDA2B000008080914AF
:1007D0000910800083173F30F300EE2B701DF12BC2
:1007E00019240808091409108000840A701DF92BC7
:1007F00019240000F30BF12B00000808091409105C
:10080000800084133F30F300052C701D082C192440
:1008100008080914091080008403701D102C192485
:100820000000F30B082C0000080809148A110A12B2
:100830000F291A2C00001C2C0800091089142030E4
:10084000840008080914091089108000840A1F30E8
:10085000F500701C1A241C240808091409108914B6
:100860008000840A08080914091089108000840A8D
:10087000701C1A243B2C0000F50B2C2C00000808DF
:100880000914091089148000841708080914091034
:100890008910800084031F30F500701C1A241C246A
:1008A0000808091409108914800084030808091431
:1008B0000910891080008403701C1A245F2C00002A
:1008C000F50B502C00000808091409108914800049
:1008D000831708080914091089108000840A1F3042
:1008E000F500701C1A241C24080809140910891426
:1008F0008000840A08080914091089108000840AFD
:10090000701C1A24832C0000F50B742C00000808BE
:1009100009140910891480008413080809140910A7
:100920008910800084031F30F500701C1A241C24D9
:1009300008080914091089148000840308080914A0
:100940000910891080008403701C1A24A72C000051
:10095000F50B982C0000080809148A110A120F29B7
:1009600009102030840000000914091008088000D4
:10097000840A0914091008088000840A091409105F
:1009800008088000840A0914091008088000840AF5
:100990000914091008088000840A091409100808BD
:1009A0008000840A0914091008088000840A0914C8
:1009B000091008088000840A09140910080880003A
:1009C000840A0914091008088000840A091409100F
:1009D00008088000840A0914091008088000840AA5
:1009E0000914091008088000840A0914091008086D
:1009F0008000840A0914091008088000840A091478
:100A0000091008088000840A0914091008088000E9
:100A1000840A0914091008088000840A09140910BE
:100A200008088000840A0914091008088000840A54
:100A30000914091008088000840A0914091008081C
:100A40008000840A0914091008088000840A091427
:100A5000091008088000840A091409100808800099
:100A6000840A0914091008088000840A091409106E
:100A700008088000840A0914091008088000840A04
:100A80000914091008088000840A091409100808CC
:100A90008000840A0914091008088000840A0914D7
:100AA000091008088000840A091409100808800049
:100AB000840A0914091008088000840A091409101E
:100AC00008088000840A0914091008088000840AB4
:100AD0000914091008088000840A0914091008087C
:100AE0008000840A0914091008088000840A091487
:100AF000091008088000840A0914091008088000F9
:100B0000840A0914091008088000840A09140910CD
:100B100008088000840A0914091008088000840A63
:100B20000914091008088000840A0914091008082B
:100B30008000840A0914091008088000840A091436
:100B4000091008088000840A0914091008088000A8
:100B5000840A0914091008088000840A091409107D
:100B600008088000840A0914091008088000840A13
:100B70000914091008088000840A091409100808DB
:100B80008000840A0914091008088000840A0914E6
:100B9000091008088000840A091409100808800058
:100BA000840A0914091008088000840A091409102D
:100BB00008088000840A0914091008088000840AC3
:100BC0000914091008088000840A0914091008088B
:100BD0008000840A0914091008088000840A091496
:100BE00009100808800084170914091008088000FB
:100BF00084030914091008088000840309140910EB
:100C00000808800084030914091008088000840380
:100C10000914091008088000840309140910080841
:100C20008000840309140910080880008403091453
:100C300009100808800084030914091008088000BE
:100C4000840309140910080880008403091409109A
:100C50000808800084030914091008088000840330
:100C600009140910080880008403091409100808F1
:100C70008000840309140910080880008403091403
:100C8000091008088000840309140910080880006E
:100C9000840309140910080880008403091409104A
:100CA00008088000840309140910080880008403E0
:100CB00009140910080880008403091409100808A1
:100CC00080008403091409100808800084030914B3
:100CD000091008088000840309140910080880001E
:100CE00084030914091008088000840309140910FA
:100CF0000808800084030914091008088000840390
:100D00000914091008088000840309140910080850
:100D10008000840309140910080880008403091462
:100D200009100808800084030914091008088000CD
:100D300084030914091008088000840309140910A9
:100D4000080880008403091409100808800084033F
:100D50000914091008088000840309140910080800
:100D60008000840309140910080880008403091412
:100D7000091008088000840309140910080880007D
:100D80008403091409100808800084030914091059
:100D900008088000840309140910080880008403EF
:100DA00009140910080880008403091409100808B0
:100DB00080008403091409100808800084030914C2
:100DC000091008088000840309140910080880002D
:100DD0008403091409100808800084030914091009
:100DE000080880008403091409100808800084039F
:100DF0000914091008088000840309140910080860
:100E00008000840309140910080880008403091471
:100E100009100808800084030914091008088000DC
:100E200084030914091008088000840309140910B8
:100E3000080880008403091409100808800084034E
:100E4000091409100808800084030914091008080F
:100E50008000840309140910080880008403091421
:100E60000910080880008317091409100808800079
:100E7000840A0914091008088000840A091409105A
:100E800008088000840A0914091008088000840AF0
:100E90000914091008088000840A091409100808B8
:100EA0008000840A0914091008088000840A0914C3
:100EB000091008088000840A091409100808800035
:100EC000840A0914091008088000840A091409100A
:100ED00008088000840A0914091008088000840AA0
:100EE0000914091008088000840A09140910080868
:100EF0008000840A0914091008088000840A091473
:100F0000091008088000840A0914091008088000E4
:100F1000840A0914091008088000840A09140910B9
:100F200008088000840A0914091008088000840A4F
:100F30000914091008088000840A09140910080817
:100F40008000840A0914091008088000840A091422
:100F5000091008088000840A091409100808800094
:100F6000840A0914091008088000840A0914091069
:100F700008088000840A0914091008088000840AFF
:100F80000914091008088000840A091409100808C7
:100F90008000840A0914091008088000840A0914D2
:100FA000091008088000840A091409100808800044
:100FB000840A0914091008088000840A0914091019
:100FC00008088000840A0914091008088000840AAF
:100FD0000914091008088000840A09140910080877
:100FE0008000840A0914091008088000840A091482
:100FF000091008088000840A0914091008088000F4
:10100000840A0914091008088000840A09140910C8
:1010100008088000840A0914091008088000840A5E
:101020000914091008088000840A09140910080826
:101030008000840A0914091008088000840A091431
:10104000091008088000840A0914091008088000A3
:10105000840A0914091008088000840A0914091078
:1010600008088000840A0914091008088000840A0E
:101070000914091008088000840A091409100808D6
:101080008000840A0914091008088000840A0914E1
:10109000091008088000840A091409100808800053
:1010A000840A0914091008088000840A0914091028
:1010B00008088000840A0914091008088000840ABE
:1010C0000914091008088000840A09140910080886
:1010D0008000840A0914091008088000840A091491
:1010E00009100808800084130914091008088000FA
:1010F00084030914091008088000840309140910E6
:10110000080880008403091409100808800084037B
:10111000091409100808800084030914091008083C
:10112000800084030914091008088000840309144E
:1011300009100808800084030914091008088000B9
:101140008403091409100808800084030914091095
:10115000080880008403091409100808800084032B
:1011600009140910080880008403091409100808EC
:1011700080008403091409100808800084030914FE
:101180000910080880008403091409100808800069
:101190008403091409100808800084030914091045
:1011A00008088000840309140910080880008403DB
:1011B000091409100808800084030914091008089C
:1011C00080008403091409100808800084030914AE
:1011D0000910080880008403091409100808800019
:1011E00084030914091008088000840309140910F5
:1011F000080880008403091409100808800084038B
:10120000091409100808800084030914091008084B
:10121000800084030914091008088000840309145D
:1012200009100808800084030914091008088000C8
:1012300084030914091008088000840309140910A4
:10124000080880008403091409100808800084033A
:1012500009140910080880008403091409100808FB
:10126000800084030914091008088000840309140D
:101270000910080880008403091409100808800078
:101280008403091409100808800084030914091054
:1012900008088000840309140910080880008403EA
:1012A00009140910080880008403091409100808AB
:1012B00080008403091409100808800084030914BD
:1012C0000910080880008403091409100808800028
:1012D0008403091409100808800084030914091004
:1012E000080880008403091409100808800084039A
:1012F000091409100808800084030914091008085B
:10130000800084030914091008088000840309146C
:1013100009100808800084030914091008088000D7
:1013200084030914091008088000840309140910B3
:101330000808800084030914091008088000840349
:10134000091409100808800084030914091008080A
:10135000800084030914091008088000840309141C
:1013600008088A110A120F290910891420308400F4
:1013700008080914091089108000840A0808091453
:10138000091089148000840A0808091409108910BA
:101390008000840A08080914091089148000840A4E
:1013A00008080914091089108000840A0808091423
:1013B000091089148000840A08080914091089108A
:1013C0008000840A08080914091089148000840A1E
:1013D00008080914091089108000840A08080914F3
:1013E000091089148000840A08080914091089105A
:1013F0008000840A08080914091089148000840AEE
:1014000008080914091089108000840A08080914C2
:10141000091089148000840A080809140910891029
:101420008000840A08080914091089148000840ABD
:1014300008080914091089108000840A0808091492
:10144000091089148000840A0808091409108910F9
:101450008000840A08080914091089148000840A8D
:1014600008080914091089108000840A0808091462
:10147000091089148000840A0808091409108910C9
:101480008000840A08080914091089148000840A5D
:1014900008080914091089108000840A0808091432
:1014A000091089148000840A080809140910891099
:1014B0008000840A08080914091089148000840A2D
:1014C00008080914091089108000840A0808091402
:1014D000091089148000840A080809140910891069
:1014E0008000840A08080914091089148000840AFD
:1014F00008080914091089108000840A08080914D2
:10150000091089148000840A080809140910891038
:101510008000840A08080914091089148000840ACC
:1015200008080914091089108000840A08080914A1
:10153000091089148000840A080809140910891008
:101540008000840A08080914091089148000840A9C
:1015500008080914091089108000840A0808091471
:10156000091089148000840A0808091409108910D8
:101570008000840A08080914091089148000840A6C
:1015800008080914091089108000840A0808091441
:10159000091089148000840A0808091409108910A8
:1015A0008000840A08080914091089148000840A3C
:1015B00008080914091089108000840A0808091411
:1015C000091089148000840A080809140910891078
:1015D0008000840A08080914091089148000840A0C
:1015E00008080914091089108000840A08080914E1
:1015F000091089148000840A080809140910891048
:101600008000840A08080914091089148000840ADB
:1016100008080914091089108000840A08080914B0
:10162000091089148000840A080809140910891017
:101630008000840A08080914091089148000840AAB
:1016400008080914091089108000840A0808091480
:10165000091089148000840A0808091409108910E7
:101660008000840A0808091409108914800084176E
:101670000808091409108910800084030808091457
:1016800009108914800084030808091409108910BE
:101690008000840308080914091089148000840359
:1016A0000808091409108910800084030808091427
:1016B000091089148000840308080914091089108E
:1016C0008000840308080914091089148000840329
:1016D00008080914091089108000840308080914F7
:1016E000091089148000840308080914091089105E
:1016F00080008403080809140910891480008403F9
:1017000008080914091089108000840308080914C6
:10171000091089148000840308080914091089102D
:1017200080008403080809140910891480008403C8
:101730000808091409108910800084030808091496
:1017400009108914800084030808091409108910FD
:101750008000840308080914091089148000840398
:101760000808091409108910800084030808091466
:1017700009108914800084030808091409108910CD
:101780008000840308080914091089148000840368
:101790000808091409108910800084030808091436
:1017A000091089148000840308080914091089109D
:1017B0008000840308080914091089148000840338
:1017C0000808091409108910800084030808091406
:1017D000091089148000840308080914091089106D
:1017E0008000840308080914091089148000840308
:1017F00008080914091089108000840308080914D6
:10180000091089148000840308080914091089103C
:1018100080008403080809140910891480008403D7
:1018200008080914091089108000840308080914A5
:10183000091089148000840308080914091089100C
:1018400080008403080809140910891480008403A7
:101850000808091409108910800084030808091475
:1018600009108914800084030808091409108910DC
:101870008000840308080914091089148000840377
:101880000808091409108910800084030808091445
:1018900009108914800084030808091409108910AC
:1018A0008000840308080914091089148000840347
:1018B0000808091409108910800084030808091415
:1018C000091089148000840308080914091089107C
:1018D0008000840308080914091089148000840317
:1018E00008080914091089108000840308080914E5
:1018F000091089148000840308080914091089104C
:1019000080008403080809140910891480008403E6
:1019100008080914091089108000840308080914B4
:10192000091089148000840308080914091089101B
:1019300080008403080809140910891480008403B6
:101940000808091409108910800084030808091484
:1019500009108914800084030808091409108910EB
:101960008000840308080914091089148000831773
:1019700008080914091089108000840A080809144D
:10198000091089148000840A0808091409108910B4
:101990008000840A08080914091089148000840A48
:1019A00008080914091089108000840A080809141D
:1019B000091089148000840A080809140910891084
:1019C0008000840A08080914091089148000840A18
:1019D00008080914091089108000840A08080914ED
:1019E000091089148000840A080809140910891054
:1019F0008000840A08080914091089148000840AE8
:101A000008080914091089108000840A08080914BC
:101A1000091089148000840A080809140910891023
:101A20008000840A08080914091089148000840AB7
:101A300008080914091089108000840A080809148C
:101A4000091089148000840A0808091409108910F3
:101A50008000840A08080914091089148000840A87
:101A600008080914091089108000840A080809145C
:101A7000091089148000840A0808091409108910C3
:101A80008000840A08080914091089148000840A57
:101A900008080914091089108000840A080809142C
:101AA000091089148000840A080809140910891093
:101AB0008000840A08080914091089148000840A27
:101AC00008080914091089108000840A08080914FC
:101AD000091089148000840A080809140910891063
:101AE0008000840A08080914091089148000840AF7
:101AF00008080914091089108000840A08080914CC
:101B0000091089148000840A080809140910891032
:101B10008000840A08080914091089148000840AC6
:101B200008080914091089108000840A080809149B
:101B3000091089148000840A080809140910891002
:101B40008000840A08080914091089148000840A96
:101B500008080914091089108000840A080809146B
:101B6000091089148000840A0808091409108910D2
:101B70008000840A08080914091089148000840A66
:101B800008080914091089108000840A080809143B
:101B9000091089148000840A0808091409108910A2
:101BA0008000840A08080914091089148000840A36
:101BB00008080914091089108000840A080809140B
:101BC000091089148000840A080809140910891072
:101BD0008000840A08080914091089148000840A06
:101BE00008080914091089108000840A08080914DB
:101BF000091089148000840A080809140910891042
:101C00008000840A08080914091089148000840AD5
:101C100008080914091089108000840A08080914AA
:101C2000091089148000840A080809140910891011
:101C30008000840A08080914091089148000840AA5
:101C400008080914091089108000840A080809147A
:101C5000091089148000840A0808091409108910E1
:101C60008000840A0808091409108914800084136C
:101C70000808091409108910800084030808091451
:101C800009108914800084030808091409108910B8
:101C90008000840308080914091089148000840353
:101CA0000808091409108910800084030808091421
:101CB0000910891480008403080809140910891088
:101CC0008000840308080914091089148000840323
:101CD00008080914091089108000840308080914F1
:101CE0000910891480008403080809140910891058
:101CF00080008403080809140910891480008403F3
:101D000008080914091089108000840308080914C0
:101D10000910891480008403080809140910891027
:101D200080008403080809140910891480008403C2
:101D30000808091409108910800084030808091490
:101D400009108914800084030808091409108910F7
:101D50008000840308080914091089148000840392
:101D60000808091409108910800084030808091460
:101D700009108914800084030808091409108910C7
:101D80008000840308080914091089148000840362
:101D90000808091409108910800084030808091430
:101DA0000910891480008403080809140910891097
:101DB0008000840308080914091089148000840332
:101DC0000808091409108910800084030808091400
:101DD0000910891480008403080809140910891067
:101DE0008000840308080914091089148000840302
:101DF00008080914091089108000840308080914D0
:101E00000910891480008403080809140910891036
:101E100080008403080809140910891480008403D1
:101E2000080809140910891080008403080809149F
:101E30000910891480008403080809140910891006
:101E400080008403080809140910891480008403A1
:101E5000080809140910891080008403080809146F
:101E600009108914800084030808091409108910D6
:101E70008000840308080914091089148000840371
:101E8000080809140910891080008403080809143F
:101E900009108914800084030808091409108910A6
:101EA0008000840308080914091089148000840341
:101EB000080809140910891080008403080809140F
:101EC0000910891480008403080809140910891076
:101ED0008000840308080914091089148000840311
:101EE00008080914091089108000840308080914DF
:101EF0000910891480008403080809140910891046
:101F000080008403080809140910891480008403E0
:101F100008080914091089108000840308080914AE
:101F20000910891480008403080809140910891015
:101F300080008403080809140910891480008403B0
:101F4000080809140910891080008403080809147E
:101F500009108914800084030808091409108910E5
:101F600080008403080809148A110A120F29091035
:101F70002030840000000808091409108000840A39
:101F800000000808091409108000840A00000808ED
:101F9000091409108000840A0000080809140910B7
:101FA0008000840A00000808091409108000840ACF
:101FB00000000808091409108000840A00000808BD
:101FC000091409108000840A000008080914091087
:101FD0008000840A00000808091409108000840A9F
:101FE00000000808091409108000840A000008088D
:101FF000091409108000840A000008080914091057
:102000008000840A00000808091409108000840A6E
:1020100000000808091409108000840A000008085C
:10202000091409108000840A000008080914091026
:102030008000840A00000808091409108000840A3E
:1020400000000808091409108000840A000008082C
:10205000091409108000840A0000080809140910F6
:102060008000840A00000808091409108000840A0E
:1020700000000808091409108000840A00000808FC
:10208000091409108000840A0000080809140910C6
:102090008000840A00000808091409108000840ADE
:1020A00000000808091409108000840A00000808CC
:1020B000091409108000840A000008080914091096
:1020C0008000840A00000808091409108000840AAE
:1020D00000000808091409108000840A000008089C
:1020E000091409108000840A000008080914091066
:1020F0008000840A00000808091409108000840A7E
:1021000000000808091409108000840A000008086B
:10211000091409108000840A000008080914091035
:102120008000840A00000808091409108000840A4D
:1021300000000808091409108000840A000008083B
:10214000091409108000840A000008080914091005
:102150008000840A00000808091409108000840A1D
:1021600000000808091409108000840A000008080B
:10217000091409108000840A0000080809140910D5
:102180008000840A00000808091409108000840AED
:1021900000000808091409108000840A00000808DB
:1021A000091409108000840A0000080809140910A5
:1021B0008000840A00000808091409108000840ABD
:1021C00000000808091409108000840A00000808AB
:1021D000091409108000840A000008080914091075
:1021E0008000840A00000808091409108000840A8D
:1021F00000000808091409108000840A000008087B
:10220000091409108000840A000008080914091044
:102210008000840A00000808091409108000840A5C
:1022200000000808091409108000840A000008084A
:10223000091409108000840A000008080914091014
:102240008000840A00000808091409108000840A2C
:1022500000000808091409108000840A000008081A
:10226000091409108000840A0000080809140910E4
:1022700080008417000008080914091080008403F6
:1022800000000808091409108000840300000808F1
:1022900009140910800084030000080809140910BB
:1022A00080008403000008080914091080008403DA
:1022B00000000808091409108000840300000808C1
:1022C000091409108000840300000808091409108B
:1022D00080008403000008080914091080008403AA
:1022E0000000080809140910800084030000080891
:1022F000091409108000840300000808091409105B
:102300008000840300000808091409108000840379
:102310000000080809140910800084030000080860
:10232000091409108000840300000808091409102A
:102330008000840300000808091409108000840349
:102340000000080809140910800084030000080830
:1023500009140910800084030000080809140910FA
:102360008000840300000808091409108000840319
:102370000000080809140910800084030000080800
:1023800009140910800084030000080809140910CA
:1023900080008403000008080914091080008403E9
:1023A00000000808091409108000840300000808D0
:1023B000091409108000840300000808091409109A
:1023C00080008403000008080914091080008403B9
:1023D00000000808091409108000840300000808A0
:1023E000091409108000840300000808091409106A
:1023F0008000840300000808091409108000840389
:10240000000008080914091080008403000008086F
:102410000914091080008403000008080914091039
:102420008000840300000808091409108000840358
:10243000000008080914091080008403000008083F
:102440000914091080008403000008080914091009
:102450008000840300000808091409108000840328
:10246000000008080914091080008403000008080F
:1024700009140910800084030000080809140910D9
:1024800080008403000008080914091080008403F8
:1024900000000808091409108000840300000808DF
:1024A00009140910800084030000080809140910A9
:1024B00080008403000008080914091080008403C8
:1024C00000000808091409108000840300000808AF
:1024D0000914091080008403000008080914091079
:1024E0008000840300000808091409108000840398
:1024F000000008080914091080008403000008087F
:102500000914091080008403000008080914091048
:102510008000840300000808091409108000840367
:10252000000008080914091080008403000008084E
:102530000914091080008403000008080914091018
:102540008000840300000808091409108000840337
:10255000000008080914091080008403000008081E
:1025600009140910800084030000080809140910E8
:102570008000831700000808091409108000840AED
:1025800000000808091409108000840A00000808E7
:10259000091409108000840A0000080809140910B1
:1025A0008000840A00000808091409108000840AC9
:1025B00000000808091409108000840A00000808B7
:1025C000091409108000840A000008080914091081
:1025D0008000840A00000808091409108000840A99
:1025E00000000808091409108000840A0000080887
:1025F000091409108000840A000008080914091051
:102600008000840A00000808091409108000840A68
:1026100000000808091409108000840A0000080856
:10262000091409108000840A000008080914091020
:102630008000840A00000808091409108000840A38
:1026400000000808091409108000840A0000080826
:10265000091409108000840A0000080809140910F0
:102660008000840A00000808091409108000840A08
:1026700000000808091409108000840A00000808F6
:10268000091409108000840A0000080809140910C0
:102690008000840A00000808091409108000840AD8
:1026A00000000808091409108000840A00000808C6
:1026B000091409108000840A000008080914091090
:1026C0008000840A00000808091409108000840AA8
:1026D00000000808091409108000840A0000080896
:1026E000091409108000840A000008080914091060
:1026F0008000840A00000808091409108000840A78
:1027000000000808091409108000840A0000080865
:10271000091409108000840A00000808091409102F
:102720008000840A00000808091409108000840A47
:1027300000000808091409108000840A0000080835
:10274000091409108000840A0000080809140910FF
:102750008000840A00000808091409108000840A17
:1027600000000808091409108000840A0000080805
:10277000091409108000840A0000080809140910CF
:102780008000840A00000808091409108000840AE7
:1027900000000808091409108000840A00000808D5
:1027A000091409108000840A00000808091409109F
:1027B0008000840A00000808091409108000840AB7
:1027C00000000808091409108000840A00000808A5
:1027D000091409108000840A00000808091409106F
:1027E0008000840A00000808091409108000840A87
:1027F00000000808091409108000840A0000080875
:10280000091409108000840A00000808091409103E
:102810008000840A00000808091409108000840A56
:1028200000000808091409108000840A0000080844
:10283000091409108000840A00000808091409100E
:102840008000840A00000808091409108000840A26
:1028500000000808091409108000840A0000080814
:10286000091409108000840A0000080809140910DE
:1028700080008413000008080914091080008403F4
:1028800000000808091409108000840300000808EB
:1028900009140910800084030000080809140910B5
:1028A00080008403000008080914091080008403D4
:1028B00000000808091409108000840300000808BB
:1028C0000914091080008403000008080914091085
:1028D00080008403000008080914091080008403A4
:1028E000000008080914091080008403000008088B
:1028F0000914091080008403000008080914091055
:102900008000840300000808091409108000840373
:10291000000008080914091080008403000008085A
:102920000914091080008403000008080914091024
:102930008000840300000808091409108000840343
:10294000000008080914091080008403000008082A
:1029500009140910800084030000080809140910F4
:102960008000840300000808091409108000840313
:1029700000000808091409108000840300000808FA
:1029800009140910800084030000080809140910C4
:1029900080008403000008080914091080008403E3
:1029A00000000808091409108000840300000808CA
:1029B0000914091080008403000008080914091094
:1029C00080008403000008080914091080008403B3
:1029D000000008080914091080008403000008089A
:1029E0000914091080008403000008080914091064
:1029F0008000840300000808091409108000840383
:102A00000000080809140910800084030000080869
:102A10000914091080008403000008080914091033
:102A20008000840300000808091409108000840352
:102A30000000080809140910800084030000080839
:102A40000914091080008403000008080914091003
:102A50008000840300000808091409108000840322
:102A60000000080809140910800084030000080809
:102A700009140910800084030000080809140910D3
:102A800080008403000008080914091080008403F2
:102A900000000808091409108000840300000808D9
:102AA00009140910800084030000080809140910A3
:102AB00080008403000008080914091080008403C2
:102AC00000000808091409108000840300000808A9
:102AD0000914091080008403000008080914091073
:102AE0008000840300000808091409108000840392
:102AF0000000080809140910800084030000080879
:102B00000914091080008403000008080914091042
:102B10008000840300000808091409108000840361
:102B20000000080809140910800084030000080848
:102B30000914091080008403000008080914091012
:102B40008000840300000808091409108000840331
:102B50000000080809140910800084030000080818
:102B600009140910800084030000080809148A1160
:102B70000A120F2915308A00770882070A168A116F
:102B8000CD2D0A168A11DD2E0A168A11E02F0A169B
:102B90008A15E3280A168A15E729091020308400CF
:102BA00000000914091008088000840A091409109B
:102BB00008088000840A0914091008088000840AA3
:102BC0000914091008088000840A0914091008086B
:102BD0008000840A0914091008088000840A091476
:102BE000091008088000840A0914091008088000E8
:102BF000840A0914091008088000840A09140910BD
:102C000008088000840A0914091008088000840A52
:102C10000914091008088000840A0914091008081A
:102C20008000840A0914091008088000840A091425
:102C3000091008088000840A091409100808800097
:102C4000840A0914091008088000840A091409106C
:102C500008088000840A0914091008088000840A02
:102C60000914091008088000840A091409100808CA
:102C70008000840A0914091008088000840A0914D5
:102C8000091008088000840A091409100808800047
:102C9000840A0914091008088000840A091409101C
:102CA00008088000840A0914091008088000840AB2
:102CB0000914091008088000840A0914091008087A
:102CC0008000840A0914091008088000840A091485
:102CD000091008088000840A0914091008088000F7
:102CE000840A0914091008088000840A09140910CC
:102CF00008088000840A0914091008088000840A62
:102D00000914091008088000840A09140910080829
:102D10008000840A0914091008088000840A091434
:102D2000091008088000840A0914091008088000A6
:102D3000840A0914091008088000840A091409107B
:102D400008088000840A0914091008088000840A11
:102D50000914091008088000840A091409100808D9
:102D60008000840A0914091008088000840A0914E4
:102D7000091008088000840A091409100808800056
:102D8000840A0914091008088000840A091409102B
:102D900008088000840A0914091008088000840AC1
:102DA000091408088000840AD72E800084030330A9
:102DB000F70786140A128A11772800000910E02EFE
:102DC00000000914091008088000840A0914091079
:102DD00008088000840A0914091008088000840A81
:102DE0000914091008088000840A09140910080849
:102DF0008000840A0914091008088000840A091454
:102E0000091008088000840A0914091008088000C5
:102E1000840A0914091008088000840A091409109A
:102E200008088000840A0914091008088000840A30
:102E300009140910080880008417091409100808EB
:102E40008000840309140910080880008403091411
:102E5000091008088000840309140910080880007C
:102E60008403091409100808800084030914091058
:102E700008088000840309140910080880008403EE
:102E800009140910080880008403091409100808AF
:102E900080008403091409100808800084030914C1
:102EA000091008088000840309140910080880002C
:102EB0008403091409100808800084030914091008
:102EC000080880008403091409100808800084039E
:102ED000091409100808800084030914091008085F
:102EE0008000840309140910080880008403091471
:102EF00009100808800084030914091008088000DC
:102F000084030914091008088000840309140910B7
:102F1000080880008403091409100808800084034D
:102F2000091409100808800084030914091008080E
:102F30008000840309140910080880008403091420
:102F4000091008088000840309140910080880008B
:102F50008403091409100808800084030914091067
:102F600008088000840309140910080880008403FD
:102F700009140910080880008403091409100808BE
:102F800080008403091409100808800084030914D0
:102F9000091008088000840309140910080880003B
:102FA0008403091409100808800084030914091017
:102FB000080880008403091408080A168A11D52E0F
:102FC000E12F0910E32F0000091409100808800000
:102FD00084030914091008088000840309140910E7
:102FE000080880008403091409100808800084037D
:102FF000091409100808800084030914091008083E
:10300000800084030914091008088000840309144F
:1030100009100808800084030914091008088000BA
:103020008403091409100808800084030914091096
:10303000080880008403091409100808800084032C
:1030400009140910080880008403091409100808ED
:1030500080008403091409100808800084030914FF
:10306000091008088000840309140910080880006A
:103070008403091409100808800084030914091046
:1030800008088000840309140910080880008403DC
:10309000091409100808800084030914091008089D
:1030A00080008403091409100808800084030914AF
:1030B000091008088000840309140910080880001A
:1030C00083170914091008088000840A09140910DC
:1030D00008088000840A0914091008088000840A7E
:1030E0000914091008088000840A09140910080846
:1030F0008000840A0914091008088000840A091451
:10310000091008088000840A0914091008088000C2
:10311000840A0914091008088000840A0914091097
:1031200008088000840A0914091008088000840A2D
:103130000914091008088000840A091409100808F5
:103140008000840A0914091008088000840A091400
:10315000091008088000840A091409100808800072
:10316000840A0914091008088000840A0914091047
:1031700008088000840A0914091008088000840ADD
:103180000914091008088000840A091409100808A5
:103190008000840A0914091008088000840A0914B0
:1031A000091008088000840A091409100808800022
:1031B000840A0914091008088000840A0914080800
:1031C0000A168A11D22EE42800000910E728000010
:1031D0000914091008088000840A09140910080855
:1031E0008000840A0914091008088000840A091460
:1031F000091008088000840A0914091008088000D2
:10320000840A0914091008088000840A09140910A6
:1032100008088000840A0914091008088000840A3C
:103220000914091008088000840A09140910080804
:103230008000840A0914091008088000840A09140F
:10324000091008088000840A091409100808800081
:10325000840A0914091008088000840A0914091056
:1032600008088000840A0914091008088000840AEC
:103270000914091008088000840A091409100808B4
:103280008000840A0914091008088000840A0914BF
:10329000091008088000840A091409100808800031
:1032A000840A0914091008088000840A0914091006
:1032B00008088000840A0914091008088000840A9C
:1032C0000914091008088000840A09140910080864
:1032D0008000840A0914091008088000840A09146F
:1032E000091008088000840A0914091008088000E1
:1032F000840A0914091008088000840A09140910B6
:1033000008088000840A0914091008088000840A4B
:103310000914091008088000840A09140910080813
:103320008000840A0914091008088000840A09141E
:10333000091008088000840A091409100808800090
:10334000840A09140910080880008413091409105C
:103350000808800084030914091008088000840309
:1033600009140910080880008403091409100808CA
:1033700080008403091409100808800084030914DC
:103380000910080880008403091409100808800047
:103390008403091409100808800084030914091023
:1033A00008088000840309140910080880008403B9
:1033B000091409100808800084030914091008087A
:1033C00080008403091408080A168A11D52EE829FA
:1033D0000A128A1509100000B52819308A007708EA
:1033E00082070A168A15FA290A168A15012C0A1666
:1033F0008A15022E091020308400000008080914E4
:1034000009108000840A00000808091409108000CF
:10341000840A00000808091409108000840A0000CA
:103420000808091409108000840A0000080809141B
:1034300009108000840A000008080914091080009F
:10344000840A00000808091409108000840A00009A
:103450000808091409108000840A000008080914EB
:1034600009108000840A000008080914091080006F
:10347000840A00000808091409108000840A00006A
:103480000808091409108000840A000008080914BB
:1034900009108000840A000008080914091080003F
:1034A000840A00000808091409108000840A00003A
:1034B0000808091409108000840A0000080809148B
:1034C00009108000840A000008080914091080000F
:1034D000840A00000808091409108000840A00000A
:1034E0000808091409108000840A0000080809145B
:1034F00009108000840A00000808091409108000DF
:10350000840A00000808091409108000840A0000D9
:103510000808091409108000840A0000080809142A
:1035200009108000840A00000808091409108000AE
:10353000840A00000808091409108000840A0000A9
:103540000808091409108000840A000008080914FA
:1035500009108000840A000008080914091080007E
:10356000840A00000808091409108000840A000079
:103570000808091409108000840A000008080914CA
:1035800009108000840A000008080914091080004E
:10359000840A00000808091409108000840A000049
:1035A0000808091409108000840A0000080809149A
:1035B00009108000840A000008080914091080001E
:1035C000840A00000808091409108000840A000019
:1035D0000808091409108000840A0000080809146A
:1035E00009108000840A00000808091409108000EE
:1035F000840A00000808091409108000840A0000E9
:103600000808091409108000840A00000808091439
:1036100009108000840A00000808091409108000BD
:10362000840A00000808091409108000840A0000B8
:103630000808091409108000840A00000808091409
:1036400009108000840A000008080914091080008D
:10365000840A00000808091409108000840A000088
:103660000808091409108000840A000008080914D9
:1036700009108000840A000008080914091080005D
:10368000840A00000808091409108000840A000058
:103690000808091409108000840A000008080914A9
:1036A00009108000840A000008080914091080002D
:1036B000840A00000808091409108000840A000028
:1036C0000808091409108000840A00000808091479
:1036D00009108000840A00000808091409108000FD
:1036E000840A00000808091409108000840A0000F8
:1036F000080809140910800084170000080809143C
:1037000009108000840300000808091409108000D3
:1037100084030000080809140910800084030000D5
:10372000080809140910800084030000080809141F
:1037300009108000840300000808091409108000A3
:1037400084030000080809140910800084030000A5
:1037500008080914091080008403000008080914EF
:103760000910800084030000080809140910800073
:103770008403000008080914091080008403000075
:1037800008080914091080008403000008080914BF
:103790000910800084030000080809140910800043
:1037A0008403000008080914091080008403000045
:1037B000080809140910800084030000080809148F
:1037C0000910800084030000080809140910800013
:1037D0008403000008080914091080008403000015
:1037E000080809140910800084030000080809145F
:1037F0000910800084030000080809140A168A11C1
:10380000D52E022C0910042C0000080809140910F8
:103810008000840300000808091409108000840354
:10382000000008080914091080008403000008083B
:103830000914091080008403000008080914091005
:103840008000840300000808091409108000840324
:10385000000008080914091080008403000008080B
:1038600009140910800084030000080809140910D5
:1038700080008403000008080914091080008403F4
:1038800000000808091409108000840300000808DB
:1038900009140910800084030000080809140910A5
:1038A00080008403000008080914091080008403C4
:1038B00000000808091409108000840300000808AB
:1038C0000914091080008403000008080914091075
:1038D0008000840300000808091409108000840394
:1038E000000008080914091080008403000008087B
:1038F0000914091080008403000008080914091045
:103900008000840300000808091409108000840363
:10391000000008080914091080008403000008084A
:103920000914091080008403000008080914091014
:103930008000840300000808091409108000840333
:10394000000008080914091080008403000008081A
:1039500009140910800084030000080809140910E4
:103960008000840300000808091409108000840303
:1039700000000808091409108000840300000808EA
:1039800009140910800084030000080809140910B4
:1039900080008403000008080914091080008403D3
:1039A00000000808091409108000840300000808BA
:1039B0000914091080008403000008080914091084
:1039C00080008403000008080914091080008403A3
:1039D000000008080914091080008403000008088A
:1039E0000914091080008403000008080914091054
:1039F0008000840300000808091409108000831760
:103A000000000808091409108000840A0000080852
:103A1000091409108000840A00000808091409101C
:103A20008000840A00000808091409108000840A34
:103A300000000808091409108000840A0000080822
:103A4000091409108000840A0000080809140910EC
:103A50008000840A00000808091409108000840A04
:103A600000000808091409108000840A00000808F2
:103A7000091409108000840A0000080809140910BC
:103A80008000840A00000808091409108000840AD4
:103A900000000808091409108000840A00000808C2
:103AA000091409108000840A00000808091409108C
:103AB0008000840A00000808091409108000840AA4
:103AC00000000808091409108000840A0000080892
:103AD000091409108000840A00000808091409105C
:103AE0008000840A00000808091409108000840A74
:103AF00000000808091409108000840A0000080862
:103B0000091409108000840A00000808091409102B
:103B10008000840A00000808091409108000840A43
:103B200000000808091409108000840A0000080831
:103B3000091409108000840A0000080809140910FB
:103B40008000840A00000808091409108000840A13
:103B500000000808091409108000840A0000080801
:103B6000091409108000840A0000080809140910CB
:103B70008000840A00000808091409108000840AE3
:103B800000000808091409108000840A00000808D1
:103B9000091409108000840A00000808091409109B
:103BA0008000840A00000808091409108000840AB3
:103BB00000000808091409108000840A00000808A1
:103BC000091409108000840A00000808091409106B
:103BD0008000840A00000808091409108000840A83
:103BE00000000808091409108000840A0000080871
:103BF000091409108000840A0000080809140A1634
:103C00008A11D22E032E0A168A1109100000BD2B2C
:084000000100020003000400AE
:02400E00F2209E
:02401000FF3F70
:00000001FF
