:020000040000FA
:100000000130890088015028FA00030EFB000B1E06
:1000100042280B12F30B0A28F40B0A28F50B0A28C6
:10002000760882070A128A11C72C0A128A15CE2F67
:100030000A128A118E2B0A128A11D12B0A128A11E6
:10004000D12B0A128A1177290A168A11D12D0A1684
:100050008A15042A0A128A15CB290A128A11342C0D
:100060000A128A11342C0A128A11EB2A0A128A11F6
:1000700077290A128A11F9290A128A1179280A1293
:100080008A117928831203130C1C4B28831603133F
:100090000C1C4B2828217B0E8300FA0E7A0E0900D7
:1000A00085018316031317308500C030810010309E
:1000B0008B0031308600FF30880004308900B93071
:1000C000870083160317880189010830870083168B
:1000D00003135630990000309A00243098008312A0
:1000E00003139030980083139F010130F300F40054
:1000F000F5000130F300F400F5001130F20010308B
:10010000F1002430F6000A128A117729B120F70194
:100110008910701A89148A0170080F39F6000310CB
:10012000F60D76078610701F1128F600620AF3009C
:10013000610AF400600AF500831603130113F01B33
:100140000117831203138B100B168B1702217808EB
:10015000F33A031DA6280B128B13DC30F800132191
:10016000792802217808F83A031DE428DC30F800E9
:100170001321203084004030F4000008F800840A85
:100180001321F40BBD284030F400841784030008C9
:10019000F80084031321F40BC7284030F4008317C0
:1001A000840A0008F800840A1321F40BD128403097
:1001B000F400841384030008F80084031321F40B73
:1001C000DB2883133722B1287808F93A031DED287C
:1001D000DD30F80013211C22B1287808FA3A031DFB
:1001E000FA28DE30F8001321FA210130F300F40080
:1001F000F50008007808F33A031DB128DC30F80058
:100200001321B1288C1E0229181D08291A08022959
:10021000981C1029181218161A088C1A0C29022971
:100220001A08F80000340C1E1329780899000034CD
:100230000130F302031CF402F308031D1929F4082A
:10024000031D19290800800086148313432279288E
:1002500083120313101071098F0072098E000C10A5
:10026000101400000408E60064088400831384135B
:10027000E5188417E519831765198417651983171D
:100280008910091043294429000008080914891419
:10029000091080006518840AE51884030808091409
:1002A000E51984036519840A80000230E518FE30E0
:1002B000E519FE30E4071F30640603196629603033
:1002C0006406031D72295F30E40068292030E400D1
:1002D0000310E50D651E722910100C108316031310
:1002E0000C100B138312031366088400080083129A
:1002F00003132030E4000130E500101090161016B2
:10030000FF308F008E000C10831603130C140B1794
:100310008B17831203131014831603130C1CEF297D
:10032000831203138C1E8C29181D98291A088C29F6
:10033000981CA029181218161A088C1A9C298C29A6
:100340001A08F8007808F83A031DD529DC30F800BF
:100350001321203084004030F40083130008F8009B
:10036000840A1321F40BAE294030F400840384176F
:100370000008F80084031321F40BB8294030F4007E
:10038000840A83170008F800840A1321F40BC22999
:100390004030F400840384130008F8008403132120
:1003A000F40BCC29831337228C297808F93A031DE2
:1003B000DE29DD30F80013211C228C297808FA3A56
:1003C000031DE729DE30F800132111228C2978085B
:1003D000F33A031D8C29DC30F80013218C29831299
:1003E00003138614831343220130F300F400F50055
:1003F0007928792802217808DF392038F000831223
:10040000031302217808E00002217808E1000221AC
:100410007808E20002217808F10002217808F20051
:100420000800022102210221022102217808F100A4
:1004300002217808F20008000130F8001321003092
:10044000F80013217008F8001321831203136008C9
:10045000F80013216108F80013216208F800132145
:100460007108F80013217208F800132108007908B8
:10047000F8001321F80113211321831203136308D9
:10048000F80013210800F9018316031307158710DC
:100490008516051283120313871005127917051CA0
:1004A0007913851C7913851CF9170718F91587141A
:1004B0000516831603138714071105168512831278
:1004C0000313071185127916051C7912851C791200
:1004D000851CF91607187915071585168910061554
:1004E00086118610091000000000000000000000C6
:1004F000080809148614891006118611E300080003
:1005000009103F30F500203084007208F3007108B4
:10051000F400000018210808091409108000840A5A
:100520007208F3007108F4001821F50B8B2A000003
:10053000080809140910800084173F30F50072087C
:10054000F3007108F40018210000080809140910CC
:10055000800084037208F3007108F4001821F50B81
:10056000A52A0000080809140910800083173F30ED
:10057000F5007208F3007108F40018210000080863
:10058000091409108000840A7208F3007108F4004D
:100590001821F50BBF2A0000080809140910800073
:1005A00084133F30F5007208F3007108F40018213D
:1005B0000000080809140910800084037208F30081
:1005C0007108F4001821F50BD92A00000808091455
:1005D0008A110A122329091089142030840008087E
:1005E0000914091089108000840A1F30F500720870
:1005F000F3007108F400182100000808091409101C
:1006000089148000840A08080914091089108000E0
:10061000840A7208F3007108F4001821F50BFD2A12
:1006200000000808091409108914800084170808BC
:10063000091409108910800084031F30F500720826
:10064000F3007108F40018210000080809140910CB
:100650008914800084030808091409108910800097
:1006600084037208F3007108F4001821F50B252BA0
:10067000000008080914091089148000831708086D
:100680000914091089108000840A1F30F5007208CF
:10069000F3007108F400182100000808091409107B
:1006A00089148000840A0808091409108910800040
:1006B000840A7208F3007108F4001821F50B4D2B21
:1006C0000000080809140910891480008413080820
:1006D000091409108910800084031F30F500720886
:1006E000F3007108F400182100000808091409102B
:1006F00089148000840308080914091089108000F7
:1007000084037208F3007108F4001821F50B752BAF
:100710000000080809148A110A12232909103F3021
:10072000F30020308400000008080914091080003C
:10073000840AF30B942B00000808091409108000A8
:1007400084173F30F30000000808091409108000E6
:100750008403F30BA42B000008080914091080007F
:1007600083173F30F30000000808091409108000C7
:10077000840AF30BB42B0000080809140910800048
:1007800084133F30F30000000808091409108000AA
:100790008403F30BC42B0000080809148A110A1201
:1007A000232909103F30F30020308400D72B701D1F
:1007B000DA2B30240808091409108000840A701DFF
:1007C000E22B30240000F30BDA2B00000808091498
:1007D0000910800084173F30F300EE2B701DF12BC1
:1007E000302408080914091080008403701DF92BB7
:1007F00030240000F30BF12B000008080914091045
:10080000800083173F30F300052C701D082C302426
:100810000808091409108000840A701D102C302467
:100820000000F30B082C00000808091409108000D0
:1008300084133F30F3001C2C701D1F2C302408083B
:100840000914091080008403701D272C3024000037
:10085000F30B1F2C0000080809148A110A1223291F
:10086000312C0000332C080009108914203084003A
:1008700008080914091089108000840A1F30F50047
:10088000701C3124332408080914091089148000CD
:10089000840A08080914091089108000840A701C51
:1008A0003124522C0000F50B432C000008080914D9
:1008B0000910891480008417080809140910891088
:1008C000800084031F30F500701C31243324080895
:1008D00009140910891480008403080809140910F8
:1008E000891080008403701C3124762C0000F50BE5
:1008F000672C000008080914091089148000831768
:1009000008080914091089108000840A1F30F500B6
:10091000701C31243324080809140910891480003C
:10092000840A08080914091089108000840A701CC0
:1009300031249A2C0000F50B8B2C000008080914B8
:1009400009108914800084130808091409108910FB
:10095000800084031F30F500701C31243324080804
:100960000914091089148000840308080914091067
:10097000891080008403701C3124BE2C0000F50B0C
:10098000AF2C0000080809148A110A122329091043
:100990002030840000000914091008088000840A2F
:1009A0000914091008088000840A091409100808AD
:1009B0008000840A0914091008088000840A0914B8
:1009C000091008088000840A09140910080880002A
:1009D000840A0914091008088000840A09140910FF
:1009E00008088000840A0914091008088000840A95
:1009F0000914091008088000840A0914091008085D
:100A00008000840A0914091008088000840A091467
:100A1000091008088000840A0914091008088000D9
:100A2000840A0914091008088000840A09140910AE
:100A300008088000840A0914091008088000840A44
:100A40000914091008088000840A0914091008080C
:100A50008000840A0914091008088000840A091417
:100A6000091008088000840A091409100808800089
:100A7000840A0914091008088000840A091409105E
:100A800008088000840A0914091008088000840AF4
:100A90000914091008088000840A091409100808BC
:100AA0008000840A0914091008088000840A0914C7
:100AB000091008088000840A091409100808800039
:100AC000840A0914091008088000840A091409100E
:100AD00008088000840A0914091008088000840AA4
:100AE0000914091008088000840A0914091008086C
:100AF0008000840A0914091008088000840A091477
:100B0000091008088000840A0914091008088000E8
:100B1000840A0914091008088000840A09140910BD
:100B200008088000840A0914091008088000840A53
:100B30000914091008088000840A0914091008081B
:100B40008000840A0914091008088000840A091426
:100B5000091008088000840A091409100808800098
:100B6000840A0914091008088000840A091409106D
:100B700008088000840A0914091008088000840A03
:100B80000914091008088000840A091409100808CB
:100B90008000840A0914091008088000840A0914D6
:100BA000091008088000840A091409100808800048
:100BB000840A0914091008088000840A091409101D
:100BC00008088000840A0914091008088000840AB3
:100BD0000914091008088000840A0914091008087B
:100BE0008000840A0914091008088000840A091486
:100BF000091008088000840A0914091008088000F8
:100C0000840A0914091008088000840A09140910CC
:100C1000080880008417091409100808800084035C
:100C20000914091008088000840309140910080831
:100C30008000840309140910080880008403091443
:100C400009100808800084030914091008088000AE
:100C5000840309140910080880008403091409108A
:100C60000808800084030914091008088000840320
:100C700009140910080880008403091409100808E1
:100C800080008403091409100808800084030914F3
:100C9000091008088000840309140910080880005E
:100CA000840309140910080880008403091409103A
:100CB00008088000840309140910080880008403D0
:100CC0000914091008088000840309140910080891
:100CD00080008403091409100808800084030914A3
:100CE000091008088000840309140910080880000E
:100CF00084030914091008088000840309140910EA
:100D0000080880008403091409100808800084037F
:100D10000914091008088000840309140910080840
:100D20008000840309140910080880008403091452
:100D300009100808800084030914091008088000BD
:100D40008403091409100808800084030914091099
:100D5000080880008403091409100808800084032F
:100D600009140910080880008403091409100808F0
:100D70008000840309140910080880008403091402
:100D8000091008088000840309140910080880006D
:100D90008403091409100808800084030914091049
:100DA00008088000840309140910080880008403DF
:100DB00009140910080880008403091409100808A0
:100DC00080008403091409100808800084030914B2
:100DD000091008088000840309140910080880001D
:100DE00084030914091008088000840309140910F9
:100DF000080880008403091409100808800084038F
:100E0000091409100808800084030914091008084F
:100E10008000840309140910080880008403091461
:100E200009100808800084030914091008088000CC
:100E300084030914091008088000840309140910A8
:100E4000080880008403091409100808800084033E
:100E500009140910080880008403091409100808FF
:100E60008000840309140910080880008403091411
:100E7000091008088000840309140910080880007C
:100E80008403091409100808800084030914091058
:100E90000808800083170914091008088000840AD4
:100EA0000914091008088000840A091409100808A8
:100EB0008000840A0914091008088000840A0914B3
:100EC000091008088000840A091409100808800025
:100ED000840A0914091008088000840A09140910FA
:100EE00008088000840A0914091008088000840A90
:100EF0000914091008088000840A09140910080858
:100F00008000840A0914091008088000840A091462
:100F1000091008088000840A0914091008088000D4
:100F2000840A0914091008088000840A09140910A9
:100F300008088000840A0914091008088000840A3F
:100F40000914091008088000840A09140910080807
:100F50008000840A0914091008088000840A091412
:100F6000091008088000840A091409100808800084
:100F7000840A0914091008088000840A0914091059
:100F800008088000840A0914091008088000840AEF
:100F90000914091008088000840A091409100808B7
:100FA0008000840A0914091008088000840A0914C2
:100FB000091008088000840A091409100808800034
:100FC000840A0914091008088000840A0914091009
:100FD00008088000840A0914091008088000840A9F
:100FE0000914091008088000840A09140910080867
:100FF0008000840A0914091008088000840A091472
:10100000091008088000840A0914091008088000E3
:10101000840A0914091008088000840A09140910B8
:1010200008088000840A0914091008088000840A4E
:101030000914091008088000840A09140910080816
:101040008000840A0914091008088000840A091421
:10105000091008088000840A091409100808800093
:10106000840A0914091008088000840A0914091068
:1010700008088000840A0914091008088000840AFE
:101080000914091008088000840A091409100808C6
:101090008000840A0914091008088000840A0914D1
:1010A000091008088000840A091409100808800043
:1010B000840A0914091008088000840A0914091018
:1010C00008088000840A0914091008088000840AAE
:1010D0000914091008088000840A09140910080876
:1010E0008000840A0914091008088000840A091481
:1010F000091008088000840A0914091008088000F3
:10110000840A0914091008088000840A09140910C7
:10111000080880008413091409100808800084035B
:10112000091409100808800084030914091008082C
:10113000800084030914091008088000840309143E
:1011400009100808800084030914091008088000A9
:101150008403091409100808800084030914091085
:10116000080880008403091409100808800084031B
:1011700009140910080880008403091409100808DC
:1011800080008403091409100808800084030914EE
:101190000910080880008403091409100808800059
:1011A0008403091409100808800084030914091035
:1011B00008088000840309140910080880008403CB
:1011C000091409100808800084030914091008088C
:1011D000800084030914091008088000840309149E
:1011E0000910080880008403091409100808800009
:1011F00084030914091008088000840309140910E5
:10120000080880008403091409100808800084037A
:10121000091409100808800084030914091008083B
:10122000800084030914091008088000840309144D
:1012300009100808800084030914091008088000B8
:101240008403091409100808800084030914091094
:10125000080880008403091409100808800084032A
:1012600009140910080880008403091409100808EB
:1012700080008403091409100808800084030914FD
:101280000910080880008403091409100808800068
:101290008403091409100808800084030914091044
:1012A00008088000840309140910080880008403DA
:1012B000091409100808800084030914091008089B
:1012C00080008403091409100808800084030914AD
:1012D0000910080880008403091409100808800018
:1012E00084030914091008088000840309140910F4
:1012F000080880008403091409100808800084038A
:10130000091409100808800084030914091008084A
:10131000800084030914091008088000840309145C
:1013200009100808800084030914091008088000C7
:1013300084030914091008088000840309140910A3
:101340000808800084030914091008088000840339
:1013500009140910080880008403091409100808FA
:10136000800084030914091008088000840309140C
:101370000910080880008403091409100808800077
:10138000840309140910080880008403091408085C
:101390008A110A12232909108914203084000808B0
:1013A0000914091089108000840A0808091409101A
:1013B00089148000840A0808091409108910800023
:1013C000840A08080914091089148000840A08088E
:1013D0000914091089108000840A080809140910EA
:1013E00089148000840A08080914091089108000F3
:1013F000840A08080914091089148000840A08085E
:101400000914091089108000840A080809140910B9
:1014100089148000840A08080914091089108000C2
:10142000840A08080914091089148000840A08082D
:101430000914091089108000840A08080914091089
:1014400089148000840A0808091409108910800092
:10145000840A08080914091089148000840A0808FD
:101460000914091089108000840A08080914091059
:1014700089148000840A0808091409108910800062
:10148000840A08080914091089148000840A0808CD
:101490000914091089108000840A08080914091029
:1014A00089148000840A0808091409108910800032
:1014B000840A08080914091089148000840A08089D
:1014C0000914091089108000840A080809140910F9
:1014D00089148000840A0808091409108910800002
:1014E000840A08080914091089148000840A08086D
:1014F0000914091089108000840A080809140910C9
:1015000089148000840A08080914091089108000D1
:10151000840A08080914091089148000840A08083C
:101520000914091089108000840A08080914091098
:1015300089148000840A08080914091089108000A1
:10154000840A08080914091089148000840A08080C
:101550000914091089108000840A08080914091068
:1015600089148000840A0808091409108910800071
:10157000840A08080914091089148000840A0808DC
:101580000914091089108000840A08080914091038
:1015900089148000840A0808091409108910800041
:1015A000840A08080914091089148000840A0808AC
:1015B0000914091089108000840A08080914091008
:1015C00089148000840A0808091409108910800011
:1015D000840A08080914091089148000840A08087C
:1015E0000914091089108000840A080809140910D8
:1015F00089148000840A08080914091089108000E1
:10160000840A08080914091089148000840A08084B
:101610000914091089108000840A080809140910A7
:1016200089148000840A08080914091089108000B0
:10163000840A08080914091089148000840A08081B
:101640000914091089108000840A08080914091077
:1016500089148000840A0808091409108910800080
:10166000840A08080914091089148000840A0808EB
:101670000914091089108000840A08080914091047
:1016800089148000840A0808091409108910800050
:10169000840A0808091409108914800084170808AE
:1016A000091409108910800084030808091409101E
:1016B0008914800084030808091409108910800027
:1016C0008403080809140910891480008403080899
:1016D00009140910891080008403080809140910EE
:1016E00089148000840308080914091089108000F7
:1016F0008403080809140910891480008403080869
:1017000009140910891080008403080809140910BD
:1017100089148000840308080914091089108000C6
:101720008403080809140910891480008403080838
:10173000091409108910800084030808091409108D
:101740008914800084030808091409108910800096
:101750008403080809140910891480008403080808
:10176000091409108910800084030808091409105D
:101770008914800084030808091409108910800066
:1017800084030808091409108914800084030808D8
:10179000091409108910800084030808091409102D
:1017A0008914800084030808091409108910800036
:1017B00084030808091409108914800084030808A8
:1017C00009140910891080008403080809140910FD
:1017D0008914800084030808091409108910800006
:1017E0008403080809140910891480008403080878
:1017F00009140910891080008403080809140910CD
:1018000089148000840308080914091089108000D5
:101810008403080809140910891480008403080847
:10182000091409108910800084030808091409109C
:1018300089148000840308080914091089108000A5
:101840008403080809140910891480008403080817
:10185000091409108910800084030808091409106C
:101860008914800084030808091409108910800075
:1018700084030808091409108914800084030808E7
:10188000091409108910800084030808091409103C
:101890008914800084030808091409108910800045
:1018A00084030808091409108914800084030808B7
:1018B000091409108910800084030808091409100C
:1018C0008914800084030808091409108910800015
:1018D0008403080809140910891480008403080887
:1018E00009140910891080008403080809140910DC
:1018F00089148000840308080914091089108000E5
:101900008403080809140910891480008403080856
:1019100009140910891080008403080809140910AB
:1019200089148000840308080914091089108000B4
:101930008403080809140910891480008403080826
:10194000091409108910800084030808091409107B
:101950008914800084030808091409108910800084
:1019600084030808091409108914800084030808F6
:10197000091409108910800084030808091409104B
:101980008914800084030808091409108910800054
:1019900084030808091409108914800083170808B3
:1019A0000914091089108000840A08080914091014
:1019B00089148000840A080809140910891080001D
:1019C000840A08080914091089148000840A080888
:1019D0000914091089108000840A080809140910E4
:1019E00089148000840A08080914091089108000ED
:1019F000840A08080914091089148000840A080858
:101A00000914091089108000840A080809140910B3
:101A100089148000840A08080914091089108000BC
:101A2000840A08080914091089148000840A080827
:101A30000914091089108000840A08080914091083
:101A400089148000840A080809140910891080008C
:101A5000840A08080914091089148000840A0808F7
:101A60000914091089108000840A08080914091053
:101A700089148000840A080809140910891080005C
:101A8000840A08080914091089148000840A0808C7
:101A90000914091089108000840A08080914091023
:101AA00089148000840A080809140910891080002C
:101AB000840A08080914091089148000840A080897
:101AC0000914091089108000840A080809140910F3
:101AD00089148000840A08080914091089108000FC
:101AE000840A08080914091089148000840A080867
:101AF0000914091089108000840A080809140910C3
:101B000089148000840A08080914091089108000CB
:101B1000840A08080914091089148000840A080836
:101B20000914091089108000840A08080914091092
:101B300089148000840A080809140910891080009B
:101B4000840A08080914091089148000840A080806
:101B50000914091089108000840A08080914091062
:101B600089148000840A080809140910891080006B
:101B7000840A08080914091089148000840A0808D6
:101B80000914091089108000840A08080914091032
:101B900089148000840A080809140910891080003B
:101BA000840A08080914091089148000840A0808A6
:101BB0000914091089108000840A08080914091002
:101BC00089148000840A080809140910891080000B
:101BD000840A08080914091089148000840A080876
:101BE0000914091089108000840A080809140910D2
:101BF00089148000840A08080914091089108000DB
:101C0000840A08080914091089148000840A080845
:101C10000914091089108000840A080809140910A1
:101C200089148000840A08080914091089108000AA
:101C3000840A08080914091089148000840A080815
:101C40000914091089108000840A08080914091071
:101C500089148000840A080809140910891080007A
:101C6000840A08080914091089148000840A0808E5
:101C70000914091089108000840A08080914091041
:101C800089148000840A080809140910891080004A
:101C9000840A0808091409108914800084130808AC
:101CA0000914091089108000840308080914091018
:101CB0008914800084030808091409108910800021
:101CC0008403080809140910891480008403080893
:101CD00009140910891080008403080809140910E8
:101CE00089148000840308080914091089108000F1
:101CF0008403080809140910891480008403080863
:101D000009140910891080008403080809140910B7
:101D100089148000840308080914091089108000C0
:101D20008403080809140910891480008403080832
:101D30000914091089108000840308080914091087
:101D40008914800084030808091409108910800090
:101D50008403080809140910891480008403080802
:101D60000914091089108000840308080914091057
:101D70008914800084030808091409108910800060
:101D800084030808091409108914800084030808D2
:101D90000914091089108000840308080914091027
:101DA0008914800084030808091409108910800030
:101DB00084030808091409108914800084030808A2
:101DC00009140910891080008403080809140910F7
:101DD0008914800084030808091409108910800000
:101DE0008403080809140910891480008403080872
:101DF00009140910891080008403080809140910C7
:101E000089148000840308080914091089108000CF
:101E10008403080809140910891480008403080841
:101E20000914091089108000840308080914091096
:101E3000891480008403080809140910891080009F
:101E40008403080809140910891480008403080811
:101E50000914091089108000840308080914091066
:101E6000891480008403080809140910891080006F
:101E700084030808091409108914800084030808E1
:101E80000914091089108000840308080914091036
:101E9000891480008403080809140910891080003F
:101EA00084030808091409108914800084030808B1
:101EB0000914091089108000840308080914091006
:101EC000891480008403080809140910891080000F
:101ED0008403080809140910891480008403080881
:101EE00009140910891080008403080809140910D6
:101EF00089148000840308080914091089108000DF
:101F00008403080809140910891480008403080850
:101F100009140910891080008403080809140910A5
:101F200089148000840308080914091089108000AE
:101F30008403080809140910891480008403080820
:101F40000914091089108000840308080914091075
:101F5000891480008403080809140910891080007E
:101F600084030808091409108914800084030808F0
:101F70000914091089108000840308080914091045
:101F8000891480008403080809140910891080004E
:101F90008403080809148A110A1223290910203021
:101FA000840000000808091409108000840A000059
:101FB0000808091409108000840A000008080914A0
:101FC00009108000840A0000080809140910800024
:101FD000840A00000808091409108000840A00001F
:101FE0000808091409108000840A00000808091470
:101FF00009108000840A00000808091409108000F4
:10200000840A00000808091409108000840A0000EE
:102010000808091409108000840A0000080809143F
:1020200009108000840A00000808091409108000C3
:10203000840A00000808091409108000840A0000BE
:102040000808091409108000840A0000080809140F
:1020500009108000840A0000080809140910800093
:10206000840A00000808091409108000840A00008E
:102070000808091409108000840A000008080914DF
:1020800009108000840A0000080809140910800063
:10209000840A00000808091409108000840A00005E
:1020A0000808091409108000840A000008080914AF
:1020B00009108000840A0000080809140910800033
:1020C000840A00000808091409108000840A00002E
:1020D0000808091409108000840A0000080809147F
:1020E00009108000840A0000080809140910800003
:1020F000840A00000808091409108000840A0000FE
:102100000808091409108000840A0000080809144E
:1021100009108000840A00000808091409108000D2
:10212000840A00000808091409108000840A0000CD
:102130000808091409108000840A0000080809141E
:1021400009108000840A00000808091409108000A2
:10215000840A00000808091409108000840A00009D
:102160000808091409108000840A000008080914EE
:1021700009108000840A0000080809140910800072
:10218000840A00000808091409108000840A00006D
:102190000808091409108000840A000008080914BE
:1021A00009108000840A0000080809140910800042
:1021B000840A00000808091409108000840A00003D
:1021C0000808091409108000840A0000080809148E
:1021D00009108000840A0000080809140910800012
:1021E000840A00000808091409108000840A00000D
:1021F0000808091409108000840A0000080809145E
:1022000009108000840A00000808091409108000E1
:10221000840A00000808091409108000840A0000DC
:102220000808091409108000840A0000080809142D
:1022300009108000840A00000808091409108000B1
:10224000840A00000808091409108000840A0000AC
:102250000808091409108000840A000008080914FD
:1022600009108000840A0000080809140910800081
:10227000840A00000808091409108000840A00007C
:102280000808091409108000840A000008080914CD
:1022900009108000840A0000080809140910800051
:1022A0008417000008080914091080008403000046
:1022B00008080914091080008403000008080914A4
:1022C0000910800084030000080809140910800028
:1022D000840300000808091409108000840300002A
:1022E0000808091409108000840300000808091474
:1022F00009108000840300000808091409108000F8
:1023000084030000080809140910800084030000F9
:102310000808091409108000840300000808091443
:1023200009108000840300000808091409108000C7
:1023300084030000080809140910800084030000C9
:102340000808091409108000840300000808091413
:102350000910800084030000080809140910800097
:102360008403000008080914091080008403000099
:1023700008080914091080008403000008080914E3
:102380000910800084030000080809140910800067
:102390008403000008080914091080008403000069
:1023A00008080914091080008403000008080914B3
:1023B0000910800084030000080809140910800037
:1023C0008403000008080914091080008403000039
:1023D0000808091409108000840300000808091483
:1023E0000910800084030000080809140910800007
:1023F0008403000008080914091080008403000009
:102400000808091409108000840300000808091452
:1024100009108000840300000808091409108000D6
:1024200084030000080809140910800084030000D8
:102430000808091409108000840300000808091422
:1024400009108000840300000808091409108000A6
:1024500084030000080809140910800084030000A8
:1024600008080914091080008403000008080914F2
:102470000910800084030000080809140910800076
:102480008403000008080914091080008403000078
:1024900008080914091080008403000008080914C2
:1024A0000910800084030000080809140910800046
:1024B0008403000008080914091080008403000048
:1024C0000808091409108000840300000808091492
:1024D0000910800084030000080809140910800016
:1024E0008403000008080914091080008403000018
:1024F0000808091409108000840300000808091462
:1025000009108000840300000808091409108000E5
:1025100084030000080809140910800084030000E7
:102520000808091409108000840300000808091431
:1025300009108000840300000808091409108000B5
:1025400084030000080809140910800084030000B7
:102550000808091409108000840300000808091401
:102560000910800084030000080809140910800085
:102570008403000008080914091080008403000087
:1025800008080914091080008403000008080914D1
:102590000910800084030000080809140910800055
:1025A000831700000808091409108000840A00003D
:1025B0000808091409108000840A0000080809149A
:1025C00009108000840A000008080914091080001E
:1025D000840A00000808091409108000840A000019
:1025E0000808091409108000840A0000080809146A
:1025F00009108000840A00000808091409108000EE
:10260000840A00000808091409108000840A0000E8
:102610000808091409108000840A00000808091439
:1026200009108000840A00000808091409108000BD
:10263000840A00000808091409108000840A0000B8
:102640000808091409108000840A00000808091409
:1026500009108000840A000008080914091080008D
:10266000840A00000808091409108000840A000088
:102670000808091409108000840A000008080914D9
:1026800009108000840A000008080914091080005D
:10269000840A00000808091409108000840A000058
:1026A0000808091409108000840A000008080914A9
:1026B00009108000840A000008080914091080002D
:1026C000840A00000808091409108000840A000028
:1026D0000808091409108000840A00000808091479
:1026E00009108000840A00000808091409108000FD
:1026F000840A00000808091409108000840A0000F8
:102700000808091409108000840A00000808091448
:1027100009108000840A00000808091409108000CC
:10272000840A00000808091409108000840A0000C7
:102730000808091409108000840A00000808091418
:1027400009108000840A000008080914091080009C
:10275000840A00000808091409108000840A000097
:102760000808091409108000840A000008080914E8
:1027700009108000840A000008080914091080006C
:10278000840A00000808091409108000840A000067
:102790000808091409108000840A000008080914B8
:1027A00009108000840A000008080914091080003C
:1027B000840A00000808091409108000840A000037
:1027C0000808091409108000840A00000808091488
:1027D00009108000840A000008080914091080000C
:1027E000840A00000808091409108000840A000007
:1027F0000808091409108000840A00000808091458
:1028000009108000840A00000808091409108000DB
:10281000840A00000808091409108000840A0000D6
:102820000808091409108000840A00000808091427
:1028300009108000840A00000808091409108000AB
:10284000840A00000808091409108000840A0000A6
:102850000808091409108000840A000008080914F7
:1028600009108000840A000008080914091080007B
:10287000840A00000808091409108000840A000076
:102880000808091409108000840A000008080914C7
:1028900009108000840A000008080914091080004B
:1028A0008413000008080914091080008403000044
:1028B000080809140910800084030000080809149E
:1028C0000910800084030000080809140910800022
:1028D0008403000008080914091080008403000024
:1028E000080809140910800084030000080809146E
:1028F00009108000840300000808091409108000F2
:1029000084030000080809140910800084030000F3
:10291000080809140910800084030000080809143D
:1029200009108000840300000808091409108000C1
:1029300084030000080809140910800084030000C3
:10294000080809140910800084030000080809140D
:102950000910800084030000080809140910800091
:102960008403000008080914091080008403000093
:1029700008080914091080008403000008080914DD
:102980000910800084030000080809140910800061
:102990008403000008080914091080008403000063
:1029A00008080914091080008403000008080914AD
:1029B0000910800084030000080809140910800031
:1029C0008403000008080914091080008403000033
:1029D000080809140910800084030000080809147D
:1029E0000910800084030000080809140910800001
:1029F0008403000008080914091080008403000003
:102A0000080809140910800084030000080809144C
:102A100009108000840300000808091409108000D0
:102A200084030000080809140910800084030000D2
:102A3000080809140910800084030000080809141C
:102A400009108000840300000808091409108000A0
:102A500084030000080809140910800084030000A2
:102A600008080914091080008403000008080914EC
:102A70000910800084030000080809140910800070
:102A80008403000008080914091080008403000072
:102A900008080914091080008403000008080914BC
:102AA0000910800084030000080809140910800040
:102AB0008403000008080914091080008403000042
:102AC000080809140910800084030000080809148C
:102AD0000910800084030000080809140910800010
:102AE0008403000008080914091080008403000012
:102AF000080809140910800084030000080809145C
:102B000009108000840300000808091409108000DF
:102B100084030000080809140910800084030000E1
:102B2000080809140910800084030000080809142B
:102B300009108000840300000808091409108000AF
:102B400084030000080809140910800084030000B1
:102B500008080914091080008403000008080914FB
:102B6000091080008403000008080914091080007F
:102B70008403000008080914091080008403000081
:102B800008080914091080008403000008080914CB
:102B90000910800084030000080809148A110A1231
:102BA000232915308A00770882070A168A11E42D36
:102BB0000A168A11F42E0A168A11F72F0A168A1598
:102BC000FA280A168A15FE29091020308400000010
:102BD0000914091008088000840A0914091008085B
:102BE0008000840A0914091008088000840A091466
:102BF000091008088000840A0914091008088000D8
:102C0000840A0914091008088000840A09140910AC
:102C100008088000840A0914091008088000840A42
:102C20000914091008088000840A0914091008080A
:102C30008000840A0914091008088000840A091415
:102C4000091008088000840A091409100808800087
:102C5000840A0914091008088000840A091409105C
:102C600008088000840A0914091008088000840AF2
:102C70000914091008088000840A091409100808BA
:102C80008000840A0914091008088000840A0914C5
:102C9000091008088000840A091409100808800037
:102CA000840A0914091008088000840A091409100C
:102CB00008088000840A0914091008088000840AA2
:102CC0000914091008088000840A0914091008086A
:102CD0008000840A0914091008088000840A091475
:102CE000091008088000840A0914091008088000E7
:102CF000840A0914091008088000840A09140910BC
:102D000008088000840A0914091008088000840A51
:102D10000914091008088000840A09140910080819
:102D20008000840A0914091008088000840A091424
:102D3000091008088000840A091409100808800096
:102D4000840A0914091008088000840A091409106B
:102D500008088000840A0914091008088000840A01
:102D60000914091008088000840A091409100808C9
:102D70008000840A0914091008088000840A0914D4
:102D8000091008088000840A091409100808800046
:102D9000840A0914091008088000840A091409101B
:102DA00008088000840A0914091008088000840AB1
:102DB0000914091008088000840A09140910080879
:102DC0008000840A0914091008088000840A091484
:102DD00008088000840AEE2E800084030330F70781
:102DE00086140A128A11882800000910F72E0000A4
:102DF0000914091008088000840A09140910080839
:102E00008000840A0914091008088000840A091443
:102E1000091008088000840A0914091008088000B5
:102E2000840A0914091008088000840A091409108A
:102E300008088000840A0914091008088000840A20
:102E40000914091008088000840A091409100808E8
:102E50008000840A0914091008088000840A0914F3
:102E60000910080880008417091409100808800058
:102E70008403091409100808800084030914091048
:102E800008088000840309140910080880008403DE
:102E9000091409100808800084030914091008089F
:102EA00080008403091409100808800084030914B1
:102EB000091008088000840309140910080880001C
:102EC00084030914091008088000840309140910F8
:102ED000080880008403091409100808800084038E
:102EE000091409100808800084030914091008084F
:102EF0008000840309140910080880008403091461
:102F000009100808800084030914091008088000CB
:102F100084030914091008088000840309140910A7
:102F2000080880008403091409100808800084033D
:102F300009140910080880008403091409100808FE
:102F40008000840309140910080880008403091410
:102F5000091008088000840309140910080880007B
:102F60008403091409100808800084030914091057
:102F700008088000840309140910080880008403ED
:102F800009140910080880008403091409100808AE
:102F900080008403091409100808800084030914C0
:102FA000091008088000840309140910080880002B
:102FB0008403091409100808800084030914091007
:102FC000080880008403091409100808800084039D
:102FD000091409100808800084030914091008085E
:102FE00080008403091408080A168A11EC2EF82FB1
:102FF0000910FA2F00000914091008088000840342
:10300000091409100808800084030914091008082D
:10301000800084030914091008088000840309143F
:1030200009100808800084030914091008088000AA
:103030008403091409100808800084030914091086
:10304000080880008403091409100808800084031C
:1030500009140910080880008403091409100808DD
:1030600080008403091409100808800084030914EF
:10307000091008088000840309140910080880005A
:103080008403091409100808800084030914091036
:1030900008088000840309140910080880008403CC
:1030A000091409100808800084030914091008088D
:1030B000800084030914091008088000840309149F
:1030C000091008088000840309140910080880000A
:1030D00084030914091008088000840309140910E6
:1030E0000808800084030914091008088000831769
:1030F0000914091008088000840A09140910080836
:103100008000840A0914091008088000840A091440
:10311000091008088000840A0914091008088000B2
:10312000840A0914091008088000840A0914091087
:1031300008088000840A0914091008088000840A1D
:103140000914091008088000840A091409100808E5
:103150008000840A0914091008088000840A0914F0
:10316000091008088000840A091409100808800062
:10317000840A0914091008088000840A0914091037
:1031800008088000840A0914091008088000840ACD
:103190000914091008088000840A09140910080895
:1031A0008000840A0914091008088000840A0914A0
:1031B000091008088000840A091409100808800012
:1031C000840A0914091008088000840A09140910E7
:1031D00008088000840A0914091008088000840A7D
:1031E0000914091008088000840A091408080A163E
:1031F0008A11E92EFB2800000910FE28000009149E
:10320000091008088000840A0914091008088000C1
:10321000840A0914091008088000840A0914091096
:1032200008088000840A0914091008088000840A2C
:103230000914091008088000840A091409100808F4
:103240008000840A0914091008088000840A0914FF
:10325000091008088000840A091409100808800071
:10326000840A0914091008088000840A0914091046
:1032700008088000840A0914091008088000840ADC
:103280000914091008088000840A091409100808A4
:103290008000840A0914091008088000840A0914AF
:1032A000091008088000840A091409100808800021
:1032B000840A0914091008088000840A09140910F6
:1032C00008088000840A0914091008088000840A8C
:1032D0000914091008088000840A09140910080854
:1032E0008000840A0914091008088000840A09145F
:1032F000091008088000840A0914091008088000D1
:10330000840A0914091008088000840A09140910A5
:1033100008088000840A0914091008088000840A3B
:103320000914091008088000840A09140910080803
:103330008000840A0914091008088000840A09140E
:10334000091008088000840A091409100808800080
:10335000840A0914091008088000840A0914091055
:1033600008088000840A0914091008088000840AEB
:1033700009140910080880008413091409100808AA
:1033800080008403091409100808800084030914CC
:103390000910080880008403091409100808800037
:1033A0008403091409100808800084030914091013
:1033B00008088000840309140910080880008403A9
:1033C000091409100808800084030914091008086A
:1033D000800084030914091008088000840309147C
:1033E00009100808800084030914091008088000E7
:1033F0008403091408080A168A11EC2EFF290A1200
:103400008A1509100000CC281A308A007708820734
:103410000A168A15112A0A168A15182C0A168A15F0
:10342000192E091020308400000008080914091022
:103430008000840A00000808091409108000840A2A
:1034400000000808091409108000840A0000080818
:10345000091409108000840A0000080809140910E2
:103460008000840A00000808091409108000840AFA
:1034700000000808091409108000840A00000808E8
:10348000091409108000840A0000080809140910B2
:103490008000840A00000808091409108000840ACA
:1034A00000000808091409108000840A00000808B8
:1034B000091409108000840A000008080914091082
:1034C0008000840A00000808091409108000840A9A
:1034D00000000808091409108000840A0000080888
:1034E000091409108000840A000008080914091052
:1034F0008000840A00000808091409108000840A6A
:1035000000000808091409108000840A0000080857
:10351000091409108000840A000008080914091021
:103520008000840A00000808091409108000840A39
:1035300000000808091409108000840A0000080827
:10354000091409108000840A0000080809140910F1
:103550008000840A00000808091409108000840A09
:1035600000000808091409108000840A00000808F7
:10357000091409108000840A0000080809140910C1
:103580008000840A00000808091409108000840AD9
:1035900000000808091409108000840A00000808C7
:1035A000091409108000840A000008080914091091
:1035B0008000840A00000808091409108000840AA9
:1035C00000000808091409108000840A0000080897
:1035D000091409108000840A000008080914091061
:1035E0008000840A00000808091409108000840A79
:1035F00000000808091409108000840A0000080867
:10360000091409108000840A000008080914091030
:103610008000840A00000808091409108000840A48
:1036200000000808091409108000840A0000080836
:10363000091409108000840A000008080914091000
:103640008000840A00000808091409108000840A18
:1036500000000808091409108000840A0000080806
:10366000091409108000840A0000080809140910D0
:103670008000840A00000808091409108000840AE8
:1036800000000808091409108000840A00000808D6
:10369000091409108000840A0000080809140910A0
:1036A0008000840A00000808091409108000840AB8
:1036B00000000808091409108000840A00000808A6
:1036C000091409108000840A000008080914091070
:1036D0008000840A00000808091409108000840A88
:1036E00000000808091409108000840A0000080876
:1036F000091409108000840A000008080914091040
:103700008000840A00000808091409108000840A57
:1037100000000808091409108000840A0000080845
:103720000914091080008417000008080914091002
:103730008000840300000808091409108000840335
:10374000000008080914091080008403000008081C
:1037500009140910800084030000080809140910E6
:103760008000840300000808091409108000840305
:1037700000000808091409108000840300000808EC
:1037800009140910800084030000080809140910B6
:1037900080008403000008080914091080008403D5
:1037A00000000808091409108000840300000808BC
:1037B0000914091080008403000008080914091086
:1037C00080008403000008080914091080008403A5
:1037D000000008080914091080008403000008088C
:1037E0000914091080008403000008080914091056
:1037F0008000840300000808091409108000840375
:10380000000008080914091080008403000008085B
:103810000914091080008403000008080914091025
:10382000800084030000080809140A168A11EC2E8F
:10383000192C09101B2C000008080914091080001D
:1038400084030000080809140910800084030000A4
:1038500008080914091080008403000008080914EE
:103860000910800084030000080809140910800072
:103870008403000008080914091080008403000074
:1038800008080914091080008403000008080914BE
:103890000910800084030000080809140910800042
:1038A0008403000008080914091080008403000044
:1038B000080809140910800084030000080809148E
:1038C0000910800084030000080809140910800012
:1038D0008403000008080914091080008403000014
:1038E000080809140910800084030000080809145E
:1038F00009108000840300000808091409108000E2
:1039000084030000080809140910800084030000E3
:10391000080809140910800084030000080809142D
:1039200009108000840300000808091409108000B1
:1039300084030000080809140910800084030000B3
:1039400008080914091080008403000008080914FD
:103950000910800084030000080809140910800081
:103960008403000008080914091080008403000083
:1039700008080914091080008403000008080914CD
:103980000910800084030000080809140910800051
:103990008403000008080914091080008403000053
:1039A000080809140910800084030000080809149D
:1039B0000910800084030000080809140910800021
:1039C0008403000008080914091080008403000023
:1039D000080809140910800084030000080809146D
:1039E00009108000840300000808091409108000F1
:1039F00084030000080809140910800084030000F3
:103A0000080809140910800084030000080809143C
:103A100009108000840300000808091409108000C0
:103A200084030000080809140910800083170000AF
:103A30000808091409108000840A00000808091405
:103A400009108000840A0000080809140910800089
:103A5000840A00000808091409108000840A000084
:103A60000808091409108000840A000008080914D5
:103A700009108000840A0000080809140910800059
:103A8000840A00000808091409108000840A000054
:103A90000808091409108000840A000008080914A5
:103AA00009108000840A0000080809140910800029
:103AB000840A00000808091409108000840A000024
:103AC0000808091409108000840A00000808091475
:103AD00009108000840A00000808091409108000F9
:103AE000840A00000808091409108000840A0000F4
:103AF0000808091409108000840A00000808091445
:103B000009108000840A00000808091409108000C8
:103B1000840A00000808091409108000840A0000C3
:103B20000808091409108000840A00000808091414
:103B300009108000840A0000080809140910800098
:103B4000840A00000808091409108000840A000093
:103B50000808091409108000840A000008080914E4
:103B600009108000840A0000080809140910800068
:103B7000840A00000808091409108000840A000063
:103B80000808091409108000840A000008080914B4
:103B900009108000840A0000080809140910800038
:103BA000840A00000808091409108000840A000033
:103BB0000808091409108000840A00000808091484
:103BC00009108000840A0000080809140910800008
:103BD000840A00000808091409108000840A000003
:103BE0000808091409108000840A00000808091454
:103BF00009108000840A00000808091409108000D8
:103C0000840A00000808091409108000840A0000D2
:103C10000808091409108000840A00000808091423
:103C200009108000840A0000080809140A168A1185
:0E3C3000E92E1A2E0A168A1109100000D42B54
:084000000100020003000400AE
:02400E00F2209E
:02401000FF3F70
:00000001FF
