:020000040000FA
:10000000C6308900880195288312F60B0428F70B67
:100010000428F80B0428790882070A128A11092C8F
:100020000A128A15102F0A128A11D02A0A128A116E
:10003000132B0A128A11132B0A128A11C2290A16CB
:100040008A11132D0A168A1546290A128A150D29B6
:100050000A128A11762B0A128A11762B0A128A1139
:100060002D2A0A128A11B2280A128A11B2280A12FB
:100070008A11B2280A128A11B228861E3D28061A51
:100080004828061AFF34861A41280230FC006228EC
:10009000061E4F28861A48280330FC006228861A5C
:1000A0004F28FE34831606168312861E5528061E18
:1000B0005528061A5928861E5528861A5D280310C9
:1000C000FC017C14861E62280310061A0314FC0D22
:1000D000861A6828031C62280612831606128312E9
:1000E000861E7028861A722883160616831200341C
:1000F00006120830FB007E28861A7C288316061616
:10010000FC1F06128312861E8328FC0DFB0B7C2825
:10011000861A8828831606168312861E8D280030BC
:10012000061AFF30861A92280800850183161730B8
:100130008500C030810010308B0031308600FF30E8
:1001400088000430890007309F00B93087001530DF
:100150009900243098000C168C1683128030980079
:1001600083139F01DB20FA0170088910701A89142B
:100170008A010F39F9000310F90D79078610701FF5
:100180000C28F900730AF600720AF700710AF800E9
:100190008316011370088039031D011783128B1019
:1001A0008B175F217C08F33A031DD128DC30FC005B
:1001B00077218B13B2285F217C08F83A031D23298D
:1001C000DC30FC007721203084004030F70000084C
:1001D000FC00840A7721FF39031D1729F70BE72854
:1001E0004030F700841784030008FC008403772163
:1001F000FF39031D1729F70BF4284030F700831748
:10020000840A0008FC00840A7721FF39031D17299E
:10021000F70B01294030F700841384030008FC0029
:1002200084037721FF39031D1729F70B0E29841347
:1002300083137D08FC007721FC01772177217E085C
:10024000FC007721DB287C08F93A031D4329DD30C7
:10025000FC0077210130FC0077210030FC00772181
:100260007008FC0077217108FC0077217208FC00FF
:1002700077217308FC0077217408FC00772175084A
:10028000FC007721DB287C08FA3A031DDB28DE30EE
:10029000FC00772162217C08DF392038F0006221E0
:1002A0007C08F10062217C08F20062217C08F300E6
:1002B00062217C08F40062217C08F5000800051D1D
:1002C00052286429051D5F2818168C1E6429181DE4
:1002D0006B291A086429981C7329181218161A0811
:1002E0008C1A6F2964291A08FC0018120034051DA5
:1002F00078280C1E79297C08990000340130F60218
:10030000031CF702F608031D7F29F708031D7F2948
:100310000800800086148313FD01831687100715DB
:10032000051285168312871005127D17051C7D1393
:10033000851C7D13851CFD170718FD1587140516F0
:10034000831687140711051685128312071185126B
:100350007D16051C7D12851C7D12851CFD16071857
:100360007D1507158516891006158611861009104A
:10037000B92900000808091486148910061186118D
:10038000FE00B22809103F30F800203084007508C4
:10039000F6007408F70000007E210808091409100F
:1003A0008000840A7508F6007408F7007E21F80BB7
:1003B000CD290000080809140910800084173F3077
:1003C000F8007508F6007408F7007E2100000808A0
:1003D00009140910800084037508F6007408F700FA
:1003E0007E21F80BE7290000080809140910800095
:1003F00083173F30F8007508F6007408F7007E2177
:1004000000000808091409108000840A7508F60025
:100410007408F7007E21F80B012A0000080809146F
:100420000910800084133F30F8007508F600740846
:10043000F7007E21000008080914091080008403D9
:100440007508F6007408F7007E21F80B1B2A0000DF
:10045000080809148A110A12892909108914203000
:10046000840008080914091089108000840A1F30CC
:10047000F8007508F6007408F7007E2100000808EF
:100480000914091089148000840A08080914091045
:1004900089108000840A7508F6007408F7007E2130
:1004A000F80B3F2A0000080809140910891480007D
:1004B00084170808091409108910800084031F306C
:1004C000F8007508F6007408F7007E21000008089F
:1004D00009140910891480008403080809140910FC
:1004E0008910800084037508F6007408F7007E21E7
:1004F000F80B672A00000808091409108914800005
:10050000831708080914091089108000840A1F3015
:10051000F8007508F6007408F7007E21000008084E
:100520000914091089148000840A080809140910A4
:1005300089108000840A7508F6007408F7007E218F
:10054000F80B8F2A0000080809140910891480008C
:1005500084130808091409108910800084031F30CF
:10056000F8007508F6007408F7007E2100000808FE
:10057000091409108914800084030808091409105B
:100580008910800084037508F6007408F7007E2146
:10059000F80BB72A0000080809148A110A128929E1
:1005A00009103F30F60020308400000008080914CC
:1005B00009108000840AF60BD62A000008080914E6
:1005C0000910800084173F30F60000000808091465
:1005D000091080008403F60BE62A000008080914BD
:1005E0000910800083173F30F60000000808091446
:1005F00009108000840AF60BF62A00000808091486
:100600000910800084133F30F60000000808091428
:10061000091080008403F60B062B0000080809145B
:100620008A110A12892909103F30F600203084000F
:10063000192B701D1C2B7223080809140910800047
:10064000840A701D242B72230000F60B1C2B000063
:10065000080809140910800084173F30F600302B79
:10066000701D332B722308080914091080008403BD
:10067000701D3B2B72230000F60B332B0000080883
:1006800009140910800083173F30F600472B701DB6
:100690004A2B72230808091409108000840A701D6F
:1006A000522B72230000F60B4A2B00000808091495
:1006B0000910800084133F30F6005E2B701D612B03
:1006C000722308080914091080008403701D692B27
:1006D00072230000F60B612B0000080809148A1130
:1006E0000A128929732B0000752B08000910891440
:1006F0002030840008080914091089108000840A39
:100700001F30F800701C73237523080809140910A2
:1007100089148000840A08080914091089108000CF
:10072000840A701C7323942B0000F80B852B0000A7
:10073000080809140910891480008417080809148E
:1007400009108910800084031F30F800701C732387
:100750007523080809140910891480008403080807
:1007600009140910891080008403701C7323B82BAE
:100770000000F80BA92B00000808091409108914BF
:100780008000831708080914091089108000840A62
:100790001F30F800701C7323752308080914091012
:1007A00089148000840A080809140910891080003F
:1007B000840A701C7323DC2B0000F80BCD2B000087
:1007C0000808091409108914800084130808091402
:1007D00009108910800084031F30F800701C7323F7
:1007E0007523080809140910891480008403080877
:1007F00009140910891080008403701C7323002CD5
:100800000000F80BF12B0000080809148A110A12E5
:1008100089290910203084000000091409100808F3
:100820008000840A0914091008088000840A091449
:10083000091008088000840A0914091008088000BB
:10084000840A0914091008088000840A0914091090
:1008500008088000840A0914091008088000840A26
:100860000914091008088000840A091409100808EE
:100870008000840A0914091008088000840A0914F9
:10088000091008088000840A09140910080880006B
:10089000840A0914091008088000840A0914091040
:1008A00008088000840A0914091008088000840AD6
:1008B0000914091008088000840A0914091008089E
:1008C0008000840A0914091008088000840A0914A9
:1008D000091008088000840A09140910080880001B
:1008E000840A0914091008088000840A09140910F0
:1008F00008088000840A0914091008088000840A86
:100900000914091008088000840A0914091008084D
:100910008000840A0914091008088000840A091458
:10092000091008088000840A0914091008088000CA
:10093000840A0914091008088000840A091409109F
:1009400008088000840A0914091008088000840A35
:100950000914091008088000840A091409100808FD
:100960008000840A0914091008088000840A091408
:10097000091008088000840A09140910080880007A
:10098000840A0914091008088000840A091409104F
:1009900008088000840A0914091008088000840AE5
:1009A0000914091008088000840A091409100808AD
:1009B0008000840A0914091008088000840A0914B8
:1009C000091008088000840A09140910080880002A
:1009D000840A0914091008088000840A09140910FF
:1009E00008088000840A0914091008088000840A95
:1009F0000914091008088000840A0914091008085D
:100A00008000840A0914091008088000840A091467
:100A1000091008088000840A0914091008088000D9
:100A2000840A0914091008088000840A09140910AE
:100A300008088000840A0914091008088000840A44
:100A40000914091008088000840A0914091008080C
:100A50008000840A0914091008088000840A091417
:100A6000091008088000840A091409100808800089
:100A7000840A0914091008088000840A091409105E
:100A800008088000840A0914091008088000840AF4
:100A900009140910080880008417091409100808AF
:100AA00080008403091409100808800084030914D5
:100AB0000910080880008403091409100808800040
:100AC000840309140910080880008403091409101C
:100AD00008088000840309140910080880008403B2
:100AE0000914091008088000840309140910080873
:100AF0008000840309140910080880008403091485
:100B000009100808800084030914091008088000EF
:100B100084030914091008088000840309140910CB
:100B20000808800084030914091008088000840361
:100B30000914091008088000840309140910080822
:100B40008000840309140910080880008403091434
:100B5000091008088000840309140910080880009F
:100B6000840309140910080880008403091409107B
:100B70000808800084030914091008088000840311
:100B800009140910080880008403091409100808D2
:100B900080008403091409100808800084030914E4
:100BA000091008088000840309140910080880004F
:100BB000840309140910080880008403091409102B
:100BC00008088000840309140910080880008403C1
:100BD0000914091008088000840309140910080882
:100BE0008000840309140910080880008403091494
:100BF00009100808800084030914091008088000FF
:100C000084030914091008088000840309140910DA
:100C10000808800084030914091008088000840370
:100C20000914091008088000840309140910080831
:100C30008000840309140910080880008403091443
:100C400009100808800084030914091008088000AE
:100C5000840309140910080880008403091409108A
:100C60000808800084030914091008088000840320
:100C700009140910080880008403091409100808E1
:100C800080008403091409100808800084030914F3
:100C9000091008088000840309140910080880005E
:100CA000840309140910080880008403091409103A
:100CB00008088000840309140910080880008403D0
:100CC0000914091008088000840309140910080891
:100CD00080008403091409100808800084030914A3
:100CE000091008088000840309140910080880000E
:100CF00084030914091008088000840309140910EA
:100D0000080880008403091409100808800084037F
:100D1000091409100808800083170914091008082D
:100D20008000840A0914091008088000840A091444
:100D3000091008088000840A0914091008088000B6
:100D4000840A0914091008088000840A091409108B
:100D500008088000840A0914091008088000840A21
:100D60000914091008088000840A091409100808E9
:100D70008000840A0914091008088000840A0914F4
:100D8000091008088000840A091409100808800066
:100D9000840A0914091008088000840A091409103B
:100DA00008088000840A0914091008088000840AD1
:100DB0000914091008088000840A09140910080899
:100DC0008000840A0914091008088000840A0914A4
:100DD000091008088000840A091409100808800016
:100DE000840A0914091008088000840A09140910EB
:100DF00008088000840A0914091008088000840A81
:100E00000914091008088000840A09140910080848
:100E10008000840A0914091008088000840A091453
:100E2000091008088000840A0914091008088000C5
:100E3000840A0914091008088000840A091409109A
:100E400008088000840A0914091008088000840A30
:100E50000914091008088000840A091409100808F8
:100E60008000840A0914091008088000840A091403
:100E7000091008088000840A091409100808800075
:100E8000840A0914091008088000840A091409104A
:100E900008088000840A0914091008088000840AE0
:100EA0000914091008088000840A091409100808A8
:100EB0008000840A0914091008088000840A0914B3
:100EC000091008088000840A091409100808800025
:100ED000840A0914091008088000840A09140910FA
:100EE00008088000840A0914091008088000840A90
:100EF0000914091008088000840A09140910080858
:100F00008000840A0914091008088000840A091462
:100F1000091008088000840A0914091008088000D4
:100F2000840A0914091008088000840A09140910A9
:100F300008088000840A0914091008088000840A3F
:100F40000914091008088000840A09140910080807
:100F50008000840A0914091008088000840A091412
:100F6000091008088000840A091409100808800084
:100F7000840A0914091008088000840A0914091059
:100F800008088000840A0914091008088000840AEF
:100F900009140910080880008413091409100808AE
:100FA00080008403091409100808800084030914D0
:100FB000091008088000840309140910080880003B
:100FC0008403091409100808800084030914091017
:100FD00008088000840309140910080880008403AD
:100FE000091409100808800084030914091008086E
:100FF0008000840309140910080880008403091480
:1010000009100808800084030914091008088000EA
:1010100084030914091008088000840309140910C6
:10102000080880008403091409100808800084035C
:10103000091409100808800084030914091008081D
:10104000800084030914091008088000840309142F
:10105000091008088000840309140910080880009A
:101060008403091409100808800084030914091076
:10107000080880008403091409100808800084030C
:1010800009140910080880008403091409100808CD
:1010900080008403091409100808800084030914DF
:1010A000091008088000840309140910080880004A
:1010B0008403091409100808800084030914091026
:1010C00008088000840309140910080880008403BC
:1010D000091409100808800084030914091008087D
:1010E000800084030914091008088000840309148F
:1010F00009100808800084030914091008088000FA
:1011000084030914091008088000840309140910D5
:10111000080880008403091409100808800084036B
:10112000091409100808800084030914091008082C
:10113000800084030914091008088000840309143E
:1011400009100808800084030914091008088000A9
:101150008403091409100808800084030914091085
:10116000080880008403091409100808800084031B
:1011700009140910080880008403091409100808DC
:1011800080008403091409100808800084030914EE
:101190000910080880008403091409100808800059
:1011A0008403091409100808800084030914091035
:1011B00008088000840309140910080880008403CB
:1011C000091409100808800084030914091008088C
:1011D000800084030914091008088000840309149E
:1011E0000910080880008403091409100808800009
:1011F00084030914091008088000840309140910E5
:10120000080880008403091409100808800084037A
:10121000091408088A110A12892909108914203032
:10122000840008080914091089108000840A08083D
:101230000914091089148000840A08080914091087
:1012400089108000840A0808091409108914800094
:10125000840A08080914091089108000840A080803
:101260000914091089148000840A08080914091057
:1012700089108000840A0808091409108914800064
:10128000840A08080914091089108000840A0808D3
:101290000914091089148000840A08080914091027
:1012A00089108000840A0808091409108914800034
:1012B000840A08080914091089108000840A0808A3
:1012C0000914091089148000840A080809140910F7
:1012D00089108000840A0808091409108914800004
:1012E000840A08080914091089108000840A080873
:1012F0000914091089148000840A080809140910C7
:1013000089108000840A08080914091089148000D3
:10131000840A08080914091089108000840A080842
:101320000914091089148000840A08080914091096
:1013300089108000840A08080914091089148000A3
:10134000840A08080914091089108000840A080812
:101350000914091089148000840A08080914091066
:1013600089108000840A0808091409108914800073
:10137000840A08080914091089108000840A0808E2
:101380000914091089148000840A08080914091036
:1013900089108000840A0808091409108914800043
:1013A000840A08080914091089108000840A0808B2
:1013B0000914091089148000840A08080914091006
:1013C00089108000840A0808091409108914800013
:1013D000840A08080914091089108000840A080882
:1013E0000914091089148000840A080809140910D6
:1013F00089108000840A08080914091089148000E3
:10140000840A08080914091089108000840A080851
:101410000914091089148000840A080809140910A5
:1014200089108000840A08080914091089148000B2
:10143000840A08080914091089108000840A080821
:101440000914091089148000840A08080914091075
:1014500089108000840A0808091409108914800082
:10146000840A08080914091089108000840A0808F1
:101470000914091089148000840A08080914091045
:1014800089108000840A0808091409108914800052
:10149000840A08080914091089108000840A0808C1
:1014A0000914091089148000840A08080914091015
:1014B00089108000840A0808091409108914800022
:1014C000840A08080914091089108000840A080891
:1014D0000914091089148000840A080809140910E5
:1014E00089108000840A08080914091089148000F2
:1014F000840A08080914091089108000840A080861
:101500000914091089148000840A080809140910B4
:1015100089108000840A08080914091089148000C1
:10152000841708080914091089108000840308082A
:10153000091409108914800084030808091409108B
:101540008910800084030808091409108914800098
:10155000840308080914091089108000840308080E
:10156000091409108914800084030808091409105B
:101570008910800084030808091409108914800068
:1015800084030808091409108910800084030808DE
:10159000091409108914800084030808091409102B
:1015A0008910800084030808091409108914800038
:1015B00084030808091409108910800084030808AE
:1015C00009140910891480008403080809140910FB
:1015D0008910800084030808091409108914800008
:1015E000840308080914091089108000840308087E
:1015F00009140910891480008403080809140910CB
:1016000089108000840308080914091089148000D7
:10161000840308080914091089108000840308084D
:10162000091409108914800084030808091409109A
:1016300089108000840308080914091089148000A7
:10164000840308080914091089108000840308081D
:10165000091409108914800084030808091409106A
:101660008910800084030808091409108914800077
:1016700084030808091409108910800084030808ED
:10168000091409108914800084030808091409103A
:101690008910800084030808091409108914800047
:1016A00084030808091409108910800084030808BD
:1016B000091409108914800084030808091409100A
:1016C0008910800084030808091409108914800017
:1016D000840308080914091089108000840308088D
:1016E00009140910891480008403080809140910DA
:1016F00089108000840308080914091089148000E7
:10170000840308080914091089108000840308085C
:1017100009140910891480008403080809140910A9
:1017200089108000840308080914091089148000B6
:10173000840308080914091089108000840308082C
:101740000914091089148000840308080914091079
:101750008910800084030808091409108914800086
:1017600084030808091409108910800084030808FC
:101770000914091089148000840308080914091049
:101780008910800084030808091409108914800056
:1017900084030808091409108910800084030808CC
:1017A0000914091089148000840308080914091019
:1017B0008910800084030808091409108914800026
:1017C000840308080914091089108000840308089C
:1017D00009140910891480008403080809140910E9
:1017E00089108000840308080914091089148000F6
:1017F000840308080914091089108000840308086C
:1018000009140910891480008403080809140910B8
:1018100089108000840308080914091089148000C5
:10182000831708080914091089108000840A080821
:101830000914091089148000840A08080914091081
:1018400089108000840A080809140910891480008E
:10185000840A08080914091089108000840A0808FD
:101860000914091089148000840A08080914091051
:1018700089108000840A080809140910891480005E
:10188000840A08080914091089108000840A0808CD
:101890000914091089148000840A08080914091021
:1018A00089108000840A080809140910891480002E
:1018B000840A08080914091089108000840A08089D
:1018C0000914091089148000840A080809140910F1
:1018D00089108000840A08080914091089148000FE
:1018E000840A08080914091089108000840A08086D
:1018F0000914091089148000840A080809140910C1
:1019000089108000840A08080914091089148000CD
:10191000840A08080914091089108000840A08083C
:101920000914091089148000840A08080914091090
:1019300089108000840A080809140910891480009D
:10194000840A08080914091089108000840A08080C
:101950000914091089148000840A08080914091060
:1019600089108000840A080809140910891480006D
:10197000840A08080914091089108000840A0808DC
:101980000914091089148000840A08080914091030
:1019900089108000840A080809140910891480003D
:1019A000840A08080914091089108000840A0808AC
:1019B0000914091089148000840A08080914091000
:1019C00089108000840A080809140910891480000D
:1019D000840A08080914091089108000840A08087C
:1019E0000914091089148000840A080809140910D0
:1019F00089108000840A08080914091089148000DD
:101A0000840A08080914091089108000840A08084B
:101A10000914091089148000840A0808091409109F
:101A200089108000840A08080914091089148000AC
:101A3000840A08080914091089108000840A08081B
:101A40000914091089148000840A0808091409106F
:101A500089108000840A080809140910891480007C
:101A6000840A08080914091089108000840A0808EB
:101A70000914091089148000840A0808091409103F
:101A800089108000840A080809140910891480004C
:101A9000840A08080914091089108000840A0808BB
:101AA0000914091089148000840A0808091409100F
:101AB00089108000840A080809140910891480001C
:101AC000840A08080914091089108000840A08088B
:101AD0000914091089148000840A080809140910DF
:101AE00089108000840A08080914091089148000EC
:101AF000840A08080914091089108000840A08085B
:101B00000914091089148000840A080809140910AE
:101B100089108000840A08080914091089148000BB
:101B20008413080809140910891080008403080828
:101B30000914091089148000840308080914091085
:101B40008910800084030808091409108914800092
:101B50008403080809140910891080008403080808
:101B60000914091089148000840308080914091055
:101B70008910800084030808091409108914800062
:101B800084030808091409108910800084030808D8
:101B90000914091089148000840308080914091025
:101BA0008910800084030808091409108914800032
:101BB00084030808091409108910800084030808A8
:101BC00009140910891480008403080809140910F5
:101BD0008910800084030808091409108914800002
:101BE0008403080809140910891080008403080878
:101BF00009140910891480008403080809140910C5
:101C000089108000840308080914091089148000D1
:101C10008403080809140910891080008403080847
:101C20000914091089148000840308080914091094
:101C300089108000840308080914091089148000A1
:101C40008403080809140910891080008403080817
:101C50000914091089148000840308080914091064
:101C60008910800084030808091409108914800071
:101C700084030808091409108910800084030808E7
:101C80000914091089148000840308080914091034
:101C90008910800084030808091409108914800041
:101CA00084030808091409108910800084030808B7
:101CB0000914091089148000840308080914091004
:101CC0008910800084030808091409108914800011
:101CD0008403080809140910891080008403080887
:101CE00009140910891480008403080809140910D4
:101CF00089108000840308080914091089148000E1
:101D00008403080809140910891080008403080856
:101D100009140910891480008403080809140910A3
:101D200089108000840308080914091089148000B0
:101D30008403080809140910891080008403080826
:101D40000914091089148000840308080914091073
:101D50008910800084030808091409108914800080
:101D600084030808091409108910800084030808F6
:101D70000914091089148000840308080914091043
:101D80008910800084030808091409108914800050
:101D900084030808091409108910800084030808C6
:101DA0000914091089148000840308080914091013
:101DB0008910800084030808091409108914800020
:101DC0008403080809140910891080008403080896
:101DD00009140910891480008403080809140910E3
:101DE00089108000840308080914091089148000F0
:101DF0008403080809140910891080008403080866
:101E000009140910891480008403080809140910B2
:101E1000891080008403080809148A110A1289298C
:101E200009102030840000000808091409108000FF
:101E3000840A00000808091409108000840A0000C0
:101E40000808091409108000840A00000808091411
:101E500009108000840A0000080809140910800095
:101E6000840A00000808091409108000840A000090
:101E70000808091409108000840A000008080914E1
:101E800009108000840A0000080809140910800065
:101E9000840A00000808091409108000840A000060
:101EA0000808091409108000840A000008080914B1
:101EB00009108000840A0000080809140910800035
:101EC000840A00000808091409108000840A000030
:101ED0000808091409108000840A00000808091481
:101EE00009108000840A0000080809140910800005
:101EF000840A00000808091409108000840A000000
:101F00000808091409108000840A00000808091450
:101F100009108000840A00000808091409108000D4
:101F2000840A00000808091409108000840A0000CF
:101F30000808091409108000840A00000808091420
:101F400009108000840A00000808091409108000A4
:101F5000840A00000808091409108000840A00009F
:101F60000808091409108000840A000008080914F0
:101F700009108000840A0000080809140910800074
:101F8000840A00000808091409108000840A00006F
:101F90000808091409108000840A000008080914C0
:101FA00009108000840A0000080809140910800044
:101FB000840A00000808091409108000840A00003F
:101FC0000808091409108000840A00000808091490
:101FD00009108000840A0000080809140910800014
:101FE000840A00000808091409108000840A00000F
:101FF0000808091409108000840A00000808091460
:1020000009108000840A00000808091409108000E3
:10201000840A00000808091409108000840A0000DE
:102020000808091409108000840A0000080809142F
:1020300009108000840A00000808091409108000B3
:10204000840A00000808091409108000840A0000AE
:102050000808091409108000840A000008080914FF
:1020600009108000840A0000080809140910800083
:10207000840A00000808091409108000840A00007E
:102080000808091409108000840A000008080914CF
:1020900009108000840A0000080809140910800053
:1020A000840A00000808091409108000840A00004E
:1020B0000808091409108000840A0000080809149F
:1020C00009108000840A0000080809140910800023
:1020D000840A00000808091409108000840A00001E
:1020E0000808091409108000840A0000080809146F
:1020F00009108000840A00000808091409108000F3
:10210000840A00000808091409108000840A0000ED
:102110000808091409108000840A0000080809143E
:1021200009108000841700000808091409108000B5
:1021300084030000080809140910800084030000CB
:102140000808091409108000840300000808091415
:102150000910800084030000080809140910800099
:10216000840300000808091409108000840300009B
:1021700008080914091080008403000008080914E5
:102180000910800084030000080809140910800069
:10219000840300000808091409108000840300006B
:1021A00008080914091080008403000008080914B5
:1021B0000910800084030000080809140910800039
:1021C000840300000808091409108000840300003B
:1021D0000808091409108000840300000808091485
:1021E0000910800084030000080809140910800009
:1021F000840300000808091409108000840300000B
:102200000808091409108000840300000808091454
:1022100009108000840300000808091409108000D8
:1022200084030000080809140910800084030000DA
:102230000808091409108000840300000808091424
:1022400009108000840300000808091409108000A8
:1022500084030000080809140910800084030000AA
:1022600008080914091080008403000008080914F4
:102270000910800084030000080809140910800078
:10228000840300000808091409108000840300007A
:1022900008080914091080008403000008080914C4
:1022A0000910800084030000080809140910800048
:1022B000840300000808091409108000840300004A
:1022C0000808091409108000840300000808091494
:1022D0000910800084030000080809140910800018
:1022E000840300000808091409108000840300001A
:1022F0000808091409108000840300000808091464
:1023000009108000840300000808091409108000E7
:1023100084030000080809140910800084030000E9
:102320000808091409108000840300000808091433
:1023300009108000840300000808091409108000B7
:1023400084030000080809140910800084030000B9
:102350000808091409108000840300000808091403
:102360000910800084030000080809140910800087
:102370008403000008080914091080008403000089
:1023800008080914091080008403000008080914D3
:102390000910800084030000080809140910800057
:1023A0008403000008080914091080008403000059
:1023B00008080914091080008403000008080914A3
:1023C0000910800084030000080809140910800027
:1023D0008403000008080914091080008403000029
:1023E0000808091409108000840300000808091473
:1023F00009108000840300000808091409108000F7
:1024000084030000080809140910800084030000F8
:102410000808091409108000840300000808091442
:1024200009108000831700000808091409108000B3
:10243000840A00000808091409108000840A0000BA
:102440000808091409108000840A0000080809140B
:1024500009108000840A000008080914091080008F
:10246000840A00000808091409108000840A00008A
:102470000808091409108000840A000008080914DB
:1024800009108000840A000008080914091080005F
:10249000840A00000808091409108000840A00005A
:1024A0000808091409108000840A000008080914AB
:1024B00009108000840A000008080914091080002F
:1024C000840A00000808091409108000840A00002A
:1024D0000808091409108000840A0000080809147B
:1024E00009108000840A00000808091409108000FF
:1024F000840A00000808091409108000840A0000FA
:102500000808091409108000840A0000080809144A
:1025100009108000840A00000808091409108000CE
:10252000840A00000808091409108000840A0000C9
:102530000808091409108000840A0000080809141A
:1025400009108000840A000008080914091080009E
:10255000840A00000808091409108000840A000099
:102560000808091409108000840A000008080914EA
:1025700009108000840A000008080914091080006E
:10258000840A00000808091409108000840A000069
:102590000808091409108000840A000008080914BA
:1025A00009108000840A000008080914091080003E
:1025B000840A00000808091409108000840A000039
:1025C0000808091409108000840A0000080809148A
:1025D00009108000840A000008080914091080000E
:1025E000840A00000808091409108000840A000009
:1025F0000808091409108000840A0000080809145A
:1026000009108000840A00000808091409108000DD
:10261000840A00000808091409108000840A0000D8
:102620000808091409108000840A00000808091429
:1026300009108000840A00000808091409108000AD
:10264000840A00000808091409108000840A0000A8
:102650000808091409108000840A000008080914F9
:1026600009108000840A000008080914091080007D
:10267000840A00000808091409108000840A000078
:102680000808091409108000840A000008080914C9
:1026900009108000840A000008080914091080004D
:1026A000840A00000808091409108000840A000048
:1026B0000808091409108000840A00000808091499
:1026C00009108000840A000008080914091080001D
:1026D000840A00000808091409108000840A000018
:1026E0000808091409108000840A00000808091469
:1026F00009108000840A00000808091409108000ED
:10270000840A00000808091409108000840A0000E7
:102710000808091409108000840A00000808091438
:1027200009108000841300000808091409108000B3
:1027300084030000080809140910800084030000C5
:10274000080809140910800084030000080809140F
:102750000910800084030000080809140910800093
:102760008403000008080914091080008403000095
:1027700008080914091080008403000008080914DF
:102780000910800084030000080809140910800063
:102790008403000008080914091080008403000065
:1027A00008080914091080008403000008080914AF
:1027B0000910800084030000080809140910800033
:1027C0008403000008080914091080008403000035
:1027D000080809140910800084030000080809147F
:1027E0000910800084030000080809140910800003
:1027F0008403000008080914091080008403000005
:10280000080809140910800084030000080809144E
:1028100009108000840300000808091409108000D2
:1028200084030000080809140910800084030000D4
:10283000080809140910800084030000080809141E
:1028400009108000840300000808091409108000A2
:1028500084030000080809140910800084030000A4
:1028600008080914091080008403000008080914EE
:102870000910800084030000080809140910800072
:102880008403000008080914091080008403000074
:1028900008080914091080008403000008080914BE
:1028A0000910800084030000080809140910800042
:1028B0008403000008080914091080008403000044
:1028C000080809140910800084030000080809148E
:1028D0000910800084030000080809140910800012
:1028E0008403000008080914091080008403000014
:1028F000080809140910800084030000080809145E
:1029000009108000840300000808091409108000E1
:1029100084030000080809140910800084030000E3
:10292000080809140910800084030000080809142D
:1029300009108000840300000808091409108000B1
:1029400084030000080809140910800084030000B3
:1029500008080914091080008403000008080914FD
:102960000910800084030000080809140910800081
:102970008403000008080914091080008403000083
:1029800008080914091080008403000008080914CD
:102990000910800084030000080809140910800051
:1029A0008403000008080914091080008403000053
:1029B000080809140910800084030000080809149D
:1029C0000910800084030000080809140910800021
:1029D0008403000008080914091080008403000023
:1029E000080809140910800084030000080809146D
:1029F00009108000840300000808091409108000F1
:102A000084030000080809140910800084030000F2
:102A1000080809140910800084030000080809143C
:102A20008A110A12892915308A007A0882070A1643
:102A30008A11262D0A168A11362E0A168A11392F66
:102A40000A168A153C280A168A15402909102030D2
:102A5000840000000914091008088000840A091481
:102A6000091008088000840A091409100808800069
:102A7000840A0914091008088000840A091409103E
:102A800008088000840A0914091008088000840AD4
:102A90000914091008088000840A0914091008089C
:102AA0008000840A0914091008088000840A0914A7
:102AB000091008088000840A091409100808800019
:102AC000840A0914091008088000840A09140910EE
:102AD00008088000840A0914091008088000840A84
:102AE0000914091008088000840A0914091008084C
:102AF0008000840A0914091008088000840A091457
:102B0000091008088000840A0914091008088000C8
:102B1000840A0914091008088000840A091409109D
:102B200008088000840A0914091008088000840A33
:102B30000914091008088000840A091409100808FB
:102B40008000840A0914091008088000840A091406
:102B5000091008088000840A091409100808800078
:102B6000840A0914091008088000840A091409104D
:102B700008088000840A0914091008088000840AE3
:102B80000914091008088000840A091409100808AB
:102B90008000840A0914091008088000840A0914B6
:102BA000091008088000840A091409100808800028
:102BB000840A0914091008088000840A09140910FD
:102BC00008088000840A0914091008088000840A93
:102BD0000914091008088000840A0914091008085B
:102BE0008000840A0914091008088000840A091466
:102BF000091008088000840A0914091008088000D8
:102C0000840A0914091008088000840A09140910AC
:102C100008088000840A0914091008088000840A42
:102C20000914091008088000840A0914091008080A
:102C30008000840A0914091008088000840A091415
:102C4000091008088000840A091409100808800087
:102C5000840A091408088000840A302E8000840346
:102C60000330FA0786140A128A11B42800000910EA
:102C7000392E00000914091008088000840A09147C
:102C8000091008088000840A091409100808800047
:102C9000840A0914091008088000840A091409101C
:102CA00008088000840A0914091008088000840AB2
:102CB0000914091008088000840A0914091008087A
:102CC0008000840A0914091008088000840A091485
:102CD000091008088000840A0914091008088000F7
:102CE000840A0914091008088000841709140910BF
:102CF0000808800084030914091008088000840370
:102D00000914091008088000840309140910080830
:102D10008000840309140910080880008403091442
:102D200009100808800084030914091008088000AD
:102D30008403091409100808800084030914091089
:102D4000080880008403091409100808800084031F
:102D500009140910080880008403091409100808E0
:102D600080008403091409100808800084030914F2
:102D7000091008088000840309140910080880005D
:102D80008403091409100808800084030914091039
:102D900008088000840309140910080880008403CF
:102DA0000914091008088000840309140910080890
:102DB00080008403091409100808800084030914A2
:102DC000091008088000840309140910080880000D
:102DD00084030914091008088000840309140910E9
:102DE000080880008403091409100808800084037F
:102DF0000914091008088000840309140910080840
:102E00008000840309140910080880008403091451
:102E100009100808800084030914091008088000BC
:102E20008403091409100808800084030914091098
:102E3000080880008403091409100808800084032E
:102E400009140910080880008403091409100808EF
:102E50008000840309140910080880008403091401
:102E60000910080880008403091408080A168A114A
:102E70002E2E3A2F09103C2F0000091409100808C3
:102E800080008403091409100808800084030914D1
:102E9000091008088000840309140910080880003C
:102EA0008403091409100808800084030914091018
:102EB00008088000840309140910080880008403AE
:102EC000091409100808800084030914091008086F
:102ED0008000840309140910080880008403091481
:102EE00009100808800084030914091008088000EC
:102EF00084030914091008088000840309140910C8
:102F0000080880008403091409100808800084035D
:102F1000091409100808800084030914091008081E
:102F20008000840309140910080880008403091430
:102F3000091008088000840309140910080880009B
:102F40008403091409100808800084030914091077
:102F5000080880008403091409100808800084030D
:102F600009140910080880008403091409100808CE
:102F7000800083170914091008088000840A0914C6
:102F8000091008088000840A091409100808800044
:102F9000840A0914091008088000840A0914091019
:102FA00008088000840A0914091008088000840AAF
:102FB0000914091008088000840A09140910080877
:102FC0008000840A0914091008088000840A091482
:102FD000091008088000840A0914091008088000F4
:102FE000840A0914091008088000840A09140910C9
:102FF00008088000840A0914091008088000840A5F
:103000000914091008088000840A09140910080826
:103010008000840A0914091008088000840A091431
:10302000091008088000840A0914091008088000A3
:10303000840A0914091008088000840A0914091078
:1030400008088000840A0914091008088000840A0E
:103050000914091008088000840A091409100808D6
:103060008000840A0914091008088000840A0914E1
:1030700008080A168A112B2E3D2800000910402846
:1030800000000914091008088000840A09140910B6
:1030900008088000840A0914091008088000840ABE
:1030A0000914091008088000840A09140910080886
:1030B0008000840A0914091008088000840A091491
:1030C000091008088000840A091409100808800003
:1030D000840A0914091008088000840A09140910D8
:1030E00008088000840A0914091008088000840A6E
:1030F0000914091008088000840A09140910080836
:103100008000840A0914091008088000840A091440
:10311000091008088000840A0914091008088000B2
:10312000840A0914091008088000840A0914091087
:1031300008088000840A0914091008088000840A1D
:103140000914091008088000840A091409100808E5
:103150008000840A0914091008088000840A0914F0
:10316000091008088000840A091409100808800062
:10317000840A0914091008088000840A0914091037
:1031800008088000840A0914091008088000840ACD
:103190000914091008088000840A09140910080895
:1031A0008000840A0914091008088000840A0914A0
:1031B000091008088000840A091409100808800012
:1031C000840A0914091008088000840A09140910E7
:1031D00008088000840A0914091008088000840A7D
:1031E0000914091008088000840A09140910080845
:1031F0008000840A09140910080880008413091447
:1032000009100808800084030914091008088000C8
:1032100084030914091008088000840309140910A4
:10322000080880008403091409100808800084033A
:1032300009140910080880008403091409100808FB
:10324000800084030914091008088000840309140D
:103250000910080880008403091409100808800078
:103260008403091409100808800084030914091054
:10327000080880008403091408080A168A112E2EF3
:1032800041290A128A15091000000E2819308A00F7
:103290007A0882070A168A1553290A168A155A2BA4
:1032A0000A168A155B2D09102030840000000808DA
:1032B000091409108000840A000008080914091084
:1032C0008000840A00000808091409108000840A9C
:1032D00000000808091409108000840A000008088A
:1032E000091409108000840A000008080914091054
:1032F0008000840A00000808091409108000840A6C
:1033000000000808091409108000840A0000080859
:10331000091409108000840A000008080914091023
:103320008000840A00000808091409108000840A3B
:1033300000000808091409108000840A0000080829
:10334000091409108000840A0000080809140910F3
:103350008000840A00000808091409108000840A0B
:1033600000000808091409108000840A00000808F9
:10337000091409108000840A0000080809140910C3
:103380008000840A00000808091409108000840ADB
:1033900000000808091409108000840A00000808C9
:1033A000091409108000840A000008080914091093
:1033B0008000840A00000808091409108000840AAB
:1033C00000000808091409108000840A0000080899
:1033D000091409108000840A000008080914091063
:1033E0008000840A00000808091409108000840A7B
:1033F00000000808091409108000840A0000080869
:10340000091409108000840A000008080914091032
:103410008000840A00000808091409108000840A4A
:1034200000000808091409108000840A0000080838
:10343000091409108000840A000008080914091002
:103440008000840A00000808091409108000840A1A
:1034500000000808091409108000840A0000080808
:10346000091409108000840A0000080809140910D2
:103470008000840A00000808091409108000840AEA
:1034800000000808091409108000840A00000808D8
:10349000091409108000840A0000080809140910A2
:1034A0008000840A00000808091409108000840ABA
:1034B00000000808091409108000840A00000808A8
:1034C000091409108000840A000008080914091072
:1034D0008000840A00000808091409108000840A8A
:1034E00000000808091409108000840A0000080878
:1034F000091409108000840A000008080914091042
:103500008000840A00000808091409108000840A59
:1035100000000808091409108000840A0000080847
:10352000091409108000840A000008080914091011
:103530008000840A00000808091409108000840A29
:1035400000000808091409108000840A0000080817
:10355000091409108000840A0000080809140910E1
:103560008000840A00000808091409108000840AF9
:1035700000000808091409108000840A00000808E7
:10358000091409108000840A0000080809140910B1
:103590008000840A00000808091409108000840AC9
:1035A00000000808091409108000841700000808AA
:1035B0000914091080008403000008080914091088
:1035C00080008403000008080914091080008403A7
:1035D000000008080914091080008403000008088E
:1035E0000914091080008403000008080914091058
:1035F0008000840300000808091409108000840377
:10360000000008080914091080008403000008085D
:103610000914091080008403000008080914091027
:103620008000840300000808091409108000840346
:10363000000008080914091080008403000008082D
:1036400009140910800084030000080809140910F7
:103650008000840300000808091409108000840316
:1036600000000808091409108000840300000808FD
:1036700009140910800084030000080809140910C7
:1036800080008403000008080914091080008403E6
:1036900000000808091409108000840300000808CD
:1036A00009140910800084030000080809140A1690
:1036B0008A112E2E5B2B09105D2B000008080914BF
:1036C0000910800084030000080809140910800014
:1036D0008403000008080914091080008403000016
:1036E0000808091409108000840300000808091460
:1036F00009108000840300000808091409108000E4
:1037000084030000080809140910800084030000E5
:10371000080809140910800084030000080809142F
:1037200009108000840300000808091409108000B3
:1037300084030000080809140910800084030000B5
:1037400008080914091080008403000008080914FF
:103750000910800084030000080809140910800083
:103760008403000008080914091080008403000085
:1037700008080914091080008403000008080914CF
:103780000910800084030000080809140910800053
:103790008403000008080914091080008403000055
:1037A000080809140910800084030000080809149F
:1037B0000910800084030000080809140910800023
:1037C0008403000008080914091080008403000025
:1037D000080809140910800084030000080809146F
:1037E00009108000840300000808091409108000F3
:1037F00084030000080809140910800084030000F5
:10380000080809140910800084030000080809143E
:1038100009108000840300000808091409108000C2
:1038200084030000080809140910800084030000C4
:10383000080809140910800084030000080809140E
:103840000910800084030000080809140910800092
:103850008403000008080914091080008403000094
:1038600008080914091080008403000008080914DE
:103870000910800084030000080809140910800062
:103880008403000008080914091080008403000064
:1038900008080914091080008403000008080914AE
:1038A0000910800084030000080809140910800032
:1038B000831700000808091409108000840A00001A
:1038C0000808091409108000840A00000808091477
:1038D00009108000840A00000808091409108000FB
:1038E000840A00000808091409108000840A0000F6
:1038F0000808091409108000840A00000808091447
:1039000009108000840A00000808091409108000CA
:10391000840A00000808091409108000840A0000C5
:103920000808091409108000840A00000808091416
:1039300009108000840A000008080914091080009A
:10394000840A00000808091409108000840A000095
:103950000808091409108000840A000008080914E6
:1039600009108000840A000008080914091080006A
:10397000840A00000808091409108000840A000065
:103980000808091409108000840A000008080914B6
:1039900009108000840A000008080914091080003A
:1039A000840A00000808091409108000840A000035
:1039B0000808091409108000840A00000808091486
:1039C00009108000840A000008080914091080000A
:1039D000840A00000808091409108000840A000005
:1039E0000808091409108000840A00000808091456
:1039F00009108000840A00000808091409108000DA
:103A0000840A00000808091409108000840A0000D4
:103A10000808091409108000840A00000808091425
:103A200009108000840A00000808091409108000A9
:103A3000840A00000808091409108000840A0000A4
:103A40000808091409108000840A000008080914F5
:103A500009108000840A0000080809140910800079
:103A6000840A00000808091409108000840A000074
:103A70000808091409108000840A000008080914C5
:103A800009108000840A0000080809140910800049
:103A9000840A00000808091409108000840A000044
:103AA0000808091409108000840A00000808091495
:103AB0000A168A112B2E5C2D0A168A110910000095
:023AC000162BC3
:02400E007A3FF7
:00000001FF
