:020000040000FA
:10000000C6308600880195288312F60B0428F70B6A
:100010000428F80B0428790882070A128A110A2C8E
:100020000A128A15112F0A128A11D12A0A128A116C
:10003000142B0A128A11142B0A128A11C3290A16C8
:100040008A11142D0A168A1547290A128A150E29B3
:100050000A128A11772B0A128A11772B0A128A1137
:100060002E2A0A128A11B2280A128A11B2280A12FA
:100070008A11B2280A128A11B228871D3D28071A50
:100080004828071AFF34871941280230FC006228EB
:10009000071E4F28871948280330FC00622887195B
:1000A0004F28FE34831607168312871D5528071E16
:1000B0005528071A5928871D552887195D280310C8
:1000C000FC017C14871D62280310071A0314FC0D21
:1000D00087196828031C62280712831607128312E7
:1000E000871D70288719722883160716831200341B
:1000F00007120830FB007E2887197C288316071614
:10010000FC1F07128312871D8328FC0DFB0B7C2824
:1001100087198828831607168312871D8D280030BB
:10012000071AFF30871992280800850183160330CB
:100130008500C030810010308B0001308600FF3018
:1001400088000730890007309F00F930870015309C
:100150009900243098000C168C1683129030980069
:1001600083139F01DB20FA0170088611701A86152F
:100170008A010F39F9000310F90D79078610701FF5
:100180000C28F900730AF600720AF700710AF800E9
:100190008316011370088039031D011783128B1019
:1001A0008B175F217C08F33A031DD128DC30FC005B
:1001B00078218B13B2285F217C08F83A031D23298C
:1001C000DC30FC007821203084004030F70000084B
:1001D000FC00840A7821FF39031D1729F70BE72853
:1001E0004030F700841784030008FC008403782162
:1001F000FF39031D1729F70BF4284030F700831748
:10020000840A0008FC00840A7821FF39031D17299D
:10021000F70B01294030F700841384030008FC0029
:1002200084037821FF39031D1729F70B0E29841346
:1002300083137D08FC007821FC01782178217E0859
:10024000FC007821DB287C08F93A031D4329DD30C6
:10025000FC0078210130FC0078210030FC0078217E
:100260007008FC0078217108FC0078217208FC00FD
:1002700078217308FC0078217408FC007821750847
:10028000FC007821DB287C08FA3A031DDB28DE30ED
:10029000FC00782165217C08DF392038F0006521D9
:1002A0007C08F10065217C08F20065217C08F300E0
:1002B00065217C08F40065217C08F5000800871E94
:1002C00052281A088C1A61296729871E5F288C1EFC
:1002D0006729181D6D291A086729981C7529181295
:1002E00018161A088C1A712967291A08FC0000349C
:1002F000871E78280C1E7A297C089900003401306A
:10030000F602031CF702F608031D8029F708031DF7
:1003100080290800800086148313FD01831687104E
:10032000071505128516831287100512FD17051C87
:10033000FD13851CFD13851C7D170718FD158714FB
:1003400005168316871407110516851283120711E7
:100350008512FD16051CFD12851CFD12851C7D16DF
:1003600007187D1507158516861106168612861044
:100370000611BA290000080806158614861106120F
:100380008612FE00B22806113F30F80020308400AB
:100390007508F6007408F70000007F2108080615AC
:1003A00006118000840A7508F6007408F7007F21A2
:1003B000F80BCE29000008080615061180008417E6
:1003C0003F30F8007508F6007408F7007F21000040
:1003D000080806150611800084037508F6007408E5
:1003E000F7007F21F80BE829000008080615061120
:1003F000800083173F30F8007508F6007408F70096
:100400007F2100000808061506118000840A75087F
:10041000F6007408F7007F21F80B022A0000080894
:1004200006150611800084133F30F8007508F600A9
:100430007408F7007F2100000808061506118000E7
:1004400084037508F6007408F7007F21F80B1C2A56
:100450000000080806158A110A128A290611861555
:100460002030840008080615061186118000840AD1
:100470001F30F8007508F6007408F7007F210000AF
:1004800008080615061186158000840A0808061556
:10049000061186118000840A7508F6007408F700BA
:1004A0007F21F80B402A0000080806150611861562
:1004B0008000841708080615061186118000840341
:1004C0001F30F8007508F6007408F7007F2100005F
:1004D000080806150611861580008403080806150D
:1004E00006118611800084037508F6007408F70071
:1004F0007F21F80B682A00000808061506118615EA
:100500008000831708080615061186118000840AEA
:100510001F30F8007508F6007408F7007F2100000E
:1005200008080615061186158000840A08080615B5
:10053000061186118000840A7508F6007408F70019
:100540007F21F80B902A0000080806150611861571
:1005500080008413080806150611861180008403A4
:100560001F30F8007508F6007408F7007F210000BE
:10057000080806150611861580008403080806156C
:1005800006118611800084037508F6007408F700D0
:100590007F21F80BB82A0000080806158A110A12F4
:1005A0008A2906113F30F600203084000000080838
:1005B000061506118000840AF60BD72A00000808E9
:1005C00006150611800084173F30F6000000080869
:1005D0000615061180008403F60BE72A00000808C0
:1005E00006150611800083173F30F600000008084A
:1005F000061506118000840AF60BF72A0000080889
:1006000006150611800084133F30F600000008082C
:100610000615061180008403F60B072B000008085E
:1006200006158A110A128A2906113F30F600203079
:1006300084001A2B701D1D2B732308080615061144
:100640008000840A701D252B73230000F60B1D2BE0
:100650000000080806150611800084173F30F600D8
:10066000312B701D342B73230808061506118000EA
:100670008403701D3C2B73230000F60B342B000009
:10068000080806150611800083173F30F600482B36
:10069000701D4B2B73230808061506118000840A71
:1006A000701D532B73230000F60B4B2B0000080822
:1006B00006150611800084133F30F6005F2B701D75
:1006C000622B732308080615061180008403701D31
:1006D0006A2B73230000F60B622B00000808061536
:1006E0008A110A128A29742B0000762B0800061141
:1006F0008615203084000808061506118611800032
:10070000840A1F30F800701C74237623080806152D
:10071000061186158000840A080806150611861140
:100720008000840A701C7423952B0000F80B862B24
:1007300000000808061506118615800084170808B1
:10074000061506118611800084031F30F800701C06
:100750007423762308080615061186158000840385
:10076000080806150611861180008403701C742386
:10077000B92B0000F80BAA2B00000808061506117B
:10078000861580008317080806150611861180005B
:10079000840A1F30F800701C74237623080806159D
:1007A000061186158000840A0808061506118611B0
:1007B0008000840A701C7423DD2B0000F80BCE2B04
:1007C0000000080806150611861580008413080825
:1007D000061506118611800084031F30F800701C76
:1007E00074237623080806150611861580008403F5
:1007F000080806150611861180008403701C7423F6
:10080000012C0000F80BF22B0000080806158A11D5
:100810000A128A29061120308400000006150611EC
:1008200008088000840A0615061108088000840A5A
:100830000615061108088000840A06150611080826
:100840008000840A0615061108088000840A06152F
:10085000061108088000840A0615061108088000A1
:10086000840A0615061108088000840A0615061178
:1008700008088000840A0615061108088000840A0A
:100880000615061108088000840A061506110808D6
:100890008000840A0615061108088000840A0615DF
:1008A000061108088000840A061506110808800051
:1008B000840A0615061108088000840A0615061128
:1008C00008088000840A0615061108088000840ABA
:1008D0000615061108088000840A06150611080886
:1008E0008000840A0615061108088000840A06158F
:1008F000061108088000840A061506110808800001
:10090000840A0615061108088000840A06150611D7
:1009100008088000840A0615061108088000840A69
:100920000615061108088000840A06150611080835
:100930008000840A0615061108088000840A06153E
:10094000061108088000840A0615061108088000B0
:10095000840A0615061108088000840A0615061187
:1009600008088000840A0615061108088000840A19
:100970000615061108088000840A061506110808E5
:100980008000840A0615061108088000840A0615EE
:10099000061108088000840A061506110808800060
:1009A000840A0615061108088000840A0615061137
:1009B00008088000840A0615061108088000840AC9
:1009C0000615061108088000840A06150611080895
:1009D0008000840A0615061108088000840A06159E
:1009E000061108088000840A061506110808800010
:1009F000840A0615061108088000840A06150611E7
:100A000008088000840A0615061108088000840A78
:100A10000615061108088000840A06150611080844
:100A20008000840A0615061108088000840A06154D
:100A3000061108088000840A0615061108088000BF
:100A4000840A0615061108088000840A0615061196
:100A500008088000840A0615061108088000840A28
:100A60000615061108088000840A061506110808F4
:100A70008000840A0615061108088000840A0615FD
:100A8000061108088000840A06150611080880006F
:100A9000840A061506110808800084170615061139
:100AA00008088000840306150611080880008403E6
:100AB00006150611080880008403061506110808AB
:100AC00080008403061506110808800084030615BB
:100AD0000611080880008403061506110808800026
:100AE0008403061506110808800084030615061104
:100AF0000808800084030615061108088000840396
:100B0000061506110808800084030615061108085A
:100B1000800084030615061108088000840306156A
:100B200006110808800084030615061108088000D5
:100B300084030615061108088000840306150611B3
:100B40000808800084030615061108088000840345
:100B5000061506110808800084030615061108080A
:100B6000800084030615061108088000840306151A
:100B70000611080880008403061506110808800085
:100B80008403061506110808800084030615061163
:100B900008088000840306150611080880008403F5
:100BA00006150611080880008403061506110808BA
:100BB00080008403061506110808800084030615CA
:100BC0000611080880008403061506110808800035
:100BD0008403061506110808800084030615061113
:100BE00008088000840306150611080880008403A5
:100BF000061506110808800084030615061108086A
:100C00008000840306150611080880008403061579
:100C100006110808800084030615061108088000E4
:100C200084030615061108088000840306150611C2
:100C30000808800084030615061108088000840354
:100C40000615061108088000840306150611080819
:100C50008000840306150611080880008403061529
:100C60000611080880008403061506110808800094
:100C70008403061506110808800084030615061172
:100C80000808800084030615061108088000840304
:100C900006150611080880008403061506110808C9
:100CA00080008403061506110808800084030615D9
:100CB0000611080880008403061506110808800044
:100CC0008403061506110808800084030615061122
:100CD00008088000840306150611080880008403B4
:100CE0000615061108088000840306150611080879
:100CF0008000840306150611080880008403061589
:100D000006110808800084030615061108088000F3
:100D100084030615061108088000831706150611BE
:100D200008088000840A0615061108088000840A55
:100D30000615061108088000840A06150611080821
:100D40008000840A0615061108088000840A06152A
:100D5000061108088000840A06150611080880009C
:100D6000840A0615061108088000840A0615061173
:100D700008088000840A0615061108088000840A05
:100D80000615061108088000840A061506110808D1
:100D90008000840A0615061108088000840A0615DA
:100DA000061108088000840A06150611080880004C
:100DB000840A0615061108088000840A0615061123
:100DC00008088000840A0615061108088000840AB5
:100DD0000615061108088000840A06150611080881
:100DE0008000840A0615061108088000840A06158A
:100DF000061108088000840A0615061108088000FC
:100E0000840A0615061108088000840A06150611D2
:100E100008088000840A0615061108088000840A64
:100E20000615061108088000840A06150611080830
:100E30008000840A0615061108088000840A061539
:100E4000061108088000840A0615061108088000AB
:100E5000840A0615061108088000840A0615061182
:100E600008088000840A0615061108088000840A14
:100E70000615061108088000840A061506110808E0
:100E80008000840A0615061108088000840A0615E9
:100E9000061108088000840A06150611080880005B
:100EA000840A0615061108088000840A0615061132
:100EB00008088000840A0615061108088000840AC4
:100EC0000615061108088000840A06150611080890
:100ED0008000840A0615061108088000840A061599
:100EE000061108088000840A06150611080880000B
:100EF000840A0615061108088000840A06150611E2
:100F000008088000840A0615061108088000840A73
:100F10000615061108088000840A0615061108083F
:100F20008000840A0615061108088000840A061548
:100F3000061108088000840A0615061108088000BA
:100F4000840A0615061108088000840A0615061191
:100F500008088000840A0615061108088000840A23
:100F60000615061108088000840A061506110808EF
:100F70008000840A0615061108088000840A0615F8
:100F8000061108088000840A06150611080880006A
:100F9000840A061506110808800084130615061138
:100FA00008088000840306150611080880008403E1
:100FB00006150611080880008403061506110808A6
:100FC00080008403061506110808800084030615B6
:100FD0000611080880008403061506110808800021
:100FE00084030615061108088000840306150611FF
:100FF0000808800084030615061108088000840391
:101000000615061108088000840306150611080855
:101010008000840306150611080880008403061565
:1010200006110808800084030615061108088000D0
:1010300084030615061108088000840306150611AE
:101040000808800084030615061108088000840340
:101050000615061108088000840306150611080805
:101060008000840306150611080880008403061515
:101070000611080880008403061506110808800080
:10108000840306150611080880008403061506115E
:1010900008088000840306150611080880008403F0
:1010A00006150611080880008403061506110808B5
:1010B00080008403061506110808800084030615C5
:1010C0000611080880008403061506110808800030
:1010D000840306150611080880008403061506110E
:1010E00008088000840306150611080880008403A0
:1010F0000615061108088000840306150611080865
:101100008000840306150611080880008403061574
:1011100006110808800084030615061108088000DF
:1011200084030615061108088000840306150611BD
:10113000080880008403061506110808800084034F
:101140000615061108088000840306150611080814
:101150008000840306150611080880008403061524
:10116000061108088000840306150611080880008F
:10117000840306150611080880008403061506116D
:1011800008088000840306150611080880008403FF
:1011900006150611080880008403061506110808C4
:1011A00080008403061506110808800084030615D4
:1011B000061108088000840306150611080880003F
:1011C000840306150611080880008403061506111D
:1011D00008088000840306150611080880008403AF
:1011E0000615061108088000840306150611080874
:1011F0008000840306150611080880008403061584
:1012000006110808800084030615061108088000EE
:101210008403061508088A110A128A290611861500
:101220002030840008080615061186118000840A03
:1012300008080615061186158000840A0808061598
:10124000061186118000840A080806150611861505
:101250008000840A08080615061186118000840A99
:1012600008080615061186158000840A0808061568
:10127000061186118000840A0808061506118615D5
:101280008000840A08080615061186118000840A69
:1012900008080615061186158000840A0808061538
:1012A000061186118000840A0808061506118615A5
:1012B0008000840A08080615061186118000840A39
:1012C00008080615061186158000840A0808061508
:1012D000061186118000840A080806150611861575
:1012E0008000840A08080615061186118000840A09
:1012F00008080615061186158000840A08080615D8
:10130000061186118000840A080806150611861544
:101310008000840A08080615061186118000840AD8
:1013200008080615061186158000840A08080615A7
:10133000061186118000840A080806150611861514
:101340008000840A08080615061186118000840AA8
:1013500008080615061186158000840A0808061577
:10136000061186118000840A0808061506118615E4
:101370008000840A08080615061186118000840A78
:1013800008080615061186158000840A0808061547
:10139000061186118000840A0808061506118615B4
:1013A0008000840A08080615061186118000840A48
:1013B00008080615061186158000840A0808061517
:1013C000061186118000840A080806150611861584
:1013D0008000840A08080615061186118000840A18
:1013E00008080615061186158000840A08080615E7
:1013F000061186118000840A080806150611861554
:101400008000840A08080615061186118000840AE7
:1014100008080615061186158000840A08080615B6
:10142000061186118000840A080806150611861523
:101430008000840A08080615061186118000840AB7
:1014400008080615061186158000840A0808061586
:10145000061186118000840A0808061506118615F3
:101460008000840A08080615061186118000840A87
:1014700008080615061186158000840A0808061556
:10148000061186118000840A0808061506118615C3
:101490008000840A08080615061186118000840A57
:1014A00008080615061186158000840A0808061526
:1014B000061186118000840A080806150611861593
:1014C0008000840A08080615061186118000840A27
:1014D00008080615061186158000840A08080615F6
:1014E000061186118000840A080806150611861563
:1014F0008000840A08080615061186118000840AF7
:1015000008080615061186158000840A08080615C5
:10151000061186118000840A080806150611861532
:1015200080008417080806150611861180008403C0
:10153000080806150611861580008403080806159C
:101540000611861180008403080806150611861509
:1015500080008403080806150611861180008403A4
:10156000080806150611861580008403080806156C
:1015700006118611800084030808061506118615D9
:101580008000840308080615061186118000840374
:10159000080806150611861580008403080806153C
:1015A00006118611800084030808061506118615A9
:1015B0008000840308080615061186118000840344
:1015C000080806150611861580008403080806150C
:1015D0000611861180008403080806150611861579
:1015E0008000840308080615061186118000840314
:1015F00008080615061186158000840308080615DC
:101600000611861180008403080806150611861548
:1016100080008403080806150611861180008403E3
:1016200008080615061186158000840308080615AB
:101630000611861180008403080806150611861518
:1016400080008403080806150611861180008403B3
:10165000080806150611861580008403080806157B
:1016600006118611800084030808061506118615E8
:101670008000840308080615061186118000840383
:10168000080806150611861580008403080806154B
:1016900006118611800084030808061506118615B8
:1016A0008000840308080615061186118000840353
:1016B000080806150611861580008403080806151B
:1016C0000611861180008403080806150611861588
:1016D0008000840308080615061186118000840323
:1016E00008080615061186158000840308080615EB
:1016F0000611861180008403080806150611861558
:1017000080008403080806150611861180008403F2
:1017100008080615061186158000840308080615BA
:101720000611861180008403080806150611861527
:1017300080008403080806150611861180008403C2
:10174000080806150611861580008403080806158A
:1017500006118611800084030808061506118615F7
:101760008000840308080615061186118000840392
:10177000080806150611861580008403080806155A
:1017800006118611800084030808061506118615C7
:101790008000840308080615061186118000840362
:1017A000080806150611861580008403080806152A
:1017B0000611861180008403080806150611861597
:1017C0008000840308080615061186118000840332
:1017D00008080615061186158000840308080615FA
:1017E0000611861180008403080806150611861567
:1017F0008000840308080615061186118000840302
:1018000008080615061186158000840308080615C9
:101810000611861180008403080806150611861536
:101820008000831708080615061186118000840AB7
:1018300008080615061186158000840A0808061592
:10184000061186118000840A0808061506118615FF
:101850008000840A08080615061186118000840A93
:1018600008080615061186158000840A0808061562
:10187000061186118000840A0808061506118615CF
:101880008000840A08080615061186118000840A63
:1018900008080615061186158000840A0808061532
:1018A000061186118000840A08080615061186159F
:1018B0008000840A08080615061186118000840A33
:1018C00008080615061186158000840A0808061502
:1018D000061186118000840A08080615061186156F
:1018E0008000840A08080615061186118000840A03
:1018F00008080615061186158000840A08080615D2
:10190000061186118000840A08080615061186153E
:101910008000840A08080615061186118000840AD2
:1019200008080615061186158000840A08080615A1
:10193000061186118000840A08080615061186150E
:101940008000840A08080615061186118000840AA2
:1019500008080615061186158000840A0808061571
:10196000061186118000840A0808061506118615DE
:101970008000840A08080615061186118000840A72
:1019800008080615061186158000840A0808061541
:10199000061186118000840A0808061506118615AE
:1019A0008000840A08080615061186118000840A42
:1019B00008080615061186158000840A0808061511
:1019C000061186118000840A08080615061186157E
:1019D0008000840A08080615061186118000840A12
:1019E00008080615061186158000840A08080615E1
:1019F000061186118000840A08080615061186154E
:101A00008000840A08080615061186118000840AE1
:101A100008080615061186158000840A08080615B0
:101A2000061186118000840A08080615061186151D
:101A30008000840A08080615061186118000840AB1
:101A400008080615061186158000840A0808061580
:101A5000061186118000840A0808061506118615ED
:101A60008000840A08080615061186118000840A81
:101A700008080615061186158000840A0808061550
:101A8000061186118000840A0808061506118615BD
:101A90008000840A08080615061186118000840A51
:101AA00008080615061186158000840A0808061520
:101AB000061186118000840A08080615061186158D
:101AC0008000840A08080615061186118000840A21
:101AD00008080615061186158000840A08080615F0
:101AE000061186118000840A08080615061186155D
:101AF0008000840A08080615061186118000840AF1
:101B000008080615061186158000840A08080615BF
:101B1000061186118000840A08080615061186152C
:101B200080008413080806150611861180008403BE
:101B30000808061506118615800084030808061596
:101B40000611861180008403080806150611861503
:101B5000800084030808061506118611800084039E
:101B60000808061506118615800084030808061566
:101B700006118611800084030808061506118615D3
:101B8000800084030808061506118611800084036E
:101B90000808061506118615800084030808061536
:101BA00006118611800084030808061506118615A3
:101BB000800084030808061506118611800084033E
:101BC0000808061506118615800084030808061506
:101BD0000611861180008403080806150611861573
:101BE000800084030808061506118611800084030E
:101BF00008080615061186158000840308080615D6
:101C00000611861180008403080806150611861542
:101C100080008403080806150611861180008403DD
:101C200008080615061186158000840308080615A5
:101C30000611861180008403080806150611861512
:101C400080008403080806150611861180008403AD
:101C50000808061506118615800084030808061575
:101C600006118611800084030808061506118615E2
:101C7000800084030808061506118611800084037D
:101C80000808061506118615800084030808061545
:101C900006118611800084030808061506118615B2
:101CA000800084030808061506118611800084034D
:101CB0000808061506118615800084030808061515
:101CC0000611861180008403080806150611861582
:101CD000800084030808061506118611800084031D
:101CE00008080615061186158000840308080615E5
:101CF0000611861180008403080806150611861552
:101D000080008403080806150611861180008403EC
:101D100008080615061186158000840308080615B4
:101D20000611861180008403080806150611861521
:101D300080008403080806150611861180008403BC
:101D40000808061506118615800084030808061584
:101D500006118611800084030808061506118615F1
:101D6000800084030808061506118611800084038C
:101D70000808061506118615800084030808061554
:101D800006118611800084030808061506118615C1
:101D9000800084030808061506118611800084035C
:101DA0000808061506118615800084030808061524
:101DB0000611861180008403080806150611861591
:101DC000800084030808061506118611800084032C
:101DD00008080615061186158000840308080615F4
:101DE0000611861180008403080806150611861561
:101DF00080008403080806150611861180008403FC
:101E000008080615061186158000840308080615C3
:101E10000611861180008403080806158A110A122B
:101E20008A290611203084000000080806150611D2
:101E30008000840A00000808061506118000840A44
:101E400000000808061506118000840A0000080832
:101E5000061506118000840A000008080615061100
:101E60008000840A00000808061506118000840A14
:101E700000000808061506118000840A0000080802
:101E8000061506118000840A0000080806150611D0
:101E90008000840A00000808061506118000840AE4
:101EA00000000808061506118000840A00000808D2
:101EB000061506118000840A0000080806150611A0
:101EC0008000840A00000808061506118000840AB4
:101ED00000000808061506118000840A00000808A2
:101EE000061506118000840A000008080615061170
:101EF0008000840A00000808061506118000840A84
:101F000000000808061506118000840A0000080871
:101F1000061506118000840A00000808061506113F
:101F20008000840A00000808061506118000840A53
:101F300000000808061506118000840A0000080841
:101F4000061506118000840A00000808061506110F
:101F50008000840A00000808061506118000840A23
:101F600000000808061506118000840A0000080811
:101F7000061506118000840A0000080806150611DF
:101F80008000840A00000808061506118000840AF3
:101F900000000808061506118000840A00000808E1
:101FA000061506118000840A0000080806150611AF
:101FB0008000840A00000808061506118000840AC3
:101FC00000000808061506118000840A00000808B1
:101FD000061506118000840A00000808061506117F
:101FE0008000840A00000808061506118000840A93
:101FF00000000808061506118000840A0000080881
:10200000061506118000840A00000808061506114E
:102010008000840A00000808061506118000840A62
:1020200000000808061506118000840A0000080850
:10203000061506118000840A00000808061506111E
:102040008000840A00000808061506118000840A32
:1020500000000808061506118000840A0000080820
:10206000061506118000840A0000080806150611EE
:102070008000840A00000808061506118000840A02
:1020800000000808061506118000840A00000808F0
:10209000061506118000840A0000080806150611BE
:1020A0008000840A00000808061506118000840AD2
:1020B00000000808061506118000840A00000808C0
:1020C000061506118000840A00000808061506118E
:1020D0008000840A00000808061506118000840AA2
:1020E00000000808061506118000840A0000080890
:1020F000061506118000840A00000808061506115E
:102100008000840A00000808061506118000840A71
:1021100000000808061506118000840A000008085F
:102120000615061180008417000008080615061120
:10213000800084030000080806150611800084034F
:102140000000080806150611800084030000080836
:102150000615061180008403000008080615061104
:10216000800084030000080806150611800084031F
:102170000000080806150611800084030000080806
:1021800006150611800084030000080806150611D4
:1021900080008403000008080615061180008403EF
:1021A00000000808061506118000840300000808D6
:1021B00006150611800084030000080806150611A4
:1021C00080008403000008080615061180008403BF
:1021D00000000808061506118000840300000808A6
:1021E0000615061180008403000008080615061174
:1021F000800084030000080806150611800084038F
:102200000000080806150611800084030000080875
:102210000615061180008403000008080615061143
:10222000800084030000080806150611800084035E
:102230000000080806150611800084030000080845
:102240000615061180008403000008080615061113
:10225000800084030000080806150611800084032E
:102260000000080806150611800084030000080815
:1022700006150611800084030000080806150611E3
:1022800080008403000008080615061180008403FE
:1022900000000808061506118000840300000808E5
:1022A00006150611800084030000080806150611B3
:1022B00080008403000008080615061180008403CE
:1022C00000000808061506118000840300000808B5
:1022D0000615061180008403000008080615061183
:1022E000800084030000080806150611800084039E
:1022F0000000080806150611800084030000080885
:102300000615061180008403000008080615061152
:10231000800084030000080806150611800084036D
:102320000000080806150611800084030000080854
:102330000615061180008403000008080615061122
:10234000800084030000080806150611800084033D
:102350000000080806150611800084030000080824
:1023600006150611800084030000080806150611F2
:10237000800084030000080806150611800084030D
:1023800000000808061506118000840300000808F4
:1023900006150611800084030000080806150611C2
:1023A00080008403000008080615061180008403DD
:1023B00000000808061506118000840300000808C4
:1023C0000615061180008403000008080615061192
:1023D00080008403000008080615061180008403AD
:1023E0000000080806150611800084030000080894
:1023F0000615061180008403000008080615061162
:10240000800084030000080806150611800084037C
:102410000000080806150611800084030000080863
:10242000061506118000831700000808061506111E
:102430008000840A00000808061506118000840A3E
:1024400000000808061506118000840A000008082C
:10245000061506118000840A0000080806150611FA
:102460008000840A00000808061506118000840A0E
:1024700000000808061506118000840A00000808FC
:10248000061506118000840A0000080806150611CA
:102490008000840A00000808061506118000840ADE
:1024A00000000808061506118000840A00000808CC
:1024B000061506118000840A00000808061506119A
:1024C0008000840A00000808061506118000840AAE
:1024D00000000808061506118000840A000008089C
:1024E000061506118000840A00000808061506116A
:1024F0008000840A00000808061506118000840A7E
:1025000000000808061506118000840A000008086B
:10251000061506118000840A000008080615061139
:102520008000840A00000808061506118000840A4D
:1025300000000808061506118000840A000008083B
:10254000061506118000840A000008080615061109
:102550008000840A00000808061506118000840A1D
:1025600000000808061506118000840A000008080B
:10257000061506118000840A0000080806150611D9
:102580008000840A00000808061506118000840AED
:1025900000000808061506118000840A00000808DB
:1025A000061506118000840A0000080806150611A9
:1025B0008000840A00000808061506118000840ABD
:1025C00000000808061506118000840A00000808AB
:1025D000061506118000840A000008080615061179
:1025E0008000840A00000808061506118000840A8D
:1025F00000000808061506118000840A000008087B
:10260000061506118000840A000008080615061148
:102610008000840A00000808061506118000840A5C
:1026200000000808061506118000840A000008084A
:10263000061506118000840A000008080615061118
:102640008000840A00000808061506118000840A2C
:1026500000000808061506118000840A000008081A
:10266000061506118000840A0000080806150611E8
:102670008000840A00000808061506118000840AFC
:1026800000000808061506118000840A00000808EA
:10269000061506118000840A0000080806150611B8
:1026A0008000840A00000808061506118000840ACC
:1026B00000000808061506118000840A00000808BA
:1026C000061506118000840A000008080615061188
:1026D0008000840A00000808061506118000840A9C
:1026E00000000808061506118000840A000008088A
:1026F000061506118000840A000008080615061158
:102700008000840A00000808061506118000840A6B
:1027100000000808061506118000840A0000080859
:10272000061506118000841300000808061506111E
:102730008000840300000808061506118000840349
:102740000000080806150611800084030000080830
:1027500006150611800084030000080806150611FE
:102760008000840300000808061506118000840319
:102770000000080806150611800084030000080800
:1027800006150611800084030000080806150611CE
:1027900080008403000008080615061180008403E9
:1027A00000000808061506118000840300000808D0
:1027B000061506118000840300000808061506119E
:1027C00080008403000008080615061180008403B9
:1027D00000000808061506118000840300000808A0
:1027E000061506118000840300000808061506116E
:1027F0008000840300000808061506118000840389
:10280000000008080615061180008403000008086F
:10281000061506118000840300000808061506113D
:102820008000840300000808061506118000840358
:10283000000008080615061180008403000008083F
:10284000061506118000840300000808061506110D
:102850008000840300000808061506118000840328
:10286000000008080615061180008403000008080F
:1028700006150611800084030000080806150611DD
:1028800080008403000008080615061180008403F8
:1028900000000808061506118000840300000808DF
:1028A00006150611800084030000080806150611AD
:1028B00080008403000008080615061180008403C8
:1028C00000000808061506118000840300000808AF
:1028D000061506118000840300000808061506117D
:1028E0008000840300000808061506118000840398
:1028F000000008080615061180008403000008087F
:10290000061506118000840300000808061506114C
:102910008000840300000808061506118000840367
:10292000000008080615061180008403000008084E
:10293000061506118000840300000808061506111C
:102940008000840300000808061506118000840337
:10295000000008080615061180008403000008081E
:1029600006150611800084030000080806150611EC
:102970008000840300000808061506118000840307
:1029800000000808061506118000840300000808EE
:1029900006150611800084030000080806150611BC
:1029A00080008403000008080615061180008403D7
:1029B00000000808061506118000840300000808BE
:1029C000061506118000840300000808061506118C
:1029D00080008403000008080615061180008403A7
:1029E000000008080615061180008403000008088E
:1029F000061506118000840300000808061506115C
:102A00008000840300000808061506118000840376
:102A1000000008080615061180008403000008085D
:102A200006158A110A128A2915308A007A08820747
:102A30000A168A11272D0A168A11372E0A168A11AC
:102A40003A2F0A168A153D280A168A1541290611B9
:102A50002030840000000615061108088000840A52
:102A60000615061108088000840A061506110808D4
:102A70008000840A0615061108088000840A0615DD
:102A8000061108088000840A06150611080880004F
:102A9000840A0615061108088000840A0615061126
:102AA00008088000840A0615061108088000840AB8
:102AB0000615061108088000840A06150611080884
:102AC0008000840A0615061108088000840A06158D
:102AD000061108088000840A0615061108088000FF
:102AE000840A0615061108088000840A06150611D6
:102AF00008088000840A0615061108088000840A68
:102B00000615061108088000840A06150611080833
:102B10008000840A0615061108088000840A06153C
:102B2000061108088000840A0615061108088000AE
:102B3000840A0615061108088000840A0615061185
:102B400008088000840A0615061108088000840A17
:102B50000615061108088000840A061506110808E3
:102B60008000840A0615061108088000840A0615EC
:102B7000061108088000840A06150611080880005E
:102B8000840A0615061108088000840A0615061135
:102B900008088000840A0615061108088000840AC7
:102BA0000615061108088000840A06150611080893
:102BB0008000840A0615061108088000840A06159C
:102BC000061108088000840A06150611080880000E
:102BD000840A0615061108088000840A06150611E5
:102BE00008088000840A0615061108088000840A77
:102BF0000615061108088000840A06150611080843
:102C00008000840A0615061108088000840A06154B
:102C1000061108088000840A0615061108088000BD
:102C2000840A0615061108088000840A0615061194
:102C300008088000840A0615061108088000840A26
:102C40000615061108088000840A061506110808F2
:102C50008000840A061508088000840A312E80004E
:102C600084030330FA0786140A128A11B42800007C
:102C700006113A2E00000615061108088000840A85
:102C80000615061108088000840A061506110808B2
:102C90008000840A0615061108088000840A0615BB
:102CA000061108088000840A06150611080880002D
:102CB000840A0615061108088000840A0615061104
:102CC00008088000840A0615061108088000840A96
:102CD0000615061108088000840A06150611080862
:102CE0008000840A0615061108088000841706155E
:102CF00006110808800084030615061108088000E4
:102D000084030615061108088000840306150611C1
:102D10000808800084030615061108088000840353
:102D20000615061108088000840306150611080818
:102D30008000840306150611080880008403061528
:102D40000611080880008403061506110808800093
:102D50008403061506110808800084030615061171
:102D60000808800084030615061108088000840303
:102D700006150611080880008403061506110808C8
:102D800080008403061506110808800084030615D8
:102D90000611080880008403061506110808800043
:102DA0008403061506110808800084030615061121
:102DB00008088000840306150611080880008403B3
:102DC0000615061108088000840306150611080878
:102DD0008000840306150611080880008403061588
:102DE00006110808800084030615061108088000F3
:102DF00084030615061108088000840306150611D1
:102E00000808800084030615061108088000840362
:102E10000615061108088000840306150611080827
:102E20008000840306150611080880008403061537
:102E300006110808800084030615061108088000A2
:102E40008403061506110808800084030615061180
:102E50000808800084030615061108088000840312
:102E600006150611080880008403061508080A16CE
:102E70008A112F2E3B2F06113D2F0000061506113B
:102E800008088000840306150611080880008403E2
:102E900006150611080880008403061506110808A7
:102EA00080008403061506110808800084030615B7
:102EB0000611080880008403061506110808800022
:102EC0008403061506110808800084030615061100
:102ED0000808800084030615061108088000840392
:102EE0000615061108088000840306150611080857
:102EF0008000840306150611080880008403061567
:102F000006110808800084030615061108088000D1
:102F100084030615061108088000840306150611AF
:102F20000808800084030615061108088000840341
:102F30000615061108088000840306150611080806
:102F40008000840306150611080880008403061516
:102F50000611080880008403061506110808800081
:102F6000840306150611080880008403061506115F
:102F70000808800083170615061108088000840AD7
:102F80000615061108088000840A061506110808AF
:102F90008000840A0615061108088000840A0615B8
:102FA000061108088000840A06150611080880002A
:102FB000840A0615061108088000840A0615061101
:102FC00008088000840A0615061108088000840A93
:102FD0000615061108088000840A0615061108085F
:102FE0008000840A0615061108088000840A061568
:102FF000061108088000840A0615061108088000DA
:10300000840A0615061108088000840A06150611B0
:1030100008088000840A0615061108088000840A42
:103020000615061108088000840A0615061108080E
:103030008000840A0615061108088000840A061517
:10304000061108088000840A061506110808800089
:10305000840A0615061108088000840A0615061160
:1030600008088000840A0615061108088000840AF2
:10307000061508080A168A112C2E3E280000061193
:10308000412800000615061108088000840A06156C
:10309000061108088000840A061506110808800039
:1030A000840A0615061108088000840A0615061110
:1030B00008088000840A0615061108088000840AA2
:1030C0000615061108088000840A0615061108086E
:1030D0008000840A0615061108088000840A061577
:1030E000061108088000840A0615061108088000E9
:1030F000840A0615061108088000840A06150611C0
:1031000008088000840A0615061108088000840A51
:103110000615061108088000840A0615061108081D
:103120008000840A0615061108088000840A061526
:10313000061108088000840A061506110808800098
:10314000840A0615061108088000840A061506116F
:1031500008088000840A0615061108088000840A01
:103160000615061108088000840A061506110808CD
:103170008000840A0615061108088000840A0615D6
:10318000061108088000840A061506110808800048
:10319000840A0615061108088000840A061506111F
:1031A00008088000840A0615061108088000840AB1
:1031B0000615061108088000840A0615061108087D
:1031C0008000840A0615061108088000840A061586
:1031D000061108088000840A0615061108088000F8
:1031E000840A0615061108088000840A06150611CF
:1031F00008088000840A0615061108088000841358
:103200000615061108088000840306150611080833
:103210008000840306150611080880008403061543
:1032200006110808800084030615061108088000AE
:10323000840306150611080880008403061506118C
:10324000080880008403061506110808800084031E
:1032500006150611080880008403061506110808E3
:1032600080008403061506110808800084030615F3
:103270000611080880008403061508080A168A113A
:103280002F2E42290A128A15061100000F28193024
:103290008A007A0882070A168A1554290A168A159E
:1032A0005B2B0A168A155C2D061120308400000065
:1032B0000808061506118000840A00000808061593
:1032C00006118000840A0000080806150611800017
:1032D000840A00000808061506118000840A000010
:1032E0000808061506118000840A00000808061563
:1032F00006118000840A00000808061506118000E7
:10330000840A00000808061506118000840A0000DF
:103310000808061506118000840A00000808061532
:1033200006118000840A00000808061506118000B6
:10333000840A00000808061506118000840A0000AF
:103340000808061506118000840A00000808061502
:1033500006118000840A0000080806150611800086
:10336000840A00000808061506118000840A00007F
:103370000808061506118000840A000008080615D2
:1033800006118000840A0000080806150611800056
:10339000840A00000808061506118000840A00004F
:1033A0000808061506118000840A000008080615A2
:1033B00006118000840A0000080806150611800026
:1033C000840A00000808061506118000840A00001F
:1033D0000808061506118000840A00000808061572
:1033E00006118000840A00000808061506118000F6
:1033F000840A00000808061506118000840A0000EF
:103400000808061506118000840A00000808061541
:1034100006118000840A00000808061506118000C5
:10342000840A00000808061506118000840A0000BE
:103430000808061506118000840A00000808061511
:1034400006118000840A0000080806150611800095
:10345000840A00000808061506118000840A00008E
:103460000808061506118000840A000008080615E1
:1034700006118000840A0000080806150611800065
:10348000840A00000808061506118000840A00005E
:103490000808061506118000840A000008080615B1
:1034A00006118000840A0000080806150611800035
:1034B000840A00000808061506118000840A00002E
:1034C0000808061506118000840A00000808061581
:1034D00006118000840A0000080806150611800005
:1034E000840A00000808061506118000840A0000FE
:1034F0000808061506118000840A00000808061551
:1035000006118000840A00000808061506118000D4
:10351000840A00000808061506118000840A0000CD
:103520000808061506118000840A00000808061520
:1035300006118000840A00000808061506118000A4
:10354000840A00000808061506118000840A00009D
:103550000808061506118000840A000008080615F0
:1035600006118000840A0000080806150611800074
:10357000840A00000808061506118000840A00006D
:103580000808061506118000840A000008080615C0
:1035900006118000840A0000080806150611800044
:1035A000840A000008080615061180008417000030
:1035B0000808061506118000840300000808061597
:1035C000061180008403000008080615061180001B
:1035D000840300000808061506118000840300001B
:1035E0000808061506118000840300000808061567
:1035F00006118000840300000808061506118000EB
:1036000084030000080806150611800084030000EA
:103610000808061506118000840300000808061536
:1036200006118000840300000808061506118000BA
:1036300084030000080806150611800084030000BA
:103640000808061506118000840300000808061506
:10365000061180008403000008080615061180008A
:10366000840300000808061506118000840300008A
:1036700008080615061180008403000008080615D6
:10368000061180008403000008080615061180005A
:10369000840300000808061506118000840300005A
:1036A00008080615061180008403000008080615A6
:1036B0000A168A112F2E5C2B06115E2B00000808BB
:1036C000061506118000840300000808061506117F
:1036D000800084030000080806150611800084039A
:1036E0000000080806150611800084030000080881
:1036F000061506118000840300000808061506114F
:103700008000840300000808061506118000840369
:103710000000080806150611800084030000080850
:10372000061506118000840300000808061506111E
:103730008000840300000808061506118000840339
:103740000000080806150611800084030000080820
:1037500006150611800084030000080806150611EE
:103760008000840300000808061506118000840309
:1037700000000808061506118000840300000808F0
:1037800006150611800084030000080806150611BE
:1037900080008403000008080615061180008403D9
:1037A00000000808061506118000840300000808C0
:1037B000061506118000840300000808061506118E
:1037C00080008403000008080615061180008403A9
:1037D0000000080806150611800084030000080890
:1037E000061506118000840300000808061506115E
:1037F0008000840300000808061506118000840379
:10380000000008080615061180008403000008085F
:10381000061506118000840300000808061506112D
:103820008000840300000808061506118000840348
:10383000000008080615061180008403000008082F
:1038400006150611800084030000080806150611FD
:103850008000840300000808061506118000840318
:1038600000000808061506118000840300000808FF
:1038700006150611800084030000080806150611CD
:1038800080008403000008080615061180008403E8
:1038900000000808061506118000840300000808CF
:1038A000061506118000840300000808061506119D
:1038B0008000831700000808061506118000840A9E
:1038C00000000808061506118000840A0000080898
:1038D000061506118000840A000008080615061166
:1038E0008000840A00000808061506118000840A7A
:1038F00000000808061506118000840A0000080868
:10390000061506118000840A000008080615061135
:103910008000840A00000808061506118000840A49
:1039200000000808061506118000840A0000080837
:10393000061506118000840A000008080615061105
:103940008000840A00000808061506118000840A19
:1039500000000808061506118000840A0000080807
:10396000061506118000840A0000080806150611D5
:103970008000840A00000808061506118000840AE9
:1039800000000808061506118000840A00000808D7
:10399000061506118000840A0000080806150611A5
:1039A0008000840A00000808061506118000840AB9
:1039B00000000808061506118000840A00000808A7
:1039C000061506118000840A000008080615061175
:1039D0008000840A00000808061506118000840A89
:1039E00000000808061506118000840A0000080877
:1039F000061506118000840A000008080615061145
:103A00008000840A00000808061506118000840A58
:103A100000000808061506118000840A0000080846
:103A2000061506118000840A000008080615061114
:103A30008000840A00000808061506118000840A28
:103A400000000808061506118000840A0000080816
:103A5000061506118000840A0000080806150611E4
:103A60008000840A00000808061506118000840AF8
:103A700000000808061506118000840A00000808E6
:103A8000061506118000840A0000080806150611B4
:103A90008000840A00000808061506118000840AC8
:103AA00000000808061506118000840A00000808B6
:103AB00006150A168A112C2E5D2D0A168A1106117A
:043AC0000000172BC0
:02400E007A3FF7
:00000001FF
