:020000040000FA
:100000000130890088015028FB00030EFC000B1E04
:1000100042280B12F40B0A28F50B0A28F60B0A28C3
:10002000770882070A128A11D32C0A128A15DA2F4E
:100030000A128A119A2B0A128A11DD2B0A128A11CE
:10004000DD2B0A128A118C2A0A168A11DD2D0A1656
:100050008A15102A0A128A15D7290A128A11402CE9
:100060000A128A11402C0A128A11F72A0A128A11DE
:100070006A290A128A11EC290A128A1179280A12AD
:100080008A117928831203130C1C4B28831603133F
:100090000C1C4B281B217C0E8300FB0E7B0E0900E1
:1000A0008501831603131F308500C0308100103096
:1000B0008B00F1308600FF30880004308900B930B1
:1000C000870083160317880189010830870083168B
:1000D00003135630990000309A00243098008312A0
:1000E00003139030980083139F010130F400F50052
:1000F000F600A420F8018910701A89148A0170088A
:100100000F39F7000310F70D77078610701F1128BD
:10011000F700620AF400610AF500600AF60083162F
:1001200003130113F01B0117831203138B100B161B
:100130008B17F5207908F33A031D99280B128B13BE
:10014000DC30F90006217928F5207908F83A031DFA
:10015000D728DC30F9000621203084004030F5003B
:100160000008F900840A0621F50BB0284030F5009C
:10017000841784030008F90084030621F50BBA28CC
:100180004030F5008317840A0008F900840A06212C
:10019000F50BC4284030F500841384030008F900EF
:1001A00084030621F50BCE2883133922A42879086D
:1001B000F93A031DE028DD30F90006211822A428B1
:1001C0007908FA3A031DED28DE30F9000621ED2109
:1001D0000130F400F500F60008007908F33A031D39
:1001E000A428DC30F9000621A4288C1EF528181D4F
:1001F000FB281A08F528981C0329181218161A0843
:100200008C1AFF28F5281A08F90000340C1E06295C
:100210007908990000340130F402031CF502F40857
:10022000031D0C29F508031D0C2908008000861405
:1002300083134822792883120313101072098F0048
:1002400073098E000C10101400000408EA006808FE
:10025000840083138413E9188417E9198317691933
:100260008417691983178910091036293729000066
:10027000080809148914091080006918840AE9180B
:10028000840308080914E91984036919840A8000A1
:100290000230E918FE30E919FE30E8071F30680621
:1002A0000319592960306806031D65295F30E8008D
:1002B0005B292030E8000310E90D691E6529101044
:1002C0000C10831603130C100B13831203136A080C
:1002D00084000800831203132030E800E901691448
:1002E000101090161016FF308F008E000C10831621
:1002F00003130C140B178B1783120313101483169C
:1003000003130C1CE229831203138C1E7F29181D72
:100310008B291A087F29981C9329181218161A0875
:100320008C1A8F297F291A08F9007908F83A031DD9
:10033000C829DC30F9000621203084004030F50067
:1003400083130008F900840A0621F50BA129403027
:10035000F500840384170008F90084030621F50BD7
:10036000AB294030F500840A83170008F900840A9D
:100370000621F50BB5294030F500840384130008ED
:10038000F90084030621F50BBF29831339227F2945
:100390007908F93A031DD129DD30F9000621182228
:1003A0007F297908FA3A031DDA29DE30F90006219F
:1003B0000A227F297908F33A031D7F29DC30F900EE
:1003C00006217F29831203138614831348220130E8
:1003D000F400F500F60079287928F5207908DF394E
:1003E0002038F00083120313F5207908E000F5208F
:1003F0007908E100F5207908E200F5207908E300AA
:10040000F5207908F100F5207908F200F520790847
:10041000F3000800F520F520F520F520F5207908F7
:10042000F100F5207908F200F5207908F3000800C2
:100430000130F90006210030F90006217008F900AA
:100440000621831203136008F90006216108F900F0
:1004500006216208F90006216308F90006217108E7
:10046000F90006217208F90006217308F900062137
:1004700008007A08F9000621F901062106218312F5
:1004800003136708F90006216608F9000621080031
:10049000FA018316031307158710851605128312B8
:1004A0000313871005127A17051C7A13851C7A131B
:1004B000851CFA170718FA158714051683160313F7
:1004C000871407110516851283120313071185126D
:1004D0007A16051C7A12851C7A12851CFA160718E2
:1004E0007A1507158516061BFA14861B7A14E60181
:1004F00085196614891006158611861009100000EA
:10050000000000000000000008080914861489108B
:1005100006118611E700080009103F30F600203070
:1005200084007308F4007208F50000000B2108082D
:10053000091409108000840A7308F4007208F50099
:100540000B21F60B972A00000808091409108000F7
:1005500084173F30F6007308F4007208F5000B2191
:100560000000080809140910800084037308F400CF
:100570007208F5000B21F60BB12A000008080914D7
:100580000910800083173F30F6007308F4007208EA
:10059000F5000B2100000808091409108000840AE6
:1005A0007308F4007208F5000B21F60BCB2A00004B
:1005B000080809140910800084133F30F6007308FE
:1005C000F4007208F5000B21000008080914091056
:1005D000800084037308F4007208F5000B21F60B09
:1005E000E52A0000080809148A110A1216290910C0
:1005F000891420308400080809140910891080002B
:10060000840A1F30F6007308F4007208F5000B210D
:10061000000008080914091089148000840A0808D9
:100620000914091089108000840A7308F400720804
:10063000F5000B21F60B092B00000808091409101E
:100640008914800084170808091409108910800093
:1006500084031F30F6007308F4007208F5000B21C4
:100660000000080809140910891480008403080890
:10067000091409108910800084037308F4007208BB
:10068000F5000B21F60B312B0000080809140910A6
:100690008914800083170808091409108910800044
:1006A000840A1F30F6007308F4007208F5000B216D
:1006B000000008080914091089148000840A080839
:1006C0000914091089108000840A7308F400720864
:1006D000F5000B21F60B592B00000808091409102E
:1006E00089148000841308080914091089108000F7
:1006F00084031F30F6007308F4007208F5000B2124
:1007000000000808091409108914800084030808EF
:10071000091409108910800084037308F40072081A
:10072000F5000B21F60B812B0000080809148A1133
:100730000A12162909103F30F4002030840000000E
:100740000808091409108000840AF40BA02B00008B
:10075000080809140910800084173F30F4000000D5
:1007600008080914091080008403F40BB02B000062
:10077000080809140910800083173F30F4000000B6
:100780000808091409108000840AF40BC02B00002B
:10079000080809140910800084133F30F400000099
:1007A00008080914091080008403F40BD02B000002
:1007B000080809148A110A12162909103F30F4009A
:1007C00020308400E32B701DE62B3C24080809141C
:1007D00009108000840A701DEE2B3C240000F40BED
:1007E000E62B0000080809140910800084173F3028
:1007F000F400FA2B701DFD2B3C2408080914091085
:1008000080008403701D052C3C240000F40BFD2B9C
:100810000000080809140910800083173F30F40015
:10082000112C701D142C3C24080809140910800098
:10083000840A701D1C2C3C240000F40B142C0000B6
:10084000080809140910800084133F30F400282C94
:10085000701D2B2C3C240808091409108000840307
:10086000701D332C3C240000F40B2B2C00000808D6
:1008700009148A110A1216293D2C00003F2C080089
:1008800009108914203084000808091409108910FF
:100890008000840A1F30F600701C3D243F240808A5
:1008A0000914091089148000840A08080914091021
:1008B00089108000840A701C3D245E2C0000F60B19
:1008C0004F2C0000080809140910891480008417AF
:1008D0000808091409108910800084031F30F600ED
:1008E000701C3D243F240808091409108914800055
:1008F0008403080809140910891080008403701CFF
:100900003D24822C0000F60B732C0000080809140B
:100910000910891480008317080809140910891028
:100920008000840A1F30F600701C3D243F24080814
:100930000914091089148000840A08080914091090
:1009400089108000840A701C3D24A62C0000F60B40
:10095000972C0000080809140910891480008413DA
:100960000808091409108910800084031F30F6005C
:10097000701C3D243F2408080914091089148000C4
:100980008403080809140910891080008403701C6E
:100990003D24CA2C0000F60BBB2C000008080914EB
:1009A0008A110A1216290910203084000000091447
:1009B000091008088000840A09140910080880003A
:1009C000840A0914091008088000840A091409100F
:1009D00008088000840A0914091008088000840AA5
:1009E0000914091008088000840A0914091008086D
:1009F0008000840A0914091008088000840A091478
:100A0000091008088000840A0914091008088000E9
:100A1000840A0914091008088000840A09140910BE
:100A200008088000840A0914091008088000840A54
:100A30000914091008088000840A0914091008081C
:100A40008000840A0914091008088000840A091427
:100A5000091008088000840A091409100808800099
:100A6000840A0914091008088000840A091409106E
:100A700008088000840A0914091008088000840A04
:100A80000914091008088000840A091409100808CC
:100A90008000840A0914091008088000840A0914D7
:100AA000091008088000840A091409100808800049
:100AB000840A0914091008088000840A091409101E
:100AC00008088000840A0914091008088000840AB4
:100AD0000914091008088000840A0914091008087C
:100AE0008000840A0914091008088000840A091487
:100AF000091008088000840A0914091008088000F9
:100B0000840A0914091008088000840A09140910CD
:100B100008088000840A0914091008088000840A63
:100B20000914091008088000840A0914091008082B
:100B30008000840A0914091008088000840A091436
:100B4000091008088000840A0914091008088000A8
:100B5000840A0914091008088000840A091409107D
:100B600008088000840A0914091008088000840A13
:100B70000914091008088000840A091409100808DB
:100B80008000840A0914091008088000840A0914E6
:100B9000091008088000840A091409100808800058
:100BA000840A0914091008088000840A091409102D
:100BB00008088000840A0914091008088000840AC3
:100BC0000914091008088000840A0914091008088B
:100BD0008000840A0914091008088000840A091496
:100BE000091008088000840A091409100808800008
:100BF000840A0914091008088000840A09140910DD
:100C000008088000840A0914091008088000840A72
:100C10000914091008088000840A0914091008083A
:100C20008000840A09140910080880008417091438
:100C300009100808800084030914091008088000BE
:100C4000840309140910080880008403091409109A
:100C50000808800084030914091008088000840330
:100C600009140910080880008403091409100808F1
:100C70008000840309140910080880008403091403
:100C8000091008088000840309140910080880006E
:100C9000840309140910080880008403091409104A
:100CA00008088000840309140910080880008403E0
:100CB00009140910080880008403091409100808A1
:100CC00080008403091409100808800084030914B3
:100CD000091008088000840309140910080880001E
:100CE00084030914091008088000840309140910FA
:100CF0000808800084030914091008088000840390
:100D00000914091008088000840309140910080850
:100D10008000840309140910080880008403091462
:100D200009100808800084030914091008088000CD
:100D300084030914091008088000840309140910A9
:100D4000080880008403091409100808800084033F
:100D50000914091008088000840309140910080800
:100D60008000840309140910080880008403091412
:100D7000091008088000840309140910080880007D
:100D80008403091409100808800084030914091059
:100D900008088000840309140910080880008403EF
:100DA00009140910080880008403091409100808B0
:100DB00080008403091409100808800084030914C2
:100DC000091008088000840309140910080880002D
:100DD0008403091409100808800084030914091009
:100DE000080880008403091409100808800084039F
:100DF0000914091008088000840309140910080860
:100E00008000840309140910080880008403091471
:100E100009100808800084030914091008088000DC
:100E200084030914091008088000840309140910B8
:100E3000080880008403091409100808800084034E
:100E4000091409100808800084030914091008080F
:100E50008000840309140910080880008403091421
:100E6000091008088000840309140910080880008C
:100E70008403091409100808800084030914091068
:100E800008088000840309140910080880008403FE
:100E900009140910080880008403091409100808BF
:100EA00080008403091409100808800083170914BE
:100EB000091008088000840A091409100808800035
:100EC000840A0914091008088000840A091409100A
:100ED00008088000840A0914091008088000840AA0
:100EE0000914091008088000840A09140910080868
:100EF0008000840A0914091008088000840A091473
:100F0000091008088000840A0914091008088000E4
:100F1000840A0914091008088000840A09140910B9
:100F200008088000840A0914091008088000840A4F
:100F30000914091008088000840A09140910080817
:100F40008000840A0914091008088000840A091422
:100F5000091008088000840A091409100808800094
:100F6000840A0914091008088000840A0914091069
:100F700008088000840A0914091008088000840AFF
:100F80000914091008088000840A091409100808C7
:100F90008000840A0914091008088000840A0914D2
:100FA000091008088000840A091409100808800044
:100FB000840A0914091008088000840A0914091019
:100FC00008088000840A0914091008088000840AAF
:100FD0000914091008088000840A09140910080877
:100FE0008000840A0914091008088000840A091482
:100FF000091008088000840A0914091008088000F4
:10100000840A0914091008088000840A09140910C8
:1010100008088000840A0914091008088000840A5E
:101020000914091008088000840A09140910080826
:101030008000840A0914091008088000840A091431
:10104000091008088000840A0914091008088000A3
:10105000840A0914091008088000840A0914091078
:1010600008088000840A0914091008088000840A0E
:101070000914091008088000840A091409100808D6
:101080008000840A0914091008088000840A0914E1
:10109000091008088000840A091409100808800053
:1010A000840A0914091008088000840A0914091028
:1010B00008088000840A0914091008088000840ABE
:1010C0000914091008088000840A09140910080886
:1010D0008000840A0914091008088000840A091491
:1010E000091008088000840A091409100808800003
:1010F000840A0914091008088000840A09140910D8
:1011000008088000840A0914091008088000840A6D
:101110000914091008088000840A09140910080835
:101120008000840A09140910080880008413091437
:1011300009100808800084030914091008088000B9
:101140008403091409100808800084030914091095
:10115000080880008403091409100808800084032B
:1011600009140910080880008403091409100808EC
:1011700080008403091409100808800084030914FE
:101180000910080880008403091409100808800069
:101190008403091409100808800084030914091045
:1011A00008088000840309140910080880008403DB
:1011B000091409100808800084030914091008089C
:1011C00080008403091409100808800084030914AE
:1011D0000910080880008403091409100808800019
:1011E00084030914091008088000840309140910F5
:1011F000080880008403091409100808800084038B
:10120000091409100808800084030914091008084B
:10121000800084030914091008088000840309145D
:1012200009100808800084030914091008088000C8
:1012300084030914091008088000840309140910A4
:10124000080880008403091409100808800084033A
:1012500009140910080880008403091409100808FB
:10126000800084030914091008088000840309140D
:101270000910080880008403091409100808800078
:101280008403091409100808800084030914091054
:1012900008088000840309140910080880008403EA
:1012A00009140910080880008403091409100808AB
:1012B00080008403091409100808800084030914BD
:1012C0000910080880008403091409100808800028
:1012D0008403091409100808800084030914091004
:1012E000080880008403091409100808800084039A
:1012F000091409100808800084030914091008085B
:10130000800084030914091008088000840309146C
:1013100009100808800084030914091008088000D7
:1013200084030914091008088000840309140910B3
:101330000808800084030914091008088000840349
:10134000091409100808800084030914091008080A
:10135000800084030914091008088000840309141C
:101360000910080880008403091409100808800087
:101370008403091409100808800084030914091063
:1013800008088000840309140910080880008403F9
:1013900009140910080880008403091409100808BA
:1013A00080008403091408088A110A1216290910FA
:1013B000891420308400080809140910891080005D
:1013C000840A08080914091089148000840A08088E
:1013D0000914091089108000840A080809140910EA
:1013E00089148000840A08080914091089108000F3
:1013F000840A08080914091089148000840A08085E
:101400000914091089108000840A080809140910B9
:1014100089148000840A08080914091089108000C2
:10142000840A08080914091089148000840A08082D
:101430000914091089108000840A08080914091089
:1014400089148000840A0808091409108910800092
:10145000840A08080914091089148000840A0808FD
:101460000914091089108000840A08080914091059
:1014700089148000840A0808091409108910800062
:10148000840A08080914091089148000840A0808CD
:101490000914091089108000840A08080914091029
:1014A00089148000840A0808091409108910800032
:1014B000840A08080914091089148000840A08089D
:1014C0000914091089108000840A080809140910F9
:1014D00089148000840A0808091409108910800002
:1014E000840A08080914091089148000840A08086D
:1014F0000914091089108000840A080809140910C9
:1015000089148000840A08080914091089108000D1
:10151000840A08080914091089148000840A08083C
:101520000914091089108000840A08080914091098
:1015300089148000840A08080914091089108000A1
:10154000840A08080914091089148000840A08080C
:101550000914091089108000840A08080914091068
:1015600089148000840A0808091409108910800071
:10157000840A08080914091089148000840A0808DC
:101580000914091089108000840A08080914091038
:1015900089148000840A0808091409108910800041
:1015A000840A08080914091089148000840A0808AC
:1015B0000914091089108000840A08080914091008
:1015C00089148000840A0808091409108910800011
:1015D000840A08080914091089148000840A08087C
:1015E0000914091089108000840A080809140910D8
:1015F00089148000840A08080914091089108000E1
:10160000840A08080914091089148000840A08084B
:101610000914091089108000840A080809140910A7
:1016200089148000840A08080914091089108000B0
:10163000840A08080914091089148000840A08081B
:101640000914091089108000840A08080914091077
:1016500089148000840A0808091409108910800080
:10166000840A08080914091089148000840A0808EB
:101670000914091089108000840A08080914091047
:1016800089148000840A0808091409108910800050
:10169000840A08080914091089148000840A0808BB
:1016A0000914091089108000840A08080914091017
:1016B0008914800084170808091409108910800013
:1016C0008403080809140910891480008403080899
:1016D00009140910891080008403080809140910EE
:1016E00089148000840308080914091089108000F7
:1016F0008403080809140910891480008403080869
:1017000009140910891080008403080809140910BD
:1017100089148000840308080914091089108000C6
:101720008403080809140910891480008403080838
:10173000091409108910800084030808091409108D
:101740008914800084030808091409108910800096
:101750008403080809140910891480008403080808
:10176000091409108910800084030808091409105D
:101770008914800084030808091409108910800066
:1017800084030808091409108914800084030808D8
:10179000091409108910800084030808091409102D
:1017A0008914800084030808091409108910800036
:1017B00084030808091409108914800084030808A8
:1017C00009140910891080008403080809140910FD
:1017D0008914800084030808091409108910800006
:1017E0008403080809140910891480008403080878
:1017F00009140910891080008403080809140910CD
:1018000089148000840308080914091089108000D5
:101810008403080809140910891480008403080847
:10182000091409108910800084030808091409109C
:1018300089148000840308080914091089108000A5
:101840008403080809140910891480008403080817
:10185000091409108910800084030808091409106C
:101860008914800084030808091409108910800075
:1018700084030808091409108914800084030808E7
:10188000091409108910800084030808091409103C
:101890008914800084030808091409108910800045
:1018A00084030808091409108914800084030808B7
:1018B000091409108910800084030808091409100C
:1018C0008914800084030808091409108910800015
:1018D0008403080809140910891480008403080887
:1018E00009140910891080008403080809140910DC
:1018F00089148000840308080914091089108000E5
:101900008403080809140910891480008403080856
:1019100009140910891080008403080809140910AB
:1019200089148000840308080914091089108000B4
:101930008403080809140910891480008403080826
:10194000091409108910800084030808091409107B
:101950008914800084030808091409108910800084
:1019600084030808091409108914800084030808F6
:10197000091409108910800084030808091409104B
:101980008914800084030808091409108910800054
:1019900084030808091409108914800084030808C6
:1019A000091409108910800084030808091409101B
:1019B0008914800083170808091409108910800011
:1019C000840A08080914091089148000840A080888
:1019D0000914091089108000840A080809140910E4
:1019E00089148000840A08080914091089108000ED
:1019F000840A08080914091089148000840A080858
:101A00000914091089108000840A080809140910B3
:101A100089148000840A08080914091089108000BC
:101A2000840A08080914091089148000840A080827
:101A30000914091089108000840A08080914091083
:101A400089148000840A080809140910891080008C
:101A5000840A08080914091089148000840A0808F7
:101A60000914091089108000840A08080914091053
:101A700089148000840A080809140910891080005C
:101A8000840A08080914091089148000840A0808C7
:101A90000914091089108000840A08080914091023
:101AA00089148000840A080809140910891080002C
:101AB000840A08080914091089148000840A080897
:101AC0000914091089108000840A080809140910F3
:101AD00089148000840A08080914091089108000FC
:101AE000840A08080914091089148000840A080867
:101AF0000914091089108000840A080809140910C3
:101B000089148000840A08080914091089108000CB
:101B1000840A08080914091089148000840A080836
:101B20000914091089108000840A08080914091092
:101B300089148000840A080809140910891080009B
:101B4000840A08080914091089148000840A080806
:101B50000914091089108000840A08080914091062
:101B600089148000840A080809140910891080006B
:101B7000840A08080914091089148000840A0808D6
:101B80000914091089108000840A08080914091032
:101B900089148000840A080809140910891080003B
:101BA000840A08080914091089148000840A0808A6
:101BB0000914091089108000840A08080914091002
:101BC00089148000840A080809140910891080000B
:101BD000840A08080914091089148000840A080876
:101BE0000914091089108000840A080809140910D2
:101BF00089148000840A08080914091089108000DB
:101C0000840A08080914091089148000840A080845
:101C10000914091089108000840A080809140910A1
:101C200089148000840A08080914091089108000AA
:101C3000840A08080914091089148000840A080815
:101C40000914091089108000840A08080914091071
:101C500089148000840A080809140910891080007A
:101C6000840A08080914091089148000840A0808E5
:101C70000914091089108000840A08080914091041
:101C800089148000840A080809140910891080004A
:101C9000840A08080914091089148000840A0808B5
:101CA0000914091089108000840A08080914091011
:101CB0008914800084130808091409108910800011
:101CC0008403080809140910891480008403080893
:101CD00009140910891080008403080809140910E8
:101CE00089148000840308080914091089108000F1
:101CF0008403080809140910891480008403080863
:101D000009140910891080008403080809140910B7
:101D100089148000840308080914091089108000C0
:101D20008403080809140910891480008403080832
:101D30000914091089108000840308080914091087
:101D40008914800084030808091409108910800090
:101D50008403080809140910891480008403080802
:101D60000914091089108000840308080914091057
:101D70008914800084030808091409108910800060
:101D800084030808091409108914800084030808D2
:101D90000914091089108000840308080914091027
:101DA0008914800084030808091409108910800030
:101DB00084030808091409108914800084030808A2
:101DC00009140910891080008403080809140910F7
:101DD0008914800084030808091409108910800000
:101DE0008403080809140910891480008403080872
:101DF00009140910891080008403080809140910C7
:101E000089148000840308080914091089108000CF
:101E10008403080809140910891480008403080841
:101E20000914091089108000840308080914091096
:101E3000891480008403080809140910891080009F
:101E40008403080809140910891480008403080811
:101E50000914091089108000840308080914091066
:101E6000891480008403080809140910891080006F
:101E700084030808091409108914800084030808E1
:101E80000914091089108000840308080914091036
:101E9000891480008403080809140910891080003F
:101EA00084030808091409108914800084030808B1
:101EB0000914091089108000840308080914091006
:101EC000891480008403080809140910891080000F
:101ED0008403080809140910891480008403080881
:101EE00009140910891080008403080809140910D6
:101EF00089148000840308080914091089108000DF
:101F00008403080809140910891480008403080850
:101F100009140910891080008403080809140910A5
:101F200089148000840308080914091089108000AE
:101F30008403080809140910891480008403080820
:101F40000914091089108000840308080914091075
:101F5000891480008403080809140910891080007E
:101F600084030808091409108914800084030808F0
:101F70000914091089108000840308080914091045
:101F8000891480008403080809140910891080004E
:101F900084030808091409108914800084030808C0
:101FA00009140910891080008403080809148A1193
:101FB0000A121629091020308400000008080914AC
:101FC00009108000840A0000080809140910800024
:101FD000840A00000808091409108000840A00001F
:101FE0000808091409108000840A00000808091470
:101FF00009108000840A00000808091409108000F4
:10200000840A00000808091409108000840A0000EE
:102010000808091409108000840A0000080809143F
:1020200009108000840A00000808091409108000C3
:10203000840A00000808091409108000840A0000BE
:102040000808091409108000840A0000080809140F
:1020500009108000840A0000080809140910800093
:10206000840A00000808091409108000840A00008E
:102070000808091409108000840A000008080914DF
:1020800009108000840A0000080809140910800063
:10209000840A00000808091409108000840A00005E
:1020A0000808091409108000840A000008080914AF
:1020B00009108000840A0000080809140910800033
:1020C000840A00000808091409108000840A00002E
:1020D0000808091409108000840A0000080809147F
:1020E00009108000840A0000080809140910800003
:1020F000840A00000808091409108000840A0000FE
:102100000808091409108000840A0000080809144E
:1021100009108000840A00000808091409108000D2
:10212000840A00000808091409108000840A0000CD
:102130000808091409108000840A0000080809141E
:1021400009108000840A00000808091409108000A2
:10215000840A00000808091409108000840A00009D
:102160000808091409108000840A000008080914EE
:1021700009108000840A0000080809140910800072
:10218000840A00000808091409108000840A00006D
:102190000808091409108000840A000008080914BE
:1021A00009108000840A0000080809140910800042
:1021B000840A00000808091409108000840A00003D
:1021C0000808091409108000840A0000080809148E
:1021D00009108000840A0000080809140910800012
:1021E000840A00000808091409108000840A00000D
:1021F0000808091409108000840A0000080809145E
:1022000009108000840A00000808091409108000E1
:10221000840A00000808091409108000840A0000DC
:102220000808091409108000840A0000080809142D
:1022300009108000840A00000808091409108000B1
:10224000840A00000808091409108000840A0000AC
:102250000808091409108000840A000008080914FD
:1022600009108000840A0000080809140910800081
:10227000840A00000808091409108000840A00007C
:102280000808091409108000840A000008080914CD
:1022900009108000840A0000080809140910800051
:1022A000840A00000808091409108000840A00004C
:1022B0000808091409108000841700000808091490
:1022C0000910800084030000080809140910800028
:1022D000840300000808091409108000840300002A
:1022E0000808091409108000840300000808091474
:1022F00009108000840300000808091409108000F8
:1023000084030000080809140910800084030000F9
:102310000808091409108000840300000808091443
:1023200009108000840300000808091409108000C7
:1023300084030000080809140910800084030000C9
:102340000808091409108000840300000808091413
:102350000910800084030000080809140910800097
:102360008403000008080914091080008403000099
:1023700008080914091080008403000008080914E3
:102380000910800084030000080809140910800067
:102390008403000008080914091080008403000069
:1023A00008080914091080008403000008080914B3
:1023B0000910800084030000080809140910800037
:1023C0008403000008080914091080008403000039
:1023D0000808091409108000840300000808091483
:1023E0000910800084030000080809140910800007
:1023F0008403000008080914091080008403000009
:102400000808091409108000840300000808091452
:1024100009108000840300000808091409108000D6
:1024200084030000080809140910800084030000D8
:102430000808091409108000840300000808091422
:1024400009108000840300000808091409108000A6
:1024500084030000080809140910800084030000A8
:1024600008080914091080008403000008080914F2
:102470000910800084030000080809140910800076
:102480008403000008080914091080008403000078
:1024900008080914091080008403000008080914C2
:1024A0000910800084030000080809140910800046
:1024B0008403000008080914091080008403000048
:1024C0000808091409108000840300000808091492
:1024D0000910800084030000080809140910800016
:1024E0008403000008080914091080008403000018
:1024F0000808091409108000840300000808091462
:1025000009108000840300000808091409108000E5
:1025100084030000080809140910800084030000E7
:102520000808091409108000840300000808091431
:1025300009108000840300000808091409108000B5
:1025400084030000080809140910800084030000B7
:102550000808091409108000840300000808091401
:102560000910800084030000080809140910800085
:102570008403000008080914091080008403000087
:1025800008080914091080008403000008080914D1
:102590000910800084030000080809140910800055
:1025A0008403000008080914091080008403000057
:1025B000080809140910800083170000080809148E
:1025C00009108000840A000008080914091080001E
:1025D000840A00000808091409108000840A000019
:1025E0000808091409108000840A0000080809146A
:1025F00009108000840A00000808091409108000EE
:10260000840A00000808091409108000840A0000E8
:102610000808091409108000840A00000808091439
:1026200009108000840A00000808091409108000BD
:10263000840A00000808091409108000840A0000B8
:102640000808091409108000840A00000808091409
:1026500009108000840A000008080914091080008D
:10266000840A00000808091409108000840A000088
:102670000808091409108000840A000008080914D9
:1026800009108000840A000008080914091080005D
:10269000840A00000808091409108000840A000058
:1026A0000808091409108000840A000008080914A9
:1026B00009108000840A000008080914091080002D
:1026C000840A00000808091409108000840A000028
:1026D0000808091409108000840A00000808091479
:1026E00009108000840A00000808091409108000FD
:1026F000840A00000808091409108000840A0000F8
:102700000808091409108000840A00000808091448
:1027100009108000840A00000808091409108000CC
:10272000840A00000808091409108000840A0000C7
:102730000808091409108000840A00000808091418
:1027400009108000840A000008080914091080009C
:10275000840A00000808091409108000840A000097
:102760000808091409108000840A000008080914E8
:1027700009108000840A000008080914091080006C
:10278000840A00000808091409108000840A000067
:102790000808091409108000840A000008080914B8
:1027A00009108000840A000008080914091080003C
:1027B000840A00000808091409108000840A000037
:1027C0000808091409108000840A00000808091488
:1027D00009108000840A000008080914091080000C
:1027E000840A00000808091409108000840A000007
:1027F0000808091409108000840A00000808091458
:1028000009108000840A00000808091409108000DB
:10281000840A00000808091409108000840A0000D6
:102820000808091409108000840A00000808091427
:1028300009108000840A00000808091409108000AB
:10284000840A00000808091409108000840A0000A6
:102850000808091409108000840A000008080914F7
:1028600009108000840A000008080914091080007B
:10287000840A00000808091409108000840A000076
:102880000808091409108000840A000008080914C7
:1028900009108000840A000008080914091080004B
:1028A000840A00000808091409108000840A000046
:1028B000080809140910800084130000080809148E
:1028C0000910800084030000080809140910800022
:1028D0008403000008080914091080008403000024
:1028E000080809140910800084030000080809146E
:1028F00009108000840300000808091409108000F2
:1029000084030000080809140910800084030000F3
:10291000080809140910800084030000080809143D
:1029200009108000840300000808091409108000C1
:1029300084030000080809140910800084030000C3
:10294000080809140910800084030000080809140D
:102950000910800084030000080809140910800091
:102960008403000008080914091080008403000093
:1029700008080914091080008403000008080914DD
:102980000910800084030000080809140910800061
:102990008403000008080914091080008403000063
:1029A00008080914091080008403000008080914AD
:1029B0000910800084030000080809140910800031
:1029C0008403000008080914091080008403000033
:1029D000080809140910800084030000080809147D
:1029E0000910800084030000080809140910800001
:1029F0008403000008080914091080008403000003
:102A0000080809140910800084030000080809144C
:102A100009108000840300000808091409108000D0
:102A200084030000080809140910800084030000D2
:102A3000080809140910800084030000080809141C
:102A400009108000840300000808091409108000A0
:102A500084030000080809140910800084030000A2
:102A600008080914091080008403000008080914EC
:102A70000910800084030000080809140910800070
:102A80008403000008080914091080008403000072
:102A900008080914091080008403000008080914BC
:102AA0000910800084030000080809140910800040
:102AB0008403000008080914091080008403000042
:102AC000080809140910800084030000080809148C
:102AD0000910800084030000080809140910800010
:102AE0008403000008080914091080008403000012
:102AF000080809140910800084030000080809145C
:102B000009108000840300000808091409108000DF
:102B100084030000080809140910800084030000E1
:102B2000080809140910800084030000080809142B
:102B300009108000840300000808091409108000AF
:102B400084030000080809140910800084030000B1
:102B500008080914091080008403000008080914FB
:102B6000091080008403000008080914091080007F
:102B70008403000008080914091080008403000081
:102B800008080914091080008403000008080914CB
:102B9000091080008403000008080914091080004F
:102BA0008403000008080914091080008403000051
:102BB000080809148A110A12162915308A007808A3
:102BC00082070A168A11F02D0A168A11002F0A169A
:102BD0008A1503280A168A1506290A168A150A2A4A
:102BE0000910203084000000091409100808800032
:102BF000840A0914091008088000840A09140910BD
:102C000008088000840A0914091008088000840A52
:102C10000914091008088000840A0914091008081A
:102C20008000840A0914091008088000840A091425
:102C3000091008088000840A091409100808800097
:102C4000840A0914091008088000840A091409106C
:102C500008088000840A0914091008088000840A02
:102C60000914091008088000840A091409100808CA
:102C70008000840A0914091008088000840A0914D5
:102C8000091008088000840A091409100808800047
:102C9000840A0914091008088000840A091409101C
:102CA00008088000840A0914091008088000840AB2
:102CB0000914091008088000840A0914091008087A
:102CC0008000840A0914091008088000840A091485
:102CD000091008088000840A0914091008088000F7
:102CE000840A0914091008088000840A09140910CC
:102CF00008088000840A0914091008088000840A62
:102D00000914091008088000840A09140910080829
:102D10008000840A0914091008088000840A091434
:102D2000091008088000840A0914091008088000A6
:102D3000840A0914091008088000840A091409107B
:102D400008088000840A0914091008088000840A11
:102D50000914091008088000840A091409100808D9
:102D60008000840A0914091008088000840A0914E4
:102D7000091008088000840A091409100808800056
:102D8000840A0914091008088000840A091409102B
:102D900008088000840A0914091008088000840AC1
:102DA0000914091008088000840A09140910080889
:102DB0008000840A0914091008088000840A091494
:102DC000091008088000840A091409100808800006
:102DD000840A0914091008088000840A09140910DB
:102DE00008088000840A091408088000840AFA2E62
:102DF000800084030330F80786140A128A117B28A6
:102E000000000910032F00000914091008088000B1
:102E1000840A0914091008088000840A091409109A
:102E200008088000840A0914091008088000840A30
:102E30000914091008088000840A091409100808F8
:102E40008000840A0914091008088000840A091403
:102E5000091008088000840A091409100808800075
:102E6000840A0914091008088000840A091409104A
:102E700008088000840A09140910080880008417D3
:102E800009140910080880008403091409100808AF
:102E900080008403091409100808800084030914C1
:102EA000091008088000840309140910080880002C
:102EB0008403091409100808800084030914091008
:102EC000080880008403091409100808800084039E
:102ED000091409100808800084030914091008085F
:102EE0008000840309140910080880008403091471
:102EF00009100808800084030914091008088000DC
:102F000084030914091008088000840309140910B7
:102F1000080880008403091409100808800084034D
:102F2000091409100808800084030914091008080E
:102F30008000840309140910080880008403091420
:102F4000091008088000840309140910080880008B
:102F50008403091409100808800084030914091067
:102F600008088000840309140910080880008403FD
:102F700009140910080880008403091409100808BE
:102F800080008403091409100808800084030914D0
:102F9000091008088000840309140910080880003B
:102FA0008403091409100808800084030914091017
:102FB00008088000840309140910080880008403AD
:102FC000091409100808800084030914091008086E
:102FD0008000840309140910080880008403091480
:102FE00009100808800084030914091008088000EB
:102FF00084030914091008088000840309140808D0
:103000000A168A11F82E042809100628000009144F
:1030100009100808800084030914091008088000BA
:103020008403091409100808800084030914091096
:10303000080880008403091409100808800084032C
:1030400009140910080880008403091409100808ED
:1030500080008403091409100808800084030914FF
:10306000091008088000840309140910080880006A
:103070008403091409100808800084030914091046
:1030800008088000840309140910080880008403DC
:10309000091409100808800084030914091008089D
:1030A00080008403091409100808800084030914AF
:1030B000091008088000840309140910080880001A
:1030C00084030914091008088000840309140910F6
:1030D000080880008403091409100808800084038C
:1030E000091409100808800084030914091008084D
:1030F000800084030914091008088000840309145F
:1031000009100808800083170914091008088000B6
:10311000840A0914091008088000840A0914091097
:1031200008088000840A0914091008088000840A2D
:103130000914091008088000840A091409100808F5
:103140008000840A0914091008088000840A091400
:10315000091008088000840A091409100808800072
:10316000840A0914091008088000840A0914091047
:1031700008088000840A0914091008088000840ADD
:103180000914091008088000840A091409100808A5
:103190008000840A0914091008088000840A0914B0
:1031A000091008088000840A091409100808800022
:1031B000840A0914091008088000840A09140910F7
:1031C00008088000840A0914091008088000840A8D
:1031D0000914091008088000840A09140910080855
:1031E0008000840A0914091008088000840A091460
:1031F000091008088000840A0914091008088000D2
:10320000840A091408080A168A11F52E07290000F5
:1032100009100A2900000914091008088000840A0E
:103220000914091008088000840A09140910080804
:103230008000840A0914091008088000840A09140F
:10324000091008088000840A091409100808800081
:10325000840A0914091008088000840A0914091056
:1032600008088000840A0914091008088000840AEC
:103270000914091008088000840A091409100808B4
:103280008000840A0914091008088000840A0914BF
:10329000091008088000840A091409100808800031
:1032A000840A0914091008088000840A0914091006
:1032B00008088000840A0914091008088000840A9C
:1032C0000914091008088000840A09140910080864
:1032D0008000840A0914091008088000840A09146F
:1032E000091008088000840A0914091008088000E1
:1032F000840A0914091008088000840A09140910B6
:1033000008088000840A0914091008088000840A4B
:103310000914091008088000840A09140910080813
:103320008000840A0914091008088000840A09141E
:10333000091008088000840A091409100808800090
:10334000840A0914091008088000840A0914091065
:1033500008088000840A0914091008088000840AFB
:103360000914091008088000840A091409100808C3
:103370008000840A0914091008088000840A0914CE
:10338000091008088000840A091409100808800040
:103390008413091409100808800084030914091013
:1033A00008088000840309140910080880008403B9
:1033B000091409100808800084030914091008087A
:1033C000800084030914091008088000840309148C
:1033D00009100808800084030914091008088000F7
:1033E00084030914091008088000840309140910D3
:1033F0000808800084030914091008088000840369
:1034000009140910080880008403091408080A1622
:103410008A11F82E0B2A0A128A1509100000D828E2
:103420001A308A00780882070A168A151D2A0A1699
:103430008A15242C0A168A15252E0910203084009E
:1034400000000808091409108000840A0000080818
:10345000091409108000840A0000080809140910E2
:103460008000840A00000808091409108000840AFA
:1034700000000808091409108000840A00000808E8
:10348000091409108000840A0000080809140910B2
:103490008000840A00000808091409108000840ACA
:1034A00000000808091409108000840A00000808B8
:1034B000091409108000840A000008080914091082
:1034C0008000840A00000808091409108000840A9A
:1034D00000000808091409108000840A0000080888
:1034E000091409108000840A000008080914091052
:1034F0008000840A00000808091409108000840A6A
:1035000000000808091409108000840A0000080857
:10351000091409108000840A000008080914091021
:103520008000840A00000808091409108000840A39
:1035300000000808091409108000840A0000080827
:10354000091409108000840A0000080809140910F1
:103550008000840A00000808091409108000840A09
:1035600000000808091409108000840A00000808F7
:10357000091409108000840A0000080809140910C1
:103580008000840A00000808091409108000840AD9
:1035900000000808091409108000840A00000808C7
:1035A000091409108000840A000008080914091091
:1035B0008000840A00000808091409108000840AA9
:1035C00000000808091409108000840A0000080897
:1035D000091409108000840A000008080914091061
:1035E0008000840A00000808091409108000840A79
:1035F00000000808091409108000840A0000080867
:10360000091409108000840A000008080914091030
:103610008000840A00000808091409108000840A48
:1036200000000808091409108000840A0000080836
:10363000091409108000840A000008080914091000
:103640008000840A00000808091409108000840A18
:1036500000000808091409108000840A0000080806
:10366000091409108000840A0000080809140910D0
:103670008000840A00000808091409108000840AE8
:1036800000000808091409108000840A00000808D6
:10369000091409108000840A0000080809140910A0
:1036A0008000840A00000808091409108000840AB8
:1036B00000000808091409108000840A00000808A6
:1036C000091409108000840A000008080914091070
:1036D0008000840A00000808091409108000840A88
:1036E00000000808091409108000840A0000080876
:1036F000091409108000840A000008080914091040
:103700008000840A00000808091409108000840A57
:1037100000000808091409108000840A0000080845
:10372000091409108000840A00000808091409100F
:103730008000840A0000080809140910800084171A
:10374000000008080914091080008403000008081C
:1037500009140910800084030000080809140910E6
:103760008000840300000808091409108000840305
:1037700000000808091409108000840300000808EC
:1037800009140910800084030000080809140910B6
:1037900080008403000008080914091080008403D5
:1037A00000000808091409108000840300000808BC
:1037B0000914091080008403000008080914091086
:1037C00080008403000008080914091080008403A5
:1037D000000008080914091080008403000008088C
:1037E0000914091080008403000008080914091056
:1037F0008000840300000808091409108000840375
:10380000000008080914091080008403000008085B
:103810000914091080008403000008080914091025
:103820008000840300000808091409108000840344
:10383000000008080914091080008403000008082B
:1038400009140A168A11F82E252C0910272C0000BD
:1038500008080914091080008403000008080914EE
:103860000910800084030000080809140910800072
:103870008403000008080914091080008403000074
:1038800008080914091080008403000008080914BE
:103890000910800084030000080809140910800042
:1038A0008403000008080914091080008403000044
:1038B000080809140910800084030000080809148E
:1038C0000910800084030000080809140910800012
:1038D0008403000008080914091080008403000014
:1038E000080809140910800084030000080809145E
:1038F00009108000840300000808091409108000E2
:1039000084030000080809140910800084030000E3
:10391000080809140910800084030000080809142D
:1039200009108000840300000808091409108000B1
:1039300084030000080809140910800084030000B3
:1039400008080914091080008403000008080914FD
:103950000910800084030000080809140910800081
:103960008403000008080914091080008403000083
:1039700008080914091080008403000008080914CD
:103980000910800084030000080809140910800051
:103990008403000008080914091080008403000053
:1039A000080809140910800084030000080809149D
:1039B0000910800084030000080809140910800021
:1039C0008403000008080914091080008403000023
:1039D000080809140910800084030000080809146D
:1039E00009108000840300000808091409108000F1
:1039F00084030000080809140910800084030000F3
:103A0000080809140910800084030000080809143C
:103A100009108000840300000808091409108000C0
:103A200084030000080809140910800084030000C2
:103A3000080809140910800084030000080809140C
:103A4000091080008317000008080914091080007D
:103A5000840A00000808091409108000840A000084
:103A60000808091409108000840A000008080914D5
:103A700009108000840A0000080809140910800059
:103A8000840A00000808091409108000840A000054
:103A90000808091409108000840A000008080914A5
:103AA00009108000840A0000080809140910800029
:103AB000840A00000808091409108000840A000024
:103AC0000808091409108000840A00000808091475
:103AD00009108000840A00000808091409108000F9
:103AE000840A00000808091409108000840A0000F4
:103AF0000808091409108000840A00000808091445
:103B000009108000840A00000808091409108000C8
:103B1000840A00000808091409108000840A0000C3
:103B20000808091409108000840A00000808091414
:103B300009108000840A0000080809140910800098
:103B4000840A00000808091409108000840A000093
:103B50000808091409108000840A000008080914E4
:103B600009108000840A0000080809140910800068
:103B7000840A00000808091409108000840A000063
:103B80000808091409108000840A000008080914B4
:103B900009108000840A0000080809140910800038
:103BA000840A00000808091409108000840A000033
:103BB0000808091409108000840A00000808091484
:103BC00009108000840A0000080809140910800008
:103BD000840A00000808091409108000840A000003
:103BE0000808091409108000840A00000808091454
:103BF00009108000840A00000808091409108000D8
:103C0000840A00000808091409108000840A0000D2
:103C10000808091409108000840A00000808091423
:103C200009108000840A00000808091409108000A7
:103C3000840A00000808091409108000840A0000A2
:103C4000080809140A168A11F52E262E0A168A115A
:063C500009100000E02B4A
:084000000100020003000400AE
:02400E00F2209E
:02401000FF3F70
:00000001FF
