:020000040000FA
:100000000130890088015D28FC00030EFD000B1EF5
:100010004F288B1C4F280B12FF1B4828F40B0E286F
:10002000F50B0E28F60B0E28F70B0E287808820722
:100030000A128A118E2D0A168A1195280A128A111F
:10004000552C0A128A11982C0A128A11982C0A121D
:100050008A11472B0A168A11982E0A168A15CB2A5E
:100060000A128A15922A0A128A11FB2C0A128A1184
:10007000FB2C0A128A11B22B0A128A11C9290A1200
:100080008A1186280A128A1186280A128A1186285D
:10009000831203136708EB006608EA007F178312D8
:1000A00003130C1C5828831603130C1C58283F21DB
:1000B0007D0E8300FC0E7C0E09008501F330860066
:1000C00083160313C03095001F3085004030810037
:1000D00010308B00F1308600FF308800043089003A
:1000E000B93087008316031788018901083087001B
:1000F000831603135630990000309A00243098007C
:10010000831203139030980083139F01FF01F901BC
:10011000831203138614C7208910701A89148A0168
:1001200070080F39F8000310F80D7807F800630A1B
:10013000F400620AF500610AF600600AF700780828
:100140008610701F1728831603130113F01B011765
:1001500083120313E01FB9286308FE39EC008316ED
:100160000313E00083120313FE3AE900FF17780837
:1001700017288B100B168B1715217A08F33A031DDD
:10018000BC280B128B13DC30FA002821862815219D
:100190007A08F83A031DFB28DC30FA0028212030C9
:1001A00084004030F50083130008FA00840A2821F7
:1001B000F50BD4284030F500841784030008FA00BA
:1001C00084032821F50BDE284030F5008317840ACC
:1001D0000008FA00840A2821F50BE8284030F500D1
:1001E000841384030008FA0084032821F50BF22805
:1001F0008313F922C7287A08F93A031D0429DD3050
:10020000FA002821DA22C7287A08FA3A031D0D29B4
:10021000DE30FA002821B02208007A08F33A031DE4
:10022000C728DC30FA002821C728831203138C1E4C
:100230001729181D1D291A081729981C2529181275
:1002400018161A088C1A212917291A08FA000034DE
:10025000831203130C1E2A297A08990000340130F6
:10026000F402031CF502F408031D3029F508031DF0
:100270003029080080008614831306238628831201
:100280000313101072098F0073098E000C101014E4
:10029000FE0B0800710AFE0000000408E800660872
:1002A000840083138413E7188417E71983176719E9
:1002B0008417671983178910861009105F29602930
:1002C0000000080809148914091080006718840ABE
:1002D000E7188403080809148614E71984036719CA
:1002E000840A80000230E718FE30E719FE30E60786
:1002F0001F3066060319832960306606031D8D29A9
:100300005F30E60085292030E6000310E70D671E08
:100310008D29FF1FBE29E7016714FF1FC4297F1A1B
:100320009F2983160313E00803197F16E003E003F7
:10033000831203137F1E9F298B100B16C4297F1F66
:10034000C429E903E90BC42920306A02EB183F3ABB
:10035000EB193F3AEB18403EEB19C03E6B19803E5B
:10036000FE3E6C02FE39ED00ED1FBC29FE30ED06AD
:10037000ED0AED0A4D22BD297222FF1610100C1055
:10038000831603130C100B138312031368088400E5
:100390000800831203132030E600E70167141010F1
:1003A000901610160130FE00FF308F008E000C10EA
:1003B000831603130C14831203130B1710148B17DB
:1003C000831603130C1C472A831203138C1EE02987
:1003D000181DEC291A08E029981CF429181218167F
:1003E0001A088C1AF029E0291A08FA00FF1FFA29C6
:1003F000FF1E3F2A7A08F83A031D2D2ADC30FA0046
:100400002821203084004030F50083130008FA00D2
:10041000840A2821F50B062A4030F500840384174E
:100420000008FA0084032821F50B102A4030F5005B
:10043000840A83170008FA00840A2821F50B1A2A77
:100440004030F500840384130008FA008403282157
:10045000F50B242A8313F922E0297A08F93A031DBF
:10046000362ADD30FA002821DA22E0297A08FA3A21
:10047000031D3F2ADE30FA002821CB22E0297A082A
:10048000F33A031DE029DC30FA002821BE218B134A
:100490008312031386140623862883120313040889
:1004A000EE00ED080319962A20308400831384138C
:1004B0000008EF009A228417000884138000841734
:1004C000A522831700088313800083179A228413C0
:1004D0000008841780008413A5226F088000ED0BAC
:1004E000512A962A831203130408EE00ED0803191B
:1004F000962A20308400831784130008EF009A2284
:1005000084170008841380008417A5228313000831
:100510008317800083139A228413000884178000B5
:100520008413A5226F088000ED0B762A83136E08D2
:1005300084000800840A000884038000840A5F3075
:1005400004067F39031D9A2A080084030008840AE0
:1005500080008403203004067F39031DA52A08008B
:1005600015217A08DF392038F00015217A08E000DB
:1005700015217A08E10015217A08E20015217A0890
:10058000E30015217A08F10015217A08F2001521FF
:100590007A08F300080015211521152115211521D0
:1005A00015217A08F10015217A08F20015217A0840
:1005B000F30008000130FA0028210030FA00282159
:1005C0007008FA0028216008FA0028216108FA0062
:1005D00028216208FA0028216308FA0028217108FE
:1005E000FA0028217208FA0028217308FA0028214D
:1005F00008007B08FA002821FA0128212821650833
:10060000FA0028216408FA0028210800FB0183165B
:10061000031307158710851605128312031387101D
:1006200005127B17051C7B13851C7B13851CFB1790
:100630000718FB1587140516831603138714071173
:100640000516851283120313071185127B16051CEC
:100650007B12851C7B12851CFB1607187B15071562
:100660008516061FFB14861F7B14E401851D641488
:100670008910061586100910000000000000000017
:1006800000000808091486140611E5000800091086
:100690003F30F600203084007308F4007208F50043
:1006A00000002F210808091409108000840A73082B
:1006B000F4007208F5002F21F60B522B00000808F9
:1006C00009140910800084173F30F6007308F40005
:1006D0007208F5002F210000080809140910800095
:1006E00084037308F4007208F5002F21F60B6C2BBD
:1006F0000000080809140910800083173F30F60035
:100700007308F4007208F5002F210000080809148E
:1007100009108000840A7308F4007208F5002F2184
:10072000F60B862B000008080914091080008413BA
:100730003F30F6007308F4007208F5002F21000026
:10074000080809140910800084037308F400720873
:10075000F5002F21F60BA02B0000080809148A11C0
:100760000A123A2909108914203084000808091453
:10077000091089108000840A1F30F6007308F40005
:100780007208F5002F2100000808091409108914C7
:100790008000840A08080914091089108000840A5E
:1007A0007308F4007208F5002F21F60BC42B00002B
:1007B000080809140910891480008417080809140E
:1007C00009108910800084031F30F6007308F400BC
:1007D0007208F5002F210000080809140910891477
:1007E000800084030808091409108910800084031C
:1007F0007308F4007208F5002F21F60BEC2B0000B3
:1008000008080914091089148000831708080914BE
:10081000091089108000840A1F30F6007308F40064
:100820007208F5002F210000080809140910891426
:100830008000840A08080914091089108000840ABD
:100840007308F4007208F5002F21F60B142C000039
:100850000808091409108914800084130808091471
:1008600009108910800084031F30F6007308F4001B
:100870007208F5002F2100000808091409108914D6
:10088000800084030808091409108910800084037B
:100890007308F4007208F5002F21F60B3C2C0000C1
:1008A000080809148A110A123A2909103F30F40085
:1008B0002030840000000808091409108000840A10
:1008C000F40B5B2C00000808091409108000841741
:1008D0003F30F40000000808091409108000840368
:1008E000F40B6B2C00000808091409108000831712
:1008F0003F30F40000000808091409108000840A41
:10090000F40B7B2C000008080914091080008413E4
:100910003F30F40000000808091409108000840327
:10092000F40B8B2C0000080809148A110A123A29CA
:1009300009103F30F400203084009E2C701DA12C43
:10094000F7240808091409108000840A701DA92CD6
:10095000F7240000F40BA12C00000808091409106A
:10096000800084173F30F400B52C701DB82CF7249C
:1009700008080914091080008403701DC02CF72496
:100980000000F40BB82C00000808091409108000BE
:1009900083173F30F400CC2C701DCF2CF7240808AF
:1009A000091409108000840A701DD72CF724000058
:1009B000F40BCF2C000008080914091080008413E0
:1009C0003F30F400E32C701DE62CF72408080914CE
:1009D000091080008403701DEE2CF7240000F40B36
:1009E000E62C0000080809148A110A123A29F82C8A
:1009F0000000FA2C0800091089142030840008082F
:100A00000914091089108000840A1F30F600701C38
:100A1000F824FA2408080914091089148000840AAB
:100A200008080914091089108000840A701CF82431
:100A3000192D0000F60B0A2D0000080809140910F2
:100A4000891480008417080809140910891080008F
:100A500084031F30F600701CF824FA2408080914D7
:100A600009108914800084030808091409108910EA
:100A700080008403701CF8243D2D0000F60B2E2D01
:100A80000000080809140910891480008317080859
:100A90000914091089108000840A1F30F600701CA8
:100AA000F824FA2408080914091089148000840A1B
:100AB00008080914091089108000840A701CF824A1
:100AC000612D0000F60B522D0000080809140910D2
:100AD0008914800084130808091409108910800003
:100AE00084031F30F600701CF824FA240808091447
:100AF000091089148000840308080914091089105A
:100B000080008403701CF824852D0000F60B762DE0
:100B10000000080809148A110A123A290910203025
:100B2000840000000914091008088000840A0914D0
:100B3000091008088000840A0914091008088000B8
:100B4000840A0914091008088000840A091409108D
:100B500008088000840A0914091008088000840A23
:100B60000914091008088000840A091409100808EB
:100B70008000840A0914091008088000840A0914F6
:100B8000091008088000840A091409100808800068
:100B9000840A0914091008088000840A091409103D
:100BA00008088000840A0914091008088000840AD3
:100BB0000914091008088000840A0914091008089B
:100BC0008000840A0914091008088000840A0914A6
:100BD000091008088000840A091409100808800018
:100BE000840A0914091008088000840A09140910ED
:100BF00008088000840A0914091008088000840A83
:100C00000914091008088000840A0914091008084A
:100C10008000840A0914091008088000840A091455
:100C2000091008088000840A0914091008088000C7
:100C3000840A0914091008088000840A091409109C
:100C400008088000840A0914091008088000840A32
:100C50000914091008088000840A091409100808FA
:100C60008000840A0914091008088000840A091405
:100C7000091008088000840A091409100808800077
:100C8000840A0914091008088000840A091409104C
:100C900008088000840A0914091008088000840AE2
:100CA0000914091008088000840A091409100808AA
:100CB0008000840A0914091008088000840A0914B5
:100CC000091008088000840A091409100808800027
:100CD000840A0914091008088000840A09140910FC
:100CE00008088000840A0914091008088000840A92
:100CF0000914091008088000840A0914091008085A
:100D00008000840A0914091008088000840A091464
:100D1000091008088000840A0914091008088000D6
:100D2000840A0914091008088000840A09140910AB
:100D300008088000840A0914091008088000840A41
:100D40000914091008088000840A09140910080809
:100D50008000840A0914091008088000840A091414
:100D6000091008088000840A091409100808800086
:100D7000840A0914091008088000840A091409105B
:100D800008088000840A0914091008088000840AF1
:100D90000914091008088000840A091409100808B9
:100DA00080008417091409100808800084030914BE
:100DB000091008088000840309140910080880003D
:100DC0008403091409100808800084030914091019
:100DD00008088000840309140910080880008403AF
:100DE0000914091008088000840309140910080870
:100DF0008000840309140910080880008403091482
:100E000009100808800084030914091008088000EC
:100E100084030914091008088000840309140910C8
:100E2000080880008403091409100808800084035E
:100E3000091409100808800084030914091008081F
:100E40008000840309140910080880008403091431
:100E5000091008088000840309140910080880009C
:100E60008403091409100808800084030914091078
:100E7000080880008403091409100808800084030E
:100E800009140910080880008403091409100808CF
:100E900080008403091409100808800084030914E1
:100EA000091008088000840309140910080880004C
:100EB0008403091409100808800084030914091028
:100EC00008088000840309140910080880008403BE
:100ED000091409100808800084030914091008087F
:100EE0008000840309140910080880008403091491
:100EF00009100808800084030914091008088000FC
:100F000084030914091008088000840309140910D7
:100F1000080880008403091409100808800084036D
:100F2000091409100808800084030914091008082E
:100F30008000840309140910080880008403091440
:100F400009100808800084030914091008088000AB
:100F50008403091409100808800084030914091087
:100F6000080880008403091409100808800084031D
:100F700009140910080880008403091409100808DE
:100F800080008403091409100808800084030914F0
:100F9000091008088000840309140910080880005B
:100FA0008403091409100808800084030914091037
:100FB00008088000840309140910080880008403CD
:100FC000091409100808800084030914091008088E
:100FD00080008403091409100808800084030914A0
:100FE000091008088000840309140910080880000B
:100FF00084030914091008088000840309140910E7
:10100000080880008403091409100808800084037C
:10101000091409100808800084030914091008083D
:10102000800083170914091008088000840A091435
:10103000091008088000840A0914091008088000B3
:10104000840A0914091008088000840A0914091088
:1010500008088000840A0914091008088000840A1E
:101060000914091008088000840A091409100808E6
:101070008000840A0914091008088000840A0914F1
:10108000091008088000840A091409100808800063
:10109000840A0914091008088000840A0914091038
:1010A00008088000840A0914091008088000840ACE
:1010B0000914091008088000840A09140910080896
:1010C0008000840A0914091008088000840A0914A1
:1010D000091008088000840A091409100808800013
:1010E000840A0914091008088000840A09140910E8
:1010F00008088000840A0914091008088000840A7E
:101100000914091008088000840A09140910080845
:101110008000840A0914091008088000840A091450
:10112000091008088000840A0914091008088000C2
:10113000840A0914091008088000840A0914091097
:1011400008088000840A0914091008088000840A2D
:101150000914091008088000840A091409100808F5
:101160008000840A0914091008088000840A091400
:10117000091008088000840A091409100808800072
:10118000840A0914091008088000840A0914091047
:1011900008088000840A0914091008088000840ADD
:1011A0000914091008088000840A091409100808A5
:1011B0008000840A0914091008088000840A0914B0
:1011C000091008088000840A091409100808800022
:1011D000840A0914091008088000840A09140910F7
:1011E00008088000840A0914091008088000840A8D
:1011F0000914091008088000840A09140910080855
:101200008000840A0914091008088000840A09145F
:10121000091008088000840A0914091008088000D1
:10122000840A0914091008088000840A09140910A6
:1012300008088000840A0914091008088000840A3C
:101240000914091008088000840A09140910080804
:101250008000840A0914091008088000840A09140F
:10126000091008088000840A091409100808800081
:10127000840A0914091008088000840A0914091056
:1012800008088000840A0914091008088000840AEC
:101290000914091008088000840A091409100808B4
:1012A00080008413091409100808800084030914BD
:1012B0000910080880008403091409100808800038
:1012C0008403091409100808800084030914091014
:1012D00008088000840309140910080880008403AA
:1012E000091409100808800084030914091008086B
:1012F000800084030914091008088000840309147D
:1013000009100808800084030914091008088000E7
:1013100084030914091008088000840309140910C3
:101320000808800084030914091008088000840359
:10133000091409100808800084030914091008081A
:10134000800084030914091008088000840309142C
:101350000910080880008403091409100808800097
:101360008403091409100808800084030914091073
:101370000808800084030914091008088000840309
:1013800009140910080880008403091409100808CA
:1013900080008403091409100808800084030914DC
:1013A0000910080880008403091409100808800047
:1013B0008403091409100808800084030914091023
:1013C00008088000840309140910080880008403B9
:1013D000091409100808800084030914091008087A
:1013E000800084030914091008088000840309148C
:1013F00009100808800084030914091008088000F7
:1014000084030914091008088000840309140910D2
:101410000808800084030914091008088000840368
:101420000914091008088000840309140910080829
:10143000800084030914091008088000840309143B
:1014400009100808800084030914091008088000A6
:101450008403091409100808800084030914091082
:101460000808800084030914091008088000840318
:1014700009140910080880008403091409100808D9
:1014800080008403091409100808800084030914EB
:101490000910080880008403091409100808800056
:1014A0008403091409100808800084030914091032
:1014B00008088000840309140910080880008403C8
:1014C0000914091008088000840309140910080889
:1014D000800084030914091008088000840309149B
:1014E0000910080880008403091409100808800006
:1014F00084030914091008088000840309140910E2
:101500000808800084030914091008088000840377
:1015100009140910080880008403091408088A11B6
:101520000A123A2909108914203084000808091485
:10153000091089108000840A080809140910891408
:101540008000840A08080914091089108000840AA0
:1015500008080914091089148000840A080809146D
:10156000091089108000840A0808091409108914D8
:101570008000840A08080914091089108000840A70
:1015800008080914091089148000840A080809143D
:10159000091089108000840A0808091409108914A8
:1015A0008000840A08080914091089108000840A40
:1015B00008080914091089148000840A080809140D
:1015C000091089108000840A080809140910891478
:1015D0008000840A08080914091089108000840A10
:1015E00008080914091089148000840A08080914DD
:1015F000091089108000840A080809140910891448
:101600008000840A08080914091089108000840ADF
:1016100008080914091089148000840A08080914AC
:10162000091089108000840A080809140910891417
:101630008000840A08080914091089108000840AAF
:1016400008080914091089148000840A080809147C
:10165000091089108000840A0808091409108914E7
:101660008000840A08080914091089108000840A7F
:1016700008080914091089148000840A080809144C
:10168000091089108000840A0808091409108914B7
:101690008000840A08080914091089108000840A4F
:1016A00008080914091089148000840A080809141C
:1016B000091089108000840A080809140910891487
:1016C0008000840A08080914091089108000840A1F
:1016D00008080914091089148000840A08080914EC
:1016E000091089108000840A080809140910891457
:1016F0008000840A08080914091089108000840AEF
:1017000008080914091089148000840A08080914BB
:10171000091089108000840A080809140910891426
:101720008000840A08080914091089108000840ABE
:1017300008080914091089148000840A080809148B
:10174000091089108000840A0808091409108914F6
:101750008000840A08080914091089108000840A8E
:1017600008080914091089148000840A080809145B
:10177000091089108000840A0808091409108914C6
:101780008000840A08080914091089108000840A5E
:1017900008080914091089148000840A080809142B
:1017A000091089108000840A080809140910891496
:1017B0008000840A08080914091089108000840A2E
:1017C00008080914091089148000840A08080914FB
:1017D000091089108000840A080809140910891466
:1017E0008000840A08080914091089108000840AFE
:1017F00008080914091089148000840A08080914CB
:10180000091089108000840A080809140910891435
:101810008000840A08080914091089108000840ACD
:10182000080809140910891480008417080809148D
:10183000091089108000840308080914091089140C
:1018400080008403080809140910891080008403AB
:101850000808091409108914800084030808091471
:1018600009108910800084030808091409108914DC
:10187000800084030808091409108910800084037B
:101880000808091409108914800084030808091441
:1018900009108910800084030808091409108914AC
:1018A000800084030808091409108910800084034B
:1018B0000808091409108914800084030808091411
:1018C000091089108000840308080914091089147C
:1018D000800084030808091409108910800084031B
:1018E00008080914091089148000840308080914E1
:1018F000091089108000840308080914091089144C
:1019000080008403080809140910891080008403EA
:1019100008080914091089148000840308080914B0
:10192000091089108000840308080914091089141B
:1019300080008403080809140910891080008403BA
:101940000808091409108914800084030808091480
:1019500009108910800084030808091409108914EB
:10196000800084030808091409108910800084038A
:101970000808091409108914800084030808091450
:1019800009108910800084030808091409108914BB
:10199000800084030808091409108910800084035A
:1019A0000808091409108914800084030808091420
:1019B000091089108000840308080914091089148B
:1019C000800084030808091409108910800084032A
:1019D00008080914091089148000840308080914F0
:1019E000091089108000840308080914091089145B
:1019F00080008403080809140910891080008403FA
:101A000008080914091089148000840308080914BF
:101A1000091089108000840308080914091089142A
:101A200080008403080809140910891080008403C9
:101A3000080809140910891480008403080809148F
:101A400009108910800084030808091409108914FA
:101A50008000840308080914091089108000840399
:101A6000080809140910891480008403080809145F
:101A700009108910800084030808091409108914CA
:101A80008000840308080914091089108000840369
:101A9000080809140910891480008403080809142F
:101AA000091089108000840308080914091089149A
:101AB0008000840308080914091089108000840339
:101AC00008080914091089148000840308080914FF
:101AD000091089108000840308080914091089146A
:101AE0008000840308080914091089108000840309
:101AF00008080914091089148000840308080914CF
:101B00000910891080008403080809140910891439
:101B100080008403080809140910891080008403D8
:101B2000080809140910891480008317080809148B
:101B3000091089108000840A080809140910891402
:101B40008000840A08080914091089108000840A9A
:101B500008080914091089148000840A0808091467
:101B6000091089108000840A0808091409108914D2
:101B70008000840A08080914091089108000840A6A
:101B800008080914091089148000840A0808091437
:101B9000091089108000840A0808091409108914A2
:101BA0008000840A08080914091089108000840A3A
:101BB00008080914091089148000840A0808091407
:101BC000091089108000840A080809140910891472
:101BD0008000840A08080914091089108000840A0A
:101BE00008080914091089148000840A08080914D7
:101BF000091089108000840A080809140910891442
:101C00008000840A08080914091089108000840AD9
:101C100008080914091089148000840A08080914A6
:101C2000091089108000840A080809140910891411
:101C30008000840A08080914091089108000840AA9
:101C400008080914091089148000840A0808091476
:101C5000091089108000840A0808091409108914E1
:101C60008000840A08080914091089108000840A79
:101C700008080914091089148000840A0808091446
:101C8000091089108000840A0808091409108914B1
:101C90008000840A08080914091089108000840A49
:101CA00008080914091089148000840A0808091416
:101CB000091089108000840A080809140910891481
:101CC0008000840A08080914091089108000840A19
:101CD00008080914091089148000840A08080914E6
:101CE000091089108000840A080809140910891451
:101CF0008000840A08080914091089108000840AE9
:101D000008080914091089148000840A08080914B5
:101D1000091089108000840A080809140910891420
:101D20008000840A08080914091089108000840AB8
:101D300008080914091089148000840A0808091485
:101D4000091089108000840A0808091409108914F0
:101D50008000840A08080914091089108000840A88
:101D600008080914091089148000840A0808091455
:101D7000091089108000840A0808091409108914C0
:101D80008000840A08080914091089108000840A58
:101D900008080914091089148000840A0808091425
:101DA000091089108000840A080809140910891490
:101DB0008000840A08080914091089108000840A28
:101DC00008080914091089148000840A08080914F5
:101DD000091089108000840A080809140910891460
:101DE0008000840A08080914091089108000840AF8
:101DF00008080914091089148000840A08080914C5
:101E0000091089108000840A08080914091089142F
:101E10008000840A08080914091089108000840AC7
:101E2000080809140910891480008413080809148B
:101E30000910891080008403080809140910891406
:101E400080008403080809140910891080008403A5
:101E5000080809140910891480008403080809146B
:101E600009108910800084030808091409108914D6
:101E70008000840308080914091089108000840375
:101E8000080809140910891480008403080809143B
:101E900009108910800084030808091409108914A6
:101EA0008000840308080914091089108000840345
:101EB000080809140910891480008403080809140B
:101EC0000910891080008403080809140910891476
:101ED0008000840308080914091089108000840315
:101EE00008080914091089148000840308080914DB
:101EF0000910891080008403080809140910891446
:101F000080008403080809140910891080008403E4
:101F100008080914091089148000840308080914AA
:101F20000910891080008403080809140910891415
:101F300080008403080809140910891080008403B4
:101F4000080809140910891480008403080809147A
:101F500009108910800084030808091409108914E5
:101F60008000840308080914091089108000840384
:101F7000080809140910891480008403080809144A
:101F800009108910800084030808091409108914B5
:101F90008000840308080914091089108000840354
:101FA000080809140910891480008403080809141A
:101FB0000910891080008403080809140910891485
:101FC0008000840308080914091089108000840324
:101FD00008080914091089148000840308080914EA
:101FE0000910891080008403080809140910891455
:101FF00080008403080809140910891080008403F4
:1020000008080914091089148000840308080914B9
:102010000910891080008403080809140910891424
:1020200080008403080809140910891080008403C3
:102030000808091409108914800084030808091489
:1020400009108910800084030808091409108914F4
:102050008000840308080914091089108000840393
:102060000808091409108914800084030808091459
:1020700009108910800084030808091409108914C4
:102080008000840308080914091089108000840363
:102090000808091409108914800084030808091429
:1020A0000910891080008403080809140910891494
:1020B0008000840308080914091089108000840333
:1020C00008080914091089148000840308080914F9
:1020D0000910891080008403080809140910891464
:1020E0008000840308080914091089108000840303
:1020F00008080914091089148000840308080914C9
:102100000910891080008403080809140910891433
:1021100080008403080809140910891080008403D2
:10212000080809148A110A123A290910203084007B
:1021300000000808091409108000840A000008083B
:10214000091409108000840A000008080914091005
:102150008000840A00000808091409108000840A1D
:1021600000000808091409108000840A000008080B
:10217000091409108000840A0000080809140910D5
:102180008000840A00000808091409108000840AED
:1021900000000808091409108000840A00000808DB
:1021A000091409108000840A0000080809140910A5
:1021B0008000840A00000808091409108000840ABD
:1021C00000000808091409108000840A00000808AB
:1021D000091409108000840A000008080914091075
:1021E0008000840A00000808091409108000840A8D
:1021F00000000808091409108000840A000008087B
:10220000091409108000840A000008080914091044
:102210008000840A00000808091409108000840A5C
:1022200000000808091409108000840A000008084A
:10223000091409108000840A000008080914091014
:102240008000840A00000808091409108000840A2C
:1022500000000808091409108000840A000008081A
:10226000091409108000840A0000080809140910E4
:102270008000840A00000808091409108000840AFC
:1022800000000808091409108000840A00000808EA
:10229000091409108000840A0000080809140910B4
:1022A0008000840A00000808091409108000840ACC
:1022B00000000808091409108000840A00000808BA
:1022C000091409108000840A000008080914091084
:1022D0008000840A00000808091409108000840A9C
:1022E00000000808091409108000840A000008088A
:1022F000091409108000840A000008080914091054
:102300008000840A00000808091409108000840A6B
:1023100000000808091409108000840A0000080859
:10232000091409108000840A000008080914091023
:102330008000840A00000808091409108000840A3B
:1023400000000808091409108000840A0000080829
:10235000091409108000840A0000080809140910F3
:102360008000840A00000808091409108000840A0B
:1023700000000808091409108000840A00000808F9
:10238000091409108000840A0000080809140910C3
:102390008000840A00000808091409108000840ADB
:1023A00000000808091409108000840A00000808C9
:1023B000091409108000840A000008080914091093
:1023C0008000840A00000808091409108000840AAB
:1023D00000000808091409108000840A0000080899
:1023E000091409108000840A000008080914091063
:1023F0008000840A00000808091409108000840A7B
:1024000000000808091409108000840A0000080868
:10241000091409108000840A000008080914091032
:102420008000840A0000080809140910800084173D
:10243000000008080914091080008403000008083F
:102440000914091080008403000008080914091009
:102450008000840300000808091409108000840328
:10246000000008080914091080008403000008080F
:1024700009140910800084030000080809140910D9
:1024800080008403000008080914091080008403F8
:1024900000000808091409108000840300000808DF
:1024A00009140910800084030000080809140910A9
:1024B00080008403000008080914091080008403C8
:1024C00000000808091409108000840300000808AF
:1024D0000914091080008403000008080914091079
:1024E0008000840300000808091409108000840398
:1024F000000008080914091080008403000008087F
:102500000914091080008403000008080914091048
:102510008000840300000808091409108000840367
:10252000000008080914091080008403000008084E
:102530000914091080008403000008080914091018
:102540008000840300000808091409108000840337
:10255000000008080914091080008403000008081E
:1025600009140910800084030000080809140910E8
:102570008000840300000808091409108000840307
:1025800000000808091409108000840300000808EE
:1025900009140910800084030000080809140910B8
:1025A00080008403000008080914091080008403D7
:1025B00000000808091409108000840300000808BE
:1025C0000914091080008403000008080914091088
:1025D00080008403000008080914091080008403A7
:1025E000000008080914091080008403000008088E
:1025F0000914091080008403000008080914091058
:102600008000840300000808091409108000840376
:10261000000008080914091080008403000008085D
:102620000914091080008403000008080914091027
:102630008000840300000808091409108000840346
:10264000000008080914091080008403000008082D
:1026500009140910800084030000080809140910F7
:102660008000840300000808091409108000840316
:1026700000000808091409108000840300000808FD
:1026800009140910800084030000080809140910C7
:1026900080008403000008080914091080008403E6
:1026A00000000808091409108000840300000808CD
:1026B0000914091080008403000008080914091097
:1026C00080008403000008080914091080008403B6
:1026D000000008080914091080008403000008089D
:1026E0000914091080008403000008080914091067
:1026F0008000840300000808091409108000840386
:10270000000008080914091080008403000008086C
:102710000914091080008403000008080914091036
:102720008000840300000808091409108000831742
:1027300000000808091409108000840A0000080835
:10274000091409108000840A0000080809140910FF
:102750008000840A00000808091409108000840A17
:1027600000000808091409108000840A0000080805
:10277000091409108000840A0000080809140910CF
:102780008000840A00000808091409108000840AE7
:1027900000000808091409108000840A00000808D5
:1027A000091409108000840A00000808091409109F
:1027B0008000840A00000808091409108000840AB7
:1027C00000000808091409108000840A00000808A5
:1027D000091409108000840A00000808091409106F
:1027E0008000840A00000808091409108000840A87
:1027F00000000808091409108000840A0000080875
:10280000091409108000840A00000808091409103E
:102810008000840A00000808091409108000840A56
:1028200000000808091409108000840A0000080844
:10283000091409108000840A00000808091409100E
:102840008000840A00000808091409108000840A26
:1028500000000808091409108000840A0000080814
:10286000091409108000840A0000080809140910DE
:102870008000840A00000808091409108000840AF6
:1028800000000808091409108000840A00000808E4
:10289000091409108000840A0000080809140910AE
:1028A0008000840A00000808091409108000840AC6
:1028B00000000808091409108000840A00000808B4
:1028C000091409108000840A00000808091409107E
:1028D0008000840A00000808091409108000840A96
:1028E00000000808091409108000840A0000080884
:1028F000091409108000840A00000808091409104E
:102900008000840A00000808091409108000840A65
:1029100000000808091409108000840A0000080853
:10292000091409108000840A00000808091409101D
:102930008000840A00000808091409108000840A35
:1029400000000808091409108000840A0000080823
:10295000091409108000840A0000080809140910ED
:102960008000840A00000808091409108000840A05
:1029700000000808091409108000840A00000808F3
:10298000091409108000840A0000080809140910BD
:102990008000840A00000808091409108000840AD5
:1029A00000000808091409108000840A00000808C3
:1029B000091409108000840A00000808091409108D
:1029C0008000840A00000808091409108000840AA5
:1029D00000000808091409108000840A0000080893
:1029E000091409108000840A00000808091409105D
:1029F0008000840A00000808091409108000840A75
:102A000000000808091409108000840A0000080862
:102A1000091409108000840A00000808091409102C
:102A20008000840A0000080809140910800084133B
:102A30000000080809140910800084030000080839
:102A40000914091080008403000008080914091003
:102A50008000840300000808091409108000840322
:102A60000000080809140910800084030000080809
:102A700009140910800084030000080809140910D3
:102A800080008403000008080914091080008403F2
:102A900000000808091409108000840300000808D9
:102AA00009140910800084030000080809140910A3
:102AB00080008403000008080914091080008403C2
:102AC00000000808091409108000840300000808A9
:102AD0000914091080008403000008080914091073
:102AE0008000840300000808091409108000840392
:102AF0000000080809140910800084030000080879
:102B00000914091080008403000008080914091042
:102B10008000840300000808091409108000840361
:102B20000000080809140910800084030000080848
:102B30000914091080008403000008080914091012
:102B40008000840300000808091409108000840331
:102B50000000080809140910800084030000080818
:102B600009140910800084030000080809140910E2
:102B70008000840300000808091409108000840301
:102B800000000808091409108000840300000808E8
:102B900009140910800084030000080809140910B2
:102BA00080008403000008080914091080008403D1
:102BB00000000808091409108000840300000808B8
:102BC0000914091080008403000008080914091082
:102BD00080008403000008080914091080008403A1
:102BE0000000080809140910800084030000080888
:102BF0000914091080008403000008080914091052
:102C00008000840300000808091409108000840370
:102C10000000080809140910800084030000080857
:102C20000914091080008403000008080914091021
:102C30008000840300000808091409108000840340
:102C40000000080809140910800084030000080827
:102C500009140910800084030000080809140910F1
:102C60008000840300000808091409108000840310
:102C700000000808091409108000840300000808F7
:102C800009140910800084030000080809140910C1
:102C900080008403000008080914091080008403E0
:102CA00000000808091409108000840300000808C7
:102CB0000914091080008403000008080914091091
:102CC00080008403000008080914091080008403B0
:102CD0000000080809140910800084030000080897
:102CE0000914091080008403000008080914091061
:102CF0008000840300000808091409108000840380
:102D00000000080809140910800084030000080866
:102D10000914091080008403000008080914091030
:102D2000800084030000080809148A110A123A2955
:102D300016308A00790882070A168A11AB2E0A1605
:102D40008A11BB2F0A168A15BE280A168A15C129B0
:102D50000A168A15C52A09102030840000000914BB
:102D6000091008088000840A091409100808800066
:102D7000840A0914091008088000840A091409103B
:102D800008088000840A0914091008088000840AD1
:102D90000914091008088000840A09140910080899
:102DA0008000840A0914091008088000840A0914A4
:102DB000091008088000840A091409100808800016
:102DC000840A0914091008088000840A09140910EB
:102DD00008088000840A0914091008088000840A81
:102DE0000914091008088000840A09140910080849
:102DF0008000840A0914091008088000840A091454
:102E0000091008088000840A0914091008088000C5
:102E1000840A0914091008088000840A091409109A
:102E200008088000840A0914091008088000840A30
:102E30000914091008088000840A091409100808F8
:102E40008000840A0914091008088000840A091403
:102E5000091008088000840A091409100808800075
:102E6000840A0914091008088000840A091409104A
:102E700008088000840A0914091008088000840AE0
:102E80000914091008088000840A091409100808A8
:102E90008000840A0914091008088000840A0914B3
:102EA000091008088000840A091409100808800025
:102EB000840A0914091008088000840A09140910FA
:102EC00008088000840A0914091008088000840A90
:102ED0000914091008088000840A09140910080858
:102EE0008000840A0914091008088000840A091463
:102EF000091008088000840A0914091008088000D5
:102F0000840A0914091008088000840A09140910A9
:102F100008088000840A0914091008088000840A3F
:102F20000914091008088000840A09140910080807
:102F30008000840A0914091008088000840A091412
:102F4000091008088000840A091409100808800084
:102F5000840A0914091008088000840A0914080862
:102F60008000840AB52F800084030330F90786149B
:102F70000A128A118C2800000910BE2F00000914C3
:102F8000091008088000840A091409100808800044
:102F9000840A0914091008088000840A0914091019
:102FA00008088000840A0914091008088000840AAF
:102FB0000914091008088000840A09140910080877
:102FC0008000840A0914091008088000840A091482
:102FD000091008088000840A0914091008088000F4
:102FE000840A0914091008088000840A09140910C9
:102FF0000808800084170914091008088000840359
:10300000091409100808800084030914091008082D
:10301000800084030914091008088000840309143F
:1030200009100808800084030914091008088000AA
:103030008403091409100808800084030914091086
:10304000080880008403091409100808800084031C
:1030500009140910080880008403091409100808DD
:1030600080008403091409100808800084030914EF
:10307000091008088000840309140910080880005A
:103080008403091409100808800084030914091036
:1030900008088000840309140910080880008403CC
:1030A000091409100808800084030914091008088D
:1030B000800084030914091008088000840309149F
:1030C000091008088000840309140910080880000A
:1030D00084030914091008088000840309140910E6
:1030E000080880008403091409100808800084037C
:1030F000091409100808800084030914091008083D
:10310000800084030914091008088000840309144E
:1031100009100808800084030914091008088000B9
:103120008403091409100808800084030914091095
:10313000080880008403091409100808800084032B
:1031400009140910080880008403091409100808EC
:1031500080008403091409100808800084030914FE
:103160000910080880008403091409100808800069
:103170008403091408080A168A11B32FBF280910FE
:10318000C1280000091409100808800084030914EC
:103190000910080880008403091409100808800039
:1031A0008403091409100808800084030914091015
:1031B00008088000840309140910080880008403AB
:1031C000091409100808800084030914091008086C
:1031D000800084030914091008088000840309147E
:1031E00009100808800084030914091008088000E9
:1031F00084030914091008088000840309140910C5
:10320000080880008403091409100808800084035A
:10321000091409100808800084030914091008081B
:10322000800084030914091008088000840309142D
:103230000910080880008403091409100808800098
:103240008403091409100808800084030914091074
:10325000080880008403091409100808800084030A
:1032600009140910080880008403091409100808CB
:1032700080008403091409100808800083170914CA
:10328000091008088000840A091409100808800041
:10329000840A0914091008088000840A0914091016
:1032A00008088000840A0914091008088000840AAC
:1032B0000914091008088000840A09140910080874
:1032C0008000840A0914091008088000840A09147F
:1032D000091008088000840A0914091008088000F1
:1032E000840A0914091008088000840A09140910C6
:1032F00008088000840A0914091008088000840A5C
:103300000914091008088000840A09140910080823
:103310008000840A0914091008088000840A09142E
:10332000091008088000840A0914091008088000A0
:10333000840A0914091008088000840A0914091075
:1033400008088000840A0914091008088000840A0B
:103350000914091008088000840A091409100808D3
:103360008000840A0914091008088000840A0914DE
:10337000091008088000840A091408080A168A112E
:10338000B02FC22900000910C52900000914091036
:1033900008088000840A0914091008088000840ABB
:1033A0000914091008088000840A09140910080883
:1033B0008000840A0914091008088000840A09148E
:1033C000091008088000840A091409100808800000
:1033D000840A0914091008088000840A09140910D5
:1033E00008088000840A0914091008088000840A6B
:1033F0000914091008088000840A09140910080833
:103400008000840A0914091008088000840A09143D
:10341000091008088000840A0914091008088000AF
:10342000840A0914091008088000840A0914091084
:1034300008088000840A0914091008088000840A1A
:103440000914091008088000840A091409100808E2
:103450008000840A0914091008088000840A0914ED
:10346000091008088000840A09140910080880005F
:10347000840A0914091008088000840A0914091034
:1034800008088000840A0914091008088000840ACA
:103490000914091008088000840A09140910080892
:1034A0008000840A0914091008088000840A09149D
:1034B000091008088000840A09140910080880000F
:1034C000840A0914091008088000840A09140910E4
:1034D00008088000840A0914091008088000840A7A
:1034E0000914091008088000840A09140910080842
:1034F0008000840A0914091008088000840A09144D
:1035000009100808800084130914091008088000B5
:1035100084030914091008088000840309140910A1
:103520000808800084030914091008088000840337
:1035300009140910080880008403091409100808F8
:10354000800084030914091008088000840309140A
:103550000910080880008403091409100808800075
:103560008403091409100808800084030914091051
:1035700008088000840309140910080880008403E7
:10358000091408080A168A11B32FC62A0A128A15C6
:103590000910000093291A308A00790882070A1658
:1035A0008A15D82A0A168A15DF2C0A168A15E02EE3
:1035B0000910203084000000080809140910800058
:1035C000840A00000808091409108000840A000019
:1035D0000808091409108000840A0000080809146A
:1035E00009108000840A00000808091409108000EE
:1035F000840A00000808091409108000840A0000E9
:103600000808091409108000840A00000808091439
:1036100009108000840A00000808091409108000BD
:10362000840A00000808091409108000840A0000B8
:103630000808091409108000840A00000808091409
:1036400009108000840A000008080914091080008D
:10365000840A00000808091409108000840A000088
:103660000808091409108000840A000008080914D9
:1036700009108000840A000008080914091080005D
:10368000840A00000808091409108000840A000058
:103690000808091409108000840A000008080914A9
:1036A00009108000840A000008080914091080002D
:1036B000840A00000808091409108000840A000028
:1036C0000808091409108000840A00000808091479
:1036D00009108000840A00000808091409108000FD
:1036E000840A00000808091409108000840A0000F8
:1036F0000808091409108000840A00000808091449
:1037000009108000840A00000808091409108000CC
:10371000840A00000808091409108000840A0000C7
:103720000808091409108000840A00000808091418
:1037300009108000840A000008080914091080009C
:10374000840A00000808091409108000840A000097
:103750000808091409108000840A000008080914E8
:1037600009108000840A000008080914091080006C
:10377000840A00000808091409108000840A000067
:103780000808091409108000840A000008080914B8
:1037900009108000840A000008080914091080003C
:1037A000840A00000808091409108000840A000037
:1037B0000808091409108000840A00000808091488
:1037C00009108000840A000008080914091080000C
:1037D000840A00000808091409108000840A000007
:1037E0000808091409108000840A00000808091458
:1037F00009108000840A00000808091409108000DC
:10380000840A00000808091409108000840A0000D6
:103810000808091409108000840A00000808091427
:1038200009108000840A00000808091409108000AB
:10383000840A00000808091409108000840A0000A6
:103840000808091409108000840A000008080914F7
:1038500009108000840A000008080914091080007B
:10386000840A00000808091409108000840A000076
:103870000808091409108000840A000008080914C7
:1038800009108000840A000008080914091080004B
:10389000840A00000808091409108000840A000046
:1038A0000808091409108000840A00000808091497
:1038B000091080008417000008080914091080000E
:1038C0008403000008080914091080008403000024
:1038D000080809140910800084030000080809146E
:1038E00009108000840300000808091409108000F2
:1038F00084030000080809140910800084030000F4
:10390000080809140910800084030000080809143D
:1039100009108000840300000808091409108000C1
:1039200084030000080809140910800084030000C3
:10393000080809140910800084030000080809140D
:103940000910800084030000080809140910800091
:103950008403000008080914091080008403000093
:1039600008080914091080008403000008080914DD
:103970000910800084030000080809140910800061
:103980008403000008080914091080008403000063
:1039900008080914091080008403000008080914AD
:1039A0000910800084030000080809140910800031
:1039B00084030000080809140A168A11B32FE02CAA
:1039C0000910E22C00000808091409108000840383
:1039D000000008080914091080008403000008088A
:1039E0000914091080008403000008080914091054
:1039F0008000840300000808091409108000840373
:103A00000000080809140910800084030000080859
:103A10000914091080008403000008080914091023
:103A20008000840300000808091409108000840342
:103A30000000080809140910800084030000080829
:103A400009140910800084030000080809140910F3
:103A50008000840300000808091409108000840312
:103A600000000808091409108000840300000808F9
:103A700009140910800084030000080809140910C3
:103A800080008403000008080914091080008403E2
:103A900000000808091409108000840300000808C9
:103AA0000914091080008403000008080914091093
:103AB00080008403000008080914091080008403B2
:103AC0000000080809140910800084030000080899
:103AD0000914091080008403000008080914091063
:103AE0008000840300000808091409108000840382
:103AF0000000080809140910800084030000080869
:103B00000914091080008403000008080914091032
:103B10008000840300000808091409108000840351
:103B20000000080809140910800084030000080838
:103B30000914091080008403000008080914091002
:103B40008000840300000808091409108000840321
:103B50000000080809140910800084030000080808
:103B600009140910800084030000080809140910D2
:103B700080008403000008080914091080008403F1
:103B800000000808091409108000840300000808D8
:103B900009140910800084030000080809140910A2
:103BA00080008403000008080914091080008403C1
:103BB0000000080809140910800083170000080895
:103BC000091409108000840A00000808091409106B
:103BD0008000840A00000808091409108000840A83
:103BE00000000808091409108000840A0000080871
:103BF000091409108000840A00000808091409103B
:103C00008000840A00000808091409108000840A52
:103C100000000808091409108000840A0000080840
:103C2000091409108000840A00000808091409100A
:103C30008000840A00000808091409108000840A22
:103C400000000808091409108000840A0000080810
:103C5000091409108000840A0000080809140910DA
:103C60008000840A00000808091409108000840AF2
:103C700000000808091409108000840A00000808E0
:103C8000091409108000840A0000080809140910AA
:103C90008000840A00000808091409108000840AC2
:103CA00000000808091409108000840A00000808B0
:103CB000091409108000840A00000808091409107A
:103CC0008000840A00000808091409108000840A92
:103CD00000000808091409108000840A0000080880
:103CE000091409108000840A00000808091409104A
:103CF0008000840A00000808091409108000840A62
:103D000000000808091409108000840A000008084F
:103D1000091409108000840A000008080914091019
:103D20008000840A00000808091409108000840A31
:103D300000000808091409108000840A000008081F
:103D4000091409108000840A0000080809140910E9
:103D50008000840A00000808091409108000840A01
:103D600000000808091409108000840A00000808EF
:103D7000091409108000840A0000080809140910B9
:103D80008000840A00000808091409108000840AD1
:103D900000000808091409108000840A00000808BF
:103DA000091409108000840A000008080914091089
:103DB0008000840A0000080809140A168A11B02F2E
:0C3DC000E12E0A168A11091000009B2C4D
:084000000100020003000400AE
:02400E00F2209E
:02401000FF3F70
:00000001FF
