:020000040000FA
:10000000C6308900880189288312F60B0428F70B73
:100010000428F80B0428790882070A128A11F12BA8
:100020000A128A15F82E0A128A11B72A0A128A11A0
:10003000FA2A0A128A11FA2A0A128A11A9290A1618
:100040008A11FB2C0A168A152E290A128A15F52800
:100050000A128A115E2B0A128A115E2B0A128A1169
:10006000142A861E3128061A3C28061AFF34861ADE
:1000700035280230FC005628061E4328861A3C28E4
:100080000330FC005628861A4328FE3483160616D1
:100090008312861E4928061E4928061A4D28861EE8
:1000A0004928861A51280310FC017C14861E562804
:1000B0000310061A0314FC0D861A5C28031C56282C
:1000C0000612831606128312861E6428861A662874
:1000D000831606168312003406120830FB007228BD
:1000E000861A702883160616FC1F06128312861EB7
:1000F0007728FC0DFB0B7028861A7C2883160616C1
:100100008312861E81280030061AFF30861A862840
:1001100008008501831617308500C030810010303B
:100120008B0031308600FF308800043089000730B2
:100130009F00B930870014309900243098000C16C5
:100140008C1683129030980083139F01CE20FA0101
:1001500070088910701A89148A010F39F900031088
:10016000F90D79078610701F0C28F900730AF60044
:10017000720AF700710AF8008316011370088039BB
:10018000031D011783128B108B1752217C08F33A41
:10019000031DC528DC30FC005E21A62852217C0806
:1001A000F83A031D1629DC30FC005E212030840063
:1001B0004030F7000008FC00840A5E21FF39031D6F
:1001C0000A29F70BDA284030F70084178403000867
:1001D000FC0084035E21FF39031D0A29F70BE72881
:1001E0004030F7008317840A0008FC00840A5E216F
:1001F000FF39031D0A29F70BF4284030F700841358
:1002000084030008FC0084035E21FF39031D0A29D2
:10021000F70B0129841383137D08FC005E21FC0188
:100220005E215E217E08FC005E21CE287C08F93A22
:10023000031D3629DD30FC005E210130FC005E210B
:100240000030FC005E217008FC005E217108FC009B
:100250005E217208FC005E217308FC005E217408B8
:10026000FC005E217508FC005E21CE287C08FA3A6D
:10027000031DCE28DE30FC005E2155217C08DF39CD
:100280002038F00055217C08F10055217C08F2004F
:1002900055217C08F30055217C08F40055217C0889
:1002A000F5000800051D46285729051D53288C1EFA
:1002B00057291A08FC008C1A59290034051D6C288E
:1002C0000C1E60297C08990000340130F602031CE2
:1002D000F702F608031D6629F708031D66290800C2
:1002E000800086148313FD018316871007150512FD
:1002F00085168312871005127D17051C7D13851C3A
:100300007D13851CFD170718FD1587140516831628
:1003100087140711051685128312071185127D16A1
:10032000051C7D12851C7D12851CFD1607187D1588
:100330000715851689100615861186100910A02943
:100340000000080809148614891006118611FE00A1
:10035000A62809103F30F800203084007508F60008
:100360007408F700000065210808091409108000CE
:10037000840A7508F6007408F7006521F80BB429A3
:100380000000080809140910800084173F30F800A5
:100390007508F6007408F7006521000008080914C4
:1003A0000910800084037508F6007408F7006521C1
:1003B000F80BCE29000008080914091080008317E3
:1003C0003F30F8007508F6007408F700652100005A
:1003D0000808091409108000840A7508F6007408DA
:1003E000F7006521F80BE829000008080914091036
:1003F000800084133F30F8007508F6007408F70099
:10040000652100000808091409108000840375089C
:10041000F6007408F7006521F80B022A00000808AE
:1004200009148A110A1270290910891420308400D5
:1004300008080914091089108000840A1F30F80088
:100440007508F6007408F700652100000808091413
:10045000091089148000840A0808091409108910F9
:100460008000840A7508F6007408F7006521F80B0F
:10047000262A00000808091409108914800084172E
:100480000808091409108910800084031F30F8003F
:100490007508F6007408F7006521000008080914C3
:1004A00009108914800084030808091409108910B0
:1004B000800084037508F6007408F7006521F80BC6
:1004C0004E2A0000080809140910891480008317B7
:1004D00008080914091089108000840A1F30F800E8
:1004E0007508F6007408F700652100000808091473
:1004F000091089148000840A080809140910891059
:100500008000840A7508F6007408F7006521F80B6E
:10051000762A000008080914091089148000841341
:100520000808091409108910800084031F30F8009E
:100530007508F6007408F700652100000808091422
:10054000091089148000840308080914091089100F
:10055000800084037508F6007408F7006521F80B25
:100560009E2A0000080809148A110A12702909102D
:100570003F30F600203084000000080809140910FC
:100580008000840AF60BBD2A00000808091409102F
:10059000800084173F30F600000008080914091095
:1005A00080008403F60BCD2A000008080914091006
:1005B000800083173F30F600000008080914091076
:1005C0008000840AF60BDD2A0000080809140910CF
:1005D000800084133F30F600000008080914091059
:1005E00080008403F60BED2A0000080809148A1124
:1005F0000A12702909103F30F60020308400002BC9
:10060000701D032B59230808091409108000840A5F
:10061000701D0B2B59230000F60B032B000008085C
:1006200009140910800084173F30F600172B701D45
:100630001A2B592308080914091080008403701D1F
:10064000222B59230000F60B1A2B0000080809146E
:100650000910800083173F30F6002E2B701D312BC0
:1006600059230808091409108000840A701D392BC9
:1006700059230000F60B312B00000808091409105B
:10068000800084133F30F600452B701D482B592302
:1006900008080914091080008403701D502B592389
:1006A0000000F60B482B0000080809148A110A12F2
:1006B00070290000000000005D2B0800091089145B
:1006C0002030840008080914091089108000840A69
:1006D0001F30F800701C5B235D2308080914091003
:1006E00089148000840A0808091409108910800000
:1006F000840A701C5B237C2B0000F80B6D2B000020
:1007000008080914091089148000841708080914BE
:1007100009108910800084031F30F800701C5B23CF
:100720005D2308080914091089148000840308084F
:1007300009140910891080008403701C5B23A02B0E
:100740000000F80B912B0000080809140910891407
:100750008000831708080914091089108000840A92
:100760001F30F800701C5B235D2308080914091072
:1007700089148000840A080809140910891080006F
:10078000840A701C5B23C42B0000F80BB52B0000FF
:100790000808091409108914800084130808091432
:1007A00009108910800084031F30F800701C5B233F
:1007B0005D230808091409108914800084030808BF
:1007C00009140910891080008403701C5B23E82B36
:1007D0000000F80BD92B0000080809148A110A122E
:1007E000702909102030840000000914091008083D
:1007F0008000840A0914091008088000840A09147A
:10080000091008088000840A0914091008088000EB
:10081000840A0914091008088000840A09140910C0
:1008200008088000840A0914091008088000840A56
:100830000914091008088000840A0914091008081E
:100840008000840A0914091008088000840A091429
:10085000091008088000840A09140910080880009B
:10086000840A0914091008088000840A0914091070
:1008700008088000840A0914091008088000840A06
:100880000914091008088000840A091409100808CE
:100890008000840A0914091008088000840A0914D9
:1008A000091008088000840A09140910080880004B
:1008B000840A0914091008088000840A0914091020
:1008C00008088000840A0914091008088000840AB6
:1008D0000914091008088000840A0914091008087E
:1008E0008000840A0914091008088000840A091489
:1008F000091008088000840A0914091008088000FB
:10090000840A0914091008088000840A09140910CF
:1009100008088000840A0914091008088000840A65
:100920000914091008088000840A0914091008082D
:100930008000840A0914091008088000840A091438
:10094000091008088000840A0914091008088000AA
:10095000840A0914091008088000840A091409107F
:1009600008088000840A0914091008088000840A15
:100970000914091008088000840A091409100808DD
:100980008000840A0914091008088000840A0914E8
:10099000091008088000840A09140910080880005A
:1009A000840A0914091008088000840A091409102F
:1009B00008088000840A0914091008088000840AC5
:1009C0000914091008088000840A0914091008088D
:1009D0008000840A0914091008088000840A091498
:1009E000091008088000840A09140910080880000A
:1009F000840A0914091008088000840A09140910DF
:100A000008088000840A0914091008088000840A74
:100A10000914091008088000840A0914091008083C
:100A20008000840A0914091008088000840A091447
:100A3000091008088000840A0914091008088000B9
:100A4000840A0914091008088000840A091409108E
:100A500008088000840A0914091008088000840A24
:100A600009140910080880008417091409100808DF
:100A70008000840309140910080880008403091405
:100A80000910080880008403091409100808800070
:100A9000840309140910080880008403091409104C
:100AA00008088000840309140910080880008403E2
:100AB00009140910080880008403091409100808A3
:100AC00080008403091409100808800084030914B5
:100AD0000910080880008403091409100808800020
:100AE00084030914091008088000840309140910FC
:100AF0000808800084030914091008088000840392
:100B00000914091008088000840309140910080852
:100B10008000840309140910080880008403091464
:100B200009100808800084030914091008088000CF
:100B300084030914091008088000840309140910AB
:100B40000808800084030914091008088000840341
:100B50000914091008088000840309140910080802
:100B60008000840309140910080880008403091414
:100B7000091008088000840309140910080880007F
:100B8000840309140910080880008403091409105B
:100B900008088000840309140910080880008403F1
:100BA00009140910080880008403091409100808B2
:100BB00080008403091409100808800084030914C4
:100BC000091008088000840309140910080880002F
:100BD000840309140910080880008403091409100B
:100BE00008088000840309140910080880008403A1
:100BF0000914091008088000840309140910080862
:100C00008000840309140910080880008403091473
:100C100009100808800084030914091008088000DE
:100C200084030914091008088000840309140910BA
:100C30000808800084030914091008088000840350
:100C40000914091008088000840309140910080811
:100C50008000840309140910080880008403091423
:100C6000091008088000840309140910080880008E
:100C7000840309140910080880008403091409106A
:100C80000808800084030914091008088000840300
:100C900009140910080880008403091409100808C1
:100CA00080008403091409100808800084030914D3
:100CB000091008088000840309140910080880003E
:100CC000840309140910080880008403091409101A
:100CD00008088000840309140910080880008403B0
:100CE000091409100808800083170914091008085E
:100CF0008000840A0914091008088000840A091475
:100D0000091008088000840A0914091008088000E6
:100D1000840A0914091008088000840A09140910BB
:100D200008088000840A0914091008088000840A51
:100D30000914091008088000840A09140910080819
:100D40008000840A0914091008088000840A091424
:100D5000091008088000840A091409100808800096
:100D6000840A0914091008088000840A091409106B
:100D700008088000840A0914091008088000840A01
:100D80000914091008088000840A091409100808C9
:100D90008000840A0914091008088000840A0914D4
:100DA000091008088000840A091409100808800046
:100DB000840A0914091008088000840A091409101B
:100DC00008088000840A0914091008088000840AB1
:100DD0000914091008088000840A09140910080879
:100DE0008000840A0914091008088000840A091484
:100DF000091008088000840A0914091008088000F6
:100E0000840A0914091008088000840A09140910CA
:100E100008088000840A0914091008088000840A60
:100E20000914091008088000840A09140910080828
:100E30008000840A0914091008088000840A091433
:100E4000091008088000840A0914091008088000A5
:100E5000840A0914091008088000840A091409107A
:100E600008088000840A0914091008088000840A10
:100E70000914091008088000840A091409100808D8
:100E80008000840A0914091008088000840A0914E3
:100E9000091008088000840A091409100808800055
:100EA000840A0914091008088000840A091409102A
:100EB00008088000840A0914091008088000840AC0
:100EC0000914091008088000840A09140910080888
:100ED0008000840A0914091008088000840A091493
:100EE000091008088000840A091409100808800005
:100EF000840A0914091008088000840A09140910DA
:100F000008088000840A0914091008088000840A6F
:100F10000914091008088000840A09140910080837
:100F20008000840A0914091008088000840A091442
:100F3000091008088000840A0914091008088000B4
:100F4000840A0914091008088000840A0914091089
:100F500008088000840A0914091008088000840A1F
:100F600009140910080880008413091409100808DE
:100F70008000840309140910080880008403091400
:100F8000091008088000840309140910080880006B
:100F90008403091409100808800084030914091047
:100FA00008088000840309140910080880008403DD
:100FB000091409100808800084030914091008089E
:100FC00080008403091409100808800084030914B0
:100FD000091008088000840309140910080880001B
:100FE00084030914091008088000840309140910F7
:100FF000080880008403091409100808800084038D
:10100000091409100808800084030914091008084D
:10101000800084030914091008088000840309145F
:1010200009100808800084030914091008088000CA
:1010300084030914091008088000840309140910A6
:10104000080880008403091409100808800084033C
:1010500009140910080880008403091409100808FD
:10106000800084030914091008088000840309140F
:10107000091008088000840309140910080880007A
:101080008403091409100808800084030914091056
:1010900008088000840309140910080880008403EC
:1010A00009140910080880008403091409100808AD
:1010B00080008403091409100808800084030914BF
:1010C000091008088000840309140910080880002A
:1010D0008403091409100808800084030914091006
:1010E000080880008403091409100808800084039C
:1010F000091409100808800084030914091008085D
:10110000800084030914091008088000840309146E
:1011100009100808800084030914091008088000D9
:1011200084030914091008088000840309140910B5
:10113000080880008403091409100808800084034B
:10114000091409100808800084030914091008080C
:10115000800084030914091008088000840309141E
:101160000910080880008403091409100808800089
:101170008403091409100808800084030914091065
:1011800008088000840309140910080880008403FB
:1011900009140910080880008403091409100808BC
:1011A00080008403091409100808800084030914CE
:1011B0000910080880008403091409100808800039
:1011C0008403091409100808800084030914091015
:1011D00008088000840309140910080880008403AB
:1011E000091408088A110A1270290910891420307C
:1011F000840008080914091089108000840A08086E
:101200000914091089148000840A080809140910B7
:1012100089108000840A08080914091089148000C4
:10122000840A08080914091089108000840A080833
:101230000914091089148000840A08080914091087
:1012400089108000840A0808091409108914800094
:10125000840A08080914091089108000840A080803
:101260000914091089148000840A08080914091057
:1012700089108000840A0808091409108914800064
:10128000840A08080914091089108000840A0808D3
:101290000914091089148000840A08080914091027
:1012A00089108000840A0808091409108914800034
:1012B000840A08080914091089108000840A0808A3
:1012C0000914091089148000840A080809140910F7
:1012D00089108000840A0808091409108914800004
:1012E000840A08080914091089108000840A080873
:1012F0000914091089148000840A080809140910C7
:1013000089108000840A08080914091089148000D3
:10131000840A08080914091089108000840A080842
:101320000914091089148000840A08080914091096
:1013300089108000840A08080914091089148000A3
:10134000840A08080914091089108000840A080812
:101350000914091089148000840A08080914091066
:1013600089108000840A0808091409108914800073
:10137000840A08080914091089108000840A0808E2
:101380000914091089148000840A08080914091036
:1013900089108000840A0808091409108914800043
:1013A000840A08080914091089108000840A0808B2
:1013B0000914091089148000840A08080914091006
:1013C00089108000840A0808091409108914800013
:1013D000840A08080914091089108000840A080882
:1013E0000914091089148000840A080809140910D6
:1013F00089108000840A08080914091089148000E3
:10140000840A08080914091089108000840A080851
:101410000914091089148000840A080809140910A5
:1014200089108000840A08080914091089148000B2
:10143000840A08080914091089108000840A080821
:101440000914091089148000840A08080914091075
:1014500089108000840A0808091409108914800082
:10146000840A08080914091089108000840A0808F1
:101470000914091089148000840A08080914091045
:1014800089108000840A0808091409108914800052
:10149000840A08080914091089108000840A0808C1
:1014A0000914091089148000840A08080914091015
:1014B00089108000840A0808091409108914800022
:1014C000840A08080914091089108000840A080891
:1014D0000914091089148000840A080809140910E5
:1014E00089108000840A08080914091089148000F2
:1014F000841708080914091089108000840308085B
:1015000009140910891480008403080809140910BB
:1015100089108000840308080914091089148000C8
:10152000840308080914091089108000840308083E
:10153000091409108914800084030808091409108B
:101540008910800084030808091409108914800098
:10155000840308080914091089108000840308080E
:10156000091409108914800084030808091409105B
:101570008910800084030808091409108914800068
:1015800084030808091409108910800084030808DE
:10159000091409108914800084030808091409102B
:1015A0008910800084030808091409108914800038
:1015B00084030808091409108910800084030808AE
:1015C00009140910891480008403080809140910FB
:1015D0008910800084030808091409108914800008
:1015E000840308080914091089108000840308087E
:1015F00009140910891480008403080809140910CB
:1016000089108000840308080914091089148000D7
:10161000840308080914091089108000840308084D
:10162000091409108914800084030808091409109A
:1016300089108000840308080914091089148000A7
:10164000840308080914091089108000840308081D
:10165000091409108914800084030808091409106A
:101660008910800084030808091409108914800077
:1016700084030808091409108910800084030808ED
:10168000091409108914800084030808091409103A
:101690008910800084030808091409108914800047
:1016A00084030808091409108910800084030808BD
:1016B000091409108914800084030808091409100A
:1016C0008910800084030808091409108914800017
:1016D000840308080914091089108000840308088D
:1016E00009140910891480008403080809140910DA
:1016F00089108000840308080914091089148000E7
:10170000840308080914091089108000840308085C
:1017100009140910891480008403080809140910A9
:1017200089108000840308080914091089148000B6
:10173000840308080914091089108000840308082C
:101740000914091089148000840308080914091079
:101750008910800084030808091409108914800086
:1017600084030808091409108910800084030808FC
:101770000914091089148000840308080914091049
:101780008910800084030808091409108914800056
:1017900084030808091409108910800084030808CC
:1017A0000914091089148000840308080914091019
:1017B0008910800084030808091409108914800026
:1017C000840308080914091089108000840308089C
:1017D00009140910891480008403080809140910E9
:1017E00089108000840308080914091089148000F6
:1017F000831708080914091089108000840A080852
:101800000914091089148000840A080809140910B1
:1018100089108000840A08080914091089148000BE
:10182000840A08080914091089108000840A08082D
:101830000914091089148000840A08080914091081
:1018400089108000840A080809140910891480008E
:10185000840A08080914091089108000840A0808FD
:101860000914091089148000840A08080914091051
:1018700089108000840A080809140910891480005E
:10188000840A08080914091089108000840A0808CD
:101890000914091089148000840A08080914091021
:1018A00089108000840A080809140910891480002E
:1018B000840A08080914091089108000840A08089D
:1018C0000914091089148000840A080809140910F1
:1018D00089108000840A08080914091089148000FE
:1018E000840A08080914091089108000840A08086D
:1018F0000914091089148000840A080809140910C1
:1019000089108000840A08080914091089148000CD
:10191000840A08080914091089108000840A08083C
:101920000914091089148000840A08080914091090
:1019300089108000840A080809140910891480009D
:10194000840A08080914091089108000840A08080C
:101950000914091089148000840A08080914091060
:1019600089108000840A080809140910891480006D
:10197000840A08080914091089108000840A0808DC
:101980000914091089148000840A08080914091030
:1019900089108000840A080809140910891480003D
:1019A000840A08080914091089108000840A0808AC
:1019B0000914091089148000840A08080914091000
:1019C00089108000840A080809140910891480000D
:1019D000840A08080914091089108000840A08087C
:1019E0000914091089148000840A080809140910D0
:1019F00089108000840A08080914091089148000DD
:101A0000840A08080914091089108000840A08084B
:101A10000914091089148000840A0808091409109F
:101A200089108000840A08080914091089148000AC
:101A3000840A08080914091089108000840A08081B
:101A40000914091089148000840A0808091409106F
:101A500089108000840A080809140910891480007C
:101A6000840A08080914091089108000840A0808EB
:101A70000914091089148000840A0808091409103F
:101A800089108000840A080809140910891480004C
:101A9000840A08080914091089108000840A0808BB
:101AA0000914091089148000840A0808091409100F
:101AB00089108000840A080809140910891480001C
:101AC000840A08080914091089108000840A08088B
:101AD0000914091089148000840A080809140910DF
:101AE00089108000840A08080914091089148000EC
:101AF0008413080809140910891080008403080859
:101B000009140910891480008403080809140910B5
:101B100089108000840308080914091089148000C2
:101B20008403080809140910891080008403080838
:101B30000914091089148000840308080914091085
:101B40008910800084030808091409108914800092
:101B50008403080809140910891080008403080808
:101B60000914091089148000840308080914091055
:101B70008910800084030808091409108914800062
:101B800084030808091409108910800084030808D8
:101B90000914091089148000840308080914091025
:101BA0008910800084030808091409108914800032
:101BB00084030808091409108910800084030808A8
:101BC00009140910891480008403080809140910F5
:101BD0008910800084030808091409108914800002
:101BE0008403080809140910891080008403080878
:101BF00009140910891480008403080809140910C5
:101C000089108000840308080914091089148000D1
:101C10008403080809140910891080008403080847
:101C20000914091089148000840308080914091094
:101C300089108000840308080914091089148000A1
:101C40008403080809140910891080008403080817
:101C50000914091089148000840308080914091064
:101C60008910800084030808091409108914800071
:101C700084030808091409108910800084030808E7
:101C80000914091089148000840308080914091034
:101C90008910800084030808091409108914800041
:101CA00084030808091409108910800084030808B7
:101CB0000914091089148000840308080914091004
:101CC0008910800084030808091409108914800011
:101CD0008403080809140910891080008403080887
:101CE00009140910891480008403080809140910D4
:101CF00089108000840308080914091089148000E1
:101D00008403080809140910891080008403080856
:101D100009140910891480008403080809140910A3
:101D200089108000840308080914091089148000B0
:101D30008403080809140910891080008403080826
:101D40000914091089148000840308080914091073
:101D50008910800084030808091409108914800080
:101D600084030808091409108910800084030808F6
:101D70000914091089148000840308080914091043
:101D80008910800084030808091409108914800050
:101D900084030808091409108910800084030808C6
:101DA0000914091089148000840308080914091013
:101DB0008910800084030808091409108914800020
:101DC0008403080809140910891080008403080896
:101DD00009140910891480008403080809140910E3
:101DE000891080008403080809148A110A127029D6
:101DF0000910203084000000080809140910800030
:101E0000840A00000808091409108000840A0000F0
:101E10000808091409108000840A00000808091441
:101E200009108000840A00000808091409108000C5
:101E3000840A00000808091409108000840A0000C0
:101E40000808091409108000840A00000808091411
:101E500009108000840A0000080809140910800095
:101E6000840A00000808091409108000840A000090
:101E70000808091409108000840A000008080914E1
:101E800009108000840A0000080809140910800065
:101E9000840A00000808091409108000840A000060
:101EA0000808091409108000840A000008080914B1
:101EB00009108000840A0000080809140910800035
:101EC000840A00000808091409108000840A000030
:101ED0000808091409108000840A00000808091481
:101EE00009108000840A0000080809140910800005
:101EF000840A00000808091409108000840A000000
:101F00000808091409108000840A00000808091450
:101F100009108000840A00000808091409108000D4
:101F2000840A00000808091409108000840A0000CF
:101F30000808091409108000840A00000808091420
:101F400009108000840A00000808091409108000A4
:101F5000840A00000808091409108000840A00009F
:101F60000808091409108000840A000008080914F0
:101F700009108000840A0000080809140910800074
:101F8000840A00000808091409108000840A00006F
:101F90000808091409108000840A000008080914C0
:101FA00009108000840A0000080809140910800044
:101FB000840A00000808091409108000840A00003F
:101FC0000808091409108000840A00000808091490
:101FD00009108000840A0000080809140910800014
:101FE000840A00000808091409108000840A00000F
:101FF0000808091409108000840A00000808091460
:1020000009108000840A00000808091409108000E3
:10201000840A00000808091409108000840A0000DE
:102020000808091409108000840A0000080809142F
:1020300009108000840A00000808091409108000B3
:10204000840A00000808091409108000840A0000AE
:102050000808091409108000840A000008080914FF
:1020600009108000840A0000080809140910800083
:10207000840A00000808091409108000840A00007E
:102080000808091409108000840A000008080914CF
:1020900009108000840A0000080809140910800053
:1020A000840A00000808091409108000840A00004E
:1020B0000808091409108000840A0000080809149F
:1020C00009108000840A0000080809140910800023
:1020D000840A00000808091409108000840A00001E
:1020E0000808091409108000840A0000080809146F
:1020F00009108000841700000808091409108000E6
:1021000084030000080809140910800084030000FB
:102110000808091409108000840300000808091445
:1021200009108000840300000808091409108000C9
:1021300084030000080809140910800084030000CB
:102140000808091409108000840300000808091415
:102150000910800084030000080809140910800099
:10216000840300000808091409108000840300009B
:1021700008080914091080008403000008080914E5
:102180000910800084030000080809140910800069
:10219000840300000808091409108000840300006B
:1021A00008080914091080008403000008080914B5
:1021B0000910800084030000080809140910800039
:1021C000840300000808091409108000840300003B
:1021D0000808091409108000840300000808091485
:1021E0000910800084030000080809140910800009
:1021F000840300000808091409108000840300000B
:102200000808091409108000840300000808091454
:1022100009108000840300000808091409108000D8
:1022200084030000080809140910800084030000DA
:102230000808091409108000840300000808091424
:1022400009108000840300000808091409108000A8
:1022500084030000080809140910800084030000AA
:1022600008080914091080008403000008080914F4
:102270000910800084030000080809140910800078
:10228000840300000808091409108000840300007A
:1022900008080914091080008403000008080914C4
:1022A0000910800084030000080809140910800048
:1022B000840300000808091409108000840300004A
:1022C0000808091409108000840300000808091494
:1022D0000910800084030000080809140910800018
:1022E000840300000808091409108000840300001A
:1022F0000808091409108000840300000808091464
:1023000009108000840300000808091409108000E7
:1023100084030000080809140910800084030000E9
:102320000808091409108000840300000808091433
:1023300009108000840300000808091409108000B7
:1023400084030000080809140910800084030000B9
:102350000808091409108000840300000808091403
:102360000910800084030000080809140910800087
:102370008403000008080914091080008403000089
:1023800008080914091080008403000008080914D3
:102390000910800084030000080809140910800057
:1023A0008403000008080914091080008403000059
:1023B00008080914091080008403000008080914A3
:1023C0000910800084030000080809140910800027
:1023D0008403000008080914091080008403000029
:1023E0000808091409108000840300000808091473
:1023F00009108000831700000808091409108000E4
:10240000840A00000808091409108000840A0000EA
:102410000808091409108000840A0000080809143B
:1024200009108000840A00000808091409108000BF
:10243000840A00000808091409108000840A0000BA
:102440000808091409108000840A0000080809140B
:1024500009108000840A000008080914091080008F
:10246000840A00000808091409108000840A00008A
:102470000808091409108000840A000008080914DB
:1024800009108000840A000008080914091080005F
:10249000840A00000808091409108000840A00005A
:1024A0000808091409108000840A000008080914AB
:1024B00009108000840A000008080914091080002F
:1024C000840A00000808091409108000840A00002A
:1024D0000808091409108000840A0000080809147B
:1024E00009108000840A00000808091409108000FF
:1024F000840A00000808091409108000840A0000FA
:102500000808091409108000840A0000080809144A
:1025100009108000840A00000808091409108000CE
:10252000840A00000808091409108000840A0000C9
:102530000808091409108000840A0000080809141A
:1025400009108000840A000008080914091080009E
:10255000840A00000808091409108000840A000099
:102560000808091409108000840A000008080914EA
:1025700009108000840A000008080914091080006E
:10258000840A00000808091409108000840A000069
:102590000808091409108000840A000008080914BA
:1025A00009108000840A000008080914091080003E
:1025B000840A00000808091409108000840A000039
:1025C0000808091409108000840A0000080809148A
:1025D00009108000840A000008080914091080000E
:1025E000840A00000808091409108000840A000009
:1025F0000808091409108000840A0000080809145A
:1026000009108000840A00000808091409108000DD
:10261000840A00000808091409108000840A0000D8
:102620000808091409108000840A00000808091429
:1026300009108000840A00000808091409108000AD
:10264000840A00000808091409108000840A0000A8
:102650000808091409108000840A000008080914F9
:1026600009108000840A000008080914091080007D
:10267000840A00000808091409108000840A000078
:102680000808091409108000840A000008080914C9
:1026900009108000840A000008080914091080004D
:1026A000840A00000808091409108000840A000048
:1026B0000808091409108000840A00000808091499
:1026C00009108000840A000008080914091080001D
:1026D000840A00000808091409108000840A000018
:1026E0000808091409108000840A00000808091469
:1026F00009108000841300000808091409108000E4
:1027000084030000080809140910800084030000F5
:10271000080809140910800084030000080809143F
:1027200009108000840300000808091409108000C3
:1027300084030000080809140910800084030000C5
:10274000080809140910800084030000080809140F
:102750000910800084030000080809140910800093
:102760008403000008080914091080008403000095
:1027700008080914091080008403000008080914DF
:102780000910800084030000080809140910800063
:102790008403000008080914091080008403000065
:1027A00008080914091080008403000008080914AF
:1027B0000910800084030000080809140910800033
:1027C0008403000008080914091080008403000035
:1027D000080809140910800084030000080809147F
:1027E0000910800084030000080809140910800003
:1027F0008403000008080914091080008403000005
:10280000080809140910800084030000080809144E
:1028100009108000840300000808091409108000D2
:1028200084030000080809140910800084030000D4
:10283000080809140910800084030000080809141E
:1028400009108000840300000808091409108000A2
:1028500084030000080809140910800084030000A4
:1028600008080914091080008403000008080914EE
:102870000910800084030000080809140910800072
:102880008403000008080914091080008403000074
:1028900008080914091080008403000008080914BE
:1028A0000910800084030000080809140910800042
:1028B0008403000008080914091080008403000044
:1028C000080809140910800084030000080809148E
:1028D0000910800084030000080809140910800012
:1028E0008403000008080914091080008403000014
:1028F000080809140910800084030000080809145E
:1029000009108000840300000808091409108000E1
:1029100084030000080809140910800084030000E3
:10292000080809140910800084030000080809142D
:1029300009108000840300000808091409108000B1
:1029400084030000080809140910800084030000B3
:1029500008080914091080008403000008080914FD
:102960000910800084030000080809140910800081
:102970008403000008080914091080008403000083
:1029800008080914091080008403000008080914CD
:102990000910800084030000080809140910800051
:1029A0008403000008080914091080008403000053
:1029B000080809140910800084030000080809149D
:1029C0000910800084030000080809140910800021
:1029D0008403000008080914091080008403000023
:1029E000080809140910800084030000080809146D
:1029F0008A110A12702914308A007A0882070A168E
:102A00008A110E2D0A168A111E2E0A168A11212FDE
:102A10000A168A1524280A168A1528290910203032
:102A2000840000000914091008088000840A0914B1
:102A3000091008088000840A091409100808800099
:102A4000840A0914091008088000840A091409106E
:102A500008088000840A0914091008088000840A04
:102A60000914091008088000840A091409100808CC
:102A70008000840A0914091008088000840A0914D7
:102A8000091008088000840A091409100808800049
:102A9000840A0914091008088000840A091409101E
:102AA00008088000840A0914091008088000840AB4
:102AB0000914091008088000840A0914091008087C
:102AC0008000840A0914091008088000840A091487
:102AD000091008088000840A0914091008088000F9
:102AE000840A0914091008088000840A09140910CE
:102AF00008088000840A0914091008088000840A64
:102B00000914091008088000840A0914091008082B
:102B10008000840A0914091008088000840A091436
:102B2000091008088000840A0914091008088000A8
:102B3000840A0914091008088000840A091409107D
:102B400008088000840A0914091008088000840A13
:102B50000914091008088000840A091409100808DB
:102B60008000840A0914091008088000840A0914E6
:102B7000091008088000840A091409100808800058
:102B8000840A0914091008088000840A091409102D
:102B900008088000840A0914091008088000840AC3
:102BA0000914091008088000840A0914091008088B
:102BB0008000840A0914091008088000840A091496
:102BC000091008088000840A091409100808800008
:102BD000840A0914091008088000840A09140910DD
:102BE00008088000840A0914091008088000840A73
:102BF0000914091008088000840A0914091008083B
:102C00008000840A0914091008088000840A091445
:102C1000091008088000840A0914091008088000B7
:102C2000840A091408088000840A182E800084038E
:102C30000330FA0786140A128A11A8280000091026
:102C4000212E00000914091008088000840A0914C4
:102C5000091008088000840A091409100808800077
:102C6000840A0914091008088000840A091409104C
:102C700008088000840A0914091008088000840AE2
:102C80000914091008088000840A091409100808AA
:102C90008000840A0914091008088000840A0914B5
:102CA000091008088000840A091409100808800027
:102CB000840A0914091008088000841709140910EF
:102CC00008088000840309140910080880008403A0
:102CD0000914091008088000840309140910080861
:102CE0008000840309140910080880008403091473
:102CF00009100808800084030914091008088000DE
:102D000084030914091008088000840309140910B9
:102D1000080880008403091409100808800084034F
:102D20000914091008088000840309140910080810
:102D30008000840309140910080880008403091422
:102D4000091008088000840309140910080880008D
:102D50008403091409100808800084030914091069
:102D600008088000840309140910080880008403FF
:102D700009140910080880008403091409100808C0
:102D800080008403091409100808800084030914D2
:102D9000091008088000840309140910080880003D
:102DA0008403091409100808800084030914091019
:102DB00008088000840309140910080880008403AF
:102DC0000914091008088000840309140910080870
:102DD0008000840309140910080880008403091482
:102DE00009100808800084030914091008088000ED
:102DF00084030914091008088000840309140910C9
:102E0000080880008403091409100808800084035E
:102E1000091409100808800084030914091008081F
:102E20008000840309140910080880008403091431
:102E30000910080880008403091408080A168A117A
:102E4000162E222F0910242F00000914091008083B
:102E50008000840309140910080880008403091401
:102E6000091008088000840309140910080880006C
:102E70008403091409100808800084030914091048
:102E800008088000840309140910080880008403DE
:102E9000091409100808800084030914091008089F
:102EA00080008403091409100808800084030914B1
:102EB000091008088000840309140910080880001C
:102EC00084030914091008088000840309140910F8
:102ED000080880008403091409100808800084038E
:102EE000091409100808800084030914091008084F
:102EF0008000840309140910080880008403091461
:102F000009100808800084030914091008088000CB
:102F100084030914091008088000840309140910A7
:102F2000080880008403091409100808800084033D
:102F300009140910080880008403091409100808FE
:102F4000800083170914091008088000840A0914F6
:102F5000091008088000840A091409100808800074
:102F6000840A0914091008088000840A0914091049
:102F700008088000840A0914091008088000840ADF
:102F80000914091008088000840A091409100808A7
:102F90008000840A0914091008088000840A0914B2
:102FA000091008088000840A091409100808800024
:102FB000840A0914091008088000840A09140910F9
:102FC00008088000840A0914091008088000840A8F
:102FD0000914091008088000840A09140910080857
:102FE0008000840A0914091008088000840A091462
:102FF000091008088000840A0914091008088000D4
:10300000840A0914091008088000840A09140910A8
:1030100008088000840A0914091008088000840A3E
:103020000914091008088000840A09140910080806
:103030008000840A0914091008088000840A091411
:1030400008080A168A11132E2528000009102828BE
:1030500000000914091008088000840A09140910E6
:1030600008088000840A0914091008088000840AEE
:103070000914091008088000840A091409100808B6
:103080008000840A0914091008088000840A0914C1
:10309000091008088000840A091409100808800033
:1030A000840A0914091008088000840A0914091008
:1030B00008088000840A0914091008088000840A9E
:1030C0000914091008088000840A09140910080866
:1030D0008000840A0914091008088000840A091471
:1030E000091008088000840A0914091008088000E3
:1030F000840A0914091008088000840A09140910B8
:1031000008088000840A0914091008088000840A4D
:103110000914091008088000840A09140910080815
:103120008000840A0914091008088000840A091420
:10313000091008088000840A091409100808800092
:10314000840A0914091008088000840A0914091067
:1031500008088000840A0914091008088000840AFD
:103160000914091008088000840A091409100808C5
:103170008000840A0914091008088000840A0914D0
:10318000091008088000840A091409100808800042
:10319000840A0914091008088000840A0914091017
:1031A00008088000840A0914091008088000840AAD
:1031B0000914091008088000840A09140910080875
:1031C0008000840A09140910080880008413091477
:1031D00009100808800084030914091008088000F9
:1031E00084030914091008088000840309140910D5
:1031F000080880008403091409100808800084036B
:10320000091409100808800084030914091008082B
:10321000800084030914091008088000840309143D
:1032200009100808800084030914091008088000A8
:103230008403091409100808800084030914091084
:10324000080880008403091408080A168A11162E3B
:1032500029290A128A1109100000F62F19308A0054
:103260007A0882070A168A153B290A168A15422B04
:103270000A168A15432D0910203084000000080822
:10328000091409108000840A0000080809140910B4
:103290008000840A00000808091409108000840ACC
:1032A00000000808091409108000840A00000808BA
:1032B000091409108000840A000008080914091084
:1032C0008000840A00000808091409108000840A9C
:1032D00000000808091409108000840A000008088A
:1032E000091409108000840A000008080914091054
:1032F0008000840A00000808091409108000840A6C
:1033000000000808091409108000840A0000080859
:10331000091409108000840A000008080914091023
:103320008000840A00000808091409108000840A3B
:1033300000000808091409108000840A0000080829
:10334000091409108000840A0000080809140910F3
:103350008000840A00000808091409108000840A0B
:1033600000000808091409108000840A00000808F9
:10337000091409108000840A0000080809140910C3
:103380008000840A00000808091409108000840ADB
:1033900000000808091409108000840A00000808C9
:1033A000091409108000840A000008080914091093
:1033B0008000840A00000808091409108000840AAB
:1033C00000000808091409108000840A0000080899
:1033D000091409108000840A000008080914091063
:1033E0008000840A00000808091409108000840A7B
:1033F00000000808091409108000840A0000080869
:10340000091409108000840A000008080914091032
:103410008000840A00000808091409108000840A4A
:1034200000000808091409108000840A0000080838
:10343000091409108000840A000008080914091002
:103440008000840A00000808091409108000840A1A
:1034500000000808091409108000840A0000080808
:10346000091409108000840A0000080809140910D2
:103470008000840A00000808091409108000840AEA
:1034800000000808091409108000840A00000808D8
:10349000091409108000840A0000080809140910A2
:1034A0008000840A00000808091409108000840ABA
:1034B00000000808091409108000840A00000808A8
:1034C000091409108000840A000008080914091072
:1034D0008000840A00000808091409108000840A8A
:1034E00000000808091409108000840A0000080878
:1034F000091409108000840A000008080914091042
:103500008000840A00000808091409108000840A59
:1035100000000808091409108000840A0000080847
:10352000091409108000840A000008080914091011
:103530008000840A00000808091409108000840A29
:1035400000000808091409108000840A0000080817
:10355000091409108000840A0000080809140910E1
:103560008000840A00000808091409108000840AF9
:1035700000000808091409108000841700000808DA
:1035800009140910800084030000080809140910B8
:1035900080008403000008080914091080008403D7
:1035A00000000808091409108000840300000808BE
:1035B0000914091080008403000008080914091088
:1035C00080008403000008080914091080008403A7
:1035D000000008080914091080008403000008088E
:1035E0000914091080008403000008080914091058
:1035F0008000840300000808091409108000840377
:10360000000008080914091080008403000008085D
:103610000914091080008403000008080914091027
:103620008000840300000808091409108000840346
:10363000000008080914091080008403000008082D
:1036400009140910800084030000080809140910F7
:103650008000840300000808091409108000840316
:1036600000000808091409108000840300000808FD
:1036700009140910800084030000080809140A16C0
:103680008A11162E432B0910452B00000808091437
:103690000910800084030000080809140910800044
:1036A0008403000008080914091080008403000046
:1036B0000808091409108000840300000808091490
:1036C0000910800084030000080809140910800014
:1036D0008403000008080914091080008403000016
:1036E0000808091409108000840300000808091460
:1036F00009108000840300000808091409108000E4
:1037000084030000080809140910800084030000E5
:10371000080809140910800084030000080809142F
:1037200009108000840300000808091409108000B3
:1037300084030000080809140910800084030000B5
:1037400008080914091080008403000008080914FF
:103750000910800084030000080809140910800083
:103760008403000008080914091080008403000085
:1037700008080914091080008403000008080914CF
:103780000910800084030000080809140910800053
:103790008403000008080914091080008403000055
:1037A000080809140910800084030000080809149F
:1037B0000910800084030000080809140910800023
:1037C0008403000008080914091080008403000025
:1037D000080809140910800084030000080809146F
:1037E00009108000840300000808091409108000F3
:1037F00084030000080809140910800084030000F5
:10380000080809140910800084030000080809143E
:1038100009108000840300000808091409108000C2
:1038200084030000080809140910800084030000C4
:10383000080809140910800084030000080809140E
:103840000910800084030000080809140910800092
:103850008403000008080914091080008403000094
:1038600008080914091080008403000008080914DE
:103870000910800084030000080809140910800062
:10388000831700000808091409108000840A00004A
:103890000808091409108000840A000008080914A7
:1038A00009108000840A000008080914091080002B
:1038B000840A00000808091409108000840A000026
:1038C0000808091409108000840A00000808091477
:1038D00009108000840A00000808091409108000FB
:1038E000840A00000808091409108000840A0000F6
:1038F0000808091409108000840A00000808091447
:1039000009108000840A00000808091409108000CA
:10391000840A00000808091409108000840A0000C5
:103920000808091409108000840A00000808091416
:1039300009108000840A000008080914091080009A
:10394000840A00000808091409108000840A000095
:103950000808091409108000840A000008080914E6
:1039600009108000840A000008080914091080006A
:10397000840A00000808091409108000840A000065
:103980000808091409108000840A000008080914B6
:1039900009108000840A000008080914091080003A
:1039A000840A00000808091409108000840A000035
:1039B0000808091409108000840A00000808091486
:1039C00009108000840A000008080914091080000A
:1039D000840A00000808091409108000840A000005
:1039E0000808091409108000840A00000808091456
:1039F00009108000840A00000808091409108000DA
:103A0000840A00000808091409108000840A0000D4
:103A10000808091409108000840A00000808091425
:103A200009108000840A00000808091409108000A9
:103A3000840A00000808091409108000840A0000A4
:103A40000808091409108000840A000008080914F5
:103A500009108000840A0000080809140910800079
:103A6000840A00000808091409108000840A000074
:103A70000808091409108000840A000008080914C5
:103A80000A168A11132E442D0A168A1109100000F5
:023A9000FE2A0C
:00000001FF
