:020000040000FA
:100000000130890088015D28FC00030EFD000B1EF5
:100010004F288B1C4F280B12FF1B4828F40B0E286F
:10002000F50B0E28F60B0E28F70B0E287808820722
:100030000A128A11992D0A168A11A0280A128A1109
:10004000602C0A128A11A32C0A128A11A32C0A12FC
:100050008A11522B0A168A11A32E0A168A15D62A3D
:100060000A128A159D2A0A128A11062D0A128A116D
:10007000062D0A128A11BD2B0A128A11C7290A12EB
:100080008A1189280A128A1189280A128A11892854
:10009000831203136708EB006608EA007F178312D8
:1000A00003130C1C5828831603130C1C58283F21DB
:1000B0007D0E8300FC0E7C0E090085018316031360
:1000C000C03095001F3085004030810010308B001B
:1000D000F1308600FF30880004308900B930870095
:1000E00083160317880189010830870083160313DC
:1000F0005630990000309A00243098008312031380
:100100009030980083139F010130F400F500F60051
:10011000F700FF01F901C6208910701A89148A01BD
:1001200070080F39F8000310F80D78078610701F5B
:100130001728F800630AF400620AF500610AF60065
:10014000600AF700831603130113F01B01178312D3
:100150000313E01FB8286308FE39EC00831603136D
:10016000E00083120313FE3AE900FF17780817280E
:100170008B100B168B1719217A08F33A031DBB2835
:100180000B128B13DC30FA002A21892819217A08F6
:10019000F83A031DFA28DC30FA002A2120308400C6
:1001A0004030F50083130008FA00840A2A21F50B79
:1001B000D3284030F500841784030008FA00840334
:1001C0002A21F50BDD284030F5008317840A00084A
:1001D000FA00840A2A21F50BE7284030F500841341
:1001E00084030008FA0084032A21F50BF128831305
:1001F000FF22C6287A08F93A031D0329DD30FA00E8
:100200002A21DE22C6287A08FA3A031D1129DE3097
:10021000FA002A21B2220130F400F500F600F700BE
:1002200008007A08F33A031DC628DC30FA002A21B8
:10023000C6288C1E1929181D1F291A081929981C4F
:100240002729181218161A088C1A232919291A088E
:10025000FA0000340C1E2A297A0899000034013073
:10026000F402031CF502F408031D3029F508031DF0
:10027000302908008000861483130E2389288312F6
:100280000313101072098F0073098E000C101014E4
:10029000FE0B0800710AFE0000000408E800660872
:1002A000840083138413E7188417E71983176719E9
:1002B000841767198317891009105E295F290000C8
:1002C000080809148914091080006718840AE718BF
:1002D000840308080914E71984036719840A800055
:1002E0000230E718FE30E719FE30E6071F306606D9
:1002F0000319812960306606031D8B295F30E600F3
:1003000083292030E6000310E70D671E8B29FF1FAD
:10031000BC29E7016714FF1FC2297F1A9D29831694
:100320000313E00803197F16E003E00383120313AD
:100330007F1E9D298B100B16C2297F1FC229E9033E
:10034000E90BC22920306A02EB183F3AEB193F3A19
:10035000EB18403EEB19C03E6B19803EFE3E6C022E
:10036000FE39ED00ED1FBA29FE30ED06ED0AED0A6B
:100370005022BB297522FF1610100C108316031390
:100380000C100B13831203136808840008008312F7
:1003900003132030E600E7016714101090161016C2
:1003A0000130FE00FF308F008E000C108316031307
:1003B0000C14831203130B1710148B1783160313DB
:1003C0000C1C452A831203138C1EDE29181DEA29F2
:1003D0001A08DE29981CF229181218161A088C1A05
:1003E000EE29DE291A08FA00FF1FF829FF1EDE2970
:1003F0007A08F83A031D2B2ADC30FA002A21203033
:1004000084004030F50083130008FA00840A2A2192
:10041000F50B042A4030F500840384170008FA0025
:1004200084032A21F50B0E2A4030F500840A831735
:100430000008FA00840A2A21F50B182A4030F5003A
:10044000840384130008FA0084032A21F50B222A6E
:100450008313FF22DE297A08F93A031D342ADD309E
:10046000FA002A21DE22DE297A08FA3A031D3D2A03
:10047000DE30FA002A21CF22DE297A08F33A031D62
:10048000DE29DC30FA002A21DE298B1383120313C4
:1004900086140E230130F400F500F600F7008928D9
:1004A000831203130408EE00ED080319992A203083
:1004B0008400831384130008EF009C228417000833
:1004C000841380008417A7228317000883138000F9
:1004D00083179C2284130008841780008413A722AA
:1004E0006F088000ED0B542A992A83120313040825
:1004F000EE00ED080319992A203084008317841335
:100500000008EF009C2284170008841380008417E1
:10051000A722831300088317800083139C2284136F
:100520000008841780008413A7226F088000ED0B59
:10053000792A6E0884000800840A00088403800079
:10054000840A5F3004067F39031D9C2A0800840357
:100550000008840A80008403203004067F39031DCC
:10056000A72A080019217A08DF392038F000831201
:10057000031319217A08E00019217A08E1001921F2
:100580007A08E20019217A08E30019217A08F100BB
:1005900019217A08F20019217A08F30008001921BC
:1005A000192119211921192119217A08F10019217C
:1005B0007A08F20019217A08F30008000130FA00E5
:1005C0002A210030FA002A217008FA002A21831219
:1005D00003136008FA002A216108FA002A21620840
:1005E000FA002A216308FA002A217108FA002A2158
:1005F0007208FA002A217308FA002A2108007B08F1
:10060000FA002A21FA012A212A21831203136508FC
:10061000FA002A216408FA002A210800FB01831647
:10062000031307158710851605128312031387100D
:1006300005127B17051C7B13851C7B13851CFB1780
:100640000718FB1587140516831603138714071163
:100650000516851283120313071185127B16051CDC
:100660007B12851C7B12851CFB1607187B15071552
:100670008516061FFB14861F7B14E401851D641478
:100680008910061586118610091000000000000070
:10069000000000000808091486148910061186114C
:1006A000E500080009103F30F60020308400730890
:1006B000F4007208F50000002F2108080914091041
:1006C0008000840A7308F4007208F5002F21F60BED
:1006D0005D2B0000080809140910800084173F30C2
:1006E000F6007308F4007208F5002F2100000808D6
:1006F00009140910800084037308F4007208F500DF
:100700002F21F60B772B0000080809140910800030
:1007100083173F30F6007308F4007208F5002F21AC
:1007200000000808091409108000840A7308F40006
:100730007208F5002F21F60B912B00000808091410
:100740000910800084133F30F6007308F40072082B
:10075000F5002F2100000808091409108000840307
:100760007308F4007208F5002F21F60BAB2B000084
:10077000080809148A110A123A290910891420302C
:10078000840008080914091089108000840A1F30A9
:10079000F6007308F4007208F5002F210000080825
:1007A0000914091089148000840A08080914091022
:1007B00089108000840A7308F4007208F5002F2164
:1007C000F60BCF2B000008080914091089148000CB
:1007D00084170808091409108910800084031F3049
:1007E000F6007308F4007208F5002F2100000808D5
:1007F00009140910891480008403080809140910D9
:100800008910800084037308F4007208F5002F211A
:10081000F60BF72B00000808091409108914800052
:10082000831708080914091089108000840A1F30F2
:10083000F6007308F4007208F5002F210000080884
:100840000914091089148000840A08080914091081
:1008500089108000840A7308F4007208F5002F21C3
:10086000F60B1F2C000008080914091089148000D9
:1008700084130808091409108910800084031F30AC
:10088000F6007308F4007208F5002F210000080834
:100890000914091089148000840308080914091038
:1008A0008910800084037308F4007208F5002F217A
:1008B000F60B472C0000080809148A110A123A297D
:1008C00009103F30F40020308400000008080914AB
:1008D00009108000840AF40B662C00000808091433
:1008E0000910800084173F30F40000000808091444
:1008F000091080008403F40B762C0000080809140A
:100900000910800083173F30F40000000808091424
:1009100009108000840AF40B862C000008080914D2
:100920000910800084133F30F40000000808091407
:10093000091080008403F40B962C000008080914A9
:100940008A110A123A2909103F30F400203084003D
:10095000A92C701DAC2C0225080809140910800070
:10096000840A701DB42C02250000F40BAC2C00008E
:10097000080809140910800084173F30F400C02CC7
:10098000701DC32C02250808091409108000840377
:10099000701DCB2C02250000F40BC32C00000808AE
:1009A00009140910800083173F30F400D72C701D04
:1009B000DA2C02250808091409108000840A701D29
:1009C000E22C02250000F40BDA2C000008080914C0
:1009D0000910800084133F30F400EE2C701DF12CC0
:1009E000022508080914091080008403701DF92CE1
:1009F00002250000F40BF12C0000080809148A11EC
:100A00000A123A29032D0000052D08000910891447
:100A10002030840008080914091089108000840A15
:100A20001F30F600701C032505250808091409105D
:100A300089148000840A08080914091089108000AC
:100A4000840A701C0325242D0000F60B152D0000D0
:100A5000080809140910891480008417080809146B
:100A600009108910800084031F30F600701C0325D4
:100A70000525080809140910891480008403080852
:100A800009140910891080008403701C0325482D67
:100A90000000F60B392D000008080914091089140C
:100AA0008000831708080914091089108000840A3F
:100AB0001F30F600701C03250525080809140910CD
:100AC00089148000840A080809140910891080001C
:100AD000840A701C03256C2D0000F60B5D2D0000B0
:100AE00008080914091089148000841308080914DF
:100AF00009108910800084031F30F600701C032544
:100B000005250808091409108914800084030808C1
:100B100009140910891080008403701C0325902D8E
:100B20000000F60B812D0000080809148A110A1232
:100B30003A2909102030840000000914091008081F
:100B40008000840A0914091008088000840A091426
:100B5000091008088000840A091409100808800098
:100B6000840A0914091008088000840A091409106D
:100B700008088000840A0914091008088000840A03
:100B80000914091008088000840A091409100808CB
:100B90008000840A0914091008088000840A0914D6
:100BA000091008088000840A091409100808800048
:100BB000840A0914091008088000840A091409101D
:100BC00008088000840A0914091008088000840AB3
:100BD0000914091008088000840A0914091008087B
:100BE0008000840A0914091008088000840A091486
:100BF000091008088000840A0914091008088000F8
:100C0000840A0914091008088000840A09140910CC
:100C100008088000840A0914091008088000840A62
:100C20000914091008088000840A0914091008082A
:100C30008000840A0914091008088000840A091435
:100C4000091008088000840A0914091008088000A7
:100C5000840A0914091008088000840A091409107C
:100C600008088000840A0914091008088000840A12
:100C70000914091008088000840A091409100808DA
:100C80008000840A0914091008088000840A0914E5
:100C9000091008088000840A091409100808800057
:100CA000840A0914091008088000840A091409102C
:100CB00008088000840A0914091008088000840AC2
:100CC0000914091008088000840A0914091008088A
:100CD0008000840A0914091008088000840A091495
:100CE000091008088000840A091409100808800007
:100CF000840A0914091008088000840A09140910DC
:100D000008088000840A0914091008088000840A71
:100D10000914091008088000840A09140910080839
:100D20008000840A0914091008088000840A091444
:100D3000091008088000840A0914091008088000B6
:100D4000840A0914091008088000840A091409108B
:100D500008088000840A0914091008088000840A21
:100D60000914091008088000840A091409100808E9
:100D70008000840A0914091008088000840A0914F4
:100D8000091008088000840A091409100808800066
:100D9000840A0914091008088000840A091409103B
:100DA00008088000840A0914091008088000840AD1
:100DB000091409100808800084170914091008088C
:100DC00080008403091409100808800084030914B2
:100DD000091008088000840309140910080880001D
:100DE00084030914091008088000840309140910F9
:100DF000080880008403091409100808800084038F
:100E0000091409100808800084030914091008084F
:100E10008000840309140910080880008403091461
:100E200009100808800084030914091008088000CC
:100E300084030914091008088000840309140910A8
:100E4000080880008403091409100808800084033E
:100E500009140910080880008403091409100808FF
:100E60008000840309140910080880008403091411
:100E7000091008088000840309140910080880007C
:100E80008403091409100808800084030914091058
:100E900008088000840309140910080880008403EE
:100EA00009140910080880008403091409100808AF
:100EB00080008403091409100808800084030914C1
:100EC000091008088000840309140910080880002C
:100ED0008403091409100808800084030914091008
:100EE000080880008403091409100808800084039E
:100EF000091409100808800084030914091008085F
:100F00008000840309140910080880008403091470
:100F100009100808800084030914091008088000DB
:100F200084030914091008088000840309140910B7
:100F3000080880008403091409100808800084034D
:100F4000091409100808800084030914091008080E
:100F50008000840309140910080880008403091420
:100F6000091008088000840309140910080880008B
:100F70008403091409100808800084030914091067
:100F800008088000840309140910080880008403FD
:100F900009140910080880008403091409100808BE
:100FA00080008403091409100808800084030914D0
:100FB000091008088000840309140910080880003B
:100FC0008403091409100808800084030914091017
:100FD00008088000840309140910080880008403AD
:100FE000091409100808800084030914091008086E
:100FF0008000840309140910080880008403091480
:1010000009100808800084030914091008088000EA
:1010100084030914091008088000840309140910C6
:10102000080880008403091409100808800084035C
:10103000091409100808800083170914091008080A
:101040008000840A0914091008088000840A091421
:10105000091008088000840A091409100808800093
:10106000840A0914091008088000840A0914091068
:1010700008088000840A0914091008088000840AFE
:101080000914091008088000840A091409100808C6
:101090008000840A0914091008088000840A0914D1
:1010A000091008088000840A091409100808800043
:1010B000840A0914091008088000840A0914091018
:1010C00008088000840A0914091008088000840AAE
:1010D0000914091008088000840A09140910080876
:1010E0008000840A0914091008088000840A091481
:1010F000091008088000840A0914091008088000F3
:10110000840A0914091008088000840A09140910C7
:1011100008088000840A0914091008088000840A5D
:101120000914091008088000840A09140910080825
:101130008000840A0914091008088000840A091430
:10114000091008088000840A0914091008088000A2
:10115000840A0914091008088000840A0914091077
:1011600008088000840A0914091008088000840A0D
:101170000914091008088000840A091409100808D5
:101180008000840A0914091008088000840A0914E0
:10119000091008088000840A091409100808800052
:1011A000840A0914091008088000840A0914091027
:1011B00008088000840A0914091008088000840ABD
:1011C0000914091008088000840A09140910080885
:1011D0008000840A0914091008088000840A091490
:1011E000091008088000840A091409100808800002
:1011F000840A0914091008088000840A09140910D7
:1012000008088000840A0914091008088000840A6C
:101210000914091008088000840A09140910080834
:101220008000840A0914091008088000840A09143F
:10123000091008088000840A0914091008088000B1
:10124000840A0914091008088000840A0914091086
:1012500008088000840A0914091008088000840A1C
:101260000914091008088000840A091409100808E4
:101270008000840A0914091008088000840A0914EF
:10128000091008088000840A091409100808800061
:10129000840A0914091008088000840A0914091036
:1012A00008088000840A0914091008088000840ACC
:1012B000091409100808800084130914091008088B
:1012C00080008403091409100808800084030914AD
:1012D0000910080880008403091409100808800018
:1012E00084030914091008088000840309140910F4
:1012F000080880008403091409100808800084038A
:10130000091409100808800084030914091008084A
:10131000800084030914091008088000840309145C
:1013200009100808800084030914091008088000C7
:1013300084030914091008088000840309140910A3
:101340000808800084030914091008088000840339
:1013500009140910080880008403091409100808FA
:10136000800084030914091008088000840309140C
:101370000910080880008403091409100808800077
:101380008403091409100808800084030914091053
:1013900008088000840309140910080880008403E9
:1013A00009140910080880008403091409100808AA
:1013B00080008403091409100808800084030914BC
:1013C0000910080880008403091409100808800027
:1013D0008403091409100808800084030914091003
:1013E0000808800084030914091008088000840399
:1013F000091409100808800084030914091008085A
:10140000800084030914091008088000840309146B
:1014100009100808800084030914091008088000D6
:1014200084030914091008088000840309140910B2
:101430000808800084030914091008088000840348
:101440000914091008088000840309140910080809
:10145000800084030914091008088000840309141B
:101460000910080880008403091409100808800086
:101470008403091409100808800084030914091062
:1014800008088000840309140910080880008403F8
:1014900009140910080880008403091409100808B9
:1014A00080008403091409100808800084030914CB
:1014B0000910080880008403091409100808800036
:1014C0008403091409100808800084030914091012
:1014D00008088000840309140910080880008403A8
:1014E0000914091008088000840309140910080869
:1014F000800084030914091008088000840309147B
:1015000009100808800084030914091008088000E5
:1015100084030914091008088000840309140910C1
:101520000808800084030914091008088000840357
:10153000091408088A110A123A290910891420305E
:10154000840008080914091089108000840A08081A
:101550000914091089148000840A08080914091064
:1015600089108000840A0808091409108914800071
:10157000840A08080914091089108000840A0808E0
:101580000914091089148000840A08080914091034
:1015900089108000840A0808091409108914800041
:1015A000840A08080914091089108000840A0808B0
:1015B0000914091089148000840A08080914091004
:1015C00089108000840A0808091409108914800011
:1015D000840A08080914091089108000840A080880
:1015E0000914091089148000840A080809140910D4
:1015F00089108000840A08080914091089148000E1
:10160000840A08080914091089108000840A08084F
:101610000914091089148000840A080809140910A3
:1016200089108000840A08080914091089148000B0
:10163000840A08080914091089108000840A08081F
:101640000914091089148000840A08080914091073
:1016500089108000840A0808091409108914800080
:10166000840A08080914091089108000840A0808EF
:101670000914091089148000840A08080914091043
:1016800089108000840A0808091409108914800050
:10169000840A08080914091089108000840A0808BF
:1016A0000914091089148000840A08080914091013
:1016B00089108000840A0808091409108914800020
:1016C000840A08080914091089108000840A08088F
:1016D0000914091089148000840A080809140910E3
:1016E00089108000840A08080914091089148000F0
:1016F000840A08080914091089108000840A08085F
:101700000914091089148000840A080809140910B2
:1017100089108000840A08080914091089148000BF
:10172000840A08080914091089108000840A08082E
:101730000914091089148000840A08080914091082
:1017400089108000840A080809140910891480008F
:10175000840A08080914091089108000840A0808FE
:101760000914091089148000840A08080914091052
:1017700089108000840A080809140910891480005F
:10178000840A08080914091089108000840A0808CE
:101790000914091089148000840A08080914091022
:1017A00089108000840A080809140910891480002F
:1017B000840A08080914091089108000840A08089E
:1017C0000914091089148000840A080809140910F2
:1017D00089108000840A08080914091089148000FF
:1017E000840A08080914091089108000840A08086E
:1017F0000914091089148000840A080809140910C2
:1018000089108000840A08080914091089148000CE
:10181000840A08080914091089108000840A08083D
:101820000914091089148000840A08080914091091
:1018300089108000840A080809140910891480009E
:101840008417080809140910891080008403080807
:101850000914091089148000840308080914091068
:101860008910800084030808091409108914800075
:1018700084030808091409108910800084030808EB
:101880000914091089148000840308080914091038
:101890008910800084030808091409108914800045
:1018A00084030808091409108910800084030808BB
:1018B0000914091089148000840308080914091008
:1018C0008910800084030808091409108914800015
:1018D000840308080914091089108000840308088B
:1018E00009140910891480008403080809140910D8
:1018F00089108000840308080914091089148000E5
:10190000840308080914091089108000840308085A
:1019100009140910891480008403080809140910A7
:1019200089108000840308080914091089148000B4
:10193000840308080914091089108000840308082A
:101940000914091089148000840308080914091077
:101950008910800084030808091409108914800084
:1019600084030808091409108910800084030808FA
:101970000914091089148000840308080914091047
:101980008910800084030808091409108914800054
:1019900084030808091409108910800084030808CA
:1019A0000914091089148000840308080914091017
:1019B0008910800084030808091409108914800024
:1019C000840308080914091089108000840308089A
:1019D00009140910891480008403080809140910E7
:1019E00089108000840308080914091089148000F4
:1019F000840308080914091089108000840308086A
:101A000009140910891480008403080809140910B6
:101A100089108000840308080914091089148000C3
:101A20008403080809140910891080008403080839
:101A30000914091089148000840308080914091086
:101A40008910800084030808091409108914800093
:101A50008403080809140910891080008403080809
:101A60000914091089148000840308080914091056
:101A70008910800084030808091409108914800063
:101A800084030808091409108910800084030808D9
:101A90000914091089148000840308080914091026
:101AA0008910800084030808091409108914800033
:101AB00084030808091409108910800084030808A9
:101AC00009140910891480008403080809140910F6
:101AD0008910800084030808091409108914800003
:101AE0008403080809140910891080008403080879
:101AF00009140910891480008403080809140910C6
:101B000089108000840308080914091089148000D2
:101B10008403080809140910891080008403080848
:101B20000914091089148000840308080914091095
:101B300089108000840308080914091089148000A2
:101B4000831708080914091089108000840A0808FE
:101B50000914091089148000840A0808091409105E
:101B600089108000840A080809140910891480006B
:101B7000840A08080914091089108000840A0808DA
:101B80000914091089148000840A0808091409102E
:101B900089108000840A080809140910891480003B
:101BA000840A08080914091089108000840A0808AA
:101BB0000914091089148000840A080809140910FE
:101BC00089108000840A080809140910891480000B
:101BD000840A08080914091089108000840A08087A
:101BE0000914091089148000840A080809140910CE
:101BF00089108000840A08080914091089148000DB
:101C0000840A08080914091089108000840A080849
:101C10000914091089148000840A0808091409109D
:101C200089108000840A08080914091089148000AA
:101C3000840A08080914091089108000840A080819
:101C40000914091089148000840A0808091409106D
:101C500089108000840A080809140910891480007A
:101C6000840A08080914091089108000840A0808E9
:101C70000914091089148000840A0808091409103D
:101C800089108000840A080809140910891480004A
:101C9000840A08080914091089108000840A0808B9
:101CA0000914091089148000840A0808091409100D
:101CB00089108000840A080809140910891480001A
:101CC000840A08080914091089108000840A080889
:101CD0000914091089148000840A080809140910DD
:101CE00089108000840A08080914091089148000EA
:101CF000840A08080914091089108000840A080859
:101D00000914091089148000840A080809140910AC
:101D100089108000840A08080914091089148000B9
:101D2000840A08080914091089108000840A080828
:101D30000914091089148000840A0808091409107C
:101D400089108000840A0808091409108914800089
:101D5000840A08080914091089108000840A0808F8
:101D60000914091089148000840A0808091409104C
:101D700089108000840A0808091409108914800059
:101D8000840A08080914091089108000840A0808C8
:101D90000914091089148000840A0808091409101C
:101DA00089108000840A0808091409108914800029
:101DB000840A08080914091089108000840A080898
:101DC0000914091089148000840A080809140910EC
:101DD00089108000840A08080914091089148000F9
:101DE000840A08080914091089108000840A080868
:101DF0000914091089148000840A080809140910BC
:101E000089108000840A08080914091089148000C8
:101E1000840A08080914091089108000840A080837
:101E20000914091089148000840A0808091409108B
:101E300089108000840A0808091409108914800098
:101E40008413080809140910891080008403080805
:101E50000914091089148000840308080914091062
:101E6000891080008403080809140910891480006F
:101E700084030808091409108910800084030808E5
:101E80000914091089148000840308080914091032
:101E9000891080008403080809140910891480003F
:101EA00084030808091409108910800084030808B5
:101EB0000914091089148000840308080914091002
:101EC000891080008403080809140910891480000F
:101ED0008403080809140910891080008403080885
:101EE00009140910891480008403080809140910D2
:101EF00089108000840308080914091089148000DF
:101F00008403080809140910891080008403080854
:101F100009140910891480008403080809140910A1
:101F200089108000840308080914091089148000AE
:101F30008403080809140910891080008403080824
:101F40000914091089148000840308080914091071
:101F5000891080008403080809140910891480007E
:101F600084030808091409108910800084030808F4
:101F70000914091089148000840308080914091041
:101F8000891080008403080809140910891480004E
:101F900084030808091409108910800084030808C4
:101FA0000914091089148000840308080914091011
:101FB000891080008403080809140910891480001E
:101FC0008403080809140910891080008403080894
:101FD00009140910891480008403080809140910E1
:101FE00089108000840308080914091089148000EE
:101FF0008403080809140910891080008403080864
:1020000009140910891480008403080809140910B0
:1020100089108000840308080914091089148000BD
:102020008403080809140910891080008403080833
:102030000914091089148000840308080914091080
:10204000891080008403080809140910891480008D
:102050008403080809140910891080008403080803
:102060000914091089148000840308080914091050
:10207000891080008403080809140910891480005D
:1020800084030808091409108910800084030808D3
:102090000914091089148000840308080914091020
:1020A000891080008403080809140910891480002D
:1020B00084030808091409108910800084030808A3
:1020C00009140910891480008403080809140910F0
:1020D00089108000840308080914091089148000FD
:1020E0008403080809140910891080008403080873
:1020F00009140910891480008403080809140910C0
:1021000089108000840308080914091089148000CC
:102110008403080809140910891080008403080842
:10212000091409108914800084030808091409108F
:10213000891080008403080809148A110A123A29B8
:1021400009102030840000000808091409108000DC
:10215000840A00000808091409108000840A00009D
:102160000808091409108000840A000008080914EE
:1021700009108000840A0000080809140910800072
:10218000840A00000808091409108000840A00006D
:102190000808091409108000840A000008080914BE
:1021A00009108000840A0000080809140910800042
:1021B000840A00000808091409108000840A00003D
:1021C0000808091409108000840A0000080809148E
:1021D00009108000840A0000080809140910800012
:1021E000840A00000808091409108000840A00000D
:1021F0000808091409108000840A0000080809145E
:1022000009108000840A00000808091409108000E1
:10221000840A00000808091409108000840A0000DC
:102220000808091409108000840A0000080809142D
:1022300009108000840A00000808091409108000B1
:10224000840A00000808091409108000840A0000AC
:102250000808091409108000840A000008080914FD
:1022600009108000840A0000080809140910800081
:10227000840A00000808091409108000840A00007C
:102280000808091409108000840A000008080914CD
:1022900009108000840A0000080809140910800051
:1022A000840A00000808091409108000840A00004C
:1022B0000808091409108000840A0000080809149D
:1022C00009108000840A0000080809140910800021
:1022D000840A00000808091409108000840A00001C
:1022E0000808091409108000840A0000080809146D
:1022F00009108000840A00000808091409108000F1
:10230000840A00000808091409108000840A0000EB
:102310000808091409108000840A0000080809143C
:1023200009108000840A00000808091409108000C0
:10233000840A00000808091409108000840A0000BB
:102340000808091409108000840A0000080809140C
:1023500009108000840A0000080809140910800090
:10236000840A00000808091409108000840A00008B
:102370000808091409108000840A000008080914DC
:1023800009108000840A0000080809140910800060
:10239000840A00000808091409108000840A00005B
:1023A0000808091409108000840A000008080914AC
:1023B00009108000840A0000080809140910800030
:1023C000840A00000808091409108000840A00002B
:1023D0000808091409108000840A0000080809147C
:1023E00009108000840A0000080809140910800000
:1023F000840A00000808091409108000840A0000FB
:102400000808091409108000840A0000080809144B
:1024100009108000840A00000808091409108000CF
:10242000840A00000808091409108000840A0000CA
:102430000808091409108000840A0000080809141B
:102440000910800084170000080809140910800092
:1024500084030000080809140910800084030000A8
:1024600008080914091080008403000008080914F2
:102470000910800084030000080809140910800076
:102480008403000008080914091080008403000078
:1024900008080914091080008403000008080914C2
:1024A0000910800084030000080809140910800046
:1024B0008403000008080914091080008403000048
:1024C0000808091409108000840300000808091492
:1024D0000910800084030000080809140910800016
:1024E0008403000008080914091080008403000018
:1024F0000808091409108000840300000808091462
:1025000009108000840300000808091409108000E5
:1025100084030000080809140910800084030000E7
:102520000808091409108000840300000808091431
:1025300009108000840300000808091409108000B5
:1025400084030000080809140910800084030000B7
:102550000808091409108000840300000808091401
:102560000910800084030000080809140910800085
:102570008403000008080914091080008403000087
:1025800008080914091080008403000008080914D1
:102590000910800084030000080809140910800055
:1025A0008403000008080914091080008403000057
:1025B00008080914091080008403000008080914A1
:1025C0000910800084030000080809140910800025
:1025D0008403000008080914091080008403000027
:1025E0000808091409108000840300000808091471
:1025F00009108000840300000808091409108000F5
:1026000084030000080809140910800084030000F6
:102610000808091409108000840300000808091440
:1026200009108000840300000808091409108000C4
:1026300084030000080809140910800084030000C6
:102640000808091409108000840300000808091410
:102650000910800084030000080809140910800094
:102660008403000008080914091080008403000096
:1026700008080914091080008403000008080914E0
:102680000910800084030000080809140910800064
:102690008403000008080914091080008403000066
:1026A00008080914091080008403000008080914B0
:1026B0000910800084030000080809140910800034
:1026C0008403000008080914091080008403000036
:1026D0000808091409108000840300000808091480
:1026E0000910800084030000080809140910800004
:1026F0008403000008080914091080008403000006
:10270000080809140910800084030000080809144F
:1027100009108000840300000808091409108000D3
:1027200084030000080809140910800084030000D5
:10273000080809140910800084030000080809141F
:102740000910800083170000080809140910800090
:10275000840A00000808091409108000840A000097
:102760000808091409108000840A000008080914E8
:1027700009108000840A000008080914091080006C
:10278000840A00000808091409108000840A000067
:102790000808091409108000840A000008080914B8
:1027A00009108000840A000008080914091080003C
:1027B000840A00000808091409108000840A000037
:1027C0000808091409108000840A00000808091488
:1027D00009108000840A000008080914091080000C
:1027E000840A00000808091409108000840A000007
:1027F0000808091409108000840A00000808091458
:1028000009108000840A00000808091409108000DB
:10281000840A00000808091409108000840A0000D6
:102820000808091409108000840A00000808091427
:1028300009108000840A00000808091409108000AB
:10284000840A00000808091409108000840A0000A6
:102850000808091409108000840A000008080914F7
:1028600009108000840A000008080914091080007B
:10287000840A00000808091409108000840A000076
:102880000808091409108000840A000008080914C7
:1028900009108000840A000008080914091080004B
:1028A000840A00000808091409108000840A000046
:1028B0000808091409108000840A00000808091497
:1028C00009108000840A000008080914091080001B
:1028D000840A00000808091409108000840A000016
:1028E0000808091409108000840A00000808091467
:1028F00009108000840A00000808091409108000EB
:10290000840A00000808091409108000840A0000E5
:102910000808091409108000840A00000808091436
:1029200009108000840A00000808091409108000BA
:10293000840A00000808091409108000840A0000B5
:102940000808091409108000840A00000808091406
:1029500009108000840A000008080914091080008A
:10296000840A00000808091409108000840A000085
:102970000808091409108000840A000008080914D6
:1029800009108000840A000008080914091080005A
:10299000840A00000808091409108000840A000055
:1029A0000808091409108000840A000008080914A6
:1029B00009108000840A000008080914091080002A
:1029C000840A00000808091409108000840A000025
:1029D0000808091409108000840A00000808091476
:1029E00009108000840A00000808091409108000FA
:1029F000840A00000808091409108000840A0000F5
:102A00000808091409108000840A00000808091445
:102A100009108000840A00000808091409108000C9
:102A2000840A00000808091409108000840A0000C4
:102A30000808091409108000840A00000808091415
:102A40000910800084130000080809140910800090
:102A500084030000080809140910800084030000A2
:102A600008080914091080008403000008080914EC
:102A70000910800084030000080809140910800070
:102A80008403000008080914091080008403000072
:102A900008080914091080008403000008080914BC
:102AA0000910800084030000080809140910800040
:102AB0008403000008080914091080008403000042
:102AC000080809140910800084030000080809148C
:102AD0000910800084030000080809140910800010
:102AE0008403000008080914091080008403000012
:102AF000080809140910800084030000080809145C
:102B000009108000840300000808091409108000DF
:102B100084030000080809140910800084030000E1
:102B2000080809140910800084030000080809142B
:102B300009108000840300000808091409108000AF
:102B400084030000080809140910800084030000B1
:102B500008080914091080008403000008080914FB
:102B6000091080008403000008080914091080007F
:102B70008403000008080914091080008403000081
:102B800008080914091080008403000008080914CB
:102B9000091080008403000008080914091080004F
:102BA0008403000008080914091080008403000051
:102BB000080809140910800084030000080809149B
:102BC000091080008403000008080914091080001F
:102BD0008403000008080914091080008403000021
:102BE000080809140910800084030000080809146B
:102BF00009108000840300000808091409108000EF
:102C000084030000080809140910800084030000F0
:102C1000080809140910800084030000080809143A
:102C200009108000840300000808091409108000BE
:102C300084030000080809140910800084030000C0
:102C4000080809140910800084030000080809140A
:102C5000091080008403000008080914091080008E
:102C60008403000008080914091080008403000090
:102C700008080914091080008403000008080914DA
:102C8000091080008403000008080914091080005E
:102C90008403000008080914091080008403000060
:102CA00008080914091080008403000008080914AA
:102CB000091080008403000008080914091080002E
:102CC0008403000008080914091080008403000030
:102CD000080809140910800084030000080809147A
:102CE00009108000840300000808091409108000FE
:102CF0008403000008080914091080008403000000
:102D00000808091409108000840300000808091449
:102D100009108000840300000808091409108000CD
:102D200084030000080809140910800084030000CF
:102D30000808091409108000840300000808091419
:102D40008A110A123A2916308A00790882070A166F
:102D50008A11B62E0A168A11C62F0A168A15C92894
:102D60000A168A15CC290A168A15D02A091020308D
:102D7000840000000914091008088000840A09145E
:102D8000091008088000840A091409100808800046
:102D9000840A0914091008088000840A091409101B
:102DA00008088000840A0914091008088000840AB1
:102DB0000914091008088000840A09140910080879
:102DC0008000840A0914091008088000840A091484
:102DD000091008088000840A0914091008088000F6
:102DE000840A0914091008088000840A09140910CB
:102DF00008088000840A0914091008088000840A61
:102E00000914091008088000840A09140910080828
:102E10008000840A0914091008088000840A091433
:102E2000091008088000840A0914091008088000A5
:102E3000840A0914091008088000840A091409107A
:102E400008088000840A0914091008088000840A10
:102E50000914091008088000840A091409100808D8
:102E60008000840A0914091008088000840A0914E3
:102E7000091008088000840A091409100808800055
:102E8000840A0914091008088000840A091409102A
:102E900008088000840A0914091008088000840AC0
:102EA0000914091008088000840A09140910080888
:102EB0008000840A0914091008088000840A091493
:102EC000091008088000840A091409100808800005
:102ED000840A0914091008088000840A09140910DA
:102EE00008088000840A0914091008088000840A70
:102EF0000914091008088000840A09140910080838
:102F00008000840A0914091008088000840A091442
:102F1000091008088000840A0914091008088000B4
:102F2000840A0914091008088000840A0914091089
:102F300008088000840A0914091008088000840A1F
:102F40000914091008088000840A091409100808E7
:102F50008000840A0914091008088000840A0914F2
:102F6000091008088000840A091409100808800064
:102F7000840A091408088000840AC02F8000840392
:102F80000330F90786140A128A118C2800000910F0
:102F9000C92F00000914091008088000840A0914C8
:102FA000091008088000840A091409100808800024
:102FB000840A0914091008088000840A09140910F9
:102FC00008088000840A0914091008088000840A8F
:102FD0000914091008088000840A09140910080857
:102FE0008000840A0914091008088000840A091462
:102FF000091008088000840A0914091008088000D4
:10300000840A09140910080880008417091409109B
:10301000080880008403091409100808800084034C
:10302000091409100808800084030914091008080D
:10303000800084030914091008088000840309141F
:10304000091008088000840309140910080880008A
:103050008403091409100808800084030914091066
:1030600008088000840309140910080880008403FC
:1030700009140910080880008403091409100808BD
:1030800080008403091409100808800084030914CF
:10309000091008088000840309140910080880003A
:1030A0008403091409100808800084030914091016
:1030B00008088000840309140910080880008403AC
:1030C000091409100808800084030914091008086D
:1030D000800084030914091008088000840309147F
:1030E00009100808800084030914091008088000EA
:1030F00084030914091008088000840309140910C6
:10310000080880008403091409100808800084035B
:10311000091409100808800084030914091008081C
:10312000800084030914091008088000840309142E
:103130000910080880008403091409100808800099
:103140008403091409100808800084030914091075
:10315000080880008403091409100808800084030B
:1031600009140910080880008403091409100808CC
:1031700080008403091409100808800084030914DE
:103180000910080880008403091408080A168A1127
:10319000BE2FCA280910CC280000091409100808FD
:1031A00080008403091409100808800084030914AE
:1031B0000910080880008403091409100808800019
:1031C00084030914091008088000840309140910F5
:1031D000080880008403091409100808800084038B
:1031E000091409100808800084030914091008084C
:1031F000800084030914091008088000840309145E
:1032000009100808800084030914091008088000C8
:1032100084030914091008088000840309140910A4
:10322000080880008403091409100808800084033A
:1032300009140910080880008403091409100808FB
:10324000800084030914091008088000840309140D
:103250000910080880008403091409100808800078
:103260008403091409100808800084030914091054
:1032700008088000840309140910080880008403EA
:1032800009140910080880008403091409100808AB
:10329000800083170914091008088000840A0914A3
:1032A000091008088000840A091409100808800021
:1032B000840A0914091008088000840A09140910F6
:1032C00008088000840A0914091008088000840A8C
:1032D0000914091008088000840A09140910080854
:1032E0008000840A0914091008088000840A09145F
:1032F000091008088000840A0914091008088000D1
:10330000840A0914091008088000840A09140910A5
:1033100008088000840A0914091008088000840A3B
:103320000914091008088000840A09140910080803
:103330008000840A0914091008088000840A09140E
:10334000091008088000840A091409100808800080
:10335000840A0914091008088000840A0914091055
:1033600008088000840A0914091008088000840AEB
:103370000914091008088000840A091409100808B3
:103380008000840A0914091008088000840A0914BE
:1033900008080A168A11BB2FCD2900000910D02970
:1033A00000000914091008088000840A0914091093
:1033B00008088000840A0914091008088000840A9B
:1033C0000914091008088000840A09140910080863
:1033D0008000840A0914091008088000840A09146E
:1033E000091008088000840A0914091008088000E0
:1033F000840A0914091008088000840A09140910B5
:1034000008088000840A0914091008088000840A4A
:103410000914091008088000840A09140910080812
:103420008000840A0914091008088000840A09141D
:10343000091008088000840A09140910080880008F
:10344000840A0914091008088000840A0914091064
:1034500008088000840A0914091008088000840AFA
:103460000914091008088000840A091409100808C2
:103470008000840A0914091008088000840A0914CD
:10348000091008088000840A09140910080880003F
:10349000840A0914091008088000840A0914091014
:1034A00008088000840A0914091008088000840AAA
:1034B0000914091008088000840A09140910080872
:1034C0008000840A0914091008088000840A09147D
:1034D000091008088000840A0914091008088000EF
:1034E000840A0914091008088000840A09140910C4
:1034F00008088000840A0914091008088000840A5A
:103500000914091008088000840A09140910080821
:103510008000840A09140910080880008413091423
:1035200009100808800084030914091008088000A5
:103530008403091409100808800084030914091081
:103540000808800084030914091008088000840317
:1035500009140910080880008403091409100808D8
:1035600080008403091409100808800084030914EA
:103570000910080880008403091409100808800055
:103580008403091409100808800084030914091031
:10359000080880008403091408080A168A11BE2F3F
:1035A000D12A0A128A15091000009E291A308A00B1
:1035B000790882070A168A15E32A0A168A15EA2C60
:1035C0000A168A15EB2E0910203084000000080826
:1035D000091409108000840A000008080914091061
:1035E0008000840A00000808091409108000840A79
:1035F00000000808091409108000840A0000080867
:10360000091409108000840A000008080914091030
:103610008000840A00000808091409108000840A48
:1036200000000808091409108000840A0000080836
:10363000091409108000840A000008080914091000
:103640008000840A00000808091409108000840A18
:1036500000000808091409108000840A0000080806
:10366000091409108000840A0000080809140910D0
:103670008000840A00000808091409108000840AE8
:1036800000000808091409108000840A00000808D6
:10369000091409108000840A0000080809140910A0
:1036A0008000840A00000808091409108000840AB8
:1036B00000000808091409108000840A00000808A6
:1036C000091409108000840A000008080914091070
:1036D0008000840A00000808091409108000840A88
:1036E00000000808091409108000840A0000080876
:1036F000091409108000840A000008080914091040
:103700008000840A00000808091409108000840A57
:1037100000000808091409108000840A0000080845
:10372000091409108000840A00000808091409100F
:103730008000840A00000808091409108000840A27
:1037400000000808091409108000840A0000080815
:10375000091409108000840A0000080809140910DF
:103760008000840A00000808091409108000840AF7
:1037700000000808091409108000840A00000808E5
:10378000091409108000840A0000080809140910AF
:103790008000840A00000808091409108000840AC7
:1037A00000000808091409108000840A00000808B5
:1037B000091409108000840A00000808091409107F
:1037C0008000840A00000808091409108000840A97
:1037D00000000808091409108000840A0000080885
:1037E000091409108000840A00000808091409104F
:1037F0008000840A00000808091409108000840A67
:1038000000000808091409108000840A0000080854
:10381000091409108000840A00000808091409101E
:103820008000840A00000808091409108000840A36
:1038300000000808091409108000840A0000080824
:10384000091409108000840A0000080809140910EE
:103850008000840A00000808091409108000840A06
:1038600000000808091409108000840A00000808F4
:10387000091409108000840A0000080809140910BE
:103880008000840A00000808091409108000840AD6
:1038900000000808091409108000840A00000808C4
:1038A000091409108000840A00000808091409108E
:1038B0008000840A00000808091409108000840AA6
:1038C0000000080809140910800084170000080887
:1038D0000914091080008403000008080914091065
:1038E0008000840300000808091409108000840384
:1038F000000008080914091080008403000008086B
:103900000914091080008403000008080914091034
:103910008000840300000808091409108000840353
:10392000000008080914091080008403000008083A
:103930000914091080008403000008080914091004
:103940008000840300000808091409108000840323
:10395000000008080914091080008403000008080A
:1039600009140910800084030000080809140910D4
:1039700080008403000008080914091080008403F3
:1039800000000808091409108000840300000808DA
:1039900009140910800084030000080809140910A4
:1039A00080008403000008080914091080008403C3
:1039B00000000808091409108000840300000808AA
:1039C00009140910800084030000080809140A166D
:1039D0008A11BE2FEB2C0910ED2C000008080914E9
:1039E00009108000840300000808091409108000F1
:1039F00084030000080809140910800084030000F3
:103A0000080809140910800084030000080809143C
:103A100009108000840300000808091409108000C0
:103A200084030000080809140910800084030000C2
:103A3000080809140910800084030000080809140C
:103A40000910800084030000080809140910800090
:103A50008403000008080914091080008403000092
:103A600008080914091080008403000008080914DC
:103A70000910800084030000080809140910800060
:103A80008403000008080914091080008403000062
:103A900008080914091080008403000008080914AC
:103AA0000910800084030000080809140910800030
:103AB0008403000008080914091080008403000032
:103AC000080809140910800084030000080809147C
:103AD0000910800084030000080809140910800000
:103AE0008403000008080914091080008403000002
:103AF000080809140910800084030000080809144C
:103B000009108000840300000808091409108000CF
:103B100084030000080809140910800084030000D1
:103B2000080809140910800084030000080809141B
:103B3000091080008403000008080914091080009F
:103B400084030000080809140910800084030000A1
:103B500008080914091080008403000008080914EB
:103B6000091080008403000008080914091080006F
:103B70008403000008080914091080008403000071
:103B800008080914091080008403000008080914BB
:103B9000091080008403000008080914091080003F
:103BA0008403000008080914091080008403000041
:103BB000080809140910800084030000080809148B
:103BC000091080008403000008080914091080000F
:103BD000831700000808091409108000840A0000F7
:103BE0000808091409108000840A00000808091454
:103BF00009108000840A00000808091409108000D8
:103C0000840A00000808091409108000840A0000D2
:103C10000808091409108000840A00000808091423
:103C200009108000840A00000808091409108000A7
:103C3000840A00000808091409108000840A0000A2
:103C40000808091409108000840A000008080914F3
:103C500009108000840A0000080809140910800077
:103C6000840A00000808091409108000840A000072
:103C70000808091409108000840A000008080914C3
:103C800009108000840A0000080809140910800047
:103C9000840A00000808091409108000840A000042
:103CA0000808091409108000840A00000808091493
:103CB00009108000840A0000080809140910800017
:103CC000840A00000808091409108000840A000012
:103CD0000808091409108000840A00000808091463
:103CE00009108000840A00000808091409108000E7
:103CF000840A00000808091409108000840A0000E2
:103D00000808091409108000840A00000808091432
:103D100009108000840A00000808091409108000B6
:103D2000840A00000808091409108000840A0000B1
:103D30000808091409108000840A00000808091402
:103D400009108000840A0000080809140910800086
:103D5000840A00000808091409108000840A000081
:103D60000808091409108000840A000008080914D2
:103D700009108000840A0000080809140910800056
:103D8000840A00000808091409108000840A000051
:103D90000808091409108000840A000008080914A2
:103DA00009108000840A0000080809140910800026
:103DB000840A00000808091409108000840A000021
:103DC0000808091409108000840A00000808091472
:103DD0000A168A11BB2FEC2E0A168A110910000050
:023DE000A62C0F
:084000000100020003000400AE
:02400E00F2209E
:02401000FF3F70
:00000001FF
