:020000040000FA
:100000000130890088015D28FC00030EFD000B1EF5
:100010004F288B1C4F280B12FF1B4828F40B0E286F
:10002000F50B0E28F60B0E28F70B0E287808820722
:100030000A128A11962D0A168A119D280A128A110F
:100040005D2C0A128A11A02C0A128A11A02C0A1205
:100050008A114F2B0A168A11A02E0A168A15D32A46
:100060000A128A159A2A0A128A11032D0A128A1173
:10007000032D0A128A11BA2B0A128A11CD290A12EB
:100080008A1186280A128A1186280A128A1186285D
:10009000831203136708EB006608EA007F178312D8
:1000A00003130C1C5828831603130C1C58283F21DB
:1000B0007D0E8300FC0E7C0E09008501F330860066
:1000C00083160313C03095001F3085004030810037
:1000D00010308B00F1308600FF308800043089003A
:1000E000B93087008316031788018901083087001B
:1000F000831603135630990000309A00243098007C
:10010000831203139030980083139F01FF01F901BC
:10011000831203138614C7208910701A89148A0168
:1001200070080F39F8000310F80D7807F800630A1B
:10013000F400620AF500610AF600600AF700780828
:100140008610701F1728831603130113F01B011765
:1001500083120313E01FB9286308FE39EC008316ED
:100160000313E00083120313FE3AE900FF17780837
:1001700017288B100B168B1715217A08F33A031DDD
:10018000BC280B128B13DC30FA002821862815219D
:100190007A08F83A031DFB28DC30FA0028212030C9
:1001A00084004030F50083130008FA00840A2821F7
:1001B000F50BD4284030F500841784030008FA00BA
:1001C00084032821F50BDE284030F5008317840ACC
:1001D0000008FA00840A2821F50BE8284030F500D1
:1001E000841384030008FA0084032821F50BF22805
:1001F00083130123C7287A08F93A031D0429DD3047
:10020000FA002821E222C7287A08FA3A031D0D29AC
:10021000DE30FA002821B82208007A08F33A031DDC
:10022000C728DC30FA002821C728831203138C1E4C
:100230001729181D1D291A081729981C2529181275
:1002400018161A088C1A212917291A08FA000034DE
:10025000831203130C1E2A297A08990000340130F6
:10026000F402031CF502F408031D3029F508031DF0
:10027000302908008000861483130E2386288312F9
:100280000313101072098F0073098E000C101014E4
:10029000FE0B0800710AFE0000000408E800660872
:1002A000840083138413E7188417E71983176719E9
:1002B0008417671983178910861009100B1A8B1C75
:1002C0006229FF150000080809148914091080002C
:1002D0006718840AE7188403080809148614E719C4
:1002E00084036719840A80000230E718FE30E7199A
:1002F000FE30E6071F306606031985296030660662
:10030000031D8F295F30E60087292030E6000310A7
:10031000E70D671E8F29FF1FC229E7016714FF1F22
:10032000C8297F1AA12983160313E00803197F1631
:10033000E003E003831203137F1EA1298B100B1629
:10034000C8297F1FC829E903E90BC82920306A02A0
:10035000EB183F3AEB193F3AEB18403EEB19C03E21
:100360006B19803EFE3EFF19FE3E6C02FE39ED0029
:10037000ED1FC029FE30ED06ED0AED0A5122C1291C
:100380007622FF1610100C10831603130C100B139B
:1003900083120313680884000800831203132030BB
:1003A000E600E70167141010901610160130FE00E9
:1003B000FF308F008E000C10831603130C14831271
:1003C00003130B1710148B17831603130C1C4B2AE3
:1003D000831203138C1EE429181DF0291A08E4293E
:1003E000981CF829181218161A088C1AF429E429EE
:1003F0001A08FA00FF1FFE29FF1E432A7A08F83A5E
:10040000031D312ADC30FA002821203084004030DE
:10041000F50083130008FA00840A2821F50B0A2A44
:100420004030F500840384170008FA008403282173
:10043000F50B142A4030F500840A83170008FA00EF
:10044000840A2821F50B1E2A4030F500840384130A
:100450000008FA0084032821F50B282A83130123BE
:10046000E4297A08F93A031D3A2ADD30FA002821F6
:10047000E222E4297A08FA3A031D432ADE30FA0020
:100480002821D322E4297A08F33A031DE429DC3039
:10049000FA002821C2218B138312031386140E2322
:1004A0008628831203130408EE00ED0803199A2A24
:1004B00020308400831384130008EF00A2228417E5
:1004C0000008841380008417AD228317000883136B
:1004D00080008317A22284130008841780008413ED
:1004E000AD226F088000ED0B552A9A2A8312031360
:1004F0000408EE00ED0803199A2A203084008317BF
:1005000084130008EF00A2228417000884138000DF
:100510008417AD2283130008831780008313A2225F
:1005200084130008841780008413AD226F088000B4
:10053000ED0B7A2A83132208A0002308A1006E087D
:1005400084000800840A000884038000840A5F3065
:1005500004067F39031DA22A080084030008840AC8
:1005600080008403203004067F39031DAD2A080073
:1005700015217A08DF392038F00015217A08E000CB
:1005800015217A08E10015217A08E20015217A0880
:10059000E30015217A08F10015217A08F2001521EF
:1005A0007A08F300080015211521152115211521C0
:1005B00015217A08F10015217A08F20015217A0830
:1005C000F30008000130FA0028210030FA00282149
:1005D0007008FA0028216008FA0028216108FA0052
:1005E00028216208FA0028216308FA0028217108EE
:1005F000FA0028217208FA0028217308FA0028213D
:1006000008007B08FA002821FA0128212821650822
:10061000FA0028216408FA0028210800FB0183164B
:10062000031307158710851605128312031387100D
:1006300005127B17051C7B13851C7B13851CFB1780
:100640000718FB1587140516831603138714071163
:100650000516851283120313071185127B16051CDC
:100660007B12851C7B12851CFB1607187B15071552
:100670008516061FFB14861F7B14E401851D641478
:100680008910061586100910000000000000000007
:1006900000000808091486140611E5000800091076
:1006A0003F30F600203084007308F4007208F50033
:1006B00000002F210808091409108000840A73081B
:1006C000F4007208F5002F21F60B5A2B00000808E1
:1006D00009140910800084173F30F6007308F400F5
:1006E0007208F5002F210000080809140910800085
:1006F00084037308F4007208F5002F21F60B742BA5
:100700000000080809140910800083173F30F60024
:100710007308F4007208F5002F210000080809147E
:1007200009108000840A7308F4007208F5002F2174
:10073000F60B8E2B000008080914091080008413A2
:100740003F30F6007308F4007208F5002F21000016
:10075000080809140910800084037308F400720863
:10076000F5002F21F60BA82B0000080809148A11A8
:100770000A123A2909108914203084000808091443
:10078000091089108000840A1F30F6007308F400F5
:100790007208F5002F2100000808091409108914B7
:1007A0008000840A08080914091089108000840A4E
:1007B0007308F4007208F5002F21F60BCC2B000013
:1007C00008080914091089148000841708080914FE
:1007D00009108910800084031F30F6007308F400AC
:1007E0007208F5002F210000080809140910891467
:1007F000800084030808091409108910800084030C
:100800007308F4007208F5002F21F60BF42B00009A
:1008100008080914091089148000831708080914AE
:10082000091089108000840A1F30F6007308F40054
:100830007208F5002F210000080809140910891416
:100840008000840A08080914091089108000840AAD
:100850007308F4007208F5002F21F60B1C2C000021
:100860000808091409108914800084130808091461
:1008700009108910800084031F30F6007308F4000B
:100880007208F5002F2100000808091409108914C6
:10089000800084030808091409108910800084036B
:1008A0007308F4007208F5002F21F60B442C0000A9
:1008B000080809148A110A123A2909103F30F40075
:1008C0002030840000000808091409108000840A00
:1008D000F40B632C00000808091409108000841729
:1008E0003F30F40000000808091409108000840358
:1008F000F40B732C000008080914091080008317FA
:100900003F30F40000000808091409108000840A30
:10091000F40B832C000008080914091080008413CC
:100920003F30F40000000808091409108000840317
:10093000F40B932C0000080809148A110A123A29B2
:1009400009103F30F40020308400A62C701DA92C23
:10095000FF240808091409108000840A701DB12CB6
:10096000FF240000F40BA92C00000808091409104A
:10097000800084173F30F400BD2C701DC02CFF2474
:1009800008080914091080008403701DC82CFF2476
:100990000000F40BC02C00000808091409108000A6
:1009A00083173F30F400D42C701DD72CFF24080887
:1009B000091409108000840A701DDF2CFF24000038
:1009C000F40BD72C000008080914091080008413C8
:1009D0003F30F400EB2C701DEE2CFF2408080914A6
:1009E000091080008403701DF62CFF240000F40B16
:1009F000EE2C0000080809148A110A123A29002D69
:100A00000000022D08000910891420308400080815
:100A10000914091089108000840A1F30F600701C28
:100A20000025022508080914091089148000840A89
:100A300008080914091089108000840A701C002518
:100A4000212D0000F60B122D0000080809140910D2
:100A5000891480008417080809140910891080007F
:100A600084031F30F600701C0025022508080914B5
:100A700009108914800084030808091409108910DA
:100A800080008403701C0025452D0000F60B362DD8
:100A90000000080809140910891480008317080849
:100AA0000914091089108000840A1F30F600701C98
:100AB0000025022508080914091089148000840AF9
:100AC00008080914091089108000840A701C002588
:100AD000692D0000F60B5A2D0000080809140910B2
:100AE00089148000841308080914091089108000F3
:100AF00084031F30F600701C002502250808091425
:100B00000910891480008403080809140910891049
:100B100080008403701C00258D2D0000F60B7E2DB7
:100B20000000080809148A110A123A290910203015
:100B3000840000000914091008088000840A0914C0
:100B4000091008088000840A0914091008088000A8
:100B5000840A0914091008088000840A091409107D
:100B600008088000840A0914091008088000840A13
:100B70000914091008088000840A091409100808DB
:100B80008000840A0914091008088000840A0914E6
:100B9000091008088000840A091409100808800058
:100BA000840A0914091008088000840A091409102D
:100BB00008088000840A0914091008088000840AC3
:100BC0000914091008088000840A0914091008088B
:100BD0008000840A0914091008088000840A091496
:100BE000091008088000840A091409100808800008
:100BF000840A0914091008088000840A09140910DD
:100C000008088000840A0914091008088000840A72
:100C10000914091008088000840A0914091008083A
:100C20008000840A0914091008088000840A091445
:100C3000091008088000840A0914091008088000B7
:100C4000840A0914091008088000840A091409108C
:100C500008088000840A0914091008088000840A22
:100C60000914091008088000840A091409100808EA
:100C70008000840A0914091008088000840A0914F5
:100C8000091008088000840A091409100808800067
:100C9000840A0914091008088000840A091409103C
:100CA00008088000840A0914091008088000840AD2
:100CB0000914091008088000840A0914091008089A
:100CC0008000840A0914091008088000840A0914A5
:100CD000091008088000840A091409100808800017
:100CE000840A0914091008088000840A09140910EC
:100CF00008088000840A0914091008088000840A82
:100D00000914091008088000840A09140910080849
:100D10008000840A0914091008088000840A091454
:100D2000091008088000840A0914091008088000C6
:100D3000840A0914091008088000840A091409109B
:100D400008088000840A0914091008088000840A31
:100D50000914091008088000840A091409100808F9
:100D60008000840A0914091008088000840A091404
:100D7000091008088000840A091409100808800076
:100D8000840A0914091008088000840A091409104B
:100D900008088000840A0914091008088000840AE1
:100DA0000914091008088000840A091409100808A9
:100DB00080008417091409100808800084030914AE
:100DC000091008088000840309140910080880002D
:100DD0008403091409100808800084030914091009
:100DE000080880008403091409100808800084039F
:100DF0000914091008088000840309140910080860
:100E00008000840309140910080880008403091471
:100E100009100808800084030914091008088000DC
:100E200084030914091008088000840309140910B8
:100E3000080880008403091409100808800084034E
:100E4000091409100808800084030914091008080F
:100E50008000840309140910080880008403091421
:100E6000091008088000840309140910080880008C
:100E70008403091409100808800084030914091068
:100E800008088000840309140910080880008403FE
:100E900009140910080880008403091409100808BF
:100EA00080008403091409100808800084030914D1
:100EB000091008088000840309140910080880003C
:100EC0008403091409100808800084030914091018
:100ED00008088000840309140910080880008403AE
:100EE000091409100808800084030914091008086F
:100EF0008000840309140910080880008403091481
:100F000009100808800084030914091008088000EB
:100F100084030914091008088000840309140910C7
:100F2000080880008403091409100808800084035D
:100F3000091409100808800084030914091008081E
:100F40008000840309140910080880008403091430
:100F5000091008088000840309140910080880009B
:100F60008403091409100808800084030914091077
:100F7000080880008403091409100808800084030D
:100F800009140910080880008403091409100808CE
:100F900080008403091409100808800084030914E0
:100FA000091008088000840309140910080880004B
:100FB0008403091409100808800084030914091027
:100FC00008088000840309140910080880008403BD
:100FD000091409100808800084030914091008087E
:100FE0008000840309140910080880008403091490
:100FF00009100808800084030914091008088000FB
:1010000084030914091008088000840309140910D6
:10101000080880008403091409100808800084036C
:10102000091409100808800084030914091008082D
:10103000800083170914091008088000840A091425
:10104000091008088000840A0914091008088000A3
:10105000840A0914091008088000840A0914091078
:1010600008088000840A0914091008088000840A0E
:101070000914091008088000840A091409100808D6
:101080008000840A0914091008088000840A0914E1
:10109000091008088000840A091409100808800053
:1010A000840A0914091008088000840A0914091028
:1010B00008088000840A0914091008088000840ABE
:1010C0000914091008088000840A09140910080886
:1010D0008000840A0914091008088000840A091491
:1010E000091008088000840A091409100808800003
:1010F000840A0914091008088000840A09140910D8
:1011000008088000840A0914091008088000840A6D
:101110000914091008088000840A09140910080835
:101120008000840A0914091008088000840A091440
:10113000091008088000840A0914091008088000B2
:10114000840A0914091008088000840A0914091087
:1011500008088000840A0914091008088000840A1D
:101160000914091008088000840A091409100808E5
:101170008000840A0914091008088000840A0914F0
:10118000091008088000840A091409100808800062
:10119000840A0914091008088000840A0914091037
:1011A00008088000840A0914091008088000840ACD
:1011B0000914091008088000840A09140910080895
:1011C0008000840A0914091008088000840A0914A0
:1011D000091008088000840A091409100808800012
:1011E000840A0914091008088000840A09140910E7
:1011F00008088000840A0914091008088000840A7D
:101200000914091008088000840A09140910080844
:101210008000840A0914091008088000840A09144F
:10122000091008088000840A0914091008088000C1
:10123000840A0914091008088000840A0914091096
:1012400008088000840A0914091008088000840A2C
:101250000914091008088000840A091409100808F4
:101260008000840A0914091008088000840A0914FF
:10127000091008088000840A091409100808800071
:10128000840A0914091008088000840A0914091046
:1012900008088000840A0914091008088000840ADC
:1012A0000914091008088000840A091409100808A4
:1012B00080008413091409100808800084030914AD
:1012C0000910080880008403091409100808800028
:1012D0008403091409100808800084030914091004
:1012E000080880008403091409100808800084039A
:1012F000091409100808800084030914091008085B
:10130000800084030914091008088000840309146C
:1013100009100808800084030914091008088000D7
:1013200084030914091008088000840309140910B3
:101330000808800084030914091008088000840349
:10134000091409100808800084030914091008080A
:10135000800084030914091008088000840309141C
:101360000910080880008403091409100808800087
:101370008403091409100808800084030914091063
:1013800008088000840309140910080880008403F9
:1013900009140910080880008403091409100808BA
:1013A00080008403091409100808800084030914CC
:1013B0000910080880008403091409100808800037
:1013C0008403091409100808800084030914091013
:1013D00008088000840309140910080880008403A9
:1013E000091409100808800084030914091008086A
:1013F000800084030914091008088000840309147C
:1014000009100808800084030914091008088000E6
:1014100084030914091008088000840309140910C2
:101420000808800084030914091008088000840358
:101430000914091008088000840309140910080819
:10144000800084030914091008088000840309142B
:101450000910080880008403091409100808800096
:101460008403091409100808800084030914091072
:101470000808800084030914091008088000840308
:1014800009140910080880008403091409100808C9
:1014900080008403091409100808800084030914DB
:1014A0000910080880008403091409100808800046
:1014B0008403091409100808800084030914091022
:1014C00008088000840309140910080880008403B8
:1014D0000914091008088000840309140910080879
:1014E000800084030914091008088000840309148B
:1014F00009100808800084030914091008088000F6
:1015000084030914091008088000840309140910D1
:101510000808800084030914091008088000840367
:1015200009140910080880008403091408088A11A6
:101530000A123A2909108914203084000808091475
:10154000091089108000840A0808091409108914F8
:101550008000840A08080914091089108000840A90
:1015600008080914091089148000840A080809145D
:10157000091089108000840A0808091409108914C8
:101580008000840A08080914091089108000840A60
:1015900008080914091089148000840A080809142D
:1015A000091089108000840A080809140910891498
:1015B0008000840A08080914091089108000840A30
:1015C00008080914091089148000840A08080914FD
:1015D000091089108000840A080809140910891468
:1015E0008000840A08080914091089108000840A00
:1015F00008080914091089148000840A08080914CD
:10160000091089108000840A080809140910891437
:101610008000840A08080914091089108000840ACF
:1016200008080914091089148000840A080809149C
:10163000091089108000840A080809140910891407
:101640008000840A08080914091089108000840A9F
:1016500008080914091089148000840A080809146C
:10166000091089108000840A0808091409108914D7
:101670008000840A08080914091089108000840A6F
:1016800008080914091089148000840A080809143C
:10169000091089108000840A0808091409108914A7
:1016A0008000840A08080914091089108000840A3F
:1016B00008080914091089148000840A080809140C
:1016C000091089108000840A080809140910891477
:1016D0008000840A08080914091089108000840A0F
:1016E00008080914091089148000840A08080914DC
:1016F000091089108000840A080809140910891447
:101700008000840A08080914091089108000840ADE
:1017100008080914091089148000840A08080914AB
:10172000091089108000840A080809140910891416
:101730008000840A08080914091089108000840AAE
:1017400008080914091089148000840A080809147B
:10175000091089108000840A0808091409108914E6
:101760008000840A08080914091089108000840A7E
:1017700008080914091089148000840A080809144B
:10178000091089108000840A0808091409108914B6
:101790008000840A08080914091089108000840A4E
:1017A00008080914091089148000840A080809141B
:1017B000091089108000840A080809140910891486
:1017C0008000840A08080914091089108000840A1E
:1017D00008080914091089148000840A08080914EB
:1017E000091089108000840A080809140910891456
:1017F0008000840A08080914091089108000840AEE
:1018000008080914091089148000840A08080914BA
:10181000091089108000840A080809140910891425
:101820008000840A08080914091089108000840ABD
:10183000080809140910891480008417080809147D
:1018400009108910800084030808091409108914FC
:10185000800084030808091409108910800084039B
:101860000808091409108914800084030808091461
:1018700009108910800084030808091409108914CC
:10188000800084030808091409108910800084036B
:101890000808091409108914800084030808091431
:1018A000091089108000840308080914091089149C
:1018B000800084030808091409108910800084033B
:1018C0000808091409108914800084030808091401
:1018D000091089108000840308080914091089146C
:1018E000800084030808091409108910800084030B
:1018F00008080914091089148000840308080914D1
:10190000091089108000840308080914091089143B
:1019100080008403080809140910891080008403DA
:1019200008080914091089148000840308080914A0
:10193000091089108000840308080914091089140B
:1019400080008403080809140910891080008403AA
:101950000808091409108914800084030808091470
:1019600009108910800084030808091409108914DB
:10197000800084030808091409108910800084037A
:101980000808091409108914800084030808091440
:1019900009108910800084030808091409108914AB
:1019A000800084030808091409108910800084034A
:1019B0000808091409108914800084030808091410
:1019C000091089108000840308080914091089147B
:1019D000800084030808091409108910800084031A
:1019E00008080914091089148000840308080914E0
:1019F000091089108000840308080914091089144B
:101A000080008403080809140910891080008403E9
:101A100008080914091089148000840308080914AF
:101A2000091089108000840308080914091089141A
:101A300080008403080809140910891080008403B9
:101A4000080809140910891480008403080809147F
:101A500009108910800084030808091409108914EA
:101A60008000840308080914091089108000840389
:101A7000080809140910891480008403080809144F
:101A800009108910800084030808091409108914BA
:101A90008000840308080914091089108000840359
:101AA000080809140910891480008403080809141F
:101AB000091089108000840308080914091089148A
:101AC0008000840308080914091089108000840329
:101AD00008080914091089148000840308080914EF
:101AE000091089108000840308080914091089145A
:101AF00080008403080809140910891080008403F9
:101B000008080914091089148000840308080914BE
:101B10000910891080008403080809140910891429
:101B200080008403080809140910891080008403C8
:101B3000080809140910891480008317080809147B
:101B4000091089108000840A0808091409108914F2
:101B50008000840A08080914091089108000840A8A
:101B600008080914091089148000840A0808091457
:101B7000091089108000840A0808091409108914C2
:101B80008000840A08080914091089108000840A5A
:101B900008080914091089148000840A0808091427
:101BA000091089108000840A080809140910891492
:101BB0008000840A08080914091089108000840A2A
:101BC00008080914091089148000840A08080914F7
:101BD000091089108000840A080809140910891462
:101BE0008000840A08080914091089108000840AFA
:101BF00008080914091089148000840A08080914C7
:101C0000091089108000840A080809140910891431
:101C10008000840A08080914091089108000840AC9
:101C200008080914091089148000840A0808091496
:101C3000091089108000840A080809140910891401
:101C40008000840A08080914091089108000840A99
:101C500008080914091089148000840A0808091466
:101C6000091089108000840A0808091409108914D1
:101C70008000840A08080914091089108000840A69
:101C800008080914091089148000840A0808091436
:101C9000091089108000840A0808091409108914A1
:101CA0008000840A08080914091089108000840A39
:101CB00008080914091089148000840A0808091406
:101CC000091089108000840A080809140910891471
:101CD0008000840A08080914091089108000840A09
:101CE00008080914091089148000840A08080914D6
:101CF000091089108000840A080809140910891441
:101D00008000840A08080914091089108000840AD8
:101D100008080914091089148000840A08080914A5
:101D2000091089108000840A080809140910891410
:101D30008000840A08080914091089108000840AA8
:101D400008080914091089148000840A0808091475
:101D5000091089108000840A0808091409108914E0
:101D60008000840A08080914091089108000840A78
:101D700008080914091089148000840A0808091445
:101D8000091089108000840A0808091409108914B0
:101D90008000840A08080914091089108000840A48
:101DA00008080914091089148000840A0808091415
:101DB000091089108000840A080809140910891480
:101DC0008000840A08080914091089108000840A18
:101DD00008080914091089148000840A08080914E5
:101DE000091089108000840A080809140910891450
:101DF0008000840A08080914091089108000840AE8
:101E000008080914091089148000840A08080914B4
:101E1000091089108000840A08080914091089141F
:101E20008000840A08080914091089108000840AB7
:101E3000080809140910891480008413080809147B
:101E400009108910800084030808091409108914F6
:101E50008000840308080914091089108000840395
:101E6000080809140910891480008403080809145B
:101E700009108910800084030808091409108914C6
:101E80008000840308080914091089108000840365
:101E9000080809140910891480008403080809142B
:101EA0000910891080008403080809140910891496
:101EB0008000840308080914091089108000840335
:101EC00008080914091089148000840308080914FB
:101ED0000910891080008403080809140910891466
:101EE0008000840308080914091089108000840305
:101EF00008080914091089148000840308080914CB
:101F00000910891080008403080809140910891435
:101F100080008403080809140910891080008403D4
:101F2000080809140910891480008403080809149A
:101F30000910891080008403080809140910891405
:101F400080008403080809140910891080008403A4
:101F5000080809140910891480008403080809146A
:101F600009108910800084030808091409108914D5
:101F70008000840308080914091089108000840374
:101F8000080809140910891480008403080809143A
:101F900009108910800084030808091409108914A5
:101FA0008000840308080914091089108000840344
:101FB000080809140910891480008403080809140A
:101FC0000910891080008403080809140910891475
:101FD0008000840308080914091089108000840314
:101FE00008080914091089148000840308080914DA
:101FF0000910891080008403080809140910891445
:1020000080008403080809140910891080008403E3
:1020100008080914091089148000840308080914A9
:102020000910891080008403080809140910891414
:1020300080008403080809140910891080008403B3
:102040000808091409108914800084030808091479
:1020500009108910800084030808091409108914E4
:102060008000840308080914091089108000840383
:102070000808091409108914800084030808091449
:1020800009108910800084030808091409108914B4
:102090008000840308080914091089108000840353
:1020A0000808091409108914800084030808091419
:1020B0000910891080008403080809140910891484
:1020C0008000840308080914091089108000840323
:1020D00008080914091089148000840308080914E9
:1020E0000910891080008403080809140910891454
:1020F00080008403080809140910891080008403F3
:1021000008080914091089148000840308080914B8
:102110000910891080008403080809140910891423
:1021200080008403080809140910891080008403C2
:10213000080809148A110A123A290910203084006B
:1021400000000808091409108000840A000008082B
:10215000091409108000840A0000080809140910F5
:102160008000840A00000808091409108000840A0D
:1021700000000808091409108000840A00000808FB
:10218000091409108000840A0000080809140910C5
:102190008000840A00000808091409108000840ADD
:1021A00000000808091409108000840A00000808CB
:1021B000091409108000840A000008080914091095
:1021C0008000840A00000808091409108000840AAD
:1021D00000000808091409108000840A000008089B
:1021E000091409108000840A000008080914091065
:1021F0008000840A00000808091409108000840A7D
:1022000000000808091409108000840A000008086A
:10221000091409108000840A000008080914091034
:102220008000840A00000808091409108000840A4C
:1022300000000808091409108000840A000008083A
:10224000091409108000840A000008080914091004
:102250008000840A00000808091409108000840A1C
:1022600000000808091409108000840A000008080A
:10227000091409108000840A0000080809140910D4
:102280008000840A00000808091409108000840AEC
:1022900000000808091409108000840A00000808DA
:1022A000091409108000840A0000080809140910A4
:1022B0008000840A00000808091409108000840ABC
:1022C00000000808091409108000840A00000808AA
:1022D000091409108000840A000008080914091074
:1022E0008000840A00000808091409108000840A8C
:1022F00000000808091409108000840A000008087A
:10230000091409108000840A000008080914091043
:102310008000840A00000808091409108000840A5B
:1023200000000808091409108000840A0000080849
:10233000091409108000840A000008080914091013
:102340008000840A00000808091409108000840A2B
:1023500000000808091409108000840A0000080819
:10236000091409108000840A0000080809140910E3
:102370008000840A00000808091409108000840AFB
:1023800000000808091409108000840A00000808E9
:10239000091409108000840A0000080809140910B3
:1023A0008000840A00000808091409108000840ACB
:1023B00000000808091409108000840A00000808B9
:1023C000091409108000840A000008080914091083
:1023D0008000840A00000808091409108000840A9B
:1023E00000000808091409108000840A0000080889
:1023F000091409108000840A000008080914091053
:102400008000840A00000808091409108000840A6A
:1024100000000808091409108000840A0000080858
:10242000091409108000840A000008080914091022
:102430008000840A0000080809140910800084172D
:10244000000008080914091080008403000008082F
:1024500009140910800084030000080809140910F9
:102460008000840300000808091409108000840318
:1024700000000808091409108000840300000808FF
:1024800009140910800084030000080809140910C9
:1024900080008403000008080914091080008403E8
:1024A00000000808091409108000840300000808CF
:1024B0000914091080008403000008080914091099
:1024C00080008403000008080914091080008403B8
:1024D000000008080914091080008403000008089F
:1024E0000914091080008403000008080914091069
:1024F0008000840300000808091409108000840388
:10250000000008080914091080008403000008086E
:102510000914091080008403000008080914091038
:102520008000840300000808091409108000840357
:10253000000008080914091080008403000008083E
:102540000914091080008403000008080914091008
:102550008000840300000808091409108000840327
:10256000000008080914091080008403000008080E
:1025700009140910800084030000080809140910D8
:1025800080008403000008080914091080008403F7
:1025900000000808091409108000840300000808DE
:1025A00009140910800084030000080809140910A8
:1025B00080008403000008080914091080008403C7
:1025C00000000808091409108000840300000808AE
:1025D0000914091080008403000008080914091078
:1025E0008000840300000808091409108000840397
:1025F000000008080914091080008403000008087E
:102600000914091080008403000008080914091047
:102610008000840300000808091409108000840366
:10262000000008080914091080008403000008084D
:102630000914091080008403000008080914091017
:102640008000840300000808091409108000840336
:10265000000008080914091080008403000008081D
:1026600009140910800084030000080809140910E7
:102670008000840300000808091409108000840306
:1026800000000808091409108000840300000808ED
:1026900009140910800084030000080809140910B7
:1026A00080008403000008080914091080008403D6
:1026B00000000808091409108000840300000808BD
:1026C0000914091080008403000008080914091087
:1026D00080008403000008080914091080008403A6
:1026E000000008080914091080008403000008088D
:1026F0000914091080008403000008080914091057
:102700008000840300000808091409108000840375
:10271000000008080914091080008403000008085C
:102720000914091080008403000008080914091026
:102730008000840300000808091409108000831732
:1027400000000808091409108000840A0000080825
:10275000091409108000840A0000080809140910EF
:102760008000840A00000808091409108000840A07
:1027700000000808091409108000840A00000808F5
:10278000091409108000840A0000080809140910BF
:102790008000840A00000808091409108000840AD7
:1027A00000000808091409108000840A00000808C5
:1027B000091409108000840A00000808091409108F
:1027C0008000840A00000808091409108000840AA7
:1027D00000000808091409108000840A0000080895
:1027E000091409108000840A00000808091409105F
:1027F0008000840A00000808091409108000840A77
:1028000000000808091409108000840A0000080864
:10281000091409108000840A00000808091409102E
:102820008000840A00000808091409108000840A46
:1028300000000808091409108000840A0000080834
:10284000091409108000840A0000080809140910FE
:102850008000840A00000808091409108000840A16
:1028600000000808091409108000840A0000080804
:10287000091409108000840A0000080809140910CE
:102880008000840A00000808091409108000840AE6
:1028900000000808091409108000840A00000808D4
:1028A000091409108000840A00000808091409109E
:1028B0008000840A00000808091409108000840AB6
:1028C00000000808091409108000840A00000808A4
:1028D000091409108000840A00000808091409106E
:1028E0008000840A00000808091409108000840A86
:1028F00000000808091409108000840A0000080874
:10290000091409108000840A00000808091409103D
:102910008000840A00000808091409108000840A55
:1029200000000808091409108000840A0000080843
:10293000091409108000840A00000808091409100D
:102940008000840A00000808091409108000840A25
:1029500000000808091409108000840A0000080813
:10296000091409108000840A0000080809140910DD
:102970008000840A00000808091409108000840AF5
:1029800000000808091409108000840A00000808E3
:10299000091409108000840A0000080809140910AD
:1029A0008000840A00000808091409108000840AC5
:1029B00000000808091409108000840A00000808B3
:1029C000091409108000840A00000808091409107D
:1029D0008000840A00000808091409108000840A95
:1029E00000000808091409108000840A0000080883
:1029F000091409108000840A00000808091409104D
:102A00008000840A00000808091409108000840A64
:102A100000000808091409108000840A0000080852
:102A2000091409108000840A00000808091409101C
:102A30008000840A0000080809140910800084132B
:102A40000000080809140910800084030000080829
:102A500009140910800084030000080809140910F3
:102A60008000840300000808091409108000840312
:102A700000000808091409108000840300000808F9
:102A800009140910800084030000080809140910C3
:102A900080008403000008080914091080008403E2
:102AA00000000808091409108000840300000808C9
:102AB0000914091080008403000008080914091093
:102AC00080008403000008080914091080008403B2
:102AD0000000080809140910800084030000080899
:102AE0000914091080008403000008080914091063
:102AF0008000840300000808091409108000840382
:102B00000000080809140910800084030000080868
:102B10000914091080008403000008080914091032
:102B20008000840300000808091409108000840351
:102B30000000080809140910800084030000080838
:102B40000914091080008403000008080914091002
:102B50008000840300000808091409108000840321
:102B60000000080809140910800084030000080808
:102B700009140910800084030000080809140910D2
:102B800080008403000008080914091080008403F1
:102B900000000808091409108000840300000808D8
:102BA00009140910800084030000080809140910A2
:102BB00080008403000008080914091080008403C1
:102BC00000000808091409108000840300000808A8
:102BD0000914091080008403000008080914091072
:102BE0008000840300000808091409108000840391
:102BF0000000080809140910800084030000080878
:102C00000914091080008403000008080914091041
:102C10008000840300000808091409108000840360
:102C20000000080809140910800084030000080847
:102C30000914091080008403000008080914091011
:102C40008000840300000808091409108000840330
:102C50000000080809140910800084030000080817
:102C600009140910800084030000080809140910E1
:102C70008000840300000808091409108000840300
:102C800000000808091409108000840300000808E7
:102C900009140910800084030000080809140910B1
:102CA00080008403000008080914091080008403D0
:102CB00000000808091409108000840300000808B7
:102CC0000914091080008403000008080914091081
:102CD00080008403000008080914091080008403A0
:102CE0000000080809140910800084030000080887
:102CF0000914091080008403000008080914091051
:102D0000800084030000080809140910800084036F
:102D10000000080809140910800084030000080856
:102D20000914091080008403000008080914091020
:102D3000800084030000080809148A110A123A2945
:102D400016308A00790882070A168A11B32E0A16ED
:102D50008A11C32F0A168A15C6280A168A15C92988
:102D60000A168A15CD2A09102030840000000914A3
:102D7000091008088000840A091409100808800056
:102D8000840A0914091008088000840A091409102B
:102D900008088000840A0914091008088000840AC1
:102DA0000914091008088000840A09140910080889
:102DB0008000840A0914091008088000840A091494
:102DC000091008088000840A091409100808800006
:102DD000840A0914091008088000840A09140910DB
:102DE00008088000840A0914091008088000840A71
:102DF0000914091008088000840A09140910080839
:102E00008000840A0914091008088000840A091443
:102E1000091008088000840A0914091008088000B5
:102E2000840A0914091008088000840A091409108A
:102E300008088000840A0914091008088000840A20
:102E40000914091008088000840A091409100808E8
:102E50008000840A0914091008088000840A0914F3
:102E6000091008088000840A091409100808800065
:102E7000840A0914091008088000840A091409103A
:102E800008088000840A0914091008088000840AD0
:102E90000914091008088000840A09140910080898
:102EA0008000840A0914091008088000840A0914A3
:102EB000091008088000840A091409100808800015
:102EC000840A0914091008088000840A09140910EA
:102ED00008088000840A0914091008088000840A80
:102EE0000914091008088000840A09140910080848
:102EF0008000840A0914091008088000840A091453
:102F0000091008088000840A0914091008088000C4
:102F1000840A0914091008088000840A0914091099
:102F200008088000840A0914091008088000840A2F
:102F30000914091008088000840A091409100808F7
:102F40008000840A0914091008088000840A091402
:102F5000091008088000840A091409100808800074
:102F6000840A0914091008088000840A0914080852
:102F70008000840ABD2F800084030330F907861483
:102F80000A128A118C2800000910C62F00000914AB
:102F9000091008088000840A091409100808800034
:102FA000840A0914091008088000840A0914091009
:102FB00008088000840A0914091008088000840A9F
:102FC0000914091008088000840A09140910080867
:102FD0008000840A0914091008088000840A091472
:102FE000091008088000840A0914091008088000E4
:102FF000840A0914091008088000840A09140910B9
:103000000808800084170914091008088000840348
:10301000091409100808800084030914091008081D
:10302000800084030914091008088000840309142F
:10303000091008088000840309140910080880009A
:103040008403091409100808800084030914091076
:10305000080880008403091409100808800084030C
:1030600009140910080880008403091409100808CD
:1030700080008403091409100808800084030914DF
:10308000091008088000840309140910080880004A
:103090008403091409100808800084030914091026
:1030A00008088000840309140910080880008403BC
:1030B000091409100808800084030914091008087D
:1030C000800084030914091008088000840309148F
:1030D00009100808800084030914091008088000FA
:1030E00084030914091008088000840309140910D6
:1030F000080880008403091409100808800084036C
:10310000091409100808800084030914091008082C
:10311000800084030914091008088000840309143E
:1031200009100808800084030914091008088000A9
:103130008403091409100808800084030914091085
:10314000080880008403091409100808800084031B
:1031500009140910080880008403091409100808DC
:1031600080008403091409100808800084030914EE
:103170000910080880008403091409100808800059
:103180008403091408080A168A11BB2FC7280910DE
:10319000C9280000091409100808800084030914D4
:1031A0000910080880008403091409100808800029
:1031B0008403091409100808800084030914091005
:1031C000080880008403091409100808800084039B
:1031D000091409100808800084030914091008085C
:1031E000800084030914091008088000840309146E
:1031F00009100808800084030914091008088000D9
:1032000084030914091008088000840309140910B4
:10321000080880008403091409100808800084034A
:10322000091409100808800084030914091008080B
:10323000800084030914091008088000840309141D
:103240000910080880008403091409100808800088
:103250008403091409100808800084030914091064
:1032600008088000840309140910080880008403FA
:1032700009140910080880008403091409100808BB
:1032800080008403091409100808800083170914BA
:10329000091008088000840A091409100808800031
:1032A000840A0914091008088000840A0914091006
:1032B00008088000840A0914091008088000840A9C
:1032C0000914091008088000840A09140910080864
:1032D0008000840A0914091008088000840A09146F
:1032E000091008088000840A0914091008088000E1
:1032F000840A0914091008088000840A09140910B6
:1033000008088000840A0914091008088000840A4B
:103310000914091008088000840A09140910080813
:103320008000840A0914091008088000840A09141E
:10333000091008088000840A091409100808800090
:10334000840A0914091008088000840A0914091065
:1033500008088000840A0914091008088000840AFB
:103360000914091008088000840A091409100808C3
:103370008000840A0914091008088000840A0914CE
:10338000091008088000840A091408080A168A111E
:10339000B82FCA2900000910CD290000091409100E
:1033A00008088000840A0914091008088000840AAB
:1033B0000914091008088000840A09140910080873
:1033C0008000840A0914091008088000840A09147E
:1033D000091008088000840A0914091008088000F0
:1033E000840A0914091008088000840A09140910C5
:1033F00008088000840A0914091008088000840A5B
:103400000914091008088000840A09140910080822
:103410008000840A0914091008088000840A09142D
:10342000091008088000840A09140910080880009F
:10343000840A0914091008088000840A0914091074
:1034400008088000840A0914091008088000840A0A
:103450000914091008088000840A091409100808D2
:103460008000840A0914091008088000840A0914DD
:10347000091008088000840A09140910080880004F
:10348000840A0914091008088000840A0914091024
:1034900008088000840A0914091008088000840ABA
:1034A0000914091008088000840A09140910080882
:1034B0008000840A0914091008088000840A09148D
:1034C000091008088000840A0914091008088000FF
:1034D000840A0914091008088000840A09140910D4
:1034E00008088000840A0914091008088000840A6A
:1034F0000914091008088000840A09140910080832
:103500008000840A0914091008088000840A09143C
:1035100009100808800084130914091008088000A5
:103520008403091409100808800084030914091091
:103530000808800084030914091008088000840327
:1035400009140910080880008403091409100808E8
:1035500080008403091409100808800084030914FA
:103560000910080880008403091409100808800065
:103570008403091409100808800084030914091041
:1035800008088000840309140910080880008403D7
:10359000091408080A168A11BB2FCE2A0A128A15A6
:1035A000091000009B291A308A00790882070A1640
:1035B0008A15E02A0A168A15E72C0A168A15E82EBB
:1035C0000910203084000000080809140910800048
:1035D000840A00000808091409108000840A000009
:1035E0000808091409108000840A0000080809145A
:1035F00009108000840A00000808091409108000DE
:10360000840A00000808091409108000840A0000D8
:103610000808091409108000840A00000808091429
:1036200009108000840A00000808091409108000AD
:10363000840A00000808091409108000840A0000A8
:103640000808091409108000840A000008080914F9
:1036500009108000840A000008080914091080007D
:10366000840A00000808091409108000840A000078
:103670000808091409108000840A000008080914C9
:1036800009108000840A000008080914091080004D
:10369000840A00000808091409108000840A000048
:1036A0000808091409108000840A00000808091499
:1036B00009108000840A000008080914091080001D
:1036C000840A00000808091409108000840A000018
:1036D0000808091409108000840A00000808091469
:1036E00009108000840A00000808091409108000ED
:1036F000840A00000808091409108000840A0000E8
:103700000808091409108000840A00000808091438
:1037100009108000840A00000808091409108000BC
:10372000840A00000808091409108000840A0000B7
:103730000808091409108000840A00000808091408
:1037400009108000840A000008080914091080008C
:10375000840A00000808091409108000840A000087
:103760000808091409108000840A000008080914D8
:1037700009108000840A000008080914091080005C
:10378000840A00000808091409108000840A000057
:103790000808091409108000840A000008080914A8
:1037A00009108000840A000008080914091080002C
:1037B000840A00000808091409108000840A000027
:1037C0000808091409108000840A00000808091478
:1037D00009108000840A00000808091409108000FC
:1037E000840A00000808091409108000840A0000F7
:1037F0000808091409108000840A00000808091448
:1038000009108000840A00000808091409108000CB
:10381000840A00000808091409108000840A0000C6
:103820000808091409108000840A00000808091417
:1038300009108000840A000008080914091080009B
:10384000840A00000808091409108000840A000096
:103850000808091409108000840A000008080914E7
:1038600009108000840A000008080914091080006B
:10387000840A00000808091409108000840A000066
:103880000808091409108000840A000008080914B7
:1038900009108000840A000008080914091080003B
:1038A000840A00000808091409108000840A000036
:1038B0000808091409108000840A00000808091487
:1038C00009108000841700000808091409108000FE
:1038D0008403000008080914091080008403000014
:1038E000080809140910800084030000080809145E
:1038F00009108000840300000808091409108000E2
:1039000084030000080809140910800084030000E3
:10391000080809140910800084030000080809142D
:1039200009108000840300000808091409108000B1
:1039300084030000080809140910800084030000B3
:1039400008080914091080008403000008080914FD
:103950000910800084030000080809140910800081
:103960008403000008080914091080008403000083
:1039700008080914091080008403000008080914CD
:103980000910800084030000080809140910800051
:103990008403000008080914091080008403000053
:1039A000080809140910800084030000080809149D
:1039B0000910800084030000080809140910800021
:1039C00084030000080809140A168A11BB2FE82C8A
:1039D0000910EA2C0000080809140910800084036B
:1039E000000008080914091080008403000008087A
:1039F0000914091080008403000008080914091044
:103A00008000840300000808091409108000840362
:103A10000000080809140910800084030000080849
:103A20000914091080008403000008080914091013
:103A30008000840300000808091409108000840332
:103A40000000080809140910800084030000080819
:103A500009140910800084030000080809140910E3
:103A60008000840300000808091409108000840302
:103A700000000808091409108000840300000808E9
:103A800009140910800084030000080809140910B3
:103A900080008403000008080914091080008403D2
:103AA00000000808091409108000840300000808B9
:103AB0000914091080008403000008080914091083
:103AC00080008403000008080914091080008403A2
:103AD0000000080809140910800084030000080889
:103AE0000914091080008403000008080914091053
:103AF0008000840300000808091409108000840372
:103B00000000080809140910800084030000080858
:103B10000914091080008403000008080914091022
:103B20008000840300000808091409108000840341
:103B30000000080809140910800084030000080828
:103B400009140910800084030000080809140910F2
:103B50008000840300000808091409108000840311
:103B600000000808091409108000840300000808F8
:103B700009140910800084030000080809140910C2
:103B800080008403000008080914091080008403E1
:103B900000000808091409108000840300000808C8
:103BA0000914091080008403000008080914091092
:103BB00080008403000008080914091080008403B1
:103BC0000000080809140910800083170000080885
:103BD000091409108000840A00000808091409105B
:103BE0008000840A00000808091409108000840A73
:103BF00000000808091409108000840A0000080861
:103C0000091409108000840A00000808091409102A
:103C10008000840A00000808091409108000840A42
:103C200000000808091409108000840A0000080830
:103C3000091409108000840A0000080809140910FA
:103C40008000840A00000808091409108000840A12
:103C500000000808091409108000840A0000080800
:103C6000091409108000840A0000080809140910CA
:103C70008000840A00000808091409108000840AE2
:103C800000000808091409108000840A00000808D0
:103C9000091409108000840A00000808091409109A
:103CA0008000840A00000808091409108000840AB2
:103CB00000000808091409108000840A00000808A0
:103CC000091409108000840A00000808091409106A
:103CD0008000840A00000808091409108000840A82
:103CE00000000808091409108000840A0000080870
:103CF000091409108000840A00000808091409103A
:103D00008000840A00000808091409108000840A51
:103D100000000808091409108000840A000008083F
:103D2000091409108000840A000008080914091009
:103D30008000840A00000808091409108000840A21
:103D400000000808091409108000840A000008080F
:103D5000091409108000840A0000080809140910D9
:103D60008000840A00000808091409108000840AF1
:103D700000000808091409108000840A00000808DF
:103D8000091409108000840A0000080809140910A9
:103D90008000840A00000808091409108000840AC1
:103DA00000000808091409108000840A00000808AF
:103DB000091409108000840A000008080914091079
:103DC0008000840A0000080809140A168A11B82F16
:0C3DD000E92E0A168A1109100000A32C2D
:084000000100020003000400AE
:02400E00F2209E
:02401000FF3F70
:00000001FF
