:020000040000FA
:08000000C63089008801702858
:080008000B1B132883127B0877
:100010008207F60B0928F70B0928F80B092879083D
:100020008A007A088200FE00030EFD0083120F286A
:10003000861E1828061A2328061AFF34861A1C283A
:100040000230FC003D28061E2A28861A2328033089
:10005000FC003D28861A2A28FE34831606168312D1
:10006000861E3028061E3028061A3428861E3028A0
:10007000861A38280310FC017C14861E3D280310C4
:10008000061A0314FC0D861A4328031C3D28061289
:10009000831606128312861E4B28861A4D28831655
:1000A00006168312003406120830FB005928861AFF
:1000B000572883160616FC1F06128312861E5E281A
:1000C000FC0DFB0B5728861A63288316061683122D
:1000D000861E68280030061AFF30861A6D28080030
:1000E00085010317831688018901083087000313EF
:1000F000563099009A0124309800C0309500103095
:100100008B001730850040308100F1308600FF30D1
:10011000880004308900B93087008312903098003D
:1001200083139F0105309000E6208A0170080F3983
:10013000C820FA0070080F39D720F9008910701A0A
:1001400089148610701F0F28710AF800720AF700D0
:10015000FB0103307302F600F60A0318B928F10810
:10016000031DB928F208031DB928003CFB00FB0D54
:10017000BE280130031CF702031CF802831601138A
:1001800070088039031D011783128B108B17942878
:1001900082078B349A34083449344934FE348B3422
:1001A0009A349734AA34AA346734DE3493348207FD
:1001B0000434143403340334033401340434143465
:1001C0000E340334033402340134093476217C08BC
:1001D000F83A031D3129DC30FC008E2120308400E8
:1001E0004030F7000008FC00840A8E21FF39031D0F
:1001F0002229F70BF2284030F70084178403000807
:10020000FC0084038E21FF39031D2229F70BFF28F0
:100210004030F7008317840A0008FC00840A8E210E
:10022000FF39031D2229F70B0C294030F7008413F6
:1002300084030008FC0084038E21FF39031D22295A
:10024000F70B1929841383137D08FC008E21FC0110
:100250008E218E217E08FC008E217F08FC008E21DD
:10026000E6287C08F93A031D5129DD30FC008E2177
:100270000130FC008E210030FC008E217008FC0053
:100280008E217108FC008E217208FC008E217308FB
:10029000FC008E217408FC008E217508FC008E2164
:1002A000E6287C08FA3A031D6D29DE30FC008E2119
:1002B00079217C08DF392038F00079217C08F100B1
:1002C00079217C08F20079217C08F30079217C08EF
:1002D000F40079217C08F50008007C08F33A031D3E
:1002E000E628DC30FC008E218B13E628051D2D2826
:1002F0007B29051D3A2818168C1E7B29181D82297A
:100300001A087B29981C8A29181218161A088C1AA0
:1003100086297B291A08FC0018120034051D532871
:100320000C1E90297C08990000340130F602031C51
:10033000F702F608031D9629F708031D9629080001
:10034000800086148313FD0183168710071505129C
:1003500085168312871005127D17051C7D13851CD9
:100360007D13851CFD170718FD15871405168316C8
:1003700087140711051685128312071185127D1641
:10038000051C7D12851C7D12851CFD1607187D1528
:1003900007158516061FFD14861F7D148910061586
:1003A000861186100910FF01851D7F1408080914A5
:1003B0008614891006118611FE0094280910101069
:1003C00074098F0075098E0010140B170C1083161A
:1003D0000C1483128B17203084003F30F60008087D
:1003E0008000840A4230FA007D0E8300FE0E7E0EED
:1003F00009000910080809148000840A09103F3018
:10040000F800203084007508F6007408F70000003A
:1004100095210808091409108000840A7508F6005F
:100420007408F7009521F80B092A00000808091440
:100430000910800084173F30F8007508F600740832
:10044000F7009521000008080914091080008403B2
:100450007508F6007408F7009521F80B232A0000B0
:10046000080809140910800083173F30F800750848
:10047000F6007408F7009521000008080914091017
:100480008000840A7508F6007408F7009521F80BBF
:100490003D2A0000080809140910800084133F3029
:1004A000F8007508F6007408F700952100000808A8
:1004B00009140910800084037508F6007408F70019
:1004C0009521F80B572A000008080914A0290910E3
:1004D000891420308400080809140910891080004C
:1004E000840A1F30F8007508F6007408F70095219B
:1004F000000008080914091089148000840A0808FB
:100500000914091089108000840A7508F60074081F
:10051000F7009521F80B792A000008080914091042
:1005200089148000841708080914091089108000B4
:1005300084031F30F8007508F6007408F700952151
:1005400000000808091409108914800084030808B1
:10055000091409108910800084037508F6007408D6
:10056000F7009521F80BA12A0000080809140910CA
:100570008914800083170808091409108910800065
:10058000840A1F30F8007508F6007408F7009521FA
:10059000000008080914091089148000840A08085A
:1005A0000914091089108000840A7508F60074087F
:1005B000F7009521F80BC92A000008080914091052
:1005C0008914800084130808091409108910800018
:1005D00084031F30F8007508F6007408F7009521B1
:1005E0000000080809140910891480008403080811
:1005F000091409108910800084037508F600740836
:10060000F7009521F80BF12A000008080914A02929
:1006100009103F30F600203084000000080809145B
:1006200009108000840AF60B0E2B0000080809143C
:100630000910800084173F30F600000008080914F4
:10064000091080008403F60B1E2B00000808091413
:100650000910800083173F30F600000008080914D5
:1006600009108000840AF60B2E2B000008080914DC
:100670000910800084133F30F600000008080914B8
:10068000091080008403F60B3E2B000008080914B3
:10069000A02909103F30F600203084004F2B701D38
:1006A000522BA6230808091409108000840A701D23
:1006B0005A2BA6230000F60B522B00000808091441
:1006C0000910800084173F30F600662B701D692BDF
:1006D000A62308080914091080008403701D712BDB
:1006E000A6230000F60B692B000008080914091066
:1006F000800083173F30F6007D2B701D802BA623D2
:100700000808091409108000840A701D882BA6238C
:100710000000F60B802B0000080809140910800067
:1007200084133F30F600942B701D972BA6230808E6
:100730000914091080008403701D9F2BA62300005C
:10074000F60B972B000008080914A029A72B00001E
:10075000A92B080009108914203084000808091406
:10076000091089108000840A1F30F800701CA7232C
:10077000A92308080914091089148000840A0808AC
:100780000914091089108000840A701CA723C82B43
:100790000000F80BB92B000008080914091089148F
:1007A0008000841708080914091089108000840348
:1007B0001F30F800701CA723A9230808091409108A
:1007C0008914800084030808091409108910800026
:1007D0008403701CA723EC2B0000F80BDD2B00001A
:1007E00008080914091089148000831708080914DF
:1007F000091089108000840A1F30F800701CA7239C
:10080000A92308080914091089148000840A08081B
:100810000914091089108000840A701CA723102C69
:100820000000F80B012C00000808091409108914B5
:1008300080008413080809140910891080008403BB
:100840001F30F800701CA723A923080809140910F9
:100850008914800084030808091409108910800095
:100860008403701CA723342C0000F80B252C0000F7
:1008700008080914A0298B307A06031D432C583030
:10088000FA008313A42858307A06031D4A2C5C30E2
:10089000FA00A4285C307A06031D512C6130FA005E
:1008A000A42861307A06031DA0296630FA00A42826
:1008B000543009108400932DB8308400091083133C
:1008C000922E622CBA3009108400912F0A128A15D8
:1008D000523084000910000090289A307A06031DD7
:1008E000782C493084000430F9007F30FA00A428C5
:1008F0007F307A06031DA0298430FA00A4280A1646
:100900008A1109108313A22ECB3084000A168A158F
:1009100009100000A02809102030840000000914EC
:10092000091008088000840A0914091008088000CA
:10093000840A0914091008088000840A091409109F
:1009400008088000840A0914091008088000840A35
:100950000914091008088000840A091409100808FD
:100960008000840A0914091008088000840A091408
:10097000091008088000840A09140910080880007A
:10098000840A0914091008088000840A091409104F
:1009900008088000840A0914091008088000840AE5
:1009A0000914091008088000840A091409100808AD
:1009B0008000840A0914091008088000840A0914B8
:1009C000091008088000840A09140910080880002A
:1009D000840A0914091008088000840A09140910FF
:1009E00008088000840A0914091008088000840A95
:1009F0000914091008088000840A0914091008085D
:100A00008000840A0914091008088000840A091467
:100A1000091008088000840A0914091008088000D9
:100A2000840A0914091008088000840A09140910AE
:100A300008088000840A0914091008088000840A44
:100A40000914091008088000840A0914091008080C
:100A50008000840A0914091008088000840A091417
:100A6000091008088000840A091409100808800089
:100A7000840A0914091008088000840A091409105E
:100A800008088000840A0914091008088000840AF4
:100A90000914091008088000840A091409100808BC
:100AA0008000840A0914091008088000840A0914C7
:100AB000091008088000840A091409100808800039
:100AC000840A0914091008088000840A091409100E
:100AD00008088000840A0914091008088000840AA4
:100AE0000914091008088000840A0914091008086C
:100AF0008000840A0914091008088000840A091477
:100B0000091008088000840A0914091008088000E8
:100B1000840A0914091008088000840A09140910BD
:100B200008088000840A0914091008088000840A53
:100B30000914091008088000840A0914091008081B
:100B40008000840A0914091008088000840A091426
:100B5000091008088000840A091409100808800098
:100B6000840A0914091008088000840A091409106D
:100B700008088000840A0914091008088000840A03
:100B80000914091008088000840A091409100808CB
:100B90008000840A091409100808800084170914C9
:100BA000091008088000840309140910080880004F
:100BB000840309140910080880008403091409102B
:100BC00008088000840309140910080880008403C1
:100BD0000914091008088000840309140910080882
:100BE0008000840309140910080880008403091494
:100BF00009100808800084030914091008088000FF
:100C000084030914091008088000840309140910DA
:100C10000808800084030914091008088000840370
:100C20000914091008088000840309140910080831
:100C30008000840309140910080880008403091443
:100C400009100808800084030914091008088000AE
:100C5000840309140910080880008403091409108A
:100C60000808800084030914091008088000840320
:100C700009140910080880008403091409100808E1
:100C800080008403091409100808800084030914F3
:100C9000091008088000840309140910080880005E
:100CA000840309140910080880008403091409103A
:100CB00008088000840309140910080880008403D0
:100CC0000914091008088000840309140910080891
:100CD00080008403091409100808800084030914A3
:100CE000091008088000840309140910080880000E
:100CF00084030914091008088000840309140910EA
:100D0000080880008403091409100808800084037F
:100D10000914091008088000840309140910080840
:100D20008000840309140910080880008403091452
:100D300009100808800084030914091008088000BD
:100D40008403091409100808800084030914091099
:100D5000080880008403091409100808800084032F
:100D600009140910080880008403091409100808F0
:100D70008000840309140910080880008403091402
:100D8000091008088000840309140910080880006D
:100D90008403091409100808800084030914091049
:100DA00008088000840309140910080880008403DF
:100DB00009140910080880008403091409100808A0
:100DC00080008403091409100808800084030914B2
:100DD000091008088000840309140910080880001D
:100DE00084030914091008088000840309140910F9
:100DF000080880008403091409100808800084038F
:100E0000091409100808800084030914091008084F
:100E1000800084030914091008088000831709144E
:100E2000091008088000840A0914091008088000C5
:100E3000840A0914091008088000840A091409109A
:100E400008088000840A0914091008088000840A30
:100E50000914091008088000840A091409100808F8
:100E60008000840A0914091008088000840A091403
:100E7000091008088000840A091409100808800075
:100E8000840A0914091008088000840A091409104A
:100E900008088000840A0914091008088000840AE0
:100EA0000914091008088000840A091409100808A8
:100EB0008000840A0914091008088000840A0914B3
:100EC000091008088000840A091409100808800025
:100ED000840A0914091008088000840A09140910FA
:100EE00008088000840A0914091008088000840A90
:100EF0000914091008088000840A09140910080858
:100F00008000840A0914091008088000840A091462
:100F1000091008088000840A0914091008088000D4
:100F2000840A0914091008088000840A09140910A9
:100F300008088000840A0914091008088000840A3F
:100F40000914091008088000840A09140910080807
:100F50008000840A0914091008088000840A091412
:100F6000091008088000840A091409100808800084
:100F7000840A0914091008088000840A0914091059
:100F800008088000840A0914091008088000840AEF
:100F90000914091008088000840A091409100808B7
:100FA0008000840A0914091008088000840A0914C2
:100FB000091008088000840A091409100808800034
:100FC000840A0914091008088000840A0914091009
:100FD00008088000840A0914091008088000840A9F
:100FE0000914091008088000840A09140910080867
:100FF0008000840A0914091008088000840A091472
:10100000091008088000840A0914091008088000E3
:10101000840A0914091008088000840A09140910B8
:1010200008088000840A0914091008088000840A4E
:101030000914091008088000840A09140910080816
:101040008000840A0914091008088000840A091421
:10105000091008088000840A091409100808800093
:10106000840A0914091008088000840A0914091068
:1010700008088000840A0914091008088000840AFE
:101080000914091008088000840A091409100808C6
:101090008000840A091409100808800084130914C8
:1010A000091008088000840309140910080880004A
:1010B0008403091409100808800084030914091026
:1010C00008088000840309140910080880008403BC
:1010D000091409100808800084030914091008087D
:1010E000800084030914091008088000840309148F
:1010F00009100808800084030914091008088000FA
:1011000084030914091008088000840309140910D5
:10111000080880008403091409100808800084036B
:10112000091409100808800084030914091008082C
:10113000800084030914091008088000840309143E
:1011400009100808800084030914091008088000A9
:101150008403091409100808800084030914091085
:10116000080880008403091409100808800084031B
:1011700009140910080880008403091409100808DC
:1011800080008403091409100808800084030914EE
:101190000910080880008403091409100808800059
:1011A0008403091409100808800084030914091035
:1011B00008088000840309140910080880008403CB
:1011C000091409100808800084030914091008088C
:1011D000800084030914091008088000840309149E
:1011E0000910080880008403091409100808800009
:1011F00084030914091008088000840309140910E5
:10120000080880008403091409100808800084037A
:10121000091409100808800084030914091008083B
:10122000800084030914091008088000840309144D
:1012300009100808800084030914091008088000B8
:101240008403091409100808800084030914091094
:10125000080880008403091409100808800084032A
:1012600009140910080880008403091409100808EB
:1012700080008403091409100808800084030914FD
:101280000910080880008403091409100808800068
:101290008403091409100808800084030914091044
:1012A00008088000840309140910080880008403DA
:1012B000091409100808800084030914091008089B
:1012C00080008403091409100808800084030914AD
:1012D0000910080880008403091409100808800018
:1012E00084030914091008088000840309140910F4
:1012F000080880008403091409100808800084038A
:10130000091409100808800084030914091008084A
:1013100080008403091408080A128A11F0183B2C73
:101320000A128A11A029091089102030840089032B
:10133000890308088000840A89038903080880005B
:10134000840A8903890308088000840A89038903C1
:1013500008088000840A8903890308088000840A39
:101360008903890308088000840A8903890308081F
:101370008000840A8903890308088000840A89039D
:10138000890308088000840A89038903080880000B
:10139000840A8903890308088000840A8903890371
:1013A00008088000840A8903890308088000840AE9
:1013B0008903890308088000840A890389030808CF
:1013C0008000840A8903890308088000840A89034D
:1013D000890308088000840A8903890308088000BB
:1013E000840A8903890308088000840A8903890321
:1013F00008088000840A8903890308088000840A99
:101400008903890308088000840A8903890308087E
:101410008000840A8903890308088000840A8903FC
:10142000890308088000840A89038903080880006A
:10143000840A8903890308088000840A89038903D0
:1014400008088000840A8903890308088000840A48
:101450008903890308088000840A8903890308082E
:101460008000840A8903890308088000840A8903AC
:10147000890308088000840A89038903080880001A
:10148000840A8903890308088000840A8903890380
:1014900008088000840A8903890308088000840AF8
:1014A0008903890308088000840A890389030808DE
:1014B0008000840A8903890308088000840A89035C
:1014C000890308088000840A8903890308088000CA
:1014D000840A8903890308088000840A8903890330
:1014E00008088000840A8903890308088000840AA8
:1014F0008903890308088000840A8903890308088E
:101500008000840A8903890308088000840A89030B
:10151000890308088000840A890389030808800079
:10152000840A8903890308088000840A89038903DF
:1015300008088000840A8903890308088000840A57
:101540008903890308088000840A8903890308083D
:101550008000840A8903890308088000840A8903BB
:10156000890308088000840A890389030808800029
:10157000840A8903890308088000840A890389038F
:1015800008088000840A8903890308088000840A07
:101590008903890308088000840A890389030808ED
:1015A0008000840A8903890308088000841789035E
:1015B00089030808800084038903890308088000E0
:1015C000840389038903080880008403890389034D
:1015D00008088000840389038903080880008403C5
:1015E00089038903080880008403890389030808A4
:1015F0008000840389038903080880008403890329
:10160000890308088000840389038903080880008F
:1016100084038903890308088000840389038903FC
:101620000808800084038903890308088000840374
:101630008903890308088000840389038903080853
:1016400080008403890389030808800084038903D8
:10165000890308088000840389038903080880003F
:1016600084038903890308088000840389038903AC
:101670000808800084038903890308088000840324
:101680008903890308088000840389038903080803
:101690008000840389038903080880008403890388
:1016A00089030808800084038903890308088000EF
:1016B000840389038903080880008403890389035C
:1016C00008088000840389038903080880008403D4
:1016D00089038903080880008403890389030808B3
:1016E0008000840389038903080880008403890338
:1016F000890308088000840389038903080880009F
:10170000840389038903080880008403890389030B
:101710000808800084038903890308088000840383
:101720008903890308088000840389038903080862
:1017300080008403890389030808800084038903E7
:10174000890308088000840389038903080880004E
:1017500084038903890308088000840389038903BB
:101760000808800084038903890308088000840333
:101770008903890308088000840389038903080812
:101780008000840389038903080880008403890397
:1017900089030808800084038903890308088000FE
:1017A000840389038903080880008403890389036B
:1017B00008088000840389038903080880008403E3
:1017C00089038903080880008403890389030808C2
:1017D0008000840389038903080880008403890347
:1017E00089030808800084038903890308088000AE
:1017F000840389038903080880008403890389031B
:101800000808800084038903890308088000840392
:101810008903890308088000840389038903080871
:1018200080008403890389030808800083178903E3
:10183000890308088000840A890389030808800056
:10184000840A8903890308088000840A89038903BC
:1018500008088000840A8903890308088000840A34
:101860008903890308088000840A8903890308081A
:101870008000840A8903890308088000840A890398
:10188000890308088000840A890389030808800006
:10189000840A8903890308088000840A890389036C
:1018A00008088000840A8903890308088000840AE4
:1018B0008903890308088000840A890389030808CA
:1018C0008000840A8903890308088000840A890348
:1018D000890308088000840A8903890308088000B6
:1018E000840A8903890308088000840A890389031C
:1018F00008088000840A8903890308088000840A94
:101900008903890308088000840A89038903080879
:101910008000840A8903890308088000840A8903F7
:10192000890308088000840A890389030808800065
:10193000840A8903890308088000840A89038903CB
:1019400008088000840A8903890308088000840A43
:101950008903890308088000840A89038903080829
:101960008000840A8903890308088000840A8903A7
:10197000890308088000840A890389030808800015
:10198000840A8903890308088000840A890389037B
:1019900008088000840A8903890308088000840AF3
:1019A0008903890308088000840A890389030808D9
:1019B0008000840A8903890308088000840A890357
:1019C000890308088000840A8903890308088000C5
:1019D000840A8903890308088000840A890389032B
:1019E00008088000840A8903890308088000840AA3
:1019F0008903890308088000840A89038903080889
:101A00008000840A8903890308088000840A890306
:101A1000890308088000840A890389030808800074
:101A2000840A8903890308088000840A89038903DA
:101A300008088000840A8903890308088000840A52
:101A40008903890308088000840A89038903080838
:101A50008000840A8903890308088000840A8903B6
:101A6000890308088000840A890389030808800024
:101A7000840A8903890308088000840A890389038A
:101A800008088000840A8903890308088000840A02
:101A90008903890308088000840A890389030808E8
:101AA0008000840A8903890308088000841389035D
:101AB00089030808800084038903890308088000DB
:101AC0008403890389030808800084038903890348
:101AD00008088000840389038903080880008403C0
:101AE000890389030808800084038903890308089F
:101AF0008000840389038903080880008403890324
:101B0000890308088000840389038903080880008A
:101B100084038903890308088000840389038903F7
:101B2000080880008403890389030808800084036F
:101B3000890389030808800084038903890308084E
:101B400080008403890389030808800084038903D3
:101B5000890308088000840389038903080880003A
:101B600084038903890308088000840389038903A7
:101B7000080880008403890389030808800084031F
:101B800089038903080880008403890389030808FE
:101B90008000840389038903080880008403890383
:101BA00089030808800084038903890308088000EA
:101BB0008403890389030808800084038903890357
:101BC00008088000840389038903080880008403CF
:101BD00089038903080880008403890389030808AE
:101BE0008000840389038903080880008403890333
:101BF000890308088000840389038903080880009A
:101C00008403890389030808800084038903890306
:101C1000080880008403890389030808800084037E
:101C2000890389030808800084038903890308085D
:101C300080008403890389030808800084038903E2
:101C40008903080880008403890389030808800049
:101C500084038903890308088000840389038903B6
:101C6000080880008403890389030808800084032E
:101C7000890389030808800084038903890308080D
:101C80008000840389038903080880008403890392
:101C900089030808800084038903890308088000F9
:101CA0008403890389030808800084038903890366
:101CB00008088000840389038903080880008403DE
:101CC00089038903080880008403890389030808BD
:101CD0008000840389038903080880008403890342
:101CE00089030808800084038903890308088000A9
:101CF0008403890389030808800084038903890316
:101D0000080880008403890389030808800084038D
:101D1000890389030808800084038903890308086C
:101D200080008403080809140A128A11A0290910E6
:101D300089142030840008080914091089108000D3
:101D4000840A08080914091089148000840A080804
:101D50000914091089108000840A08080914091060
:101D600089148000840A0808091409108910800069
:101D7000840A08080914091089148000840A0808D4
:101D80000914091089108000840A08080914091030
:101D900089148000840A0808091409108910800039
:101DA000840A08080914091089148000840A0808A4
:101DB0000914091089108000840A08080914091000
:101DC00089148000840A0808091409108910800009
:101DD000840A08080914091089148000840A080874
:101DE0000914091089108000840A080809140910D0
:101DF00089148000840A08080914091089108000D9
:101E0000840A08080914091089148000840A080843
:101E10000914091089108000840A0808091409109F
:101E200089148000840A08080914091089108000A8
:101E3000840A08080914091089148000840A080813
:101E40000914091089108000840A0808091409106F
:101E500089148000840A0808091409108910800078
:101E6000840A08080914091089148000840A0808E3
:101E70000914091089108000840A0808091409103F
:101E800089148000840A0808091409108910800048
:101E9000840A08080914091089148000840A0808B3
:101EA0000914091089108000840A0808091409100F
:101EB00089148000840A0808091409108910800018
:101EC000840A08080914091089148000840A080883
:101ED0000914091089108000840A080809140910DF
:101EE00089148000840A08080914091089108000E8
:101EF000840A08080914091089148000840A080853
:101F00000914091089108000840A080809140910AE
:101F100089148000840A08080914091089108000B7
:101F2000840A08080914091089148000840A080822
:101F30000914091089108000840A0808091409107E
:101F400089148000840A0808091409108910800087
:101F5000840A08080914091089148000840A0808F2
:101F60000914091089108000840A0808091409104E
:101F700089148000840A0808091409108910800057
:101F8000840A08080914091089148000840A0808C2
:101F90000914091089108000840A0808091409101E
:101FA00089148000840A0808091409108910800027
:101FB000840A08080914091089148000840A080892
:101FC0000914091089108000840A080809140910EE
:101FD00089148000840A08080914091089108000F7
:101FE000840A08080914091089148000840A080862
:101FF0000914091089108000840A080809140910BE
:1020000089148000840A08080914091089108000C6
:10201000840A08080914091089148000840A080831
:102020000914091089108000840A0808091409108D
:102030008914800084170808091409108910800089
:10204000840308080914091089148000840308080F
:102050000914091089108000840308080914091064
:10206000891480008403080809140910891080006D
:1020700084030808091409108914800084030808DF
:102080000914091089108000840308080914091034
:10209000891480008403080809140910891080003D
:1020A00084030808091409108914800084030808AF
:1020B0000914091089108000840308080914091004
:1020C000891480008403080809140910891080000D
:1020D000840308080914091089148000840308087F
:1020E00009140910891080008403080809140910D4
:1020F00089148000840308080914091089108000DD
:10210000840308080914091089148000840308084E
:1021100009140910891080008403080809140910A3
:1021200089148000840308080914091089108000AC
:10213000840308080914091089148000840308081E
:102140000914091089108000840308080914091073
:10215000891480008403080809140910891080007C
:1021600084030808091409108914800084030808EE
:102170000914091089108000840308080914091043
:10218000891480008403080809140910891080004C
:1021900084030808091409108914800084030808BE
:1021A0000914091089108000840308080914091013
:1021B000891480008403080809140910891080001C
:1021C000840308080914091089148000840308088E
:1021D00009140910891080008403080809140910E3
:1021E00089148000840308080914091089108000EC
:1021F000840308080914091089148000840308085E
:1022000009140910891080008403080809140910B2
:1022100089148000840308080914091089108000BB
:10222000840308080914091089148000840308082D
:102230000914091089108000840308080914091082
:10224000891480008403080809140910891080008B
:1022500084030808091409108914800084030808FD
:102260000914091089108000840308080914091052
:10227000891480008403080809140910891080005B
:1022800084030808091409108914800084030808CD
:102290000914091089108000840308080914091022
:1022A000891480008403080809140910891080002B
:1022B000840308080914091089148000840308089D
:1022C00009140910891080008403080809140910F2
:1022D00089148000840308080914091089108000FB
:1022E000840308080914091089148000840308086D
:1022F00009140910891080008403080809140910C2
:1023000089148000840308080914091089108000CA
:10231000840308080914091089148000840308083C
:102320000914091089108000840308080914091091
:102330008914800083170808091409108910800087
:10234000840A08080914091089148000840A0808FE
:102350000914091089108000840A0808091409105A
:1023600089148000840A0808091409108910800063
:10237000840A08080914091089148000840A0808CE
:102380000914091089108000840A0808091409102A
:1023900089148000840A0808091409108910800033
:1023A000840A08080914091089148000840A08089E
:1023B0000914091089108000840A080809140910FA
:1023C00089148000840A0808091409108910800003
:1023D000840A08080914091089148000840A08086E
:1023E0000914091089108000840A080809140910CA
:1023F00089148000840A08080914091089108000D3
:10240000840A08080914091089148000840A08083D
:102410000914091089108000840A08080914091099
:1024200089148000840A08080914091089108000A2
:10243000840A08080914091089148000840A08080D
:102440000914091089108000840A08080914091069
:1024500089148000840A0808091409108910800072
:10246000840A08080914091089148000840A0808DD
:102470000914091089108000840A08080914091039
:1024800089148000840A0808091409108910800042
:10249000840A08080914091089148000840A0808AD
:1024A0000914091089108000840A08080914091009
:1024B00089148000840A0808091409108910800012
:1024C000840A08080914091089148000840A08087D
:1024D0000914091089108000840A080809140910D9
:1024E00089148000840A08080914091089108000E2
:1024F000840A08080914091089148000840A08084D
:102500000914091089108000840A080809140910A8
:1025100089148000840A08080914091089108000B1
:10252000840A08080914091089148000840A08081C
:102530000914091089108000840A08080914091078
:1025400089148000840A0808091409108910800081
:10255000840A08080914091089148000840A0808EC
:102560000914091089108000840A08080914091048
:1025700089148000840A0808091409108910800051
:10258000840A08080914091089148000840A0808BC
:102590000914091089108000840A08080914091018
:1025A00089148000840A0808091409108910800021
:1025B000840A08080914091089148000840A08088C
:1025C0000914091089108000840A080809140910E8
:1025D00089148000840A08080914091089108000F1
:1025E000840A08080914091089148000840A08085C
:1025F0000914091089108000840A080809140910B8
:1026000089148000840A08080914091089108000C0
:10261000840A08080914091089148000840A08082B
:102620000914091089108000840A08080914091087
:102630008914800084130808091409108910800087
:102640008403080809140910891480008403080809
:10265000091409108910800084030808091409105E
:102660008914800084030808091409108910800067
:1026700084030808091409108914800084030808D9
:10268000091409108910800084030808091409102E
:102690008914800084030808091409108910800037
:1026A00084030808091409108914800084030808A9
:1026B00009140910891080008403080809140910FE
:1026C0008914800084030808091409108910800007
:1026D0008403080809140910891480008403080879
:1026E00009140910891080008403080809140910CE
:1026F00089148000840308080914091089108000D7
:102700008403080809140910891480008403080848
:10271000091409108910800084030808091409109D
:1027200089148000840308080914091089108000A6
:102730008403080809140910891480008403080818
:10274000091409108910800084030808091409106D
:102750008914800084030808091409108910800076
:1027600084030808091409108914800084030808E8
:10277000091409108910800084030808091409103D
:102780008914800084030808091409108910800046
:1027900084030808091409108914800084030808B8
:1027A000091409108910800084030808091409100D
:1027B0008914800084030808091409108910800016
:1027C0008403080809140910891480008403080888
:1027D00009140910891080008403080809140910DD
:1027E00089148000840308080914091089108000E6
:1027F0008403080809140910891480008403080858
:1028000009140910891080008403080809140910AC
:1028100089148000840308080914091089108000B5
:102820008403080809140910891480008403080827
:10283000091409108910800084030808091409107C
:102840008914800084030808091409108910800085
:1028500084030808091409108914800084030808F7
:10286000091409108910800084030808091409104C
:102870008914800084030808091409108910800055
:1028800084030808091409108914800084030808C7
:10289000091409108910800084030808091409101C
:1028A0008914800084030808091409108910800025
:1028B0008403080809140910891480008403080897
:1028C00009140910891080008403080809140910EC
:1028D00089148000840308080914091089108000F5
:1028E0008403080809140910891480008403080867
:1028F00009140910891080008403080809140910BC
:1029000089148000840308080914091089108000C4
:102910008403080809140910891480008403080836
:1029200009140910891080008403080809140A1288
:102930008A11A02909102030840000000808091419
:1029400009108000840A000008080914091080009A
:10295000840A00000808091409108000840A000095
:102960000808091409108000840A000008080914E6
:1029700009108000840A000008080914091080006A
:10298000840A00000808091409108000840A000065
:102990000808091409108000840A000008080914B6
:1029A00009108000840A000008080914091080003A
:1029B000840A00000808091409108000840A000035
:1029C0000808091409108000840A00000808091486
:1029D00009108000840A000008080914091080000A
:1029E000840A00000808091409108000840A000005
:1029F0000808091409108000840A00000808091456
:102A000009108000840A00000808091409108000D9
:102A1000840A00000808091409108000840A0000D4
:102A20000808091409108000840A00000808091425
:102A300009108000840A00000808091409108000A9
:102A4000840A00000808091409108000840A0000A4
:102A50000808091409108000840A000008080914F5
:102A600009108000840A0000080809140910800079
:102A7000840A00000808091409108000840A000074
:102A80000808091409108000840A000008080914C5
:102A900009108000840A0000080809140910800049
:102AA000840A00000808091409108000840A000044
:102AB0000808091409108000840A00000808091495
:102AC00009108000840A0000080809140910800019
:102AD000840A00000808091409108000840A000014
:102AE0000808091409108000840A00000808091465
:102AF00009108000840A00000808091409108000E9
:102B0000840A00000808091409108000840A0000E3
:102B10000808091409108000840A00000808091434
:102B200009108000840A00000808091409108000B8
:102B3000840A00000808091409108000840A0000B3
:102B40000808091409108000840A00000808091404
:102B500009108000840A0000080809140910800088
:102B6000840A00000808091409108000840A000083
:102B70000808091409108000840A000008080914D4
:102B800009108000840A0000080809140910800058
:102B9000840A00000808091409108000840A000053
:102BA0000808091409108000840A000008080914A4
:102BB00009108000840A0000080809140910800028
:102BC000840A00000808091409108000840A000023
:102BD0000808091409108000840A00000808091474
:102BE00009108000840A00000808091409108000F8
:102BF000840A00000808091409108000840A0000F3
:102C00000808091409108000840A00000808091443
:102C100009108000840A00000808091409108000C7
:102C2000840A00000808091409108000840A0000C2
:102C30000808091409108000841700000808091406
:102C4000091080008403000008080914091080009E
:102C500084030000080809140910800084030000A0
:102C600008080914091080008403000008080914EA
:102C7000091080008403000008080914091080006E
:102C80008403000008080914091080008403000070
:102C900008080914091080008403000008080914BA
:102CA000091080008403000008080914091080003E
:102CB0008403000008080914091080008403000040
:102CC000080809140910800084030000080809148A
:102CD000091080008403000008080914091080000E
:102CE0008403000008080914091080008403000010
:102CF000080809140910800084030000080809145A
:102D000009108000840300000808091409108000DD
:102D100084030000080809140910800084030000DF
:102D20000808091409108000840300000808091429
:102D300009108000840300000808091409108000AD
:102D400084030000080809140910800084030000AF
:102D500008080914091080008403000008080914F9
:102D6000091080008403000008080914091080007D
:102D7000840300000808091409108000840300007F
:102D800008080914091080008403000008080914C9
:102D9000091080008403000008080914091080004D
:102DA000840300000808091409108000840300004F
:102DB0000808091409108000840300000808091499
:102DC000091080008403000008080914091080001D
:102DD000840300000808091409108000840300001F
:102DE0000808091409108000840300000808091469
:102DF00009108000840300000808091409108000ED
:102E000084030000080809140910800084030000EE
:102E10000808091409108000840300000808091438
:102E200009108000840300000808091409108000BC
:102E300084030000080809140910800084030000BE
:102E40000808091409108000840300000808091408
:102E5000091080008403000008080914091080008C
:102E6000840300000808091409108000840300008E
:102E700008080914091080008403000008080914D8
:102E8000091080008403000008080914091080005C
:102E9000840300000808091409108000840300005E
:102EA00008080914091080008403000008080914A8
:102EB000091080008403000008080914091080002C
:102EC000840300000808091409108000840300002E
:102ED0000808091409108000840300000808091478
:102EE00009108000840300000808091409108000FC
:102EF00084030000080809140910800084030000FE
:102F00000808091409108000840300000808091447
:102F100009108000840300000808091409108000CB
:102F200084030000080809140910800084030000CD
:102F30000808091409108000831700000808091404
:102F400009108000840A0000080809140910800094
:102F5000840A00000808091409108000840A00008F
:102F60000808091409108000840A000008080914E0
:102F700009108000840A0000080809140910800064
:102F8000840A00000808091409108000840A00005F
:102F90000808091409108000840A000008080914B0
:102FA00009108000840A0000080809140910800034
:102FB000840A00000808091409108000840A00002F
:102FC0000808091409108000840A00000808091480
:102FD00009108000840A0000080809140910800004
:102FE000840A00000808091409108000840A0000FF
:102FF0000808091409108000840A00000808091450
:1030000009108000840A00000808091409108000D3
:10301000840A00000808091409108000840A0000CE
:103020000808091409108000840A0000080809141F
:1030300009108000840A00000808091409108000A3
:10304000840A00000808091409108000840A00009E
:103050000808091409108000840A000008080914EF
:1030600009108000840A0000080809140910800073
:10307000840A00000808091409108000840A00006E
:103080000808091409108000840A000008080914BF
:1030900009108000840A0000080809140910800043
:1030A000840A00000808091409108000840A00003E
:1030B0000808091409108000840A0000080809148F
:1030C00009108000840A0000080809140910800013
:1030D000840A00000808091409108000840A00000E
:1030E0000808091409108000840A0000080809145F
:1030F00009108000840A00000808091409108000E3
:10310000840A00000808091409108000840A0000DD
:103110000808091409108000840A0000080809142E
:1031200009108000840A00000808091409108000B2
:10313000840A00000808091409108000840A0000AD
:103140000808091409108000840A000008080914FE
:1031500009108000840A0000080809140910800082
:10316000840A00000808091409108000840A00007D
:103170000808091409108000840A000008080914CE
:1031800009108000840A0000080809140910800052
:10319000840A00000808091409108000840A00004D
:1031A0000808091409108000840A0000080809149E
:1031B00009108000840A0000080809140910800022
:1031C000840A00000808091409108000840A00001D
:1031D0000808091409108000840A0000080809146E
:1031E00009108000840A00000808091409108000F2
:1031F000840A00000808091409108000840A0000ED
:103200000808091409108000840A0000080809143D
:1032100009108000840A00000808091409108000C1
:10322000840A00000808091409108000840A0000BC
:103230000808091409108000841300000808091404
:103240000910800084030000080809140910800098
:10325000840300000808091409108000840300009A
:1032600008080914091080008403000008080914E4
:103270000910800084030000080809140910800068
:10328000840300000808091409108000840300006A
:1032900008080914091080008403000008080914B4
:1032A0000910800084030000080809140910800038
:1032B000840300000808091409108000840300003A
:1032C0000808091409108000840300000808091484
:1032D0000910800084030000080809140910800008
:1032E000840300000808091409108000840300000A
:1032F0000808091409108000840300000808091454
:1033000009108000840300000808091409108000D7
:1033100084030000080809140910800084030000D9
:103320000808091409108000840300000808091423
:1033300009108000840300000808091409108000A7
:1033400084030000080809140910800084030000A9
:1033500008080914091080008403000008080914F3
:103360000910800084030000080809140910800077
:103370008403000008080914091080008403000079
:1033800008080914091080008403000008080914C3
:103390000910800084030000080809140910800047
:1033A0008403000008080914091080008403000049
:1033B0000808091409108000840300000808091493
:1033C0000910800084030000080809140910800017
:1033D0008403000008080914091080008403000019
:1033E0000808091409108000840300000808091463
:1033F00009108000840300000808091409108000E7
:1034000084030000080809140910800084030000E8
:103410000808091409108000840300000808091432
:1034200009108000840300000808091409108000B6
:1034300084030000080809140910800084030000B8
:103440000808091409108000840300000808091402
:103450000910800084030000080809140910800086
:103460008403000008080914091080008403000088
:1034700008080914091080008403000008080914D2
:103480000910800084030000080809140910800056
:103490008403000008080914091080008403000058
:1034A00008080914091080008403000008080914A2
:1034B0000910800084030000080809140910800026
:1034C0008403000008080914091080008403000028
:1034D0000808091409108000840300000808091472
:1034E00009108000840300000808091409108000F6
:1034F00084030000080809140910800084030000F8
:103500000808091409108000840300000808091441
:1035100009108000840300000808091409108000C5
:1035200084030000080809140910800084030000C7
:10353000080809140A128A1170196D2C0A128A11CE
:02354000A029C0
:084000000100020003000400AE
:02400E00F2209E
:02401000FF3F70
:00000001FF
