:020000040000FA
:10000000013089008801322883120313F60B04287B
:10001000F70B0428F80B0428790882070A128A11C2
:10002000A22B0A128A15A92E0A128A11682A0A120C
:100030008A11AB2A0A128A11AB2A0A128A115A298A
:100040000A168A11AC2C0A168A15DF280A128A159C
:10005000A6280A128A110F2B0A128A110F2B0A12D4
:100060008A11C5298501831617308500C0308100AB
:1000700010308B0031308600FF308800043089005A
:10008000B9308700031788018901083087000313FE
:100090005630990000309A002430980000008312F6
:1000A0009030980083139F017C20FA018910701A08
:1000B00089148A0170080F39F9000310F90D7907C6
:1000C0008610701F0D28F900730AF600720AF700F7
:1000D000710AF8008316011370088039031D011797
:1000E00083128B108B1700217C08F33A031D7328B1
:1000F000DC30FC001121542800217C08F83A031D53
:10010000C428DC30FC001121203084004030F7008E
:100110000008FC00840A1121FF39031DB828F70BE1
:1001200088284030F700841784030008FC0084030B
:100130001121FF39031DB828F70B95284030F7002F
:100140008317840A0008FC00840A1121FF39031D6B
:10015000B828F70BA2284030F70084138403000866
:10016000FC0084031121FF39031DB828F70BAF28C9
:10017000841383137D08FC001121FC01112111213E
:100180007E08FC0011217C287C08F93A031DE42834
:10019000DD30FC0011210130FC0011210030FC0099
:1001A00011217008FC0011217108FC001121720856
:1001B000FC0011217308FC0011217408FC001121BE
:1001C0007508FC0011217C287C08FA3A031D7C2864
:1001D000DE30FC00112100217C08DF392038F000DE
:1001E00000217C08F10000217C08F20000217C083D
:1001F000F30000217C08F40000217C08F5000800D1
:100200008C1E0029181D06291A080029981C0E2981
:10021000181218161A088C1A0A2900291A08FC0044
:1002200000340C1E11297C08990000340130F602BC
:10023000031CF702F608031D1729F708031D1729E9
:100240000800800086148313FD01831607158710AC
:10025000851605128312871005127D17051C7D1364
:10026000851C7D13851CFD170718FD1587140516C1
:10027000831687140711051685128312071185123C
:100280007D16051C7D12851C7D12851CFD16071828
:100290007D1507158516891006158611861009101B
:1002A00051290000080809148614891006118611C6
:1002B000FE00542809103F30F800203084007508F3
:1002C000F6007408F7000000162108080914091048
:1002D0008000840A7508F6007408F7001621F80BF0
:1002E00065290000080809140910800084173F30B0
:1002F000F8007508F6007408F700162100000808D9
:1003000009140910800084037508F6007408F700CA
:100310001621F80B7F290000080809140910800035
:1003200083173F30F8007508F6007408F7001621AF
:1003300000000808091409108000840A7508F600F6
:100340007408F7001621F80B992900000808091411
:100350000910800084133F30F8007508F600740817
:10036000F700162100000808091409108000840312
:100370007508F6007408F7001621F80BB329000081
:10038000080809148A110A12212909108914203039
:10039000840008080914091089108000840A1F309D
:1003A000F8007508F6007408F70016210000080828
:1003B0000914091089148000840A08080914091016
:1003C00089108000840A7508F6007408F700162169
:1003D000F80BD729000008080914091089148000B7
:1003E00084170808091409108910800084031F303D
:1003F000F8007508F6007408F700162100000808D8
:1004000009140910891480008403080809140910CC
:100410008910800084037508F6007408F70016211F
:10042000F80BFF290000080809140910891480003E
:10043000831708080914091089108000840A1F30E6
:10044000F8007508F6007408F70016210000080887
:100450000914091089148000840A08080914091075
:1004600089108000840A7508F6007408F7001621C8
:10047000F80B272A000008080914091089148000C5
:1004800084130808091409108910800084031F30A0
:10049000F8007508F6007408F70016210000080837
:1004A000091409108914800084030808091409102C
:1004B0008910800084037508F6007408F70016217F
:1004C000F80B4F2A0000080809148A110A12212982
:1004D00009103F30F600203084000000080809149D
:1004E00009108000840AF60B6E2A0000080809141F
:1004F0000910800084173F30F60000000808091436
:10050000091080008403F60B7E2A000008080914F5
:100510000910800083173F30F60000000808091416
:1005200009108000840AF60B8E2A000008080914BE
:100530000910800084133F30F600000008080914F9
:10054000091080008403F60B9E2A00000808091495
:100550008A110A12212909103F30F6002030840048
:10056000B12A701DB42A0A23080809140910800052
:10057000840A701DBC2A0A230000F60BB42A00006E
:10058000080809140910800084173F30F600C82AB3
:10059000701DCB2A0A23080809140910800084035F
:1005A000701DD32A0A230000F60BCB2A000008088E
:1005B00009140910800083173F30F600DF2A701DF0
:1005C000E22A0A230808091409108000840A701D11
:1005D000EA2A0A230000F60BE22A000008080914A0
:1005E0000910800084133F30F600F62A701DF92AA6
:1005F0000A2308080914091080008403701D012BC8
:100600000A230000F60BF92A0000080809148A11D1
:100610000A1221290000000000000E2B080009101A
:1006200089142030840008080914091089108000FA
:10063000840A1F30F800701C0C230E2308080914CC
:10064000091089148000840A080809140910891007
:100650008000840A701C0C232D2B0000F80B1E2B2D
:10066000000008080914091089148000841708087C
:10067000091409108910800084031F30F800701CD1
:100680000C230E2308080914091089148000840320
:10069000080809140910891080008403701C0C23B9
:1006A000512B0000F80B422B000008080914091018
:1006B0008914800083170808091409108910800024
:1006C000840A1F30F800701C0C230E23080809143C
:1006D000091089148000840A080809140910891077
:1006E0008000840A701C0C23752B0000F80B662B0D
:1006F00000000808091409108914800084130808F0
:10070000091409108910800084031F30F800701C40
:100710000C230E230808091409108914800084038F
:10072000080809140910891080008403701C0C2328
:10073000992B0000F80B8A2B0000080809148A1175
:100740000A12212909102030840000000914091020
:1007500008088000840A0914091008088000840A27
:100760000914091008088000840A091409100808EF
:100770008000840A0914091008088000840A0914FA
:10078000091008088000840A09140910080880006C
:10079000840A0914091008088000840A0914091041
:1007A00008088000840A0914091008088000840AD7
:1007B0000914091008088000840A0914091008089F
:1007C0008000840A0914091008088000840A0914AA
:1007D000091008088000840A09140910080880001C
:1007E000840A0914091008088000840A09140910F1
:1007F00008088000840A0914091008088000840A87
:100800000914091008088000840A0914091008084E
:100810008000840A0914091008088000840A091459
:10082000091008088000840A0914091008088000CB
:10083000840A0914091008088000840A09140910A0
:1008400008088000840A0914091008088000840A36
:100850000914091008088000840A091409100808FE
:100860008000840A0914091008088000840A091409
:10087000091008088000840A09140910080880007B
:10088000840A0914091008088000840A0914091050
:1008900008088000840A0914091008088000840AE6
:1008A0000914091008088000840A091409100808AE
:1008B0008000840A0914091008088000840A0914B9
:1008C000091008088000840A09140910080880002B
:1008D000840A0914091008088000840A0914091000
:1008E00008088000840A0914091008088000840A96
:1008F0000914091008088000840A0914091008085E
:100900008000840A0914091008088000840A091468
:10091000091008088000840A0914091008088000DA
:10092000840A0914091008088000840A09140910AF
:1009300008088000840A0914091008088000840A45
:100940000914091008088000840A0914091008080D
:100950008000840A0914091008088000840A091418
:10096000091008088000840A09140910080880008A
:10097000840A0914091008088000840A091409105F
:1009800008088000840A0914091008088000840AF5
:100990000914091008088000840A091409100808BD
:1009A0008000840A0914091008088000840A0914C8
:1009B000091008088000840A09140910080880003A
:1009C000840A091409100808800084170914091002
:1009D00008088000840309140910080880008403B3
:1009E0000914091008088000840309140910080874
:1009F0008000840309140910080880008403091486
:100A000009100808800084030914091008088000F0
:100A100084030914091008088000840309140910CC
:100A20000808800084030914091008088000840362
:100A30000914091008088000840309140910080823
:100A40008000840309140910080880008403091435
:100A500009100808800084030914091008088000A0
:100A6000840309140910080880008403091409107C
:100A70000808800084030914091008088000840312
:100A800009140910080880008403091409100808D3
:100A900080008403091409100808800084030914E5
:100AA0000910080880008403091409100808800050
:100AB000840309140910080880008403091409102C
:100AC00008088000840309140910080880008403C2
:100AD0000914091008088000840309140910080883
:100AE0008000840309140910080880008403091495
:100AF0000910080880008403091409100808800000
:100B000084030914091008088000840309140910DB
:100B10000808800084030914091008088000840371
:100B20000914091008088000840309140910080832
:100B30008000840309140910080880008403091444
:100B400009100808800084030914091008088000AF
:100B5000840309140910080880008403091409108B
:100B60000808800084030914091008088000840321
:100B700009140910080880008403091409100808E2
:100B800080008403091409100808800084030914F4
:100B9000091008088000840309140910080880005F
:100BA000840309140910080880008403091409103B
:100BB00008088000840309140910080880008403D1
:100BC0000914091008088000840309140910080892
:100BD00080008403091409100808800084030914A4
:100BE000091008088000840309140910080880000F
:100BF00084030914091008088000840309140910EB
:100C00000808800084030914091008088000840380
:100C10000914091008088000840309140910080841
:100C20008000840309140910080880008403091453
:100C300009100808800084030914091008088000BE
:100C40008403091409100808800083170914091087
:100C500008088000840A0914091008088000840A22
:100C60000914091008088000840A091409100808EA
:100C70008000840A0914091008088000840A0914F5
:100C8000091008088000840A091409100808800067
:100C9000840A0914091008088000840A091409103C
:100CA00008088000840A0914091008088000840AD2
:100CB0000914091008088000840A0914091008089A
:100CC0008000840A0914091008088000840A0914A5
:100CD000091008088000840A091409100808800017
:100CE000840A0914091008088000840A09140910EC
:100CF00008088000840A0914091008088000840A82
:100D00000914091008088000840A09140910080849
:100D10008000840A0914091008088000840A091454
:100D2000091008088000840A0914091008088000C6
:100D3000840A0914091008088000840A091409109B
:100D400008088000840A0914091008088000840A31
:100D50000914091008088000840A091409100808F9
:100D60008000840A0914091008088000840A091404
:100D7000091008088000840A091409100808800076
:100D8000840A0914091008088000840A091409104B
:100D900008088000840A0914091008088000840AE1
:100DA0000914091008088000840A091409100808A9
:100DB0008000840A0914091008088000840A0914B4
:100DC000091008088000840A091409100808800026
:100DD000840A0914091008088000840A09140910FB
:100DE00008088000840A0914091008088000840A91
:100DF0000914091008088000840A09140910080859
:100E00008000840A0914091008088000840A091463
:100E1000091008088000840A0914091008088000D5
:100E2000840A0914091008088000840A09140910AA
:100E300008088000840A0914091008088000840A40
:100E40000914091008088000840A09140910080808
:100E50008000840A0914091008088000840A091413
:100E6000091008088000840A091409100808800085
:100E7000840A0914091008088000840A091409105A
:100E800008088000840A0914091008088000840AF0
:100E90000914091008088000840A091409100808B8
:100EA0008000840A0914091008088000840A0914C3
:100EB000091008088000840A091409100808800035
:100EC000840A091409100808800084130914091001
:100ED00008088000840309140910080880008403AE
:100EE000091409100808800084030914091008086F
:100EF0008000840309140910080880008403091481
:100F000009100808800084030914091008088000EB
:100F100084030914091008088000840309140910C7
:100F2000080880008403091409100808800084035D
:100F3000091409100808800084030914091008081E
:100F40008000840309140910080880008403091430
:100F5000091008088000840309140910080880009B
:100F60008403091409100808800084030914091077
:100F7000080880008403091409100808800084030D
:100F800009140910080880008403091409100808CE
:100F900080008403091409100808800084030914E0
:100FA000091008088000840309140910080880004B
:100FB0008403091409100808800084030914091027
:100FC00008088000840309140910080880008403BD
:100FD000091409100808800084030914091008087E
:100FE0008000840309140910080880008403091490
:100FF00009100808800084030914091008088000FB
:1010000084030914091008088000840309140910D6
:10101000080880008403091409100808800084036C
:10102000091409100808800084030914091008082D
:10103000800084030914091008088000840309143F
:1010400009100808800084030914091008088000AA
:101050008403091409100808800084030914091086
:10106000080880008403091409100808800084031C
:1010700009140910080880008403091409100808DD
:1010800080008403091409100808800084030914EF
:10109000091008088000840309140910080880005A
:1010A0008403091409100808800084030914091036
:1010B00008088000840309140910080880008403CC
:1010C000091409100808800084030914091008088D
:1010D000800084030914091008088000840309149F
:1010E000091008088000840309140910080880000A
:1010F00084030914091008088000840309140910E6
:10110000080880008403091409100808800084037B
:10111000091409100808800084030914091008083C
:10112000800084030914091008088000840309144E
:1011300009100808800084030914091008088000B9
:101140008403091408088A110A1221290910891434
:101150002030840008080914091089108000840ACE
:1011600008080914091089148000840A0808091461
:10117000091089108000840A0808091409108914CC
:101180008000840A08080914091089108000840A64
:1011900008080914091089148000840A0808091431
:1011A000091089108000840A08080914091089149C
:1011B0008000840A08080914091089108000840A34
:1011C00008080914091089148000840A0808091401
:1011D000091089108000840A08080914091089146C
:1011E0008000840A08080914091089108000840A04
:1011F00008080914091089148000840A08080914D1
:10120000091089108000840A08080914091089143B
:101210008000840A08080914091089108000840AD3
:1012200008080914091089148000840A08080914A0
:10123000091089108000840A08080914091089140B
:101240008000840A08080914091089108000840AA3
:1012500008080914091089148000840A0808091470
:10126000091089108000840A0808091409108914DB
:101270008000840A08080914091089108000840A73
:1012800008080914091089148000840A0808091440
:10129000091089108000840A0808091409108914AB
:1012A0008000840A08080914091089108000840A43
:1012B00008080914091089148000840A0808091410
:1012C000091089108000840A08080914091089147B
:1012D0008000840A08080914091089108000840A13
:1012E00008080914091089148000840A08080914E0
:1012F000091089108000840A08080914091089144B
:101300008000840A08080914091089108000840AE2
:1013100008080914091089148000840A08080914AF
:10132000091089108000840A08080914091089141A
:101330008000840A08080914091089108000840AB2
:1013400008080914091089148000840A080809147F
:10135000091089108000840A0808091409108914EA
:101360008000840A08080914091089108000840A82
:1013700008080914091089148000840A080809144F
:10138000091089108000840A0808091409108914BA
:101390008000840A08080914091089108000840A52
:1013A00008080914091089148000840A080809141F
:1013B000091089108000840A08080914091089148A
:1013C0008000840A08080914091089108000840A22
:1013D00008080914091089148000840A08080914EF
:1013E000091089108000840A08080914091089145A
:1013F0008000840A08080914091089108000840AF2
:1014000008080914091089148000840A08080914BE
:10141000091089108000840A080809140910891429
:101420008000840A08080914091089108000840AC1
:1014300008080914091089148000840A080809148E
:10144000091089108000840A0808091409108914F9
:10145000800084170808091409108910800084038B
:101460000808091409108914800084030808091465
:1014700009108910800084030808091409108914D0
:10148000800084030808091409108910800084036F
:101490000808091409108914800084030808091435
:1014A00009108910800084030808091409108914A0
:1014B000800084030808091409108910800084033F
:1014C0000808091409108914800084030808091405
:1014D0000910891080008403080809140910891470
:1014E000800084030808091409108910800084030F
:1014F00008080914091089148000840308080914D5
:10150000091089108000840308080914091089143F
:1015100080008403080809140910891080008403DE
:1015200008080914091089148000840308080914A4
:10153000091089108000840308080914091089140F
:1015400080008403080809140910891080008403AE
:101550000808091409108914800084030808091474
:1015600009108910800084030808091409108914DF
:10157000800084030808091409108910800084037E
:101580000808091409108914800084030808091444
:1015900009108910800084030808091409108914AF
:1015A000800084030808091409108910800084034E
:1015B0000808091409108914800084030808091414
:1015C000091089108000840308080914091089147F
:1015D000800084030808091409108910800084031E
:1015E00008080914091089148000840308080914E4
:1015F000091089108000840308080914091089144F
:1016000080008403080809140910891080008403ED
:1016100008080914091089148000840308080914B3
:10162000091089108000840308080914091089141E
:1016300080008403080809140910891080008403BD
:101640000808091409108914800084030808091483
:1016500009108910800084030808091409108914EE
:10166000800084030808091409108910800084038D
:101670000808091409108914800084030808091453
:1016800009108910800084030808091409108914BE
:10169000800084030808091409108910800084035D
:1016A0000808091409108914800084030808091423
:1016B000091089108000840308080914091089148E
:1016C000800084030808091409108910800084032D
:1016D00008080914091089148000840308080914F3
:1016E000091089108000840308080914091089145E
:1016F00080008403080809140910891080008403FD
:1017000008080914091089148000840308080914C2
:10171000091089108000840308080914091089142D
:1017200080008403080809140910891080008403CC
:101730000808091409108914800084030808091492
:1017400009108910800084030808091409108914FD
:101750008000831708080914091089108000840A82
:1017600008080914091089148000840A080809145B
:10177000091089108000840A0808091409108914C6
:101780008000840A08080914091089108000840A5E
:1017900008080914091089148000840A080809142B
:1017A000091089108000840A080809140910891496
:1017B0008000840A08080914091089108000840A2E
:1017C00008080914091089148000840A08080914FB
:1017D000091089108000840A080809140910891466
:1017E0008000840A08080914091089108000840AFE
:1017F00008080914091089148000840A08080914CB
:10180000091089108000840A080809140910891435
:101810008000840A08080914091089108000840ACD
:1018200008080914091089148000840A080809149A
:10183000091089108000840A080809140910891405
:101840008000840A08080914091089108000840A9D
:1018500008080914091089148000840A080809146A
:10186000091089108000840A0808091409108914D5
:101870008000840A08080914091089108000840A6D
:1018800008080914091089148000840A080809143A
:10189000091089108000840A0808091409108914A5
:1018A0008000840A08080914091089108000840A3D
:1018B00008080914091089148000840A080809140A
:1018C000091089108000840A080809140910891475
:1018D0008000840A08080914091089108000840A0D
:1018E00008080914091089148000840A08080914DA
:1018F000091089108000840A080809140910891445
:101900008000840A08080914091089108000840ADC
:1019100008080914091089148000840A08080914A9
:10192000091089108000840A080809140910891414
:101930008000840A08080914091089108000840AAC
:1019400008080914091089148000840A0808091479
:10195000091089108000840A0808091409108914E4
:101960008000840A08080914091089108000840A7C
:1019700008080914091089148000840A0808091449
:10198000091089108000840A0808091409108914B4
:101990008000840A08080914091089108000840A4C
:1019A00008080914091089148000840A0808091419
:1019B000091089108000840A080809140910891484
:1019C0008000840A08080914091089108000840A1C
:1019D00008080914091089148000840A08080914E9
:1019E000091089108000840A080809140910891454
:1019F0008000840A08080914091089108000840AEC
:101A000008080914091089148000840A08080914B8
:101A1000091089108000840A080809140910891423
:101A20008000840A08080914091089108000840ABB
:101A300008080914091089148000840A0808091488
:101A4000091089108000840A0808091409108914F3
:101A50008000841308080914091089108000840389
:101A6000080809140910891480008403080809145F
:101A700009108910800084030808091409108914CA
:101A80008000840308080914091089108000840369
:101A9000080809140910891480008403080809142F
:101AA000091089108000840308080914091089149A
:101AB0008000840308080914091089108000840339
:101AC00008080914091089148000840308080914FF
:101AD000091089108000840308080914091089146A
:101AE0008000840308080914091089108000840309
:101AF00008080914091089148000840308080914CF
:101B00000910891080008403080809140910891439
:101B100080008403080809140910891080008403D8
:101B2000080809140910891480008403080809149E
:101B30000910891080008403080809140910891409
:101B400080008403080809140910891080008403A8
:101B5000080809140910891480008403080809146E
:101B600009108910800084030808091409108914D9
:101B70008000840308080914091089108000840378
:101B8000080809140910891480008403080809143E
:101B900009108910800084030808091409108914A9
:101BA0008000840308080914091089108000840348
:101BB000080809140910891480008403080809140E
:101BC0000910891080008403080809140910891479
:101BD0008000840308080914091089108000840318
:101BE00008080914091089148000840308080914DE
:101BF0000910891080008403080809140910891449
:101C000080008403080809140910891080008403E7
:101C100008080914091089148000840308080914AD
:101C20000910891080008403080809140910891418
:101C300080008403080809140910891080008403B7
:101C4000080809140910891480008403080809147D
:101C500009108910800084030808091409108914E8
:101C60008000840308080914091089108000840387
:101C7000080809140910891480008403080809144D
:101C800009108910800084030808091409108914B8
:101C90008000840308080914091089108000840357
:101CA000080809140910891480008403080809141D
:101CB0000910891080008403080809140910891488
:101CC0008000840308080914091089108000840327
:101CD00008080914091089148000840308080914ED
:101CE0000910891080008403080809140910891458
:101CF00080008403080809140910891080008403F7
:101D000008080914091089148000840308080914BC
:101D10000910891080008403080809140910891427
:101D200080008403080809140910891080008403C6
:101D3000080809140910891480008403080809148C
:101D40000910891080008403080809148A110A12F6
:101D50002129091020308400000008080914091006
:101D60008000840A00000808091409108000840A11
:101D700000000808091409108000840A00000808FF
:101D8000091409108000840A0000080809140910C9
:101D90008000840A00000808091409108000840AE1
:101DA00000000808091409108000840A00000808CF
:101DB000091409108000840A000008080914091099
:101DC0008000840A00000808091409108000840AB1
:101DD00000000808091409108000840A000008089F
:101DE000091409108000840A000008080914091069
:101DF0008000840A00000808091409108000840A81
:101E000000000808091409108000840A000008086E
:101E1000091409108000840A000008080914091038
:101E20008000840A00000808091409108000840A50
:101E300000000808091409108000840A000008083E
:101E4000091409108000840A000008080914091008
:101E50008000840A00000808091409108000840A20
:101E600000000808091409108000840A000008080E
:101E7000091409108000840A0000080809140910D8
:101E80008000840A00000808091409108000840AF0
:101E900000000808091409108000840A00000808DE
:101EA000091409108000840A0000080809140910A8
:101EB0008000840A00000808091409108000840AC0
:101EC00000000808091409108000840A00000808AE
:101ED000091409108000840A000008080914091078
:101EE0008000840A00000808091409108000840A90
:101EF00000000808091409108000840A000008087E
:101F0000091409108000840A000008080914091047
:101F10008000840A00000808091409108000840A5F
:101F200000000808091409108000840A000008084D
:101F3000091409108000840A000008080914091017
:101F40008000840A00000808091409108000840A2F
:101F500000000808091409108000840A000008081D
:101F6000091409108000840A0000080809140910E7
:101F70008000840A00000808091409108000840AFF
:101F800000000808091409108000840A00000808ED
:101F9000091409108000840A0000080809140910B7
:101FA0008000840A00000808091409108000840ACF
:101FB00000000808091409108000840A00000808BD
:101FC000091409108000840A000008080914091087
:101FD0008000840A00000808091409108000840A9F
:101FE00000000808091409108000840A000008088D
:101FF000091409108000840A000008080914091057
:102000008000840A00000808091409108000840A6E
:1020100000000808091409108000840A000008085C
:10202000091409108000840A000008080914091026
:102030008000840A00000808091409108000840A3E
:1020400000000808091409108000840A000008082C
:1020500009140910800084170000080809140910E9
:10206000800084030000080809140910800084031C
:102070000000080809140910800084030000080803
:1020800009140910800084030000080809140910CD
:1020900080008403000008080914091080008403EC
:1020A00000000808091409108000840300000808D3
:1020B000091409108000840300000808091409109D
:1020C00080008403000008080914091080008403BC
:1020D00000000808091409108000840300000808A3
:1020E000091409108000840300000808091409106D
:1020F000800084030000080809140910800084038C
:102100000000080809140910800084030000080872
:10211000091409108000840300000808091409103C
:10212000800084030000080809140910800084035B
:102130000000080809140910800084030000080842
:10214000091409108000840300000808091409100C
:10215000800084030000080809140910800084032B
:102160000000080809140910800084030000080812
:1021700009140910800084030000080809140910DC
:1021800080008403000008080914091080008403FB
:1021900000000808091409108000840300000808E2
:1021A00009140910800084030000080809140910AC
:1021B00080008403000008080914091080008403CB
:1021C00000000808091409108000840300000808B2
:1021D000091409108000840300000808091409107C
:1021E000800084030000080809140910800084039B
:1021F0000000080809140910800084030000080882
:10220000091409108000840300000808091409104B
:10221000800084030000080809140910800084036A
:102220000000080809140910800084030000080851
:10223000091409108000840300000808091409101B
:10224000800084030000080809140910800084033A
:102250000000080809140910800084030000080821
:1022600009140910800084030000080809140910EB
:10227000800084030000080809140910800084030A
:1022800000000808091409108000840300000808F1
:1022900009140910800084030000080809140910BB
:1022A00080008403000008080914091080008403DA
:1022B00000000808091409108000840300000808C1
:1022C000091409108000840300000808091409108B
:1022D00080008403000008080914091080008403AA
:1022E0000000080809140910800084030000080891
:1022F000091409108000840300000808091409105B
:102300008000840300000808091409108000840379
:102310000000080809140910800084030000080860
:10232000091409108000840300000808091409102A
:102330008000840300000808091409108000840349
:102340000000080809140910800084030000080830
:1023500009140910800083170000080809140910E7
:102360008000840A00000808091409108000840A0B
:1023700000000808091409108000840A00000808F9
:10238000091409108000840A0000080809140910C3
:102390008000840A00000808091409108000840ADB
:1023A00000000808091409108000840A00000808C9
:1023B000091409108000840A000008080914091093
:1023C0008000840A00000808091409108000840AAB
:1023D00000000808091409108000840A0000080899
:1023E000091409108000840A000008080914091063
:1023F0008000840A00000808091409108000840A7B
:1024000000000808091409108000840A0000080868
:10241000091409108000840A000008080914091032
:102420008000840A00000808091409108000840A4A
:1024300000000808091409108000840A0000080838
:10244000091409108000840A000008080914091002
:102450008000840A00000808091409108000840A1A
:1024600000000808091409108000840A0000080808
:10247000091409108000840A0000080809140910D2
:102480008000840A00000808091409108000840AEA
:1024900000000808091409108000840A00000808D8
:1024A000091409108000840A0000080809140910A2
:1024B0008000840A00000808091409108000840ABA
:1024C00000000808091409108000840A00000808A8
:1024D000091409108000840A000008080914091072
:1024E0008000840A00000808091409108000840A8A
:1024F00000000808091409108000840A0000080878
:10250000091409108000840A000008080914091041
:102510008000840A00000808091409108000840A59
:1025200000000808091409108000840A0000080847
:10253000091409108000840A000008080914091011
:102540008000840A00000808091409108000840A29
:1025500000000808091409108000840A0000080817
:10256000091409108000840A0000080809140910E1
:102570008000840A00000808091409108000840AF9
:1025800000000808091409108000840A00000808E7
:10259000091409108000840A0000080809140910B1
:1025A0008000840A00000808091409108000840AC9
:1025B00000000808091409108000840A00000808B7
:1025C000091409108000840A000008080914091081
:1025D0008000840A00000808091409108000840A99
:1025E00000000808091409108000840A0000080887
:1025F000091409108000840A000008080914091051
:102600008000840A00000808091409108000840A68
:1026100000000808091409108000840A0000080856
:10262000091409108000840A000008080914091020
:102630008000840A00000808091409108000840A38
:1026400000000808091409108000840A0000080826
:1026500009140910800084130000080809140910E7
:102660008000840300000808091409108000840316
:1026700000000808091409108000840300000808FD
:1026800009140910800084030000080809140910C7
:1026900080008403000008080914091080008403E6
:1026A00000000808091409108000840300000808CD
:1026B0000914091080008403000008080914091097
:1026C00080008403000008080914091080008403B6
:1026D000000008080914091080008403000008089D
:1026E0000914091080008403000008080914091067
:1026F0008000840300000808091409108000840386
:10270000000008080914091080008403000008086C
:102710000914091080008403000008080914091036
:102720008000840300000808091409108000840355
:10273000000008080914091080008403000008083C
:102740000914091080008403000008080914091006
:102750008000840300000808091409108000840325
:10276000000008080914091080008403000008080C
:1027700009140910800084030000080809140910D6
:1027800080008403000008080914091080008403F5
:1027900000000808091409108000840300000808DC
:1027A00009140910800084030000080809140910A6
:1027B00080008403000008080914091080008403C5
:1027C00000000808091409108000840300000808AC
:1027D0000914091080008403000008080914091076
:1027E0008000840300000808091409108000840395
:1027F000000008080914091080008403000008087C
:102800000914091080008403000008080914091045
:102810008000840300000808091409108000840364
:10282000000008080914091080008403000008084B
:102830000914091080008403000008080914091015
:102840008000840300000808091409108000840334
:10285000000008080914091080008403000008081B
:1028600009140910800084030000080809140910E5
:102870008000840300000808091409108000840304
:1028800000000808091409108000840300000808EB
:1028900009140910800084030000080809140910B5
:1028A00080008403000008080914091080008403D4
:1028B00000000808091409108000840300000808BB
:1028C0000914091080008403000008080914091085
:1028D00080008403000008080914091080008403A4
:1028E000000008080914091080008403000008088B
:1028F0000914091080008403000008080914091055
:102900008000840300000808091409108000840373
:10291000000008080914091080008403000008085A
:102920000914091080008403000008080914091024
:102930008000840300000808091409108000840343
:10294000000008080914091080008403000008082A
:1029500009148A110A12212914308A007A08820780
:102960000A168A11BF2C0A168A11CF2D0A168A114F
:10297000D22E0A168A11D52F0A168A15D9280910BF
:102980002030840000000914091008088000840A1F
:102990000914091008088000840A0914091008089D
:1029A0008000840A0914091008088000840A0914A8
:1029B000091008088000840A09140910080880001A
:1029C000840A0914091008088000840A09140910EF
:1029D00008088000840A0914091008088000840A85
:1029E0000914091008088000840A0914091008084D
:1029F0008000840A0914091008088000840A091458
:102A0000091008088000840A0914091008088000C9
:102A1000840A0914091008088000840A091409109E
:102A200008088000840A0914091008088000840A34
:102A30000914091008088000840A091409100808FC
:102A40008000840A0914091008088000840A091407
:102A5000091008088000840A091409100808800079
:102A6000840A0914091008088000840A091409104E
:102A700008088000840A0914091008088000840AE4
:102A80000914091008088000840A091409100808AC
:102A90008000840A0914091008088000840A0914B7
:102AA000091008088000840A091409100808800029
:102AB000840A0914091008088000840A09140910FE
:102AC00008088000840A0914091008088000840A94
:102AD0000914091008088000840A0914091008085C
:102AE0008000840A0914091008088000840A091467
:102AF000091008088000840A0914091008088000D9
:102B0000840A0914091008088000840A09140910AD
:102B100008088000840A0914091008088000840A43
:102B20000914091008088000840A0914091008080B
:102B30008000840A0914091008088000840A091416
:102B4000091008088000840A091409100808800088
:102B5000840A0914091008088000840A091409105D
:102B600008088000840A0914091008088000840AF3
:102B70000914091008088000840A091409100808BB
:102B80008000840A091408088000840AC92D800086
:102B900084030330FA0786140A128A1156280000AB
:102BA0000910D22D00000914091008088000840AB9
:102BB0000914091008088000840A0914091008087B
:102BC0008000840A0914091008088000840A091486
:102BD000091008088000840A0914091008088000F8
:102BE000840A0914091008088000840A09140910CD
:102BF00008088000840A0914091008088000840A63
:102C00000914091008088000840A0914091008082A
:102C10008000840A09140910080880008417091428
:102C200009100808800084030914091008088000AE
:102C3000840309140910080880008403091409108A
:102C40000808800084030914091008088000840320
:102C500009140910080880008403091409100808E1
:102C600080008403091409100808800084030914F3
:102C7000091008088000840309140910080880005E
:102C8000840309140910080880008403091409103A
:102C900008088000840309140910080880008403D0
:102CA0000914091008088000840309140910080891
:102CB00080008403091409100808800084030914A3
:102CC000091008088000840309140910080880000E
:102CD00084030914091008088000840309140910EA
:102CE0000808800084030914091008088000840380
:102CF0000914091008088000840309140910080841
:102D00008000840309140910080880008403091452
:102D100009100808800084030914091008088000BD
:102D20008403091409100808800084030914091099
:102D3000080880008403091409100808800084032F
:102D400009140910080880008403091409100808F0
:102D50008000840309140910080880008403091402
:102D6000091008088000840309140910080880006D
:102D70008403091409100808800084030914091049
:102D800008088000840309140910080880008403DF
:102D900009140910080880008403091408080A1699
:102DA0008A11C72DD32E0910D52E00000914091041
:102DB00008088000840309140910080880008403AF
:102DC0000914091008088000840309140910080870
:102DD0008000840309140910080880008403091482
:102DE00009100808800084030914091008088000ED
:102DF00084030914091008088000840309140910C9
:102E0000080880008403091409100808800084035E
:102E1000091409100808800084030914091008081F
:102E20008000840309140910080880008403091431
:102E3000091008088000840309140910080880009C
:102E40008403091409100808800084030914091078
:102E5000080880008403091409100808800084030E
:102E600009140910080880008403091409100808CF
:102E700080008403091409100808800084030914E1
:102E8000091008088000840309140910080880004C
:102E90008403091409100808800084030914091028
:102EA0000808800083170914091008088000840AA4
:102EB0000914091008088000840A09140910080878
:102EC0008000840A0914091008088000840A091483
:102ED000091008088000840A0914091008088000F5
:102EE000840A0914091008088000840A09140910CA
:102EF00008088000840A0914091008088000840A60
:102F00000914091008088000840A09140910080827
:102F10008000840A0914091008088000840A091432
:102F2000091008088000840A0914091008088000A4
:102F3000840A0914091008088000840A0914091079
:102F400008088000840A0914091008088000840A0F
:102F50000914091008088000840A091409100808D7
:102F60008000840A0914091008088000840A0914E2
:102F7000091008088000840A091409100808800054
:102F8000840A0914091008088000840A0914091029
:102F900008088000840A0914091008088000840ABF
:102FA000091408080A168A11C42DD62F000009102A
:102FB000D92F00000914091008088000840A091498
:102FC000091008088000840A091409100808800004
:102FD000840A0914091008088000840A09140910D9
:102FE00008088000840A0914091008088000840A6F
:102FF0000914091008088000840A09140910080837
:103000008000840A0914091008088000840A091441
:10301000091008088000840A0914091008088000B3
:10302000840A0914091008088000840A0914091088
:1030300008088000840A0914091008088000840A1E
:103040000914091008088000840A091409100808E6
:103050008000840A0914091008088000840A0914F1
:10306000091008088000840A091409100808800063
:10307000840A0914091008088000840A0914091038
:1030800008088000840A0914091008088000840ACE
:103090000914091008088000840A09140910080896
:1030A0008000840A0914091008088000840A0914A1
:1030B000091008088000840A091409100808800013
:1030C000840A0914091008088000840A09140910E8
:1030D00008088000840A0914091008088000840A7E
:1030E0000914091008088000840A09140910080846
:1030F0008000840A0914091008088000840A091451
:10310000091008088000840A0914091008088000C2
:10311000840A0914091008088000840A0914091097
:1031200008088000840A0914091008088000841324
:1031300009140910080880008403091409100808FC
:10314000800084030914091008088000840309140E
:103150000910080880008403091409100808800079
:103160008403091409100808800084030914091055
:1031700008088000840309140910080880008403EB
:1031800009140910080880008403091409100808AC
:1031900080008403091409100808800084030914BE
:1031A0000910080880008403091408080A168A1107
:1031B000C72DDA280A128A1109100000A72F18302B
:1031C0008A007A0882070A168A15EC280A168A15D8
:1031D000F32A0A168A15F42C091020308400000006
:1031E0000808091409108000840A0000080809145E
:1031F00009108000840A00000808091409108000E2
:10320000840A00000808091409108000840A0000DC
:103210000808091409108000840A0000080809142D
:1032200009108000840A00000808091409108000B1
:10323000840A00000808091409108000840A0000AC
:103240000808091409108000840A000008080914FD
:1032500009108000840A0000080809140910800081
:10326000840A00000808091409108000840A00007C
:103270000808091409108000840A000008080914CD
:1032800009108000840A0000080809140910800051
:10329000840A00000808091409108000840A00004C
:1032A0000808091409108000840A0000080809149D
:1032B00009108000840A0000080809140910800021
:1032C000840A00000808091409108000840A00001C
:1032D0000808091409108000840A0000080809146D
:1032E00009108000840A00000808091409108000F1
:1032F000840A00000808091409108000840A0000EC
:103300000808091409108000840A0000080809143C
:1033100009108000840A00000808091409108000C0
:10332000840A00000808091409108000840A0000BB
:103330000808091409108000840A0000080809140C
:1033400009108000840A0000080809140910800090
:10335000840A00000808091409108000840A00008B
:103360000808091409108000840A000008080914DC
:1033700009108000840A0000080809140910800060
:10338000840A00000808091409108000840A00005B
:103390000808091409108000840A000008080914AC
:1033A00009108000840A0000080809140910800030
:1033B000840A00000808091409108000840A00002B
:1033C0000808091409108000840A0000080809147C
:1033D00009108000840A0000080809140910800000
:1033E000840A00000808091409108000840A0000FB
:1033F0000808091409108000840A0000080809144C
:1034000009108000840A00000808091409108000CF
:10341000840A00000808091409108000840A0000CA
:103420000808091409108000840A0000080809141B
:1034300009108000840A000008080914091080009F
:10344000840A00000808091409108000840A00009A
:103450000808091409108000840A000008080914EB
:1034600009108000840A000008080914091080006F
:10347000840A00000808091409108000840A00006A
:103480000808091409108000840A000008080914BB
:1034900009108000840A000008080914091080003F
:1034A000840A00000808091409108000840A00003A
:1034B0000808091409108000840A0000080809148B
:1034C00009108000840A000008080914091080000F
:1034D000840A0000080809140910800084170000FD
:1034E0000808091409108000840300000808091462
:1034F00009108000840300000808091409108000E6
:1035000084030000080809140910800084030000E7
:103510000808091409108000840300000808091431
:1035200009108000840300000808091409108000B5
:1035300084030000080809140910800084030000B7
:103540000808091409108000840300000808091401
:103550000910800084030000080809140910800085
:103560008403000008080914091080008403000087
:1035700008080914091080008403000008080914D1
:103580000910800084030000080809140910800055
:103590008403000008080914091080008403000057
:1035A00008080914091080008403000008080914A1
:1035B0000910800084030000080809140910800025
:1035C0008403000008080914091080008403000027
:1035D0000808091409108000840300000808091471
:1035E0000A168A11C72DF42A0910F62A00000808C5
:1035F0000914091080008403000008080914091048
:103600008000840300000808091409108000840366
:10361000000008080914091080008403000008084D
:103620000914091080008403000008080914091017
:103630008000840300000808091409108000840336
:10364000000008080914091080008403000008081D
:1036500009140910800084030000080809140910E7
:103660008000840300000808091409108000840306
:1036700000000808091409108000840300000808ED
:1036800009140910800084030000080809140910B7
:1036900080008403000008080914091080008403D6
:1036A00000000808091409108000840300000808BD
:1036B0000914091080008403000008080914091087
:1036C00080008403000008080914091080008403A6
:1036D000000008080914091080008403000008088D
:1036E0000914091080008403000008080914091057
:1036F0008000840300000808091409108000840376
:10370000000008080914091080008403000008085C
:103710000914091080008403000008080914091026
:103720008000840300000808091409108000840345
:10373000000008080914091080008403000008082C
:1037400009140910800084030000080809140910F6
:103750008000840300000808091409108000840315
:1037600000000808091409108000840300000808FC
:1037700009140910800084030000080809140910C6
:1037800080008403000008080914091080008403E5
:1037900000000808091409108000840300000808CC
:1037A0000914091080008403000008080914091096
:1037B00080008403000008080914091080008403B5
:1037C000000008080914091080008403000008089C
:1037D0000914091080008403000008080914091066
:1037E0008000831700000808091409108000840A6B
:1037F00000000808091409108000840A0000080865
:10380000091409108000840A00000808091409102E
:103810008000840A00000808091409108000840A46
:1038200000000808091409108000840A0000080834
:10383000091409108000840A0000080809140910FE
:103840008000840A00000808091409108000840A16
:1038500000000808091409108000840A0000080804
:10386000091409108000840A0000080809140910CE
:103870008000840A00000808091409108000840AE6
:1038800000000808091409108000840A00000808D4
:10389000091409108000840A00000808091409109E
:1038A0008000840A00000808091409108000840AB6
:1038B00000000808091409108000840A00000808A4
:1038C000091409108000840A00000808091409106E
:1038D0008000840A00000808091409108000840A86
:1038E00000000808091409108000840A0000080874
:1038F000091409108000840A00000808091409103E
:103900008000840A00000808091409108000840A55
:1039100000000808091409108000840A0000080843
:10392000091409108000840A00000808091409100D
:103930008000840A00000808091409108000840A25
:1039400000000808091409108000840A0000080813
:10395000091409108000840A0000080809140910DD
:103960008000840A00000808091409108000840AF5
:1039700000000808091409108000840A00000808E3
:10398000091409108000840A0000080809140910AD
:103990008000840A00000808091409108000840AC5
:1039A00000000808091409108000840A00000808B3
:1039B000091409108000840A00000808091409107D
:1039C0008000840A00000808091409108000840A95
:1039D00000000808091409108000840A0000080883
:1039E00009140A168A11C42DF52C0A168A11091019
:0439F0000000AF2AFA
:084000000100020003000400AE
:02400E00F2209E
:02401000FF3F70
:00000001FF
