:020000040000FA
:100000000130890088015D28FC00030EFD000B1EF5
:100010004F288B1C4F280B12FF1B4828F40B0E286F
:10002000F50B0E28F60B0E28F70B0E287808820722
:100030000A128A119D2D0A168A11A4280A128A1101
:10004000642C0A128A11A72C0A128A11A72C0A12F0
:100050008A11562B0A168A11A72E0A168A15DA2A31
:100060000A128A15A12A0A128A110A2D0A128A1165
:100070000A2D0A128A11C12B0A128A11CB290A12DF
:100080008A1189280A128A1189280A128A11892854
:10009000831203136708EB006608EA007F178312D8
:1000A00003130C1C5828831603130C1C58283F21DB
:1000B0007D0E8300FC0E7C0E090085018316031360
:1000C000C03095001F3085004030810010308B001B
:1000D000F1308600FF30880004308900B930870095
:1000E00083160317880189010830870083160313DC
:1000F0005630990000309A00243098008312031380
:100100009030980083139F010130F400F500F60051
:10011000F700FF01F901C6208910701A89148A01BD
:1001200070080F39F8000310F80D78078610701F5B
:100130001728F800630AF400620AF500610AF60065
:10014000600AF700831603130113F01B01178312D3
:100150000313E01FB8286308FE39EC00831603136D
:10016000E00083120313FE3AE900FF17780817280E
:100170008B100B168B1719217A08F33A031DBB2835
:100180000B128B13DC30FA002A21892819217A08F6
:10019000F83A031DFA28DC30FA002A2120308400C6
:1001A0004030F50083130008FA00840A2A21F50B79
:1001B000D3284030F500841784030008FA00840334
:1001C0002A21F50BDD284030F5008317840A00084A
:1001D000FA00840A2A21F50BE7284030F500841341
:1001E00084030008FA0084032A21F50BF128831305
:1001F0000323C6287A08F93A031D0329DD30FA00E3
:100200002A21E222C6287A08FA3A031D1129DE3093
:10021000FA002A21B6220130F400F500F600F700BA
:1002200008007A08F33A031DC628DC30FA002A21B8
:10023000C6288C1E1929181D1F291A081929981C4F
:100240002729181218161A088C1A232919291A088E
:10025000FA0000340C1E2A297A0899000034013073
:10026000F402031CF502F408031D3029F508031DF0
:1002700030290800800086148313122389288312F2
:100280000313101072098F0073098E000C101014E4
:10029000FE0B0800710AFE0000000408E800660872
:1002A000840083138413E7188417E71983176719E9
:1002B000841767198317891009100B1A8B1C612981
:1002C000FF15000008080914891409108000671838
:1002D000840AE718840308080914E71984036719D6
:1002E000840A80000230E718FE30E719FE30E60786
:1002F0001F3066060319832960306606031D8D29A9
:100300005F30E60085292030E6000310E70D671E08
:100310008D29FF1FC029E7016714FF1FC6297F1A17
:100320009F2983160313E00803197F16E003E003F7
:10033000831203137F1E9F298B100B16C6297F1F64
:10034000C629E903E90BC62920306A02EB183F3AB7
:10035000EB193F3AEB18403EEB19C03E6B19803E5B
:10036000FE3EFF19FE3E6C02FE39ED00ED1FBE2978
:10037000FE30ED06ED0AED0A5422BF297922FF1660
:1003800010100C10831603130C100B13831203139D
:10039000680884000800831203132030E600E70198
:1003A00067141010901610160130FE00FF308F00F9
:1003B0008E000C10831603130C14831203130B17F7
:1003C00010148B17831603130C1C492A8312031372
:1003D0008C1EE229181DEE291A08E229981CF6291C
:1003E000181218161A088C1AF229E2291A08FA00AB
:1003F000FF1FFC29FF1EE2297A08F83A031D2F2A65
:10040000DC30FA002A21203084004030F5008313CC
:100410000008FA00840A2A21F50B082A4030F5006A
:10042000840384170008FA0084032A21F50B122A9A
:100430004030F500840A83170008FA00840A2A2154
:10044000F50B1C2A4030F500840384130008FA00E1
:1004500084032A21F50B262A83130323E2297A0831
:10046000F93A031D382ADD30FA002A21E222E22976
:100470007A08FA3A031D412ADE30FA002A21D322F3
:10048000E2297A08F33A031DE229DC30FA002A2136
:10049000E2298B1383120313861412230130F40014
:1004A000F500F600F7008928831203130408EE0014
:1004B000ED0803199D2A203084008313841300085B
:1004C000EF00A02284170008841380008417AB2259
:1004D00083170008831380008317A0228413000869
:1004E000841780008413AB226F088000ED0B582A1C
:1004F0009D2A831203130408EE00ED0803199D2AB8
:1005000020308400831784130008EF00A022841792
:100510000008841380008417AB228313000883171C
:1005200080008313A02284130008841780008413A2
:10053000AB226F088000ED0B7D2A6E088400080056
:10054000840A000884038000840A5F3004067F392F
:10055000031DA02A080084030008840A8000840385
:10056000203004067F39031DAB2A080019217A08C0
:10057000DF392038F0008312031319217A08E000D4
:1005800019217A08E10019217A08E20019217A0874
:10059000E30019217A08F10019217A08F2001921E3
:1005A0007A08F300080019211921192119211921AC
:1005B00019217A08F10019217A08F20019217A0824
:1005C000F30008000130FA002A210030FA002A2145
:1005D0007008FA002A21831203136008FA002A2106
:1005E0006108FA002A216208FA002A216308FA0049
:1005F0002A217108FA002A217208FA002A217308B8
:10060000FA002A2108007B08FA002A21FA012A218F
:100610002A21831203136508FA002A216408FA00CC
:100620002A210800FB01831603130715871085167E
:10063000051283120313871005127B17051C7B1309
:10064000851C7B13851CFB170718FB1587140516E3
:1006500083160313871407110516851283120313DB
:10066000071185127B16051C7B12851C7B12851CCD
:10067000FB1607187B1507158516061FFB14861F2A
:100680007B14E401851D64148910061586118610FB
:100690000910000000000000000000000808091414
:1006A0008614891006118611E500080009103F30F4
:1006B000F600203084007308F4007208F500000092
:1006C0002F210808091409108000840A7308F40017
:1006D0007208F5002F21F60B612B000008080914A1
:1006E0000910800084173F30F6007308F400720888
:1006F000F5002F2100000808091409108000840368
:100700007308F4007208F5002F21F60B7B2B000014
:10071000080809140910800083173F30F600730899
:10072000F4007208F5002F210000080809140910D0
:100730008000840A7308F4007208F5002F21F60B7C
:10074000952B0000080809140910800084133F301D
:10075000F6007308F4007208F5002F210000080865
:1007600009140910800084037308F4007208F5006E
:100770002F21F60BAF2B0000080809148A110A126A
:100780003A29091089142030840008080914091036
:1007900089108000840A1F30F6007308F400720884
:1007A000F5002F21000008080914091089148000A1
:1007B000840A08080914091089108000840A730843
:1007C000F4007208F5002F21F60BD32B0000080867
:1007D00009140910891480008417080809140910E5
:1007E0008910800084031F30F6007308F40072083B
:1007F000F5002F2100000808091409108914800051
:100800008403080809140910891080008403730800
:10081000F4007208F5002F21F60BFB2B00000808EE
:100820000914091089148000831708080914091095
:1008300089108000840A1F30F6007308F4007208E3
:10084000F5002F2100000808091409108914800000
:10085000840A08080914091089108000840A7308A2
:10086000F4007208F5002F21F60B232C0000080875
:100870000914091089148000841308080914091048
:100880008910800084031F30F6007308F40072089A
:10089000F5002F21000008080914091089148000B0
:1008A0008403080809140910891080008403730860
:1008B000F4007208F5002F21F60B4B2C00000808FD
:1008C00009148A110A123A2909103F30F400203025
:1008D000840000000808091409108000840AF40B41
:1008E0006A2C0000080809140910800084173F30A2
:1008F000F400000008080914091080008403F40BB8
:100900007A2C0000080809140910800083173F3072
:10091000F40000000808091409108000840AF40B90
:100920008A2C0000080809140910800084133F3045
:10093000F400000008080914091080008403F40B77
:100940009A2C0000080809148A110A123A29091081
:100950003F30F40020308400AD2C701DB02C0625F3
:100960000808091409108000840A701DB82C062597
:100970000000F40BB02C00000808091409108000D6
:1009800084173F30F400C42C701DC72C06250808BE
:100990000914091080008403701DCF2C0625000067
:1009A000F40BC72C000008080914091080008317F5
:1009B0003F30F400DB2C701DDE2C062508080914DE
:1009C00009108000840A701DE62C06250000F40B37
:1009D000DE2C0000080809140910800084133F3041
:1009E000F400F22C701DF52C0625080809140910D6
:1009F00080008403701DFD2C06250000F40BF52CEF
:100A00000000080809148A110A123A29072D00006B
:100A1000092D0800091089142030840008080914E1
:100A2000091089108000840A1F30F600701C072509
:100A3000092508080914091089148000840A080887
:100A40000914091089108000840A701C0725282DBC
:100A50000000F60B192D000008080914091089146C
:100A60008000841708080914091089108000840385
:100A70001F30F600701C0725092508080914091005
:100A80008914800084030808091409108910800063
:100A90008403701C07254C2D0000F60B3D2D000033
:100AA000080809140910891480008317080809141C
:100AB000091089108000840A1F30F600701C072579
:100AC000092508080914091089148000840A0808F7
:100AD0000914091089108000840A701C0725702DE4
:100AE0000000F60B612D0000080809140910891494
:100AF00080008413080809140910891080008403F9
:100B00001F30F600701C0725092508080914091074
:100B100089148000840308080914091089108000D2
:100B20008403701C0725942D0000F60B852D000012
:100B3000080809148A110A123A2909102030840081
:100B400000000914091008088000840A091409101B
:100B500008088000840A0914091008088000840A23
:100B60000914091008088000840A091409100808EB
:100B70008000840A0914091008088000840A0914F6
:100B8000091008088000840A091409100808800068
:100B9000840A0914091008088000840A091409103D
:100BA00008088000840A0914091008088000840AD3
:100BB0000914091008088000840A0914091008089B
:100BC0008000840A0914091008088000840A0914A6
:100BD000091008088000840A091409100808800018
:100BE000840A0914091008088000840A09140910ED
:100BF00008088000840A0914091008088000840A83
:100C00000914091008088000840A0914091008084A
:100C10008000840A0914091008088000840A091455
:100C2000091008088000840A0914091008088000C7
:100C3000840A0914091008088000840A091409109C
:100C400008088000840A0914091008088000840A32
:100C50000914091008088000840A091409100808FA
:100C60008000840A0914091008088000840A091405
:100C7000091008088000840A091409100808800077
:100C8000840A0914091008088000840A091409104C
:100C900008088000840A0914091008088000840AE2
:100CA0000914091008088000840A091409100808AA
:100CB0008000840A0914091008088000840A0914B5
:100CC000091008088000840A091409100808800027
:100CD000840A0914091008088000840A09140910FC
:100CE00008088000840A0914091008088000840A92
:100CF0000914091008088000840A0914091008085A
:100D00008000840A0914091008088000840A091464
:100D1000091008088000840A0914091008088000D6
:100D2000840A0914091008088000840A09140910AB
:100D300008088000840A0914091008088000840A41
:100D40000914091008088000840A09140910080809
:100D50008000840A0914091008088000840A091414
:100D6000091008088000840A091409100808800086
:100D7000840A0914091008088000840A091409105B
:100D800008088000840A0914091008088000840AF1
:100D90000914091008088000840A091409100808B9
:100DA0008000840A0914091008088000840A0914C4
:100DB000091008088000840A091409100808800036
:100DC0008417091409100808800084030914091005
:100DD00008088000840309140910080880008403AF
:100DE0000914091008088000840309140910080870
:100DF0008000840309140910080880008403091482
:100E000009100808800084030914091008088000EC
:100E100084030914091008088000840309140910C8
:100E2000080880008403091409100808800084035E
:100E3000091409100808800084030914091008081F
:100E40008000840309140910080880008403091431
:100E5000091008088000840309140910080880009C
:100E60008403091409100808800084030914091078
:100E7000080880008403091409100808800084030E
:100E800009140910080880008403091409100808CF
:100E900080008403091409100808800084030914E1
:100EA000091008088000840309140910080880004C
:100EB0008403091409100808800084030914091028
:100EC00008088000840309140910080880008403BE
:100ED000091409100808800084030914091008087F
:100EE0008000840309140910080880008403091491
:100EF00009100808800084030914091008088000FC
:100F000084030914091008088000840309140910D7
:100F1000080880008403091409100808800084036D
:100F2000091409100808800084030914091008082E
:100F30008000840309140910080880008403091440
:100F400009100808800084030914091008088000AB
:100F50008403091409100808800084030914091087
:100F6000080880008403091409100808800084031D
:100F700009140910080880008403091409100808DE
:100F800080008403091409100808800084030914F0
:100F9000091008088000840309140910080880005B
:100FA0008403091409100808800084030914091037
:100FB00008088000840309140910080880008403CD
:100FC000091409100808800084030914091008088E
:100FD00080008403091409100808800084030914A0
:100FE000091008088000840309140910080880000B
:100FF00084030914091008088000840309140910E7
:10100000080880008403091409100808800084037C
:10101000091409100808800084030914091008083D
:10102000800084030914091008088000840309144F
:1010300009100808800084030914091008088000BA
:1010400083170914091008088000840A091409107C
:1010500008088000840A0914091008088000840A1E
:101060000914091008088000840A091409100808E6
:101070008000840A0914091008088000840A0914F1
:10108000091008088000840A091409100808800063
:10109000840A0914091008088000840A0914091038
:1010A00008088000840A0914091008088000840ACE
:1010B0000914091008088000840A09140910080896
:1010C0008000840A0914091008088000840A0914A1
:1010D000091008088000840A091409100808800013
:1010E000840A0914091008088000840A09140910E8
:1010F00008088000840A0914091008088000840A7E
:101100000914091008088000840A09140910080845
:101110008000840A0914091008088000840A091450
:10112000091008088000840A0914091008088000C2
:10113000840A0914091008088000840A0914091097
:1011400008088000840A0914091008088000840A2D
:101150000914091008088000840A091409100808F5
:101160008000840A0914091008088000840A091400
:10117000091008088000840A091409100808800072
:10118000840A0914091008088000840A0914091047
:1011900008088000840A0914091008088000840ADD
:1011A0000914091008088000840A091409100808A5
:1011B0008000840A0914091008088000840A0914B0
:1011C000091008088000840A091409100808800022
:1011D000840A0914091008088000840A09140910F7
:1011E00008088000840A0914091008088000840A8D
:1011F0000914091008088000840A09140910080855
:101200008000840A0914091008088000840A09145F
:10121000091008088000840A0914091008088000D1
:10122000840A0914091008088000840A09140910A6
:1012300008088000840A0914091008088000840A3C
:101240000914091008088000840A09140910080804
:101250008000840A0914091008088000840A09140F
:10126000091008088000840A091409100808800081
:10127000840A0914091008088000840A0914091056
:1012800008088000840A0914091008088000840AEC
:101290000914091008088000840A091409100808B4
:1012A0008000840A0914091008088000840A0914BF
:1012B000091008088000840A091409100808800031
:1012C0008413091409100808800084030914091004
:1012D00008088000840309140910080880008403AA
:1012E000091409100808800084030914091008086B
:1012F000800084030914091008088000840309147D
:1013000009100808800084030914091008088000E7
:1013100084030914091008088000840309140910C3
:101320000808800084030914091008088000840359
:10133000091409100808800084030914091008081A
:10134000800084030914091008088000840309142C
:101350000910080880008403091409100808800097
:101360008403091409100808800084030914091073
:101370000808800084030914091008088000840309
:1013800009140910080880008403091409100808CA
:1013900080008403091409100808800084030914DC
:1013A0000910080880008403091409100808800047
:1013B0008403091409100808800084030914091023
:1013C00008088000840309140910080880008403B9
:1013D000091409100808800084030914091008087A
:1013E000800084030914091008088000840309148C
:1013F00009100808800084030914091008088000F7
:1014000084030914091008088000840309140910D2
:101410000808800084030914091008088000840368
:101420000914091008088000840309140910080829
:10143000800084030914091008088000840309143B
:1014400009100808800084030914091008088000A6
:101450008403091409100808800084030914091082
:101460000808800084030914091008088000840318
:1014700009140910080880008403091409100808D9
:1014800080008403091409100808800084030914EB
:101490000910080880008403091409100808800056
:1014A0008403091409100808800084030914091032
:1014B00008088000840309140910080880008403C8
:1014C0000914091008088000840309140910080889
:1014D000800084030914091008088000840309149B
:1014E0000910080880008403091409100808800006
:1014F00084030914091008088000840309140910E2
:101500000808800084030914091008088000840377
:101510000914091008088000840309140910080838
:10152000800084030914091008088000840309144A
:101530000910080880008403091408088A110A1297
:101540003A29091089142030840008080914091068
:1015500089108000840A0808091409108914800081
:10156000840A08080914091089108000840A0808F0
:101570000914091089148000840A08080914091044
:1015800089108000840A0808091409108914800051
:10159000840A08080914091089108000840A0808C0
:1015A0000914091089148000840A08080914091014
:1015B00089108000840A0808091409108914800021
:1015C000840A08080914091089108000840A080890
:1015D0000914091089148000840A080809140910E4
:1015E00089108000840A08080914091089148000F1
:1015F000840A08080914091089108000840A080860
:101600000914091089148000840A080809140910B3
:1016100089108000840A08080914091089148000C0
:10162000840A08080914091089108000840A08082F
:101630000914091089148000840A08080914091083
:1016400089108000840A0808091409108914800090
:10165000840A08080914091089108000840A0808FF
:101660000914091089148000840A08080914091053
:1016700089108000840A0808091409108914800060
:10168000840A08080914091089108000840A0808CF
:101690000914091089148000840A08080914091023
:1016A00089108000840A0808091409108914800030
:1016B000840A08080914091089108000840A08089F
:1016C0000914091089148000840A080809140910F3
:1016D00089108000840A0808091409108914800000
:1016E000840A08080914091089108000840A08086F
:1016F0000914091089148000840A080809140910C3
:1017000089108000840A08080914091089148000CF
:10171000840A08080914091089108000840A08083E
:101720000914091089148000840A08080914091092
:1017300089108000840A080809140910891480009F
:10174000840A08080914091089108000840A08080E
:101750000914091089148000840A08080914091062
:1017600089108000840A080809140910891480006F
:10177000840A08080914091089108000840A0808DE
:101780000914091089148000840A08080914091032
:1017900089108000840A080809140910891480003F
:1017A000840A08080914091089108000840A0808AE
:1017B0000914091089148000840A08080914091002
:1017C00089108000840A080809140910891480000F
:1017D000840A08080914091089108000840A08087E
:1017E0000914091089148000840A080809140910D2
:1017F00089108000840A08080914091089148000DF
:10180000840A08080914091089108000840A08084D
:101810000914091089148000840A080809140910A1
:1018200089108000840A08080914091089148000AE
:10183000840A08080914091089108000840A08081D
:101840000914091089148000841708080914091064
:101850008910800084030808091409108914800085
:1018600084030808091409108910800084030808FB
:101870000914091089148000840308080914091048
:101880008910800084030808091409108914800055
:1018900084030808091409108910800084030808CB
:1018A0000914091089148000840308080914091018
:1018B0008910800084030808091409108914800025
:1018C000840308080914091089108000840308089B
:1018D00009140910891480008403080809140910E8
:1018E00089108000840308080914091089148000F5
:1018F000840308080914091089108000840308086B
:1019000009140910891480008403080809140910B7
:1019100089108000840308080914091089148000C4
:10192000840308080914091089108000840308083A
:101930000914091089148000840308080914091087
:101940008910800084030808091409108914800094
:10195000840308080914091089108000840308080A
:101960000914091089148000840308080914091057
:101970008910800084030808091409108914800064
:1019800084030808091409108910800084030808DA
:101990000914091089148000840308080914091027
:1019A0008910800084030808091409108914800034
:1019B00084030808091409108910800084030808AA
:1019C00009140910891480008403080809140910F7
:1019D0008910800084030808091409108914800004
:1019E000840308080914091089108000840308087A
:1019F00009140910891480008403080809140910C7
:101A000089108000840308080914091089148000D3
:101A10008403080809140910891080008403080849
:101A20000914091089148000840308080914091096
:101A300089108000840308080914091089148000A3
:101A40008403080809140910891080008403080819
:101A50000914091089148000840308080914091066
:101A60008910800084030808091409108914800073
:101A700084030808091409108910800084030808E9
:101A80000914091089148000840308080914091036
:101A90008910800084030808091409108914800043
:101AA00084030808091409108910800084030808B9
:101AB0000914091089148000840308080914091006
:101AC0008910800084030808091409108914800013
:101AD0008403080809140910891080008403080889
:101AE00009140910891480008403080809140910D6
:101AF00089108000840308080914091089148000E3
:101B00008403080809140910891080008403080858
:101B100009140910891480008403080809140910A5
:101B200089108000840308080914091089148000B2
:101B30008403080809140910891080008403080828
:101B40000914091089148000831708080914091062
:101B500089108000840A080809140910891480007B
:101B6000840A08080914091089108000840A0808EA
:101B70000914091089148000840A0808091409103E
:101B800089108000840A080809140910891480004B
:101B9000840A08080914091089108000840A0808BA
:101BA0000914091089148000840A0808091409100E
:101BB00089108000840A080809140910891480001B
:101BC000840A08080914091089108000840A08088A
:101BD0000914091089148000840A080809140910DE
:101BE00089108000840A08080914091089148000EB
:101BF000840A08080914091089108000840A08085A
:101C00000914091089148000840A080809140910AD
:101C100089108000840A08080914091089148000BA
:101C2000840A08080914091089108000840A080829
:101C30000914091089148000840A0808091409107D
:101C400089108000840A080809140910891480008A
:101C5000840A08080914091089108000840A0808F9
:101C60000914091089148000840A0808091409104D
:101C700089108000840A080809140910891480005A
:101C8000840A08080914091089108000840A0808C9
:101C90000914091089148000840A0808091409101D
:101CA00089108000840A080809140910891480002A
:101CB000840A08080914091089108000840A080899
:101CC0000914091089148000840A080809140910ED
:101CD00089108000840A08080914091089148000FA
:101CE000840A08080914091089108000840A080869
:101CF0000914091089148000840A080809140910BD
:101D000089108000840A08080914091089148000C9
:101D1000840A08080914091089108000840A080838
:101D20000914091089148000840A0808091409108C
:101D300089108000840A0808091409108914800099
:101D4000840A08080914091089108000840A080808
:101D50000914091089148000840A0808091409105C
:101D600089108000840A0808091409108914800069
:101D7000840A08080914091089108000840A0808D8
:101D80000914091089148000840A0808091409102C
:101D900089108000840A0808091409108914800039
:101DA000840A08080914091089108000840A0808A8
:101DB0000914091089148000840A080809140910FC
:101DC00089108000840A0808091409108914800009
:101DD000840A08080914091089108000840A080878
:101DE0000914091089148000840A080809140910CC
:101DF00089108000840A08080914091089148000D9
:101E0000840A08080914091089108000840A080847
:101E10000914091089148000840A0808091409109B
:101E200089108000840A08080914091089148000A8
:101E3000840A08080914091089108000840A080817
:101E40000914091089148000841308080914091062
:101E5000891080008403080809140910891480007F
:101E600084030808091409108910800084030808F5
:101E70000914091089148000840308080914091042
:101E8000891080008403080809140910891480004F
:101E900084030808091409108910800084030808C5
:101EA0000914091089148000840308080914091012
:101EB000891080008403080809140910891480001F
:101EC0008403080809140910891080008403080895
:101ED00009140910891480008403080809140910E2
:101EE00089108000840308080914091089148000EF
:101EF0008403080809140910891080008403080865
:101F000009140910891480008403080809140910B1
:101F100089108000840308080914091089148000BE
:101F20008403080809140910891080008403080834
:101F30000914091089148000840308080914091081
:101F4000891080008403080809140910891480008E
:101F50008403080809140910891080008403080804
:101F60000914091089148000840308080914091051
:101F7000891080008403080809140910891480005E
:101F800084030808091409108910800084030808D4
:101F90000914091089148000840308080914091021
:101FA000891080008403080809140910891480002E
:101FB00084030808091409108910800084030808A4
:101FC00009140910891480008403080809140910F1
:101FD00089108000840308080914091089148000FE
:101FE0008403080809140910891080008403080874
:101FF00009140910891480008403080809140910C1
:1020000089108000840308080914091089148000CD
:102010008403080809140910891080008403080843
:102020000914091089148000840308080914091090
:10203000891080008403080809140910891480009D
:102040008403080809140910891080008403080813
:102050000914091089148000840308080914091060
:10206000891080008403080809140910891480006D
:1020700084030808091409108910800084030808E3
:102080000914091089148000840308080914091030
:10209000891080008403080809140910891480003D
:1020A00084030808091409108910800084030808B3
:1020B0000914091089148000840308080914091000
:1020C000891080008403080809140910891480000D
:1020D0008403080809140910891080008403080883
:1020E00009140910891480008403080809140910D0
:1020F00089108000840308080914091089148000DD
:102100008403080809140910891080008403080852
:10211000091409108914800084030808091409109F
:1021200089108000840308080914091089148000AC
:102130008403080809140910891080008403080822
:1021400009148A110A123A2909102030840000006B
:102150000808091409108000840A000008080914FE
:1021600009108000840A0000080809140910800082
:10217000840A00000808091409108000840A00007D
:102180000808091409108000840A000008080914CE
:1021900009108000840A0000080809140910800052
:1021A000840A00000808091409108000840A00004D
:1021B0000808091409108000840A0000080809149E
:1021C00009108000840A0000080809140910800022
:1021D000840A00000808091409108000840A00001D
:1021E0000808091409108000840A0000080809146E
:1021F00009108000840A00000808091409108000F2
:10220000840A00000808091409108000840A0000EC
:102210000808091409108000840A0000080809143D
:1022200009108000840A00000808091409108000C1
:10223000840A00000808091409108000840A0000BC
:102240000808091409108000840A0000080809140D
:1022500009108000840A0000080809140910800091
:10226000840A00000808091409108000840A00008C
:102270000808091409108000840A000008080914DD
:1022800009108000840A0000080809140910800061
:10229000840A00000808091409108000840A00005C
:1022A0000808091409108000840A000008080914AD
:1022B00009108000840A0000080809140910800031
:1022C000840A00000808091409108000840A00002C
:1022D0000808091409108000840A0000080809147D
:1022E00009108000840A0000080809140910800001
:1022F000840A00000808091409108000840A0000FC
:102300000808091409108000840A0000080809144C
:1023100009108000840A00000808091409108000D0
:10232000840A00000808091409108000840A0000CB
:102330000808091409108000840A0000080809141C
:1023400009108000840A00000808091409108000A0
:10235000840A00000808091409108000840A00009B
:102360000808091409108000840A000008080914EC
:1023700009108000840A0000080809140910800070
:10238000840A00000808091409108000840A00006B
:102390000808091409108000840A000008080914BC
:1023A00009108000840A0000080809140910800040
:1023B000840A00000808091409108000840A00003B
:1023C0000808091409108000840A0000080809148C
:1023D00009108000840A0000080809140910800010
:1023E000840A00000808091409108000840A00000B
:1023F0000808091409108000840A0000080809145C
:1024000009108000840A00000808091409108000DF
:10241000840A00000808091409108000840A0000DA
:102420000808091409108000840A0000080809142B
:1024300009108000840A00000808091409108000AF
:10244000840A00000808091409108000841700009D
:102450000808091409108000840300000808091402
:102460000910800084030000080809140910800086
:102470008403000008080914091080008403000088
:1024800008080914091080008403000008080914D2
:102490000910800084030000080809140910800056
:1024A0008403000008080914091080008403000058
:1024B00008080914091080008403000008080914A2
:1024C0000910800084030000080809140910800026
:1024D0008403000008080914091080008403000028
:1024E0000808091409108000840300000808091472
:1024F00009108000840300000808091409108000F6
:1025000084030000080809140910800084030000F7
:102510000808091409108000840300000808091441
:1025200009108000840300000808091409108000C5
:1025300084030000080809140910800084030000C7
:102540000808091409108000840300000808091411
:102550000910800084030000080809140910800095
:102560008403000008080914091080008403000097
:1025700008080914091080008403000008080914E1
:102580000910800084030000080809140910800065
:102590008403000008080914091080008403000067
:1025A00008080914091080008403000008080914B1
:1025B0000910800084030000080809140910800035
:1025C0008403000008080914091080008403000037
:1025D0000808091409108000840300000808091481
:1025E0000910800084030000080809140910800005
:1025F0008403000008080914091080008403000007
:102600000808091409108000840300000808091450
:1026100009108000840300000808091409108000D4
:1026200084030000080809140910800084030000D6
:102630000808091409108000840300000808091420
:1026400009108000840300000808091409108000A4
:1026500084030000080809140910800084030000A6
:1026600008080914091080008403000008080914F0
:102670000910800084030000080809140910800074
:102680008403000008080914091080008403000076
:1026900008080914091080008403000008080914C0
:1026A0000910800084030000080809140910800044
:1026B0008403000008080914091080008403000046
:1026C0000808091409108000840300000808091490
:1026D0000910800084030000080809140910800014
:1026E0008403000008080914091080008403000016
:1026F0000808091409108000840300000808091460
:1027000009108000840300000808091409108000E3
:1027100084030000080809140910800084030000E5
:10272000080809140910800084030000080809142F
:1027300009108000840300000808091409108000B3
:1027400084030000080809140910800083170000A2
:102750000808091409108000840A000008080914F8
:1027600009108000840A000008080914091080007C
:10277000840A00000808091409108000840A000077
:102780000808091409108000840A000008080914C8
:1027900009108000840A000008080914091080004C
:1027A000840A00000808091409108000840A000047
:1027B0000808091409108000840A00000808091498
:1027C00009108000840A000008080914091080001C
:1027D000840A00000808091409108000840A000017
:1027E0000808091409108000840A00000808091468
:1027F00009108000840A00000808091409108000EC
:10280000840A00000808091409108000840A0000E6
:102810000808091409108000840A00000808091437
:1028200009108000840A00000808091409108000BB
:10283000840A00000808091409108000840A0000B6
:102840000808091409108000840A00000808091407
:1028500009108000840A000008080914091080008B
:10286000840A00000808091409108000840A000086
:102870000808091409108000840A000008080914D7
:1028800009108000840A000008080914091080005B
:10289000840A00000808091409108000840A000056
:1028A0000808091409108000840A000008080914A7
:1028B00009108000840A000008080914091080002B
:1028C000840A00000808091409108000840A000026
:1028D0000808091409108000840A00000808091477
:1028E00009108000840A00000808091409108000FB
:1028F000840A00000808091409108000840A0000F6
:102900000808091409108000840A00000808091446
:1029100009108000840A00000808091409108000CA
:10292000840A00000808091409108000840A0000C5
:102930000808091409108000840A00000808091416
:1029400009108000840A000008080914091080009A
:10295000840A00000808091409108000840A000095
:102960000808091409108000840A000008080914E6
:1029700009108000840A000008080914091080006A
:10298000840A00000808091409108000840A000065
:102990000808091409108000840A000008080914B6
:1029A00009108000840A000008080914091080003A
:1029B000840A00000808091409108000840A000035
:1029C0000808091409108000840A00000808091486
:1029D00009108000840A000008080914091080000A
:1029E000840A00000808091409108000840A000005
:1029F0000808091409108000840A00000808091456
:102A000009108000840A00000808091409108000D9
:102A1000840A00000808091409108000840A0000D4
:102A20000808091409108000840A00000808091425
:102A300009108000840A00000808091409108000A9
:102A4000840A00000808091409108000841300009B
:102A500008080914091080008403000008080914FC
:102A60000910800084030000080809140910800080
:102A70008403000008080914091080008403000082
:102A800008080914091080008403000008080914CC
:102A90000910800084030000080809140910800050
:102AA0008403000008080914091080008403000052
:102AB000080809140910800084030000080809149C
:102AC0000910800084030000080809140910800020
:102AD0008403000008080914091080008403000022
:102AE000080809140910800084030000080809146C
:102AF00009108000840300000808091409108000F0
:102B000084030000080809140910800084030000F1
:102B1000080809140910800084030000080809143B
:102B200009108000840300000808091409108000BF
:102B300084030000080809140910800084030000C1
:102B4000080809140910800084030000080809140B
:102B5000091080008403000008080914091080008F
:102B60008403000008080914091080008403000091
:102B700008080914091080008403000008080914DB
:102B8000091080008403000008080914091080005F
:102B90008403000008080914091080008403000061
:102BA00008080914091080008403000008080914AB
:102BB000091080008403000008080914091080002F
:102BC0008403000008080914091080008403000031
:102BD000080809140910800084030000080809147B
:102BE00009108000840300000808091409108000FF
:102BF0008403000008080914091080008403000001
:102C0000080809140910800084030000080809144A
:102C100009108000840300000808091409108000CE
:102C200084030000080809140910800084030000D0
:102C3000080809140910800084030000080809141A
:102C4000091080008403000008080914091080009E
:102C500084030000080809140910800084030000A0
:102C600008080914091080008403000008080914EA
:102C7000091080008403000008080914091080006E
:102C80008403000008080914091080008403000070
:102C900008080914091080008403000008080914BA
:102CA000091080008403000008080914091080003E
:102CB0008403000008080914091080008403000040
:102CC000080809140910800084030000080809148A
:102CD000091080008403000008080914091080000E
:102CE0008403000008080914091080008403000010
:102CF000080809140910800084030000080809145A
:102D000009108000840300000808091409108000DD
:102D100084030000080809140910800084030000DF
:102D20000808091409108000840300000808091429
:102D300009108000840300000808091409108000AD
:102D400084030000080809148A110A123A2916306F
:102D50008A00790882070A168A11BA2E0A168A1181
:102D6000CA2F0A168A15CD280A168A15D0290A16DE
:102D70008A15D42A09102030840000000914091093
:102D800008088000840A0914091008088000840AD1
:102D90000914091008088000840A09140910080899
:102DA0008000840A0914091008088000840A0914A4
:102DB000091008088000840A091409100808800016
:102DC000840A0914091008088000840A09140910EB
:102DD00008088000840A0914091008088000840A81
:102DE0000914091008088000840A09140910080849
:102DF0008000840A0914091008088000840A091454
:102E0000091008088000840A0914091008088000C5
:102E1000840A0914091008088000840A091409109A
:102E200008088000840A0914091008088000840A30
:102E30000914091008088000840A091409100808F8
:102E40008000840A0914091008088000840A091403
:102E5000091008088000840A091409100808800075
:102E6000840A0914091008088000840A091409104A
:102E700008088000840A0914091008088000840AE0
:102E80000914091008088000840A091409100808A8
:102E90008000840A0914091008088000840A0914B3
:102EA000091008088000840A091409100808800025
:102EB000840A0914091008088000840A09140910FA
:102EC00008088000840A0914091008088000840A90
:102ED0000914091008088000840A09140910080858
:102EE0008000840A0914091008088000840A091463
:102EF000091008088000840A0914091008088000D5
:102F0000840A0914091008088000840A09140910A9
:102F100008088000840A0914091008088000840A3F
:102F20000914091008088000840A09140910080807
:102F30008000840A0914091008088000840A091412
:102F4000091008088000840A091409100808800084
:102F5000840A0914091008088000840A0914091059
:102F600008088000840A0914091008088000840AEF
:102F70000914091008088000840A09140808800050
:102F8000840AC42F800084030330F90786140A12D0
:102F90008A118C2800000910CD2F00000914091097
:102FA00008088000840A0914091008088000840AAF
:102FB0000914091008088000840A09140910080877
:102FC0008000840A0914091008088000840A091482
:102FD000091008088000840A0914091008088000F4
:102FE000840A0914091008088000840A09140910C9
:102FF00008088000840A0914091008088000840A5F
:103000000914091008088000840A09140910080826
:10301000800084170914091008088000840309142B
:1030200009100808800084030914091008088000AA
:103030008403091409100808800084030914091086
:10304000080880008403091409100808800084031C
:1030500009140910080880008403091409100808DD
:1030600080008403091409100808800084030914EF
:10307000091008088000840309140910080880005A
:103080008403091409100808800084030914091036
:1030900008088000840309140910080880008403CC
:1030A000091409100808800084030914091008088D
:1030B000800084030914091008088000840309149F
:1030C000091008088000840309140910080880000A
:1030D00084030914091008088000840309140910E6
:1030E000080880008403091409100808800084037C
:1030F000091409100808800084030914091008083D
:10310000800084030914091008088000840309144E
:1031100009100808800084030914091008088000B9
:103120008403091409100808800084030914091095
:10313000080880008403091409100808800084032B
:1031400009140910080880008403091409100808EC
:1031500080008403091409100808800084030914FE
:103160000910080880008403091409100808800069
:103170008403091409100808800084030914091045
:1031800008088000840309140910080880008403DB
:10319000091408080A168A11C22FCE280910D0284F
:1031A000000009140910080880008403091409109C
:1031B00008088000840309140910080880008403AB
:1031C000091409100808800084030914091008086C
:1031D000800084030914091008088000840309147E
:1031E00009100808800084030914091008088000E9
:1031F00084030914091008088000840309140910C5
:10320000080880008403091409100808800084035A
:10321000091409100808800084030914091008081B
:10322000800084030914091008088000840309142D
:103230000910080880008403091409100808800098
:103240008403091409100808800084030914091074
:10325000080880008403091409100808800084030A
:1032600009140910080880008403091409100808CB
:1032700080008403091409100808800084030914DD
:103280000910080880008403091409100808800048
:103290008403091409100808800083170914091011
:1032A00008088000840A0914091008088000840AAC
:1032B0000914091008088000840A09140910080874
:1032C0008000840A0914091008088000840A09147F
:1032D000091008088000840A0914091008088000F1
:1032E000840A0914091008088000840A09140910C6
:1032F00008088000840A0914091008088000840A5C
:103300000914091008088000840A09140910080823
:103310008000840A0914091008088000840A09142E
:10332000091008088000840A0914091008088000A0
:10333000840A0914091008088000840A0914091075
:1033400008088000840A0914091008088000840A0B
:103350000914091008088000840A091409100808D3
:103360008000840A0914091008088000840A0914DE
:10337000091008088000840A091409100808800050
:10338000840A0914091008088000840A0914091025
:1033900008088000840A091408080A168A11BF2F39
:1033A000D12900000910D4290000091409100808C7
:1033B0008000840A0914091008088000840A09148E
:1033C000091008088000840A091409100808800000
:1033D000840A0914091008088000840A09140910D5
:1033E00008088000840A0914091008088000840A6B
:1033F0000914091008088000840A09140910080833
:103400008000840A0914091008088000840A09143D
:10341000091008088000840A0914091008088000AF
:10342000840A0914091008088000840A0914091084
:1034300008088000840A0914091008088000840A1A
:103440000914091008088000840A091409100808E2
:103450008000840A0914091008088000840A0914ED
:10346000091008088000840A09140910080880005F
:10347000840A0914091008088000840A0914091034
:1034800008088000840A0914091008088000840ACA
:103490000914091008088000840A09140910080892
:1034A0008000840A0914091008088000840A09149D
:1034B000091008088000840A09140910080880000F
:1034C000840A0914091008088000840A09140910E4
:1034D00008088000840A0914091008088000840A7A
:1034E0000914091008088000840A09140910080842
:1034F0008000840A0914091008088000840A09144D
:10350000091008088000840A0914091008088000BE
:10351000840A0914091008088000840A0914091093
:103520000808800084130914091008088000840327
:1035300009140910080880008403091409100808F8
:10354000800084030914091008088000840309140A
:103550000910080880008403091409100808800075
:103560008403091409100808800084030914091051
:1035700008088000840309140910080880008403E7
:1035800009140910080880008403091409100808A8
:1035900080008403091409100808800084030914BA
:1035A00008080A168A11C22FD52A0A128A1509108C
:1035B0000000A2291A308A00790882070A168A15A3
:1035C000E72A0A168A15EE2C0A168A15EF2E09101C
:1035D0002030840000000808091409108000840AC3
:1035E00000000808091409108000840A0000080877
:1035F000091409108000840A000008080914091041
:103600008000840A00000808091409108000840A58
:1036100000000808091409108000840A0000080846
:10362000091409108000840A000008080914091010
:103630008000840A00000808091409108000840A28
:1036400000000808091409108000840A0000080816
:10365000091409108000840A0000080809140910E0
:103660008000840A00000808091409108000840AF8
:1036700000000808091409108000840A00000808E6
:10368000091409108000840A0000080809140910B0
:103690008000840A00000808091409108000840AC8
:1036A00000000808091409108000840A00000808B6
:1036B000091409108000840A000008080914091080
:1036C0008000840A00000808091409108000840A98
:1036D00000000808091409108000840A0000080886
:1036E000091409108000840A000008080914091050
:1036F0008000840A00000808091409108000840A68
:1037000000000808091409108000840A0000080855
:10371000091409108000840A00000808091409101F
:103720008000840A00000808091409108000840A37
:1037300000000808091409108000840A0000080825
:10374000091409108000840A0000080809140910EF
:103750008000840A00000808091409108000840A07
:1037600000000808091409108000840A00000808F5
:10377000091409108000840A0000080809140910BF
:103780008000840A00000808091409108000840AD7
:1037900000000808091409108000840A00000808C5
:1037A000091409108000840A00000808091409108F
:1037B0008000840A00000808091409108000840AA7
:1037C00000000808091409108000840A0000080895
:1037D000091409108000840A00000808091409105F
:1037E0008000840A00000808091409108000840A77
:1037F00000000808091409108000840A0000080865
:10380000091409108000840A00000808091409102E
:103810008000840A00000808091409108000840A46
:1038200000000808091409108000840A0000080834
:10383000091409108000840A0000080809140910FE
:103840008000840A00000808091409108000840A16
:1038500000000808091409108000840A0000080804
:10386000091409108000840A0000080809140910CE
:103870008000840A00000808091409108000840AE6
:1038800000000808091409108000840A00000808D4
:10389000091409108000840A00000808091409109E
:1038A0008000840A00000808091409108000840AB6
:1038B00000000808091409108000840A00000808A4
:1038C000091409108000840A00000808091409106E
:1038D0008000841700000808091409108000840380
:1038E000000008080914091080008403000008087B
:1038F0000914091080008403000008080914091045
:103900008000840300000808091409108000840363
:10391000000008080914091080008403000008084A
:103920000914091080008403000008080914091014
:103930008000840300000808091409108000840333
:10394000000008080914091080008403000008081A
:1039500009140910800084030000080809140910E4
:103960008000840300000808091409108000840303
:1039700000000808091409108000840300000808EA
:1039800009140910800084030000080809140910B4
:1039900080008403000008080914091080008403D3
:1039A00000000808091409108000840300000808BA
:1039B0000914091080008403000008080914091084
:1039C00080008403000008080914091080008403A3
:1039D0000000080809140A168A11C22FEF2C0910DA
:1039E000F12C00000808091409108000840300006D
:1039F000080809140910800084030000080809144D
:103A000009108000840300000808091409108000D0
:103A100084030000080809140910800084030000D2
:103A2000080809140910800084030000080809141C
:103A300009108000840300000808091409108000A0
:103A400084030000080809140910800084030000A2
:103A500008080914091080008403000008080914EC
:103A60000910800084030000080809140910800070
:103A70008403000008080914091080008403000072
:103A800008080914091080008403000008080914BC
:103A90000910800084030000080809140910800040
:103AA0008403000008080914091080008403000042
:103AB000080809140910800084030000080809148C
:103AC0000910800084030000080809140910800010
:103AD0008403000008080914091080008403000012
:103AE000080809140910800084030000080809145C
:103AF00009108000840300000808091409108000E0
:103B000084030000080809140910800084030000E1
:103B1000080809140910800084030000080809142B
:103B200009108000840300000808091409108000AF
:103B300084030000080809140910800084030000B1
:103B400008080914091080008403000008080914FB
:103B5000091080008403000008080914091080007F
:103B60008403000008080914091080008403000081
:103B700008080914091080008403000008080914CB
:103B8000091080008403000008080914091080004F
:103B90008403000008080914091080008403000051
:103BA000080809140910800084030000080809149B
:103BB000091080008403000008080914091080001F
:103BC0008403000008080914091080008403000021
:103BD0000808091409108000831700000808091458
:103BE00009108000840A00000808091409108000E8
:103BF000840A00000808091409108000840A0000E3
:103C00000808091409108000840A00000808091433
:103C100009108000840A00000808091409108000B7
:103C2000840A00000808091409108000840A0000B2
:103C30000808091409108000840A00000808091403
:103C400009108000840A0000080809140910800087
:103C5000840A00000808091409108000840A000082
:103C60000808091409108000840A000008080914D3
:103C700009108000840A0000080809140910800057
:103C8000840A00000808091409108000840A000052
:103C90000808091409108000840A000008080914A3
:103CA00009108000840A0000080809140910800027
:103CB000840A00000808091409108000840A000022
:103CC0000808091409108000840A00000808091473
:103CD00009108000840A00000808091409108000F7
:103CE000840A00000808091409108000840A0000F2
:103CF0000808091409108000840A00000808091443
:103D000009108000840A00000808091409108000C6
:103D1000840A00000808091409108000840A0000C1
:103D20000808091409108000840A00000808091412
:103D300009108000840A0000080809140910800096
:103D4000840A00000808091409108000840A000091
:103D50000808091409108000840A000008080914E2
:103D600009108000840A0000080809140910800066
:103D7000840A00000808091409108000840A000061
:103D80000808091409108000840A000008080914B2
:103D900009108000840A0000080809140910800036
:103DA000840A00000808091409108000840A000031
:103DB0000808091409108000840A00000808091482
:103DC00009108000840A0000080809140910800006
:103DD000840A0000080809140A168A11BF2FF02E61
:0A3DE0000A168A1109100000AA2C2F
:084000000100020003000400AE
:02400E00F2209E
:02401000FF3F70
:00000001FF
