:020000040000FA
:10000000C630860088015A280900871D0528071A6E
:100010001028071AFF34871909280230F200272810
:10002000071E1728871910280330F2002728871980
:100030001728FE34871D1A28071E1A28071A1E289B
:10004000871D1A28871922280310F2017214871DB0
:1000500027280310071A0314F20D87192D28031CF3
:1000600027280712831607128312871D3528871940
:100070003728831607168312003407120830F00061
:1000800043288719412883160716F21F0712831287
:10009000871D4828F20DF00B412887194D2883163B
:1000A00007168312871D52280030071AFF30871960
:1000B00057280800850183163F3085008030810075
:1000C00000308B0001308600FF3088001730890037
:1000D00007309F00831283139F01852073088611C8
:1000E000731A86158A010F3982071329582ADD2BC6
:1000F000F12BF12B0D2C272C6D286D286D286D28E8
:100100006D286D286D286D286D28051185118516BF
:100110001A207208F83A031DA928DC30F2000511F4
:10012000851585123D20203084000008F200840AE5
:100130000511851585163D20FF39031995280515EC
:1001400085118512F2013D20F2013D20F2013D2092
:1001500008007208F93A031DC628DD30F2000515C3
:10016000851185163D200515851585127308F20049
:100170003D207408F2003D207508F2003D2076080D
:10018000F2003D207708F2003D2008007208FA3A9C
:10019000031D8528DE30F2000515851585163D20E6
:1001A00005118511851224207208DF392038F300EB
:1001B00024207208F40024207208F500242072081C
:1001C000F60024207208F7000800731BF62086143E
:1001D00006158316061183128610061108000615EF
:1001E0008000861483160615831208007508F00037
:1001F0007408F10073088039031D0329061CFE28CA
:1002000006180029082906180329061C05290829AB
:100210000130F002031CF102F008031D0929F10866
:10022000031D09290800E520203084000808061570
:1002300006111A290808061506118000840A080804
:10024000061506118000840A0808061506118000AC
:10025000840A0808061506118000840A0808061595
:1002600006118000840A0808061506118000840A19
:100270000808061506118000840A080806150611EC
:100280008000840A0808061506118000840A080800
:10029000061506118000840A08080615061180005C
:1002A000840A0808061506118000840A0808061545
:1002B00006118000840A0808061506118000840AC9
:1002C0000808061506118000840A0808061506119C
:1002D0008000840A0808061506118000840A0808B0
:1002E000061506118000840A08080615061180000C
:1002F000840A0808061506118000840A08080615F5
:1003000006118000840A0808061506118000840A78
:100310000808061506118000840A0808061506114B
:100320008000840A0808061506118000840A08085F
:10033000061506118000840A0808061506118000BB
:10034000840A0808061506118000840A08080615A4
:1003500006118000840A0808061506118000840A28
:100360000808061506118000840A080806150611FB
:100370008000840A0808061506118000840A08080F
:10038000061506118000840A08080615061180006B
:10039000840A0808061506118000840A0808061554
:1003A00006118000840A0808061506118000840AD8
:1003B0000808061506118000840A080806150611AB
:1003C0008000840A0808061506118000840A0808BF
:1003D000061506118000840A08080615061180001B
:1003E000840A0808061506118000840A0808061504
:1003F00006118000840A0808061506118000840A88
:100400000808061506118000840A0808061506115A
:100410008000840A0808061506118000840A08086E
:10042000061506118000840A0808061506118000CA
:10043000840A0808061506118000840A08080615B3
:1004400006118000840A0808061506118000840A37
:100450000808061506118000840A0808061506110A
:100460008000840A0808061506118000840A08081E
:10047000061506118000840A08080615061180007A
:10048000840A0808061506118000840A0808061563
:1004900006118000840A0808061506118000840AE7
:1004A0000808061506118000840A0808EF206D2848
:1004B000E520203084000808061506115F2A000098
:1004C0000808061506118000840A000008080615B1
:1004D00006118000840A0000080806150611800035
:1004E000840A00000808061506118000840A00002E
:1004F0000808061506118000840A00000808061581
:1005000006118000840A0000080806150611800004
:10051000840A00000808061506118000840A0000FD
:100520000808061506118000840A00000808061550
:1005300006118000840A00000808061506118000D4
:10054000840A00000808061506118000840A0000CD
:100550000808061506118000840A00000808061520
:1005600006118000840A00000808061506118000A4
:10057000840A00000808061506118000840A00009D
:100580000808061506118000840A000008080615F0
:1005900006118000840A0000080806150611800074
:1005A000840A00000808061506118000840A00006D
:1005B0000808061506118000840A000008080615C0
:1005C00006118000840A0000080806150611800044
:1005D000840A00000808061506118000840A00003D
:1005E0000808061506118000840A00000808061590
:1005F00006118000840A0000080806150611800014
:10060000840A00000808061506118000840A00000C
:100610000808061506118000840A0000080806155F
:1006200006118000840A00000808061506118000E3
:10063000840A00000808061506118000840A0000DC
:100640000808061506118000840A0000080806152F
:1006500006118000840A00000808061506118000B3
:10066000840A00000808061506118000840A0000AC
:100670000808061506118000840A000008080615FF
:1006800006118000840A0000080806150611800083
:10069000840A00000808061506118000840A00007C
:1006A0000808061506118000840A000008080615CF
:1006B00006118000840A0000080806150611800053
:1006C000840A00000808061506118000840A00004C
:1006D0000808061506118000840A0000080806159F
:1006E00006118000840A0000080806150611800023
:1006F000840A00000808061506118000840A00001C
:100700000808061506118000840A0000080806156E
:1007100006118000840A00000808061506118000F2
:10072000840A00000808061506118000840A0000EB
:100730000808061506118000840A0000080806153E
:1007400006118000840A00000808061506118000C2
:10075000840A00000808061506118000840A0000BB
:100760000808061506118000840A0000080806150E
:1007700006118000840A0000080806150611800092
:10078000840A00000808061506118000840A00008B
:100790000808061506118000840A000008080615DE
:1007A00006118000840A0000080806150611800062
:1007B000840A00000808EF206D28E5204030F00092
:1007C00020308400080806150611EB2B08080615D2
:1007D00006118000840AF00BE62B00000808EF20C9
:1007E0006D28E5204030F000203084000808061510
:1007F0000611FF2B0808061506118000840A731DD8
:10080000062C0230F100F10B032C062C0000F00B3B
:10081000FA2B00000808EF206D28E5204030F20098
:100820002030840000000808061506111C2C08085A
:10083000061506118000840A7708F0007608F1009A
:100840000821F20B172C00000808EF206D28E52086
:100850002030F200203084008611080806150611A9
:100860003D2C08080615861506118000840A080824
:100870000615861106118000840A7708F0007608B4
:10088000F1000821F20B312C00000808061586152E
:0C08900006118000840A0808EF206D2883
:02400E007A3FF7
:00000001FF
