:020000040000FA
:100000000130890088015228FC00030EFD000B1E00
:1000100044280B12F40B0A28F50B0A28F60B0A28C1
:10002000F70B0A28780882070A128A11E02C0A12B4
:100030008A15E72F0A128A11A72B0A128A11EA2BB6
:100040000A128A11EA2B0A128A11992A0A168A11AF
:10005000EA2D0A168A151D2A0A128A15E4290A129F
:100060008A114D2C0A128A114D2C0A128A11042B66
:100070000A128A1174290A128A11F9290A128A119C
:100080007C280A128A117C28831203130C1C4D2829
:10009000831603130C1C4D2821217D0E8300FC0EBA
:1000A0007C0E09008501831603131F308500C030C4
:1000B000810010308B00F1308600FF308800043062
:1000C0008900B93087008316031788018901083039
:1000D0008700831603135630990000309A002430AD
:1000E0009800831203139030980083139F0101300E
:1000F000F400F500F600F700A920F9018910701A44
:1001000089148A0170080F39F8000310F80D780778
:100110008610701F1328F800630AF400620AF500C5
:10012000610AF600600AF700831603130113F01B3F
:100130000117831203138B100B168B17FB207A0801
:10014000F33A031D9E280B128B13DC30FA000C21AE
:100150007C28FB207A08F83A031DDC28DC30FA0002
:100160000C21203084004030F5000008FA00840A99
:100170000C21F50BB5284030F500841784030008E6
:10018000FA0084030C21F50BBF284030F5008317DB
:10019000840A0008FA00840A0C21F50BC9284030B3
:1001A000F500841384030008FA0084030C21F50B86
:1001B000D32883134622A9287A08F93A031DE52893
:1001C000DD30FA000C212522A9287A08FA3A031D0D
:1001D000F328DE30FA000C21FA210130F400F5009A
:1001E000F600F70008007A08F33A031DA928DC306E
:1001F000FA000C21A9288C1EFB28181D01291A08B9
:10020000FB28981C0929181218161A088C1A052997
:10021000FB281A08FA0000340C1E0C297A089900F1
:1002200000340130F402031CF502F408031D122906
:10023000F508031D12290800800086148313552237
:100240007C2883120313101072098F0073098E002B
:100250000C101014FE0B0800710AFE0000000408C8
:10026000E8006608840083138413E7188417E719ED
:100270008317671984176719831789100910402994
:100280004129000008080914891409108000671822
:10029000840AE718840308080914E7198403671916
:1002A000840A80000230E718FE30E719FE30E607C6
:1002B0001F3066060319632960306606031D6F2927
:1002C0005F30E60065292030E6000310E70D671E69
:1002D0006F2910100C10831603130C100B138312CC
:1002E0000313680884000800831203132030E6001B
:1002F000E70167141010901610160130FE00FF3051
:100300008F008E000C10831603130C140B178B1721
:10031000831203131014831603130C1CEE2983128B
:1003200003138C1E8B29181D97291A088B29981CDA
:100330009F29181218161A088C1A9B298B291A083B
:10034000FA007A08F83A031DD429DC30FA000C21AF
:10035000203084004030F50083130008FA00840A3E
:100360000C21F50BAD294030F500840384170008FB
:10037000FA0084030C21F50BB7294030F500840AFC
:1003800083170008FA00840A0C21F50BC1294030BC
:10039000F500840384130008FA0084030C21F50B94
:1003A000CB29831346228B297A08F93A031DDD29CC
:1003B000DD30FA000C2125228B297A08FA3A031D38
:1003C000E629DE30FA000C2117228B297A08F33A4D
:1003D000031D8B29DC30FA000C218B2983120313B7
:1003E0008614831355220130F400F500F600F7005F
:1003F0007C287C28FB207A08DF392038F000831223
:100400000313FB207A08E000FB207A08E100FB20C0
:100410007A08E200FB207A08E300FB207A08F1006A
:10042000FB207A08F200FB207A08F3000800FB208A
:10043000FB20FB20FB20FB207A08F100FB207A0840
:10044000F200FB207A08F30008000130FA000C21CA
:100450000030FA000C217008FA000C2183120313FB
:100460006008FA000C216108FA000C216208FA0009
:100470000C216308FA000C217108FA000C217208A3
:10048000FA000C217308FA000C2108007B08FA001E
:100490000C21FA010C210C21831203136508FA00C8
:1004A0000C216408FA000C210800FB0183160313D9
:1004B000071587108516051283120313871005127E
:1004C0007B17051C7B13851C7B13851CFB170718EA
:1004D000FB158714051683160313871407110516D9
:1004E000851283120313071185127B16051C7B12DC
:1004F000851C7B12851CFB1607187B1507158516B6
:10050000061BFB14861B7B14E401851964148910F7
:10051000061586118610091000000000000000007A
:100520000000080809148614891006118611E500D8
:10053000080009103F30F600203084007308F400F2
:100540007208F50000001121080809140910800044
:10055000840A7308F4007208F5001121F60BA42A2E
:100560000000080809140910800084173F30F600C5
:100570007308F4007208F50011210000080809143E
:100580000910800084037308F4007208F50011213B
:10059000F60BBE2A00000808091409108000831712
:1005A0003F30F6007308F4007208F50011210000D6
:1005B0000808091409108000840A7308F4007208FE
:1005C000F5001121F60BD82A0000080809140910BB
:1005D000800084133F30F6007308F4007208F500C1
:1005E0001121000008080914091080008403730811
:1005F000F4007208F5001121F60BF22A0000080839
:1006000009148A110A121C29091089142030840047
:1006100008080914091089108000840A1F30F600A8
:100620007308F4007208F50011210000080809148D
:10063000091089148000840A080809140910891017
:100640008000840A7308F4007208F5001121F60B8B
:10065000162B00000808091409108914800084175B
:100660000808091409108910800084031F30F6005F
:100670007308F4007208F50011210000080809143D
:1006800009108914800084030808091409108910CE
:10069000800084037308F4007208F5001121F60B42
:1006A0003E2B0000080809140910891480008317E4
:1006B00008080914091089108000840A1F30F60008
:1006C0007308F4007208F5001121000008080914ED
:1006D000091089148000840A080809140910891077
:1006E0008000840A7308F4007208F5001121F60BEB
:1006F000662B00000808091409108914800084136F
:100700000808091409108910800084031F30F600BE
:100710007308F4007208F50011210000080809149C
:10072000091089148000840308080914091089102D
:10073000800084037308F4007208F5001121F60BA1
:100740008E2B0000080809148A110A121C290910AE
:100750003F30F4002030840000000808091409101C
:100760008000840AF40BAD2B00000808091409105E
:10077000800084173F30F4000000080809140910B5
:1007800080008403F40BBD2B000008080914091035
:10079000800083173F30F400000008080914091096
:1007A0008000840AF40BCD2B0000080809140910FE
:1007B000800084133F30F400000008080914091079
:1007C00080008403F40BDD2B0000080809148A1153
:1007D0000A121C2909103F30F40020308400F02B4D
:1007E000701DF32B49240808091409108000840A9D
:1007F000701DFB2B49240000F40BF32B00000808AC
:1008000009140910800084173F30F400072C701D74
:100810000A2C492408080914091080008403701D5B
:10082000122C49240000F40B0A2C000008080914BB
:100830000910800083173F30F4001E2C701D212CFE
:1008400049240808091409108000840A701D292C05
:1008500049240000F40B212C000008080914091099
:10086000800084133F30F400352C701D382C49244F
:1008700008080914091080008403701D402C4924C5
:100880000000F40B382C0000080809148A110A1221
:100890001C294A2C00004C2C080009108914203017
:1008A000840008080914091089108000840A1F3088
:1008B000F600701C4A244C240808091409108914F5
:1008C0008000840A08080914091089108000840A2D
:1008D000701C4A246B2C0000F60B5C2C00000808EE
:1008E00009140910891480008417080809140910D4
:1008F0008910800084031F30F600701C4A244C24A9
:1009000008080914091089148000840308080914D0
:100910000910891080008403701C4A248F2C000069
:10092000F60B802C000008080914091089148000B7
:10093000831708080914091089108000840A1F30E1
:10094000F600701C4A244C24080809140910891464
:100950008000840A08080914091089108000840A9C
:10096000701C4A24B32C0000F60BA42C00000808CD
:100970000914091089148000841308080914091047
:100980008910800084031F30F600701C4A244C2418
:100990000808091409108914800084030808091440
:1009A0000910891080008403701C4A24D72C000091
:1009B000F60BC82C0000080809148A110A121C2919
:1009C0000910203084000000091409100808800074
:1009D000840A0914091008088000840A09140910FF
:1009E00008088000840A0914091008088000840A95
:1009F0000914091008088000840A0914091008085D
:100A00008000840A0914091008088000840A091467
:100A1000091008088000840A0914091008088000D9
:100A2000840A0914091008088000840A09140910AE
:100A300008088000840A0914091008088000840A44
:100A40000914091008088000840A0914091008080C
:100A50008000840A0914091008088000840A091417
:100A6000091008088000840A091409100808800089
:100A7000840A0914091008088000840A091409105E
:100A800008088000840A0914091008088000840AF4
:100A90000914091008088000840A091409100808BC
:100AA0008000840A0914091008088000840A0914C7
:100AB000091008088000840A091409100808800039
:100AC000840A0914091008088000840A091409100E
:100AD00008088000840A0914091008088000840AA4
:100AE0000914091008088000840A0914091008086C
:100AF0008000840A0914091008088000840A091477
:100B0000091008088000840A0914091008088000E8
:100B1000840A0914091008088000840A09140910BD
:100B200008088000840A0914091008088000840A53
:100B30000914091008088000840A0914091008081B
:100B40008000840A0914091008088000840A091426
:100B5000091008088000840A091409100808800098
:100B6000840A0914091008088000840A091409106D
:100B700008088000840A0914091008088000840A03
:100B80000914091008088000840A091409100808CB
:100B90008000840A0914091008088000840A0914D6
:100BA000091008088000840A091409100808800048
:100BB000840A0914091008088000840A091409101D
:100BC00008088000840A0914091008088000840AB3
:100BD0000914091008088000840A0914091008087B
:100BE0008000840A0914091008088000840A091486
:100BF000091008088000840A0914091008088000F8
:100C0000840A0914091008088000840A09140910CC
:100C100008088000840A0914091008088000840A62
:100C20000914091008088000840A0914091008082A
:100C30008000840A0914091008088000840A091435
:100C4000091008088000841709140910080880009A
:100C5000840309140910080880008403091409108A
:100C60000808800084030914091008088000840320
:100C700009140910080880008403091409100808E1
:100C800080008403091409100808800084030914F3
:100C9000091008088000840309140910080880005E
:100CA000840309140910080880008403091409103A
:100CB00008088000840309140910080880008403D0
:100CC0000914091008088000840309140910080891
:100CD00080008403091409100808800084030914A3
:100CE000091008088000840309140910080880000E
:100CF00084030914091008088000840309140910EA
:100D0000080880008403091409100808800084037F
:100D10000914091008088000840309140910080840
:100D20008000840309140910080880008403091452
:100D300009100808800084030914091008088000BD
:100D40008403091409100808800084030914091099
:100D5000080880008403091409100808800084032F
:100D600009140910080880008403091409100808F0
:100D70008000840309140910080880008403091402
:100D8000091008088000840309140910080880006D
:100D90008403091409100808800084030914091049
:100DA00008088000840309140910080880008403DF
:100DB00009140910080880008403091409100808A0
:100DC00080008403091409100808800084030914B2
:100DD000091008088000840309140910080880001D
:100DE00084030914091008088000840309140910F9
:100DF000080880008403091409100808800084038F
:100E0000091409100808800084030914091008084F
:100E10008000840309140910080880008403091461
:100E200009100808800084030914091008088000CC
:100E300084030914091008088000840309140910A8
:100E4000080880008403091409100808800084033E
:100E500009140910080880008403091409100808FF
:100E60008000840309140910080880008403091411
:100E7000091008088000840309140910080880007C
:100E80008403091409100808800084030914091058
:100E900008088000840309140910080880008403EE
:100EA00009140910080880008403091409100808AF
:100EB00080008403091409100808800084030914C1
:100EC0000910080880008317091409100808800019
:100ED000840A0914091008088000840A09140910FA
:100EE00008088000840A0914091008088000840A90
:100EF0000914091008088000840A09140910080858
:100F00008000840A0914091008088000840A091462
:100F1000091008088000840A0914091008088000D4
:100F2000840A0914091008088000840A09140910A9
:100F300008088000840A0914091008088000840A3F
:100F40000914091008088000840A09140910080807
:100F50008000840A0914091008088000840A091412
:100F6000091008088000840A091409100808800084
:100F7000840A0914091008088000840A0914091059
:100F800008088000840A0914091008088000840AEF
:100F90000914091008088000840A091409100808B7
:100FA0008000840A0914091008088000840A0914C2
:100FB000091008088000840A091409100808800034
:100FC000840A0914091008088000840A0914091009
:100FD00008088000840A0914091008088000840A9F
:100FE0000914091008088000840A09140910080867
:100FF0008000840A0914091008088000840A091472
:10100000091008088000840A0914091008088000E3
:10101000840A0914091008088000840A09140910B8
:1010200008088000840A0914091008088000840A4E
:101030000914091008088000840A09140910080816
:101040008000840A0914091008088000840A091421
:10105000091008088000840A091409100808800093
:10106000840A0914091008088000840A0914091068
:1010700008088000840A0914091008088000840AFE
:101080000914091008088000840A091409100808C6
:101090008000840A0914091008088000840A0914D1
:1010A000091008088000840A091409100808800043
:1010B000840A0914091008088000840A0914091018
:1010C00008088000840A0914091008088000840AAE
:1010D0000914091008088000840A09140910080876
:1010E0008000840A0914091008088000840A091481
:1010F000091008088000840A0914091008088000F3
:10110000840A0914091008088000840A09140910C7
:1011100008088000840A0914091008088000840A5D
:101120000914091008088000840A09140910080825
:101130008000840A0914091008088000840A091430
:101140000910080880008413091409100808800099
:101150008403091409100808800084030914091085
:10116000080880008403091409100808800084031B
:1011700009140910080880008403091409100808DC
:1011800080008403091409100808800084030914EE
:101190000910080880008403091409100808800059
:1011A0008403091409100808800084030914091035
:1011B00008088000840309140910080880008403CB
:1011C000091409100808800084030914091008088C
:1011D000800084030914091008088000840309149E
:1011E0000910080880008403091409100808800009
:1011F00084030914091008088000840309140910E5
:10120000080880008403091409100808800084037A
:10121000091409100808800084030914091008083B
:10122000800084030914091008088000840309144D
:1012300009100808800084030914091008088000B8
:101240008403091409100808800084030914091094
:10125000080880008403091409100808800084032A
:1012600009140910080880008403091409100808EB
:1012700080008403091409100808800084030914FD
:101280000910080880008403091409100808800068
:101290008403091409100808800084030914091044
:1012A00008088000840309140910080880008403DA
:1012B000091409100808800084030914091008089B
:1012C00080008403091409100808800084030914AD
:1012D0000910080880008403091409100808800018
:1012E00084030914091008088000840309140910F4
:1012F000080880008403091409100808800084038A
:10130000091409100808800084030914091008084A
:10131000800084030914091008088000840309145C
:1013200009100808800084030914091008088000C7
:1013300084030914091008088000840309140910A3
:101340000808800084030914091008088000840339
:1013500009140910080880008403091409100808FA
:10136000800084030914091008088000840309140C
:101370000910080880008403091409100808800077
:101380008403091409100808800084030914091053
:1013900008088000840309140910080880008403E9
:1013A00009140910080880008403091409100808AA
:1013B00080008403091409100808800084030914BC
:1013C00008088A110A121C29091089142030840087
:1013D00008080914091089108000840A08080914F3
:1013E000091089148000840A08080914091089105A
:1013F0008000840A08080914091089148000840AEE
:1014000008080914091089108000840A08080914C2
:10141000091089148000840A080809140910891029
:101420008000840A08080914091089148000840ABD
:1014300008080914091089108000840A0808091492
:10144000091089148000840A0808091409108910F9
:101450008000840A08080914091089148000840A8D
:1014600008080914091089108000840A0808091462
:10147000091089148000840A0808091409108910C9
:101480008000840A08080914091089148000840A5D
:1014900008080914091089108000840A0808091432
:1014A000091089148000840A080809140910891099
:1014B0008000840A08080914091089148000840A2D
:1014C00008080914091089108000840A0808091402
:1014D000091089148000840A080809140910891069
:1014E0008000840A08080914091089148000840AFD
:1014F00008080914091089108000840A08080914D2
:10150000091089148000840A080809140910891038
:101510008000840A08080914091089148000840ACC
:1015200008080914091089108000840A08080914A1
:10153000091089148000840A080809140910891008
:101540008000840A08080914091089148000840A9C
:1015500008080914091089108000840A0808091471
:10156000091089148000840A0808091409108910D8
:101570008000840A08080914091089148000840A6C
:1015800008080914091089108000840A0808091441
:10159000091089148000840A0808091409108910A8
:1015A0008000840A08080914091089148000840A3C
:1015B00008080914091089108000840A0808091411
:1015C000091089148000840A080809140910891078
:1015D0008000840A08080914091089148000840A0C
:1015E00008080914091089108000840A08080914E1
:1015F000091089148000840A080809140910891048
:101600008000840A08080914091089148000840ADB
:1016100008080914091089108000840A08080914B0
:10162000091089148000840A080809140910891017
:101630008000840A08080914091089148000840AAB
:1016400008080914091089108000840A0808091480
:10165000091089148000840A0808091409108910E7
:101660008000840A08080914091089148000840A7B
:1016700008080914091089108000840A0808091450
:10168000091089148000840A0808091409108910B7
:101690008000840A08080914091089148000840A4B
:1016A00008080914091089108000840A0808091420
:1016B000091089148000840A080809140910891087
:1016C0008000840A0808091409108914800084170E
:1016D00008080914091089108000840308080914F7
:1016E000091089148000840308080914091089105E
:1016F00080008403080809140910891480008403F9
:1017000008080914091089108000840308080914C6
:10171000091089148000840308080914091089102D
:1017200080008403080809140910891480008403C8
:101730000808091409108910800084030808091496
:1017400009108914800084030808091409108910FD
:101750008000840308080914091089148000840398
:101760000808091409108910800084030808091466
:1017700009108914800084030808091409108910CD
:101780008000840308080914091089148000840368
:101790000808091409108910800084030808091436
:1017A000091089148000840308080914091089109D
:1017B0008000840308080914091089148000840338
:1017C0000808091409108910800084030808091406
:1017D000091089148000840308080914091089106D
:1017E0008000840308080914091089148000840308
:1017F00008080914091089108000840308080914D6
:10180000091089148000840308080914091089103C
:1018100080008403080809140910891480008403D7
:1018200008080914091089108000840308080914A5
:10183000091089148000840308080914091089100C
:1018400080008403080809140910891480008403A7
:101850000808091409108910800084030808091475
:1018600009108914800084030808091409108910DC
:101870008000840308080914091089148000840377
:101880000808091409108910800084030808091445
:1018900009108914800084030808091409108910AC
:1018A0008000840308080914091089148000840347
:1018B0000808091409108910800084030808091415
:1018C000091089148000840308080914091089107C
:1018D0008000840308080914091089148000840317
:1018E00008080914091089108000840308080914E5
:1018F000091089148000840308080914091089104C
:1019000080008403080809140910891480008403E6
:1019100008080914091089108000840308080914B4
:10192000091089148000840308080914091089101B
:1019300080008403080809140910891480008403B6
:101940000808091409108910800084030808091484
:1019500009108914800084030808091409108910EB
:101960008000840308080914091089148000840386
:101970000808091409108910800084030808091454
:1019800009108914800084030808091409108910BB
:101990008000840308080914091089148000840356
:1019A0000808091409108910800084030808091424
:1019B000091089148000840308080914091089108B
:1019C0008000840308080914091089148000831713
:1019D00008080914091089108000840A08080914ED
:1019E000091089148000840A080809140910891054
:1019F0008000840A08080914091089148000840AE8
:101A000008080914091089108000840A08080914BC
:101A1000091089148000840A080809140910891023
:101A20008000840A08080914091089148000840AB7
:101A300008080914091089108000840A080809148C
:101A4000091089148000840A0808091409108910F3
:101A50008000840A08080914091089148000840A87
:101A600008080914091089108000840A080809145C
:101A7000091089148000840A0808091409108910C3
:101A80008000840A08080914091089148000840A57
:101A900008080914091089108000840A080809142C
:101AA000091089148000840A080809140910891093
:101AB0008000840A08080914091089148000840A27
:101AC00008080914091089108000840A08080914FC
:101AD000091089148000840A080809140910891063
:101AE0008000840A08080914091089148000840AF7
:101AF00008080914091089108000840A08080914CC
:101B0000091089148000840A080809140910891032
:101B10008000840A08080914091089148000840AC6
:101B200008080914091089108000840A080809149B
:101B3000091089148000840A080809140910891002
:101B40008000840A08080914091089148000840A96
:101B500008080914091089108000840A080809146B
:101B6000091089148000840A0808091409108910D2
:101B70008000840A08080914091089148000840A66
:101B800008080914091089108000840A080809143B
:101B9000091089148000840A0808091409108910A2
:101BA0008000840A08080914091089148000840A36
:101BB00008080914091089108000840A080809140B
:101BC000091089148000840A080809140910891072
:101BD0008000840A08080914091089148000840A06
:101BE00008080914091089108000840A08080914DB
:101BF000091089148000840A080809140910891042
:101C00008000840A08080914091089148000840AD5
:101C100008080914091089108000840A08080914AA
:101C2000091089148000840A080809140910891011
:101C30008000840A08080914091089148000840AA5
:101C400008080914091089108000840A080809147A
:101C5000091089148000840A0808091409108910E1
:101C60008000840A08080914091089148000840A75
:101C700008080914091089108000840A080809144A
:101C8000091089148000840A0808091409108910B1
:101C90008000840A08080914091089148000840A45
:101CA00008080914091089108000840A080809141A
:101CB000091089148000840A080809140910891081
:101CC0008000840A0808091409108914800084130C
:101CD00008080914091089108000840308080914F1
:101CE0000910891480008403080809140910891058
:101CF00080008403080809140910891480008403F3
:101D000008080914091089108000840308080914C0
:101D10000910891480008403080809140910891027
:101D200080008403080809140910891480008403C2
:101D30000808091409108910800084030808091490
:101D400009108914800084030808091409108910F7
:101D50008000840308080914091089148000840392
:101D60000808091409108910800084030808091460
:101D700009108914800084030808091409108910C7
:101D80008000840308080914091089148000840362
:101D90000808091409108910800084030808091430
:101DA0000910891480008403080809140910891097
:101DB0008000840308080914091089148000840332
:101DC0000808091409108910800084030808091400
:101DD0000910891480008403080809140910891067
:101DE0008000840308080914091089148000840302
:101DF00008080914091089108000840308080914D0
:101E00000910891480008403080809140910891036
:101E100080008403080809140910891480008403D1
:101E2000080809140910891080008403080809149F
:101E30000910891480008403080809140910891006
:101E400080008403080809140910891480008403A1
:101E5000080809140910891080008403080809146F
:101E600009108914800084030808091409108910D6
:101E70008000840308080914091089148000840371
:101E8000080809140910891080008403080809143F
:101E900009108914800084030808091409108910A6
:101EA0008000840308080914091089148000840341
:101EB000080809140910891080008403080809140F
:101EC0000910891480008403080809140910891076
:101ED0008000840308080914091089148000840311
:101EE00008080914091089108000840308080914DF
:101EF0000910891480008403080809140910891046
:101F000080008403080809140910891480008403E0
:101F100008080914091089108000840308080914AE
:101F20000910891480008403080809140910891015
:101F300080008403080809140910891480008403B0
:101F4000080809140910891080008403080809147E
:101F500009108914800084030808091409108910E5
:101F60008000840308080914091089148000840380
:101F7000080809140910891080008403080809144E
:101F800009108914800084030808091409108910B5
:101F90008000840308080914091089148000840350
:101FA000080809140910891080008403080809141E
:101FB0000910891480008403080809140910891085
:101FC00080008403080809148A110A121C290910C8
:101FD0002030840000000808091409108000840AD9
:101FE00000000808091409108000840A000008088D
:101FF000091409108000840A000008080914091057
:102000008000840A00000808091409108000840A6E
:1020100000000808091409108000840A000008085C
:10202000091409108000840A000008080914091026
:102030008000840A00000808091409108000840A3E
:1020400000000808091409108000840A000008082C
:10205000091409108000840A0000080809140910F6
:102060008000840A00000808091409108000840A0E
:1020700000000808091409108000840A00000808FC
:10208000091409108000840A0000080809140910C6
:102090008000840A00000808091409108000840ADE
:1020A00000000808091409108000840A00000808CC
:1020B000091409108000840A000008080914091096
:1020C0008000840A00000808091409108000840AAE
:1020D00000000808091409108000840A000008089C
:1020E000091409108000840A000008080914091066
:1020F0008000840A00000808091409108000840A7E
:1021000000000808091409108000840A000008086B
:10211000091409108000840A000008080914091035
:102120008000840A00000808091409108000840A4D
:1021300000000808091409108000840A000008083B
:10214000091409108000840A000008080914091005
:102150008000840A00000808091409108000840A1D
:1021600000000808091409108000840A000008080B
:10217000091409108000840A0000080809140910D5
:102180008000840A00000808091409108000840AED
:1021900000000808091409108000840A00000808DB
:1021A000091409108000840A0000080809140910A5
:1021B0008000840A00000808091409108000840ABD
:1021C00000000808091409108000840A00000808AB
:1021D000091409108000840A000008080914091075
:1021E0008000840A00000808091409108000840A8D
:1021F00000000808091409108000840A000008087B
:10220000091409108000840A000008080914091044
:102210008000840A00000808091409108000840A5C
:1022200000000808091409108000840A000008084A
:10223000091409108000840A000008080914091014
:102240008000840A00000808091409108000840A2C
:1022500000000808091409108000840A000008081A
:10226000091409108000840A0000080809140910E4
:102270008000840A00000808091409108000840AFC
:1022800000000808091409108000840A00000808EA
:10229000091409108000840A0000080809140910B4
:1022A0008000840A00000808091409108000840ACC
:1022B00000000808091409108000840A00000808BA
:1022C000091409108000840A000008080914091084
:1022D0008000841700000808091409108000840396
:1022E0000000080809140910800084030000080891
:1022F000091409108000840300000808091409105B
:102300008000840300000808091409108000840379
:102310000000080809140910800084030000080860
:10232000091409108000840300000808091409102A
:102330008000840300000808091409108000840349
:102340000000080809140910800084030000080830
:1023500009140910800084030000080809140910FA
:102360008000840300000808091409108000840319
:102370000000080809140910800084030000080800
:1023800009140910800084030000080809140910CA
:1023900080008403000008080914091080008403E9
:1023A00000000808091409108000840300000808D0
:1023B000091409108000840300000808091409109A
:1023C00080008403000008080914091080008403B9
:1023D00000000808091409108000840300000808A0
:1023E000091409108000840300000808091409106A
:1023F0008000840300000808091409108000840389
:10240000000008080914091080008403000008086F
:102410000914091080008403000008080914091039
:102420008000840300000808091409108000840358
:10243000000008080914091080008403000008083F
:102440000914091080008403000008080914091009
:102450008000840300000808091409108000840328
:10246000000008080914091080008403000008080F
:1024700009140910800084030000080809140910D9
:1024800080008403000008080914091080008403F8
:1024900000000808091409108000840300000808DF
:1024A00009140910800084030000080809140910A9
:1024B00080008403000008080914091080008403C8
:1024C00000000808091409108000840300000808AF
:1024D0000914091080008403000008080914091079
:1024E0008000840300000808091409108000840398
:1024F000000008080914091080008403000008087F
:102500000914091080008403000008080914091048
:102510008000840300000808091409108000840367
:10252000000008080914091080008403000008084E
:102530000914091080008403000008080914091018
:102540008000840300000808091409108000840337
:10255000000008080914091080008403000008081E
:1025600009140910800084030000080809140910E8
:102570008000840300000808091409108000840307
:1025800000000808091409108000840300000808EE
:1025900009140910800084030000080809140910B8
:1025A00080008403000008080914091080008403D7
:1025B00000000808091409108000840300000808BE
:1025C0000914091080008403000008080914091088
:1025D0008000831700000808091409108000840A8D
:1025E00000000808091409108000840A0000080887
:1025F000091409108000840A000008080914091051
:102600008000840A00000808091409108000840A68
:1026100000000808091409108000840A0000080856
:10262000091409108000840A000008080914091020
:102630008000840A00000808091409108000840A38
:1026400000000808091409108000840A0000080826
:10265000091409108000840A0000080809140910F0
:102660008000840A00000808091409108000840A08
:1026700000000808091409108000840A00000808F6
:10268000091409108000840A0000080809140910C0
:102690008000840A00000808091409108000840AD8
:1026A00000000808091409108000840A00000808C6
:1026B000091409108000840A000008080914091090
:1026C0008000840A00000808091409108000840AA8
:1026D00000000808091409108000840A0000080896
:1026E000091409108000840A000008080914091060
:1026F0008000840A00000808091409108000840A78
:1027000000000808091409108000840A0000080865
:10271000091409108000840A00000808091409102F
:102720008000840A00000808091409108000840A47
:1027300000000808091409108000840A0000080835
:10274000091409108000840A0000080809140910FF
:102750008000840A00000808091409108000840A17
:1027600000000808091409108000840A0000080805
:10277000091409108000840A0000080809140910CF
:102780008000840A00000808091409108000840AE7
:1027900000000808091409108000840A00000808D5
:1027A000091409108000840A00000808091409109F
:1027B0008000840A00000808091409108000840AB7
:1027C00000000808091409108000840A00000808A5
:1027D000091409108000840A00000808091409106F
:1027E0008000840A00000808091409108000840A87
:1027F00000000808091409108000840A0000080875
:10280000091409108000840A00000808091409103E
:102810008000840A00000808091409108000840A56
:1028200000000808091409108000840A0000080844
:10283000091409108000840A00000808091409100E
:102840008000840A00000808091409108000840A26
:1028500000000808091409108000840A0000080814
:10286000091409108000840A0000080809140910DE
:102870008000840A00000808091409108000840AF6
:1028800000000808091409108000840A00000808E4
:10289000091409108000840A0000080809140910AE
:1028A0008000840A00000808091409108000840AC6
:1028B00000000808091409108000840A00000808B4
:1028C000091409108000840A00000808091409107E
:1028D0008000841300000808091409108000840394
:1028E000000008080914091080008403000008088B
:1028F0000914091080008403000008080914091055
:102900008000840300000808091409108000840373
:10291000000008080914091080008403000008085A
:102920000914091080008403000008080914091024
:102930008000840300000808091409108000840343
:10294000000008080914091080008403000008082A
:1029500009140910800084030000080809140910F4
:102960008000840300000808091409108000840313
:1029700000000808091409108000840300000808FA
:1029800009140910800084030000080809140910C4
:1029900080008403000008080914091080008403E3
:1029A00000000808091409108000840300000808CA
:1029B0000914091080008403000008080914091094
:1029C00080008403000008080914091080008403B3
:1029D000000008080914091080008403000008089A
:1029E0000914091080008403000008080914091064
:1029F0008000840300000808091409108000840383
:102A00000000080809140910800084030000080869
:102A10000914091080008403000008080914091033
:102A20008000840300000808091409108000840352
:102A30000000080809140910800084030000080839
:102A40000914091080008403000008080914091003
:102A50008000840300000808091409108000840322
:102A60000000080809140910800084030000080809
:102A700009140910800084030000080809140910D3
:102A800080008403000008080914091080008403F2
:102A900000000808091409108000840300000808D9
:102AA00009140910800084030000080809140910A3
:102AB00080008403000008080914091080008403C2
:102AC00000000808091409108000840300000808A9
:102AD0000914091080008403000008080914091073
:102AE0008000840300000808091409108000840392
:102AF0000000080809140910800084030000080879
:102B00000914091080008403000008080914091042
:102B10008000840300000808091409108000840361
:102B20000000080809140910800084030000080848
:102B30000914091080008403000008080914091012
:102B40008000840300000808091409108000840331
:102B50000000080809140910800084030000080818
:102B600009140910800084030000080809140910E2
:102B70008000840300000808091409108000840301
:102B800000000808091409108000840300000808E8
:102B900009140910800084030000080809140910B2
:102BA00080008403000008080914091080008403D1
:102BB00000000808091409108000840300000808B8
:102BC00009140910800084030000080809148A1100
:102BD0000A121C2915308A00790882070A168A1100
:102BE000FD2D0A168A110D2F0A168A1510280A16AD
:102BF0008A1513290A168A15172A0910203084000D
:102C000000000914091008088000840A091409103A
:102C100008088000840A0914091008088000840A42
:102C20000914091008088000840A0914091008080A
:102C30008000840A0914091008088000840A091415
:102C4000091008088000840A091409100808800087
:102C5000840A0914091008088000840A091409105C
:102C600008088000840A0914091008088000840AF2
:102C70000914091008088000840A091409100808BA
:102C80008000840A0914091008088000840A0914C5
:102C9000091008088000840A091409100808800037
:102CA000840A0914091008088000840A091409100C
:102CB00008088000840A0914091008088000840AA2
:102CC0000914091008088000840A0914091008086A
:102CD0008000840A0914091008088000840A091475
:102CE000091008088000840A0914091008088000E7
:102CF000840A0914091008088000840A09140910BC
:102D000008088000840A0914091008088000840A51
:102D10000914091008088000840A09140910080819
:102D20008000840A0914091008088000840A091424
:102D3000091008088000840A091409100808800096
:102D4000840A0914091008088000840A091409106B
:102D500008088000840A0914091008088000840A01
:102D60000914091008088000840A091409100808C9
:102D70008000840A0914091008088000840A0914D4
:102D8000091008088000840A091409100808800046
:102D9000840A0914091008088000840A091409101B
:102DA00008088000840A0914091008088000840AB1
:102DB0000914091008088000840A09140910080879
:102DC0008000840A0914091008088000840A091484
:102DD000091008088000840A0914091008088000F6
:102DE000840A0914091008088000840A09140910CB
:102DF00008088000840A0914091008088000840A61
:102E0000091408088000840A072F80008403033017
:102E1000F90786140A128A117E2800000910102F63
:102E200000000914091008088000840A0914091018
:102E300008088000840A0914091008088000840A20
:102E40000914091008088000840A091409100808E8
:102E50008000840A0914091008088000840A0914F3
:102E6000091008088000840A091409100808800065
:102E7000840A0914091008088000840A091409103A
:102E800008088000840A0914091008088000840AD0
:102E9000091409100808800084170914091008088B
:102EA00080008403091409100808800084030914B1
:102EB000091008088000840309140910080880001C
:102EC00084030914091008088000840309140910F8
:102ED000080880008403091409100808800084038E
:102EE000091409100808800084030914091008084F
:102EF0008000840309140910080880008403091461
:102F000009100808800084030914091008088000CB
:102F100084030914091008088000840309140910A7
:102F2000080880008403091409100808800084033D
:102F300009140910080880008403091409100808FE
:102F40008000840309140910080880008403091410
:102F5000091008088000840309140910080880007B
:102F60008403091409100808800084030914091057
:102F700008088000840309140910080880008403ED
:102F800009140910080880008403091409100808AE
:102F900080008403091409100808800084030914C0
:102FA000091008088000840309140910080880002B
:102FB0008403091409100808800084030914091007
:102FC000080880008403091409100808800084039D
:102FD000091409100808800084030914091008085E
:102FE0008000840309140910080880008403091470
:102FF00009100808800084030914091008088000DB
:1030000084030914091008088000840309140910B6
:10301000080880008403091408080A168A11052F7D
:10302000112809101328000009140910080880004D
:103030008403091409100808800084030914091086
:10304000080880008403091409100808800084031C
:1030500009140910080880008403091409100808DD
:1030600080008403091409100808800084030914EF
:10307000091008088000840309140910080880005A
:103080008403091409100808800084030914091036
:1030900008088000840309140910080880008403CC
:1030A000091409100808800084030914091008088D
:1030B000800084030914091008088000840309149F
:1030C000091008088000840309140910080880000A
:1030D00084030914091008088000840309140910E6
:1030E000080880008403091409100808800084037C
:1030F000091409100808800084030914091008083D
:10310000800084030914091008088000840309144E
:1031100009100808800084030914091008088000B9
:1031200083170914091008088000840A091409107B
:1031300008088000840A0914091008088000840A1D
:103140000914091008088000840A091409100808E5
:103150008000840A0914091008088000840A0914F0
:10316000091008088000840A091409100808800062
:10317000840A0914091008088000840A0914091037
:1031800008088000840A0914091008088000840ACD
:103190000914091008088000840A09140910080895
:1031A0008000840A0914091008088000840A0914A0
:1031B000091008088000840A091409100808800012
:1031C000840A0914091008088000840A09140910E7
:1031D00008088000840A0914091008088000840A7D
:1031E0000914091008088000840A09140910080845
:1031F0008000840A0914091008088000840A091450
:10320000091008088000840A0914091008088000C1
:10321000840A0914091008088000840A091408089F
:103220000A168A11022F142900000910172900001C
:103230000914091008088000840A091409100808F4
:103240008000840A0914091008088000840A0914FF
:10325000091008088000840A091409100808800071
:10326000840A0914091008088000840A0914091046
:1032700008088000840A0914091008088000840ADC
:103280000914091008088000840A091409100808A4
:103290008000840A0914091008088000840A0914AF
:1032A000091008088000840A091409100808800021
:1032B000840A0914091008088000840A09140910F6
:1032C00008088000840A0914091008088000840A8C
:1032D0000914091008088000840A09140910080854
:1032E0008000840A0914091008088000840A09145F
:1032F000091008088000840A0914091008088000D1
:10330000840A0914091008088000840A09140910A5
:1033100008088000840A0914091008088000840A3B
:103320000914091008088000840A09140910080803
:103330008000840A0914091008088000840A09140E
:10334000091008088000840A091409100808800080
:10335000840A0914091008088000840A0914091055
:1033600008088000840A0914091008088000840AEB
:103370000914091008088000840A091409100808B3
:103380008000840A0914091008088000840A0914BE
:10339000091008088000840A091409100808800030
:1033A000840A0914091008088000841309140910FC
:1033B00008088000840309140910080880008403A9
:1033C000091409100808800084030914091008086A
:1033D000800084030914091008088000840309147C
:1033E00009100808800084030914091008088000E7
:1033F00084030914091008088000840309140910C3
:103400000808800084030914091008088000840358
:103410000914091008088000840309140910080819
:1034200080008403091408080A168A11052F182A37
:103430000A128A1509100000E5281A308A00790856
:1034400082070A168A152A2A0A168A15312C0A16A4
:103450008A15322E09102030840000000808091453
:1034600009108000840A000008080914091080006F
:10347000840A00000808091409108000840A00006A
:103480000808091409108000840A000008080914BB
:1034900009108000840A000008080914091080003F
:1034A000840A00000808091409108000840A00003A
:1034B0000808091409108000840A0000080809148B
:1034C00009108000840A000008080914091080000F
:1034D000840A00000808091409108000840A00000A
:1034E0000808091409108000840A0000080809145B
:1034F00009108000840A00000808091409108000DF
:10350000840A00000808091409108000840A0000D9
:103510000808091409108000840A0000080809142A
:1035200009108000840A00000808091409108000AE
:10353000840A00000808091409108000840A0000A9
:103540000808091409108000840A000008080914FA
:1035500009108000840A000008080914091080007E
:10356000840A00000808091409108000840A000079
:103570000808091409108000840A000008080914CA
:1035800009108000840A000008080914091080004E
:10359000840A00000808091409108000840A000049
:1035A0000808091409108000840A0000080809149A
:1035B00009108000840A000008080914091080001E
:1035C000840A00000808091409108000840A000019
:1035D0000808091409108000840A0000080809146A
:1035E00009108000840A00000808091409108000EE
:1035F000840A00000808091409108000840A0000E9
:103600000808091409108000840A00000808091439
:1036100009108000840A00000808091409108000BD
:10362000840A00000808091409108000840A0000B8
:103630000808091409108000840A00000808091409
:1036400009108000840A000008080914091080008D
:10365000840A00000808091409108000840A000088
:103660000808091409108000840A000008080914D9
:1036700009108000840A000008080914091080005D
:10368000840A00000808091409108000840A000058
:103690000808091409108000840A000008080914A9
:1036A00009108000840A000008080914091080002D
:1036B000840A00000808091409108000840A000028
:1036C0000808091409108000840A00000808091479
:1036D00009108000840A00000808091409108000FD
:1036E000840A00000808091409108000840A0000F8
:1036F0000808091409108000840A00000808091449
:1037000009108000840A00000808091409108000CC
:10371000840A00000808091409108000840A0000C7
:103720000808091409108000840A00000808091418
:1037300009108000840A000008080914091080009C
:10374000840A00000808091409108000840A000097
:1037500008080914091080008417000008080914DB
:103760000910800084030000080809140910800073
:103770008403000008080914091080008403000075
:1037800008080914091080008403000008080914BF
:103790000910800084030000080809140910800043
:1037A0008403000008080914091080008403000045
:1037B000080809140910800084030000080809148F
:1037C0000910800084030000080809140910800013
:1037D0008403000008080914091080008403000015
:1037E000080809140910800084030000080809145F
:1037F00009108000840300000808091409108000E3
:1038000084030000080809140910800084030000E4
:10381000080809140910800084030000080809142E
:1038200009108000840300000808091409108000B2
:1038300084030000080809140910800084030000B4
:1038400008080914091080008403000008080914FE
:103850000910800084030000080809140A168A1160
:10386000052F322C0910342C000008080914091007
:1038700080008403000008080914091080008403F4
:1038800000000808091409108000840300000808DB
:1038900009140910800084030000080809140910A5
:1038A00080008403000008080914091080008403C4
:1038B00000000808091409108000840300000808AB
:1038C0000914091080008403000008080914091075
:1038D0008000840300000808091409108000840394
:1038E000000008080914091080008403000008087B
:1038F0000914091080008403000008080914091045
:103900008000840300000808091409108000840363
:10391000000008080914091080008403000008084A
:103920000914091080008403000008080914091014
:103930008000840300000808091409108000840333
:10394000000008080914091080008403000008081A
:1039500009140910800084030000080809140910E4
:103960008000840300000808091409108000840303
:1039700000000808091409108000840300000808EA
:1039800009140910800084030000080809140910B4
:1039900080008403000008080914091080008403D3
:1039A00000000808091409108000840300000808BA
:1039B0000914091080008403000008080914091084
:1039C00080008403000008080914091080008403A3
:1039D000000008080914091080008403000008088A
:1039E0000914091080008403000008080914091054
:1039F0008000840300000808091409108000840373
:103A00000000080809140910800084030000080859
:103A10000914091080008403000008080914091023
:103A20008000840300000808091409108000840342
:103A30000000080809140910800084030000080829
:103A400009140910800084030000080809140910F3
:103A500080008403000008080914091080008317FF
:103A600000000808091409108000840A00000808F2
:103A7000091409108000840A0000080809140910BC
:103A80008000840A00000808091409108000840AD4
:103A900000000808091409108000840A00000808C2
:103AA000091409108000840A00000808091409108C
:103AB0008000840A00000808091409108000840AA4
:103AC00000000808091409108000840A0000080892
:103AD000091409108000840A00000808091409105C
:103AE0008000840A00000808091409108000840A74
:103AF00000000808091409108000840A0000080862
:103B0000091409108000840A00000808091409102B
:103B10008000840A00000808091409108000840A43
:103B200000000808091409108000840A0000080831
:103B3000091409108000840A0000080809140910FB
:103B40008000840A00000808091409108000840A13
:103B500000000808091409108000840A0000080801
:103B6000091409108000840A0000080809140910CB
:103B70008000840A00000808091409108000840AE3
:103B800000000808091409108000840A00000808D1
:103B9000091409108000840A00000808091409109B
:103BA0008000840A00000808091409108000840AB3
:103BB00000000808091409108000840A00000808A1
:103BC000091409108000840A00000808091409106B
:103BD0008000840A00000808091409108000840A83
:103BE00000000808091409108000840A0000080871
:103BF000091409108000840A00000808091409103B
:103C00008000840A00000808091409108000840A52
:103C100000000808091409108000840A0000080840
:103C2000091409108000840A00000808091409100A
:103C30008000840A00000808091409108000840A22
:103C400000000808091409108000840A0000080810
:103C5000091409108000840A0000080809140A16D3
:103C60008A11022F332E0A168A1109100000ED2B3B
:084000000100020003000400AE
:02400E00F2209E
:02401000FF3F70
:00000001FF
